{"contracts/swap.sol":{"ProSwap":{"abi":[{"inputs":[{"internalType":"address","name":"_feeAccount","type":"address"},{"internalType":"address","name":"_router","type":"address"},{"internalType":"address","name":"_wavax","type":"address"},{"internalType":"address","name":"_rewardAddress","type":"address"}],"stateMutability":"nonpayable","type":"constructor"},{"anonymous":false,"inputs":[{"indexed":true,"internalType":"address","name":"previousOwner","type":"address"},{"indexed":true,"internalType":"address","name":"newOwner","type":"address"}],"name":"OwnershipTransferred","type":"event"},{"inputs":[],"name":"airdrop","outputs":[],"stateMutability":"nonpayable","type":"function"},{"inputs":[{"internalType":"uint256","name":"amount","type":"uint256"}],"name":"claimETH","outputs":[],"stateMutability":"nonpayable","type":"function"},{"inputs":[{"internalType":"address","name":"tokenAddress","type":"address"},{"internalType":"uint256","name":"amount","type":"uint256"}],"name":"claimToken","outputs":[],"stateMutability":"nonpayable","type":"function"},{"inputs":[{"internalType":"address","name":"_tokenA","type":"address"},{"internalType":"address","name":"_tokenB","type":"address"},{"internalType":"uint256","name":"_amountIn","type":"uint256"},{"internalType":"address[]","name":"path","type":"address[]"}],"name":"customSwapTokens","outputs":[],"stateMutability":"payable","type":"function"},{"inputs":[{"internalType":"address","name":"_token","type":"address"},{"internalType":"uint256","name":"_amount","type":"uint256"}],"name":"emergencyWithdraw","outputs":[],"stateMutability":"nonpayable","type":"function"},{"inputs":[{"internalType":"uint256","name":"_amount","type":"uint256"}],"name":"emergencyWithdrawETH","outputs":[],"stateMutability":"nonpayable","type":"function"},{"inputs":[],"name":"factoryAddress","outputs":[{"internalType":"address","name":"","type":"address"}],"stateMutability":"view","type":"function"},{"inputs":[],"name":"feeAccount","outputs":[{"internalType":"address","name":"","type":"address"}],"stateMutability":"view","type":"function"},{"inputs":[],"name":"feePercent","outputs":[{"internalType":"uint256","name":"","type":"uint256"}],"stateMutability":"view","type":"function"},{"inputs":[{"internalType":"uint256","name":"inputAmount","type":"uint256"},{"internalType":"address[]","name":"path","type":"address[]"}],"name":"getOutputTokenAmount","outputs":[{"internalType":"uint256","name":"outputAmount","type":"uint256"}],"stateMutability":"view","type":"function"},{"inputs":[{"internalType":"uint256","name":"_inputAmount","type":"uint256"},{"internalType":"address","name":"_tokenIn","type":"address"},{"internalType":"address","name":"_tokenOut","type":"address"}],"name":"getV3OutputTokenAmount","outputs":[{"internalType":"uint256","name":"outputAmount","type":"uint256"}],"stateMutability":"view","type":"function"},{"inputs":[],"name":"owner","outputs":[{"internalType":"address","name":"","type":"address"}],"stateMutability":"view","type":"function"},{"inputs":[],"name":"renounceOwnership","outputs":[],"stateMutability":"nonpayable","type":"function"},{"inputs":[],"name":"rewardAddress","outputs":[{"internalType":"address","name":"","type":"address"}],"stateMutability":"view","type":"function"},{"inputs":[],"name":"rewardAmount","outputs":[{"internalType":"uint256","name":"","type":"uint256"}],"stateMutability":"view","type":"function"},{"inputs":[],"name":"router","outputs":[{"internalType":"address","name":"","type":"address"}],"stateMutability":"view","type":"function"},{"inputs":[],"name":"routerAddress","outputs":[{"internalType":"address","name":"","type":"address"}],"stateMutability":"view","type":"function"},{"inputs":[{"internalType":"address","name":"_feeAccount","type":"address"}],"name":"setFeeAccount","outputs":[],"stateMutability":"nonpayable","type":"function"},{"inputs":[{"internalType":"uint256","name":"_feePercent","type":"uint256"}],"name":"setFeePercent","outputs":[],"stateMutability":"nonpayable","type":"function"},{"inputs":[{"internalType":"uint256","name":"_amount","type":"uint256"}],"name":"setRewardAmount","outputs":[],"stateMutability":"nonpayable","type":"function"},{"inputs":[{"internalType":"address","name":"_rewawrdAddress","type":"address"}],"name":"setRewardToken","outputs":[],"stateMutability":"nonpayable","type":"function"},{"inputs":[{"internalType":"address","name":"_router","type":"address"},{"internalType":"address","name":"_wavax","type":"address"}],"name":"setRouterWAVAX","outputs":[],"stateMutability":"nonpayable","type":"function"},{"inputs":[{"internalType":"address","name":"_tokenIn","type":"address"},{"internalType":"address","name":"_tokenOut","type":"address"},{"internalType":"uint256","name":"_amountIn","type":"uint256"}],"name":"swapTokens","outputs":[],"stateMutability":"payable","type":"function"},{"inputs":[{"internalType":"address","name":"_tokenA","type":"address"},{"internalType":"address","name":"_tokenB","type":"address"},{"internalType":"uint256","name":"_amountIn","type":"uint256"}],"name":"swapV2Tokens","outputs":[],"stateMutability":"payable","type":"function"},{"inputs":[{"internalType":"address","name":"newOwner","type":"address"}],"name":"transferOwnership","outputs":[],"stateMutability":"nonpayable","type":"function"},{"inputs":[],"name":"wavax","outputs":[{"internalType":"address","name":"","type":"address"}],"stateMutability":"view","type":"function"},{"inputs":[],"name":"wbnbAddress","outputs":[{"internalType":"address","name":"","type":"address"}],"stateMutability":"view","type":"function"}],"devdoc":{"kind":"dev","methods":{"owner()":{"details":"Returns the address of the current owner."},"renounceOwnership()":{"details":"Leaves the contract without owner. It will not be possible to call `onlyOwner` functions anymore. Can only be called by the current owner. NOTE: Renouncing ownership will leave the contract without an owner, thereby removing any functionality that is only available to the owner."},"transferOwnership(address)":{"details":"Transfers ownership of the contract to a new account (`newOwner`). Can only be called by the current owner."}},"version":1},"evm":{"bytecode":{"linkReferences":{},"object":"60806040526000600155678ac7230489e80000600255600780546001600160a01b03199081167313f4ea83d0bd40e75c8222255bc855a974568dd41790915560088054909116730bfbcf9fa4f9c56b0f40a671ad40e0805a091865179055600980547464bb4cdb9cbd36b01bd1cbaebf2de08d9173bc095c6001600160b81b03199091161790553480156200009357600080fd5b50604051620024a7380380620024a7833981016040819052620000b69162000182565b620000c13362000115565b600480546001600160a01b039586166001600160a01b0319918216179091556005805494861694821694909417909355600680549285169284169290921790915560038054919093169116179055620001de565b600080546001600160a01b038381166001600160a01b0319831681178455604051919092169283917f8be0079c531659141344cd1fd0a4f28419497f9722a3daafe3b4186f6b6457e09190a35050565b80516001600160a01b03811681146200017d57600080fd5b919050565b6000806000806080858703121562000198578384fd5b620001a38562000165565b9350620001b36020860162000165565b9250620001c36040860162000165565b9150620001d36060860162000165565b905092959194509250565b6122b980620001ee6000396000f3fe60806040526004361061019c5760003560e01c80638cf57cb9116100ec578063c36c557f1161008a578063f2fde38b11610064578063f2fde38b14610465578063f7b2a7be14610485578063f887ea401461049b578063fe96973a146104bb57600080fd5b8063c36c557f14610412578063d654e9a414610432578063ec6cc0cc1461045257600080fd5b8063966dae0e116100c6578063966dae0e1461039f5780639cf355ad146103bf5780639de2827b146103df578063a8a65a78146103f257600080fd5b80638cf57cb9146103415780638da5cb5b1461036157806395ccea671461037f57600080fd5b806363fe3e3a11610159578063715018a611610133578063715018a6146102c85780637ce3489b146102dd5780637fd6f15c146102fd5780638aee81271461032157600080fd5b806363fe3e3a1461026857806365e17c9d146102885780636b792c4b146102a857600080fd5b8063117be4c2146101a15780631698755f146101de5780633268cc56146102005780633884d635146102205780634b023cf8146102355780634ce222da14610255575b600080fd5b3480156101ad57600080fd5b506006546101c1906001600160a01b031681565b6040516001600160a01b0390911681526020015b60405180910390f35b3480156101ea57600080fd5b506101fe6101f9366004611c4c565b6104db565b005b34801561020c57600080fd5b506007546101c1906001600160a01b031681565b34801561022c57600080fd5b506101fe6105b5565b34801561024157600080fd5b506101fe610250366004611b32565b6106bd565b6101fe610263366004611ba2565b610709565b34801561027457600080fd5b506009546101c1906001600160a01b031681565b34801561029457600080fd5b506004546101c1906001600160a01b031681565b3480156102b457600080fd5b506101fe6102c3366004611dbe565b6108e8565b3480156102d457600080fd5b506101fe61094f565b3480156102e957600080fd5b506101fe6102f8366004611dbe565b610985565b34801561030957600080fd5b5061031360015481565b6040519081526020016101d5565b34801561032d57600080fd5b506101fe61033c366004611b32565b6109b4565b34801561034d57600080fd5b506003546101c1906001600160a01b031681565b34801561036d57600080fd5b506000546001600160a01b03166101c1565b34801561038b57600080fd5b506101fe61039a366004611c4c565b610a00565b3480156103ab57600080fd5b506008546101c1906001600160a01b031681565b3480156103cb57600080fd5b506101fe6103da366004611b6a565b610a3e565b6101fe6103ed366004611be2565b610a96565b3480156103fe57600080fd5b506101fe61040d366004611dbe565b610cb4565b34801561041e57600080fd5b5061031361042d366004611dee565b610ce3565b34801561043e57600080fd5b5061031361044d366004611e2f565b610ef4565b6101fe610460366004611ba2565b610fc0565b34801561047157600080fd5b506101fe610480366004611b32565b61125b565b34801561049157600080fd5b5061031360025481565b3480156104a757600080fd5b506005546101c1906001600160a01b031681565b3480156104c757600080fd5b506101fe6104d6366004611dbe565b6112f6565b6000546001600160a01b0316331461050e5760405162461bcd60e51b815260040161050590611f7d565b60405180910390fd5b816001600160a01b031663a9059cbb61052f6000546001600160a01b031690565b6040516001600160e01b031960e084901b1681526001600160a01b039091166004820152602481018490526044015b602060405180830381600087803b15801561057857600080fd5b505af115801561058c573d6000803e3d6000fd5b505050506040513d601f19601f820116820180604052508101906105b09190611d0a565b505050565b336000908152600a602052604090205442906105d490620151806120ba565b116106215760405162461bcd60e51b815260206004820152601c60248201527f596f7520646964206e6f74207377617020696e20323420686f757273000000006044820152606401610505565b336000908152600b602052604090205461063e90620151806120ba565b421161068c5760405162461bcd60e51b815260206004820152601960248201527f596f752061697264726f70656420696e20323420686f757273000000000000006044820152606401610505565b6002546003546106a9916001600160a01b039091169033906113ba565b336000908152600b60205260409020429055565b6000546001600160a01b031633146106e75760405162461bcd60e51b815260040161050590611f7d565b600480546001600160a01b0319166001600160a01b0392909216919091179055565b336000908152600a60205260408082204290558051600280825260608201909252908160200160208202803683370190505090506001600160a01b0384166107e25760065481516001600160a01b0390911690829060009061077b57634e487b7160e01b600052603260045260246000fd5b60200260200101906001600160a01b031690816001600160a01b03168152505082816001815181106107bd57634e487b7160e01b600052603260045260246000fd5b60200260200101906001600160a01b031690816001600160a01b0316815250506108d6565b6001600160a01b03831661085157838160008151811061081257634e487b7160e01b600052603260045260246000fd5b6001600160a01b0392831660209182029290920101526006548251911690829060019081106107bd57634e487b7160e01b600052603260045260246000fd5b838160008151811061087357634e487b7160e01b600052603260045260246000fd5b60200260200101906001600160a01b031690816001600160a01b03168152505082816001815181106108b557634e487b7160e01b600052603260045260246000fd5b60200260200101906001600160a01b031690816001600160a01b0316815250505b6108e28484848461141d565b50505050565b6000546001600160a01b031633146109125760405162461bcd60e51b815260040161050590611f7d565b600080546040516001600160a01b039091169183156108fc02918491818181858888f1935050505015801561094b573d6000803e3d6000fd5b5050565b6000546001600160a01b031633146109795760405162461bcd60e51b815260040161050590611f7d565b61098360006115ed565b565b6000546001600160a01b031633146109af5760405162461bcd60e51b815260040161050590611f7d565b600155565b6000546001600160a01b031633146109de5760405162461bcd60e51b815260040161050590611f7d565b600380546001600160a01b0319166001600160a01b0392909216919091179055565b6000546001600160a01b03163314610a2a5760405162461bcd60e51b815260040161050590611f7d565b61094b6001600160a01b03831633836113ba565b6000546001600160a01b03163314610a685760405162461bcd60e51b815260040161050590611f7d565b600580546001600160a01b039384166001600160a01b03199182161790915560068054929093169116179055565b6001600160a01b038416610b535780600081518110610ac557634e487b7160e01b600052603260045260246000fd5b60209081029190910101516006546001600160a01b039081169116148015610b3257508060018251610af791906121ff565b81518110610b1557634e487b7160e01b600052603260045260246000fd5b60200260200101516001600160a01b0316836001600160a01b0316145b610b4e5760405162461bcd60e51b815260040161050590611f3b565b6108d6565b6001600160a01b038316610c0a5780600081518110610b8257634e487b7160e01b600052603260045260246000fd5b60200260200101516001600160a01b0316846001600160a01b0316148015610b3257508060018251610bb491906121ff565b81518110610bd257634e487b7160e01b600052603260045260246000fd5b60209081029190910101516006546001600160a01b03908116911614610b4e5760405162461bcd60e51b815260040161050590611f3b565b80600081518110610c2b57634e487b7160e01b600052603260045260246000fd5b60200260200101516001600160a01b0316846001600160a01b0316148015610c9857508060018251610c5d91906121ff565b81518110610c7b57634e487b7160e01b600052603260045260246000fd5b60200260200101516001600160a01b0316836001600160a01b0316145b6108d65760405162461bcd60e51b815260040161050590611f3b565b6000546001600160a01b03163314610cde5760405162461bcd60e51b815260040161050590611f7d565b600255565b600854600954604051630b4c774160e11b81526001600160a01b0385811660048301528481166024830152600160a01b90920462ffffff16604482015260009283928392911690631698ee829060640160206040518083038186803b158015610d4b57600080fd5b505afa158015610d5f573d6000803e3d6000fd5b505050506040513d601f19601f82011682018060405250810190610d839190611b4e565b9050806001600160a01b0316633850c7bd6040518163ffffffff1660e01b815260040160e06040518083038186803b158015610dbe57600080fd5b505afa158015610dd2573d6000803e3d6000fd5b505050506040513d601f19601f82011682018060405250810190610df69190611d24565b505060408051630dfe168160e01b815290516001600160a01b03968716985060009688169550630dfe1681945060048083019450602093509091829003018186803b158015610e4457600080fd5b505afa158015610e58573d6000803e3d6000fd5b505050506040513d601f19601f82011682018060405250810190610e7c9190611b4e565b9050806001600160a01b0316866001600160a01b03161415610ec457600160c01b87610ea9600286612135565b610eb391906121e0565b610ebd91906120d2565b9350610eea565b610ecf600284612135565b610edd88600160c01b6121e0565b610ee791906120d2565b93505b5050509392505050565b60055460405163d06ca61f60e01b815260009182916001600160a01b039091169063d06ca61f90610f2b9087908790600401612010565b60006040518083038186803b158015610f4357600080fd5b505afa158015610f57573d6000803e3d6000fd5b505050506040513d6000823e601f3d908101601f19168201604052610f7f9190810190611c77565b90508060018251610f9091906121ff565b81518110610fae57634e487b7160e01b600052603260045260246000fd5b60200260200101519150505b92915050565b336000818152600a60209081526040808320429055805160e0810182526001600160a01b038881168083528882169483019490945260095462ffffff600160a01b8204169383019390935260608201959095526080810186905260a0810184905260c081019390935291929190911614156110bf576007546040516304e45aaf60e01b81526001600160a01b03909116906304e45aaf903490611067908590600401611fb2565b6020604051808303818588803b15801561108057600080fd5b505af1158015611094573d6000803e3d6000fd5b50505050506040513d601f19601f820116820180604052508101906110b99190611dd6565b50611164565b6110d46001600160a01b03851633308561163d565b6110de8483611675565b6007546040516304e45aaf60e01b81526001600160a01b03909116906304e45aaf903490611110908590600401611fb2565b6020604051808303818588803b15801561112957600080fd5b505af115801561113d573d6000803e3d6000fd5b50505050506040513d601f19601f820116820180604052508101906111629190611dd6565b505b600760009054906101000a90046001600160a01b03166001600160a01b03166312210e8a6040518163ffffffff1660e01b8152600401600060405180830381600087803b1580156111b457600080fd5b505af11580156111c8573d6000803e3d6000fd5b50506040516000925033915047908381818185875af1925050503d806000811461120e576040519150601f19603f3d011682016040523d82523d6000602084013e611213565b606091505b50509050806112545760405162461bcd60e51b815260206004820152600d60248201526c1c99599d5b990819985a5b1959609a1b6044820152606401610505565b5050505050565b6000546001600160a01b031633146112855760405162461bcd60e51b815260040161050590611f7d565b6001600160a01b0381166112ea5760405162461bcd60e51b815260206004820152602660248201527f4f776e61626c653a206e6577206f776e657220697320746865207a65726f206160448201526564647265737360d01b6064820152608401610505565b6112f3816115ed565b50565b6000546001600160a01b031633146113205760405162461bcd60e51b815260040161050590611f7d565b600080546040516001600160a01b039091169083908381818185875af1925050503d806000811461136d576040519150601f19603f3d011682016040523d82523d6000602084013e611372565b606091505b505090508061094b5760405162461bcd60e51b81526020600482015260146024820152732330b4b632b2103a379039b2b7321022ba3432b960611b6044820152606401610505565b6040516001600160a01b0383166024820152604481018290526105b090849063a9059cbb60e01b906064015b60408051601f198184030181529190526020810180516001600160e01b03166001600160e01b0319909316929092179091526116ae565b600082116114815760405162461bcd60e51b815260206004820152602b60248201527f506174746965537761703a20616d6f756e74496e206d7573742062652067726560448201526a061746572207468616e20360ac1b6064820152608401610505565b6001600160a01b03841661155757348210156114df5760405162461bcd60e51b815260206004820152601c60248201527f506174746965537761703a20496e73756666696369656e7420455448000000006044820152606401610505565b6000612710600154846114f291906121e0565b6114fc91906120d2565b6004546040519192506001600160a01b03169082156108fc029083906000818181858888f19350505050158015611537573d6000803e3d6000fd5b50600061154482856121ff565b90506115508184611780565b50506108e2565b61156c6001600160a01b03851633308561163d565b60006127106001548461157f91906121e0565b61158991906120d2565b6004549091506115a6906001600160a01b038781169116836113ba565b60006115b282856121ff565b90506115be868261180f565b6001600160a01b0385166115db576115d68184611848565b6115e5565b6115e581846118d7565b505050505050565b600080546001600160a01b038381166001600160a01b0319831681178455604051919092169283917f8be0079c531659141344cd1fd0a4f28419497f9722a3daafe3b4186f6b6457e09190a35050565b6040516001600160a01b03808516602483015283166044820152606481018290526108e29085906323b872dd60e01b906084016113e6565b60075460405163095ea7b360e01b81526001600160a01b039182166004820152602481018390529083169063095ea7b39060440161055e565b6000611703826040518060400160405280602081526020017f5361666545524332303a206c6f772d6c6576656c2063616c6c206661696c6564815250856001600160a01b03166119109092919063ffffffff16565b8051909150156105b057808060200190518101906117219190611d0a565b6105b05760405162461bcd60e51b815260206004820152602a60248201527f5361666545524332303a204552433230206f7065726174696f6e20646964206e6044820152691bdd081cdd58d8d9595960b21b6064820152608401610505565b600554604051637ff36ab560e01b81526001600160a01b0390911690637ff36ab59084906117b990600090869033904290600401611ed3565b6000604051808303818588803b1580156117d257600080fd5b505af11580156117e6573d6000803e3d6000fd5b50505050506040513d6000823e601f3d908101601f191682016040526105b09190810190611c77565b60055460405163095ea7b360e01b81526001600160a01b039182166004820152602481018390529083169063095ea7b39060440161055e565b6005546040516318cbafe560e01b81526001600160a01b03909116906318cbafe590611881908590600090869033904290600401612029565b600060405180830381600087803b15801561189b57600080fd5b505af11580156118af573d6000803e3d6000fd5b505050506040513d6000823e601f3d908101601f191682016040526105b09190810190611c77565b6005546040516338ed173960e01b81526001600160a01b03909116906338ed173990611881908590600090869033904290600401612029565b606061191f8484600085611929565b90505b9392505050565b60608247101561198a5760405162461bcd60e51b815260206004820152602660248201527f416464726573733a20696e73756666696369656e742062616c616e636520666f6044820152651c8818d85b1b60d21b6064820152608401610505565b6001600160a01b0385163b6119e15760405162461bcd60e51b815260206004820152601d60248201527f416464726573733a2063616c6c20746f206e6f6e2d636f6e74726163740000006044820152606401610505565b600080866001600160a01b031685876040516119fd9190611eb7565b60006040518083038185875af1925050503d8060008114611a3a576040519150601f19603f3d011682016040523d82523d6000602084013e611a3f565b606091505b5091509150611a4f828286611a5a565b979650505050505050565b60608315611a69575081611922565b825115611a795782518084602001fd5b8160405162461bcd60e51b81526004016105059190611f08565b600082601f830112611aa3578081fd5b81356020611ab8611ab383612096565b612065565b80838252828201915082860187848660051b8901011115611ad7578586fd5b855b85811015611afe578135611aec8161226e565b84529284019290840190600101611ad9565b5090979650505050505050565b80518015158114611b1b57600080fd5b919050565b805161ffff81168114611b1b57600080fd5b600060208284031215611b43578081fd5b81356119228161226e565b600060208284031215611b5f578081fd5b81516119228161226e565b60008060408385031215611b7c578081fd5b8235611b878161226e565b91506020830135611b978161226e565b809150509250929050565b600080600060608486031215611bb6578081fd5b8335611bc18161226e565b92506020840135611bd18161226e565b929592945050506040919091013590565b60008060008060808587031215611bf7578081fd5b8435611c028161226e565b93506020850135611c128161226e565b925060408501359150606085013567ffffffffffffffff811115611c34578182fd5b611c4087828801611a93565b91505092959194509250565b60008060408385031215611c5e578182fd5b8235611c698161226e565b946020939093013593505050565b60006020808385031215611c89578182fd5b825167ffffffffffffffff811115611c9f578283fd5b8301601f81018513611caf578283fd5b8051611cbd611ab382612096565b80828252848201915084840188868560051b8701011115611cdc578687fd5b8694505b83851015611cfe578051835260019490940193918501918501611ce0565b50979650505050505050565b600060208284031215611d1b578081fd5b61192282611b0b565b600080600080600080600060e0888a031215611d3e578283fd5b8751611d498161226e565b8097505060208801518060020b8114611d60578384fd5b9550611d6e60408901611b20565b9450611d7c60608901611b20565b9350611d8a60808901611b20565b925060a088015163ffffffff81168114611da2578283fd5b9150611db060c08901611b0b565b905092959891949750929550565b600060208284031215611dcf578081fd5b5035919050565b600060208284031215611de7578081fd5b5051919050565b600080600060608486031215611e02578081fd5b833592506020840135611e148161226e565b91506040840135611e248161226e565b809150509250925092565b60008060408385031215611e41578182fd5b82359150602083013567ffffffffffffffff811115611e5e578182fd5b611e6a85828601611a93565b9150509250929050565b6000815180845260208085019450808401835b83811015611eac5781516001600160a01b031687529582019590820190600101611e87565b509495945050505050565b60008251611ec9818460208701612216565b9190910192915050565b848152608060208201526000611eec6080830186611e74565b6001600160a01b03949094166040830152506060015292915050565b6020815260008251806020840152611f27816040850160208701612216565b601f01601f19169190910160400192915050565b60208082526022908201527f506174746965537761703a2050617468206d7573742062652073706563696669604082015261195960f21b606082015260800190565b6020808252818101527f4f776e61626c653a2063616c6c6572206973206e6f7420746865206f776e6572604082015260600190565b81516001600160a01b03908116825260208084015182169083015260408084015162ffffff16908301526060808401518216908301526080808401519083015260a0838101519083015260c092830151169181019190915260e00190565b82815260406020820152600061191f6040830184611e74565b85815284602082015260a06040820152600061204860a0830186611e74565b6001600160a01b0394909416606083015250608001529392505050565b604051601f8201601f1916810167ffffffffffffffff8111828210171561208e5761208e612258565b604052919050565b600067ffffffffffffffff8211156120b0576120b0612258565b5060051b60200190565b600082198211156120cd576120cd612242565b500190565b6000826120ed57634e487b7160e01b81526012600452602481fd5b500490565b600181815b8085111561212d57816000190482111561211357612113612242565b8085161561212057918102915b93841c93908002906120f7565b509250929050565b600061192260ff84168360008261214e57506001610fba565b8161215b57506000610fba565b8160018114612171576002811461217b57612197565b6001915050610fba565b60ff84111561218c5761218c612242565b50506001821b610fba565b5060208310610133831016604e8410600b84101617156121ba575081810a610fba565b6121c483836120f2565b80600019048211156121d8576121d8612242565b029392505050565b60008160001904831182151516156121fa576121fa612242565b500290565b60008282101561221157612211612242565b500390565b60005b83811015612231578181015183820152602001612219565b838111156108e25750506000910152565b634e487b7160e01b600052601160045260246000fd5b634e487b7160e01b600052604160045260246000fd5b6001600160a01b03811681146112f357600080fdfea26469706673582212209dbda73b49fc160183e00ef6842ab42a1920167db1dbb584c649c9398e194f1c64736f6c63430008040033","opcodes":"PUSH1 0x80 PUSH1 0x40 MSTORE PUSH1 0x0 PUSH1 0x1 SSTORE PUSH8 0x8AC7230489E80000 PUSH1 0x2 SSTORE PUSH1 0x7 DUP1 SLOAD PUSH1 0x1 PUSH1 0x1 PUSH1 0xA0 SHL SUB NOT SWAP1 DUP2 AND PUSH20 0x13F4EA83D0BD40E75C8222255BC855A974568DD4 OR SWAP1 SWAP2 SSTORE PUSH1 0x8 DUP1 SLOAD SWAP1 SWAP2 AND PUSH20 0xBFBCF9FA4F9C56B0F40A671AD40E0805A091865 OR SWAP1 SSTORE PUSH1 0x9 DUP1 SLOAD PUSH21 0x64BB4CDB9CBD36B01BD1CBAEBF2DE08D9173BC095C PUSH1 0x1 PUSH1 0x1 PUSH1 0xB8 SHL SUB NOT SWAP1 SWAP2 AND OR SWAP1 SSTORE CALLVALUE DUP1 ISZERO PUSH3 0x93 JUMPI PUSH1 0x0 DUP1 REVERT JUMPDEST POP PUSH1 0x40 MLOAD PUSH3 0x24A7 CODESIZE SUB DUP1 PUSH3 0x24A7 DUP4 CODECOPY DUP2 ADD PUSH1 0x40 DUP2 SWAP1 MSTORE PUSH3 0xB6 SWAP2 PUSH3 0x182 JUMP JUMPDEST PUSH3 0xC1 CALLER PUSH3 0x115 JUMP JUMPDEST PUSH1 0x4 DUP1 SLOAD PUSH1 0x1 PUSH1 0x1 PUSH1 0xA0 SHL SUB SWAP6 DUP7 AND PUSH1 0x1 PUSH1 0x1 PUSH1 0xA0 SHL SUB NOT SWAP2 DUP3 AND OR SWAP1 SWAP2 SSTORE PUSH1 0x5 DUP1 SLOAD SWAP5 DUP7 AND SWAP5 DUP3 AND SWAP5 SWAP1 SWAP5 OR SWAP1 SWAP4 SSTORE PUSH1 0x6 DUP1 SLOAD SWAP3 DUP6 AND SWAP3 DUP5 AND SWAP3 SWAP1 SWAP3 OR SWAP1 SWAP2 SSTORE PUSH1 0x3 DUP1 SLOAD SWAP2 SWAP1 SWAP4 AND SWAP2 AND OR SWAP1 SSTORE PUSH3 0x1DE JUMP JUMPDEST PUSH1 0x0 DUP1 SLOAD PUSH1 0x1 PUSH1 0x1 PUSH1 0xA0 SHL SUB DUP4 DUP2 AND PUSH1 0x1 PUSH1 0x1 PUSH1 0xA0 SHL SUB NOT DUP4 AND DUP2 OR DUP5 SSTORE PUSH1 0x40 MLOAD SWAP2 SWAP1 SWAP3 AND SWAP3 DUP4 SWAP2 PUSH32 0x8BE0079C531659141344CD1FD0A4F28419497F9722A3DAAFE3B4186F6B6457E0 SWAP2 SWAP1 LOG3 POP POP JUMP JUMPDEST DUP1 MLOAD PUSH1 0x1 PUSH1 0x1 PUSH1 0xA0 SHL SUB DUP2 AND DUP2 EQ PUSH3 0x17D JUMPI PUSH1 0x0 DUP1 REVERT JUMPDEST SWAP2 SWAP1 POP JUMP JUMPDEST PUSH1 0x0 DUP1 PUSH1 0x0 DUP1 PUSH1 0x80 DUP6 DUP8 SUB SLT ISZERO PUSH3 0x198 JUMPI DUP4 DUP5 REVERT JUMPDEST PUSH3 0x1A3 DUP6 PUSH3 0x165 JUMP JUMPDEST SWAP4 POP PUSH3 0x1B3 PUSH1 0x20 DUP7 ADD PUSH3 0x165 JUMP JUMPDEST SWAP3 POP PUSH3 0x1C3 PUSH1 0x40 DUP7 ADD PUSH3 0x165 JUMP JUMPDEST SWAP2 POP PUSH3 0x1D3 PUSH1 0x60 DUP7 ADD PUSH3 0x165 JUMP JUMPDEST SWAP1 POP SWAP3 SWAP6 SWAP2 SWAP5 POP SWAP3 POP JUMP JUMPDEST PUSH2 0x22B9 DUP1 PUSH3 0x1EE PUSH1 0x0 CODECOPY PUSH1 0x0 RETURN INVALID PUSH1 0x80 PUSH1 0x40 MSTORE PUSH1 0x4 CALLDATASIZE LT PUSH2 0x19C JUMPI PUSH1 0x0 CALLDATALOAD PUSH1 0xE0 SHR DUP1 PUSH4 0x8CF57CB9 GT PUSH2 0xEC JUMPI DUP1 PUSH4 0xC36C557F GT PUSH2 0x8A JUMPI DUP1 PUSH4 0xF2FDE38B GT PUSH2 0x64 JUMPI DUP1 PUSH4 0xF2FDE38B EQ PUSH2 0x465 JUMPI DUP1 PUSH4 0xF7B2A7BE EQ PUSH2 0x485 JUMPI DUP1 PUSH4 0xF887EA40 EQ PUSH2 0x49B JUMPI DUP1 PUSH4 0xFE96973A EQ PUSH2 0x4BB JUMPI PUSH1 0x0 DUP1 REVERT JUMPDEST DUP1 PUSH4 0xC36C557F EQ PUSH2 0x412 JUMPI DUP1 PUSH4 0xD654E9A4 EQ PUSH2 0x432 JUMPI DUP1 PUSH4 0xEC6CC0CC EQ PUSH2 0x452 JUMPI PUSH1 0x0 DUP1 REVERT JUMPDEST DUP1 PUSH4 0x966DAE0E GT PUSH2 0xC6 JUMPI DUP1 PUSH4 0x966DAE0E EQ PUSH2 0x39F JUMPI DUP1 PUSH4 0x9CF355AD EQ PUSH2 0x3BF JUMPI DUP1 PUSH4 0x9DE2827B EQ PUSH2 0x3DF JUMPI DUP1 PUSH4 0xA8A65A78 EQ PUSH2 0x3F2 JUMPI PUSH1 0x0 DUP1 REVERT JUMPDEST DUP1 PUSH4 0x8CF57CB9 EQ PUSH2 0x341 JUMPI DUP1 PUSH4 0x8DA5CB5B EQ PUSH2 0x361 JUMPI DUP1 PUSH4 0x95CCEA67 EQ PUSH2 0x37F JUMPI PUSH1 0x0 DUP1 REVERT JUMPDEST DUP1 PUSH4 0x63FE3E3A GT PUSH2 0x159 JUMPI DUP1 PUSH4 0x715018A6 GT PUSH2 0x133 JUMPI DUP1 PUSH4 0x715018A6 EQ PUSH2 0x2C8 JUMPI DUP1 PUSH4 0x7CE3489B EQ PUSH2 0x2DD JUMPI DUP1 PUSH4 0x7FD6F15C EQ PUSH2 0x2FD JUMPI DUP1 PUSH4 0x8AEE8127 EQ PUSH2 0x321 JUMPI PUSH1 0x0 DUP1 REVERT JUMPDEST DUP1 PUSH4 0x63FE3E3A EQ PUSH2 0x268 JUMPI DUP1 PUSH4 0x65E17C9D EQ PUSH2 0x288 JUMPI DUP1 PUSH4 0x6B792C4B EQ PUSH2 0x2A8 JUMPI PUSH1 0x0 DUP1 REVERT JUMPDEST DUP1 PUSH4 0x117BE4C2 EQ PUSH2 0x1A1 JUMPI DUP1 PUSH4 0x1698755F EQ PUSH2 0x1DE JUMPI DUP1 PUSH4 0x3268CC56 EQ PUSH2 0x200 JUMPI DUP1 PUSH4 0x3884D635 EQ PUSH2 0x220 JUMPI DUP1 PUSH4 0x4B023CF8 EQ PUSH2 0x235 JUMPI DUP1 PUSH4 0x4CE222DA EQ PUSH2 0x255 JUMPI JUMPDEST PUSH1 0x0 DUP1 REVERT JUMPDEST CALLVALUE DUP1 ISZERO PUSH2 0x1AD JUMPI PUSH1 0x0 DUP1 REVERT JUMPDEST POP PUSH1 0x6 SLOAD PUSH2 0x1C1 SWAP1 PUSH1 0x1 PUSH1 0x1 PUSH1 0xA0 SHL SUB AND DUP2 JUMP JUMPDEST PUSH1 0x40 MLOAD PUSH1 0x1 PUSH1 0x1 PUSH1 0xA0 SHL SUB SWAP1 SWAP2 AND DUP2 MSTORE PUSH1 0x20 ADD JUMPDEST PUSH1 0x40 MLOAD DUP1 SWAP2 SUB SWAP1 RETURN JUMPDEST CALLVALUE DUP1 ISZERO PUSH2 0x1EA JUMPI PUSH1 0x0 DUP1 REVERT JUMPDEST POP PUSH2 0x1FE PUSH2 0x1F9 CALLDATASIZE PUSH1 0x4 PUSH2 0x1C4C JUMP JUMPDEST PUSH2 0x4DB JUMP JUMPDEST STOP JUMPDEST CALLVALUE DUP1 ISZERO PUSH2 0x20C JUMPI PUSH1 0x0 DUP1 REVERT JUMPDEST POP PUSH1 0x7 SLOAD PUSH2 0x1C1 SWAP1 PUSH1 0x1 PUSH1 0x1 PUSH1 0xA0 SHL SUB AND DUP2 JUMP JUMPDEST CALLVALUE DUP1 ISZERO PUSH2 0x22C JUMPI PUSH1 0x0 DUP1 REVERT JUMPDEST POP PUSH2 0x1FE PUSH2 0x5B5 JUMP JUMPDEST CALLVALUE DUP1 ISZERO PUSH2 0x241 JUMPI PUSH1 0x0 DUP1 REVERT JUMPDEST POP PUSH2 0x1FE PUSH2 0x250 CALLDATASIZE PUSH1 0x4 PUSH2 0x1B32 JUMP JUMPDEST PUSH2 0x6BD JUMP JUMPDEST PUSH2 0x1FE PUSH2 0x263 CALLDATASIZE PUSH1 0x4 PUSH2 0x1BA2 JUMP JUMPDEST PUSH2 0x709 JUMP JUMPDEST CALLVALUE DUP1 ISZERO PUSH2 0x274 JUMPI PUSH1 0x0 DUP1 REVERT JUMPDEST POP PUSH1 0x9 SLOAD PUSH2 0x1C1 SWAP1 PUSH1 0x1 PUSH1 0x1 PUSH1 0xA0 SHL SUB AND DUP2 JUMP JUMPDEST CALLVALUE DUP1 ISZERO PUSH2 0x294 JUMPI PUSH1 0x0 DUP1 REVERT JUMPDEST POP PUSH1 0x4 SLOAD PUSH2 0x1C1 SWAP1 PUSH1 0x1 PUSH1 0x1 PUSH1 0xA0 SHL SUB AND DUP2 JUMP JUMPDEST CALLVALUE DUP1 ISZERO PUSH2 0x2B4 JUMPI PUSH1 0x0 DUP1 REVERT JUMPDEST POP PUSH2 0x1FE PUSH2 0x2C3 CALLDATASIZE PUSH1 0x4 PUSH2 0x1DBE JUMP JUMPDEST PUSH2 0x8E8 JUMP JUMPDEST CALLVALUE DUP1 ISZERO PUSH2 0x2D4 JUMPI PUSH1 0x0 DUP1 REVERT JUMPDEST POP PUSH2 0x1FE PUSH2 0x94F JUMP JUMPDEST CALLVALUE DUP1 ISZERO PUSH2 0x2E9 JUMPI PUSH1 0x0 DUP1 REVERT JUMPDEST POP PUSH2 0x1FE PUSH2 0x2F8 CALLDATASIZE PUSH1 0x4 PUSH2 0x1DBE JUMP JUMPDEST PUSH2 0x985 JUMP JUMPDEST CALLVALUE DUP1 ISZERO PUSH2 0x309 JUMPI PUSH1 0x0 DUP1 REVERT JUMPDEST POP PUSH2 0x313 PUSH1 0x1 SLOAD DUP2 JUMP JUMPDEST PUSH1 0x40 MLOAD SWAP1 DUP2 MSTORE PUSH1 0x20 ADD PUSH2 0x1D5 JUMP JUMPDEST CALLVALUE DUP1 ISZERO PUSH2 0x32D JUMPI PUSH1 0x0 DUP1 REVERT JUMPDEST POP PUSH2 0x1FE PUSH2 0x33C CALLDATASIZE PUSH1 0x4 PUSH2 0x1B32 JUMP JUMPDEST PUSH2 0x9B4 JUMP JUMPDEST CALLVALUE DUP1 ISZERO PUSH2 0x34D JUMPI PUSH1 0x0 DUP1 REVERT JUMPDEST POP PUSH1 0x3 SLOAD PUSH2 0x1C1 SWAP1 PUSH1 0x1 PUSH1 0x1 PUSH1 0xA0 SHL SUB AND DUP2 JUMP JUMPDEST CALLVALUE DUP1 ISZERO PUSH2 0x36D JUMPI PUSH1 0x0 DUP1 REVERT JUMPDEST POP PUSH1 0x0 SLOAD PUSH1 0x1 PUSH1 0x1 PUSH1 0xA0 SHL SUB AND PUSH2 0x1C1 JUMP JUMPDEST CALLVALUE DUP1 ISZERO PUSH2 0x38B JUMPI PUSH1 0x0 DUP1 REVERT JUMPDEST POP PUSH2 0x1FE PUSH2 0x39A CALLDATASIZE PUSH1 0x4 PUSH2 0x1C4C JUMP JUMPDEST PUSH2 0xA00 JUMP JUMPDEST CALLVALUE DUP1 ISZERO PUSH2 0x3AB JUMPI PUSH1 0x0 DUP1 REVERT JUMPDEST POP PUSH1 0x8 SLOAD PUSH2 0x1C1 SWAP1 PUSH1 0x1 PUSH1 0x1 PUSH1 0xA0 SHL SUB AND DUP2 JUMP JUMPDEST CALLVALUE DUP1 ISZERO PUSH2 0x3CB JUMPI PUSH1 0x0 DUP1 REVERT JUMPDEST POP PUSH2 0x1FE PUSH2 0x3DA CALLDATASIZE PUSH1 0x4 PUSH2 0x1B6A JUMP JUMPDEST PUSH2 0xA3E JUMP JUMPDEST PUSH2 0x1FE PUSH2 0x3ED CALLDATASIZE PUSH1 0x4 PUSH2 0x1BE2 JUMP JUMPDEST PUSH2 0xA96 JUMP JUMPDEST CALLVALUE DUP1 ISZERO PUSH2 0x3FE JUMPI PUSH1 0x0 DUP1 REVERT JUMPDEST POP PUSH2 0x1FE PUSH2 0x40D CALLDATASIZE PUSH1 0x4 PUSH2 0x1DBE JUMP JUMPDEST PUSH2 0xCB4 JUMP JUMPDEST CALLVALUE DUP1 ISZERO PUSH2 0x41E JUMPI PUSH1 0x0 DUP1 REVERT JUMPDEST POP PUSH2 0x313 PUSH2 0x42D CALLDATASIZE PUSH1 0x4 PUSH2 0x1DEE JUMP JUMPDEST PUSH2 0xCE3 JUMP JUMPDEST CALLVALUE DUP1 ISZERO PUSH2 0x43E JUMPI PUSH1 0x0 DUP1 REVERT JUMPDEST POP PUSH2 0x313 PUSH2 0x44D CALLDATASIZE PUSH1 0x4 PUSH2 0x1E2F JUMP JUMPDEST PUSH2 0xEF4 JUMP JUMPDEST PUSH2 0x1FE PUSH2 0x460 CALLDATASIZE PUSH1 0x4 PUSH2 0x1BA2 JUMP JUMPDEST PUSH2 0xFC0 JUMP JUMPDEST CALLVALUE DUP1 ISZERO PUSH2 0x471 JUMPI PUSH1 0x0 DUP1 REVERT JUMPDEST POP PUSH2 0x1FE PUSH2 0x480 CALLDATASIZE PUSH1 0x4 PUSH2 0x1B32 JUMP JUMPDEST PUSH2 0x125B JUMP JUMPDEST CALLVALUE DUP1 ISZERO PUSH2 0x491 JUMPI PUSH1 0x0 DUP1 REVERT JUMPDEST POP PUSH2 0x313 PUSH1 0x2 SLOAD DUP2 JUMP JUMPDEST CALLVALUE DUP1 ISZERO PUSH2 0x4A7 JUMPI PUSH1 0x0 DUP1 REVERT JUMPDEST POP PUSH1 0x5 SLOAD PUSH2 0x1C1 SWAP1 PUSH1 0x1 PUSH1 0x1 PUSH1 0xA0 SHL SUB AND DUP2 JUMP JUMPDEST CALLVALUE DUP1 ISZERO PUSH2 0x4C7 JUMPI PUSH1 0x0 DUP1 REVERT JUMPDEST POP PUSH2 0x1FE PUSH2 0x4D6 CALLDATASIZE PUSH1 0x4 PUSH2 0x1DBE JUMP JUMPDEST PUSH2 0x12F6 JUMP JUMPDEST PUSH1 0x0 SLOAD PUSH1 0x1 PUSH1 0x1 PUSH1 0xA0 SHL SUB AND CALLER EQ PUSH2 0x50E JUMPI PUSH1 0x40 MLOAD PUSH3 0x461BCD PUSH1 0xE5 SHL DUP2 MSTORE PUSH1 0x4 ADD PUSH2 0x505 SWAP1 PUSH2 0x1F7D JUMP JUMPDEST PUSH1 0x40 MLOAD DUP1 SWAP2 SUB SWAP1 REVERT JUMPDEST DUP2 PUSH1 0x1 PUSH1 0x1 PUSH1 0xA0 SHL SUB AND PUSH4 0xA9059CBB PUSH2 0x52F PUSH1 0x0 SLOAD PUSH1 0x1 PUSH1 0x1 PUSH1 0xA0 SHL SUB AND SWAP1 JUMP JUMPDEST PUSH1 0x40 MLOAD PUSH1 0x1 PUSH1 0x1 PUSH1 0xE0 SHL SUB NOT PUSH1 0xE0 DUP5 SWAP1 SHL AND DUP2 MSTORE PUSH1 0x1 PUSH1 0x1 PUSH1 0xA0 SHL SUB SWAP1 SWAP2 AND PUSH1 0x4 DUP3 ADD MSTORE PUSH1 0x24 DUP2 ADD DUP5 SWAP1 MSTORE PUSH1 0x44 ADD JUMPDEST PUSH1 0x20 PUSH1 0x40 MLOAD DUP1 DUP4 SUB DUP2 PUSH1 0x0 DUP8 DUP1 EXTCODESIZE ISZERO DUP1 ISZERO PUSH2 0x578 JUMPI PUSH1 0x0 DUP1 REVERT JUMPDEST POP GAS CALL ISZERO DUP1 ISZERO PUSH2 0x58C JUMPI RETURNDATASIZE PUSH1 0x0 DUP1 RETURNDATACOPY RETURNDATASIZE PUSH1 0x0 REVERT JUMPDEST POP POP POP POP PUSH1 0x40 MLOAD RETURNDATASIZE PUSH1 0x1F NOT PUSH1 0x1F DUP3 ADD AND DUP3 ADD DUP1 PUSH1 0x40 MSTORE POP DUP2 ADD SWAP1 PUSH2 0x5B0 SWAP2 SWAP1 PUSH2 0x1D0A JUMP JUMPDEST POP POP POP JUMP JUMPDEST CALLER PUSH1 0x0 SWAP1 DUP2 MSTORE PUSH1 0xA PUSH1 0x20 MSTORE PUSH1 0x40 SWAP1 KECCAK256 SLOAD TIMESTAMP SWAP1 PUSH2 0x5D4 SWAP1 PUSH3 0x15180 PUSH2 0x20BA JUMP JUMPDEST GT PUSH2 0x621 JUMPI PUSH1 0x40 MLOAD PUSH3 0x461BCD PUSH1 0xE5 SHL DUP2 MSTORE PUSH1 0x20 PUSH1 0x4 DUP3 ADD MSTORE PUSH1 0x1C PUSH1 0x24 DUP3 ADD MSTORE PUSH32 0x596F7520646964206E6F74207377617020696E20323420686F75727300000000 PUSH1 0x44 DUP3 ADD MSTORE PUSH1 0x64 ADD PUSH2 0x505 JUMP JUMPDEST CALLER PUSH1 0x0 SWAP1 DUP2 MSTORE PUSH1 0xB PUSH1 0x20 MSTORE PUSH1 0x40 SWAP1 KECCAK256 SLOAD PUSH2 0x63E SWAP1 PUSH3 0x15180 PUSH2 0x20BA JUMP JUMPDEST TIMESTAMP GT PUSH2 0x68C JUMPI PUSH1 0x40 MLOAD PUSH3 0x461BCD PUSH1 0xE5 SHL DUP2 MSTORE PUSH1 0x20 PUSH1 0x4 DUP3 ADD MSTORE PUSH1 0x19 PUSH1 0x24 DUP3 ADD MSTORE PUSH32 0x596F752061697264726F70656420696E20323420686F75727300000000000000 PUSH1 0x44 DUP3 ADD MSTORE PUSH1 0x64 ADD PUSH2 0x505 JUMP JUMPDEST PUSH1 0x2 SLOAD PUSH1 0x3 SLOAD PUSH2 0x6A9 SWAP2 PUSH1 0x1 PUSH1 0x1 PUSH1 0xA0 SHL SUB SWAP1 SWAP2 AND SWAP1 CALLER SWAP1 PUSH2 0x13BA JUMP JUMPDEST CALLER PUSH1 0x0 SWAP1 DUP2 MSTORE PUSH1 0xB PUSH1 0x20 MSTORE PUSH1 0x40 SWAP1 KECCAK256 TIMESTAMP SWAP1 SSTORE JUMP JUMPDEST PUSH1 0x0 SLOAD PUSH1 0x1 PUSH1 0x1 PUSH1 0xA0 SHL SUB AND CALLER EQ PUSH2 0x6E7 JUMPI PUSH1 0x40 MLOAD PUSH3 0x461BCD PUSH1 0xE5 SHL DUP2 MSTORE PUSH1 0x4 ADD PUSH2 0x505 SWAP1 PUSH2 0x1F7D JUMP JUMPDEST PUSH1 0x4 DUP1 SLOAD PUSH1 0x1 PUSH1 0x1 PUSH1 0xA0 SHL SUB NOT AND PUSH1 0x1 PUSH1 0x1 PUSH1 0xA0 SHL SUB SWAP3 SWAP1 SWAP3 AND SWAP2 SWAP1 SWAP2 OR SWAP1 SSTORE JUMP JUMPDEST CALLER PUSH1 0x0 SWAP1 DUP2 MSTORE PUSH1 0xA PUSH1 0x20 MSTORE PUSH1 0x40 DUP1 DUP3 KECCAK256 TIMESTAMP SWAP1 SSTORE DUP1 MLOAD PUSH1 0x2 DUP1 DUP3 MSTORE PUSH1 0x60 DUP3 ADD SWAP1 SWAP3 MSTORE SWAP1 DUP2 PUSH1 0x20 ADD PUSH1 0x20 DUP3 MUL DUP1 CALLDATASIZE DUP4 CALLDATACOPY ADD SWAP1 POP POP SWAP1 POP PUSH1 0x1 PUSH1 0x1 PUSH1 0xA0 SHL SUB DUP5 AND PUSH2 0x7E2 JUMPI PUSH1 0x6 SLOAD DUP2 MLOAD PUSH1 0x1 PUSH1 0x1 PUSH1 0xA0 SHL SUB SWAP1 SWAP2 AND SWAP1 DUP3 SWAP1 PUSH1 0x0 SWAP1 PUSH2 0x77B JUMPI PUSH4 0x4E487B71 PUSH1 0xE0 SHL PUSH1 0x0 MSTORE PUSH1 0x32 PUSH1 0x4 MSTORE PUSH1 0x24 PUSH1 0x0 REVERT JUMPDEST PUSH1 0x20 MUL PUSH1 0x20 ADD ADD SWAP1 PUSH1 0x1 PUSH1 0x1 PUSH1 0xA0 SHL SUB AND SWAP1 DUP2 PUSH1 0x1 PUSH1 0x1 PUSH1 0xA0 SHL SUB AND DUP2 MSTORE POP POP DUP3 DUP2 PUSH1 0x1 DUP2 MLOAD DUP2 LT PUSH2 0x7BD JUMPI PUSH4 0x4E487B71 PUSH1 0xE0 SHL PUSH1 0x0 MSTORE PUSH1 0x32 PUSH1 0x4 MSTORE PUSH1 0x24 PUSH1 0x0 REVERT JUMPDEST PUSH1 0x20 MUL PUSH1 0x20 ADD ADD SWAP1 PUSH1 0x1 PUSH1 0x1 PUSH1 0xA0 SHL SUB AND SWAP1 DUP2 PUSH1 0x1 PUSH1 0x1 PUSH1 0xA0 SHL SUB AND DUP2 MSTORE POP POP PUSH2 0x8D6 JUMP JUMPDEST PUSH1 0x1 PUSH1 0x1 PUSH1 0xA0 SHL SUB DUP4 AND PUSH2 0x851 JUMPI DUP4 DUP2 PUSH1 0x0 DUP2 MLOAD DUP2 LT PUSH2 0x812 JUMPI PUSH4 0x4E487B71 PUSH1 0xE0 SHL PUSH1 0x0 MSTORE PUSH1 0x32 PUSH1 0x4 MSTORE PUSH1 0x24 PUSH1 0x0 REVERT JUMPDEST PUSH1 0x1 PUSH1 0x1 PUSH1 0xA0 SHL SUB SWAP3 DUP4 AND PUSH1 0x20 SWAP2 DUP3 MUL SWAP3 SWAP1 SWAP3 ADD ADD MSTORE PUSH1 0x6 SLOAD DUP3 MLOAD SWAP2 AND SWAP1 DUP3 SWAP1 PUSH1 0x1 SWAP1 DUP2 LT PUSH2 0x7BD JUMPI PUSH4 0x4E487B71 PUSH1 0xE0 SHL PUSH1 0x0 MSTORE PUSH1 0x32 PUSH1 0x4 MSTORE PUSH1 0x24 PUSH1 0x0 REVERT JUMPDEST DUP4 DUP2 PUSH1 0x0 DUP2 MLOAD DUP2 LT PUSH2 0x873 JUMPI PUSH4 0x4E487B71 PUSH1 0xE0 SHL PUSH1 0x0 MSTORE PUSH1 0x32 PUSH1 0x4 MSTORE PUSH1 0x24 PUSH1 0x0 REVERT JUMPDEST PUSH1 0x20 MUL PUSH1 0x20 ADD ADD SWAP1 PUSH1 0x1 PUSH1 0x1 PUSH1 0xA0 SHL SUB AND SWAP1 DUP2 PUSH1 0x1 PUSH1 0x1 PUSH1 0xA0 SHL SUB AND DUP2 MSTORE POP POP DUP3 DUP2 PUSH1 0x1 DUP2 MLOAD DUP2 LT PUSH2 0x8B5 JUMPI PUSH4 0x4E487B71 PUSH1 0xE0 SHL PUSH1 0x0 MSTORE PUSH1 0x32 PUSH1 0x4 MSTORE PUSH1 0x24 PUSH1 0x0 REVERT JUMPDEST PUSH1 0x20 MUL PUSH1 0x20 ADD ADD SWAP1 PUSH1 0x1 PUSH1 0x1 PUSH1 0xA0 SHL SUB AND SWAP1 DUP2 PUSH1 0x1 PUSH1 0x1 PUSH1 0xA0 SHL SUB AND DUP2 MSTORE POP POP JUMPDEST PUSH2 0x8E2 DUP5 DUP5 DUP5 DUP5 PUSH2 0x141D JUMP JUMPDEST POP POP POP POP JUMP JUMPDEST PUSH1 0x0 SLOAD PUSH1 0x1 PUSH1 0x1 PUSH1 0xA0 SHL SUB AND CALLER EQ PUSH2 0x912 JUMPI PUSH1 0x40 MLOAD PUSH3 0x461BCD PUSH1 0xE5 SHL DUP2 MSTORE PUSH1 0x4 ADD PUSH2 0x505 SWAP1 PUSH2 0x1F7D JUMP JUMPDEST PUSH1 0x0 DUP1 SLOAD PUSH1 0x40 MLOAD PUSH1 0x1 PUSH1 0x1 PUSH1 0xA0 SHL SUB SWAP1 SWAP2 AND SWAP2 DUP4 ISZERO PUSH2 0x8FC MUL SWAP2 DUP5 SWAP2 DUP2 DUP2 DUP2 DUP6 DUP9 DUP9 CALL SWAP4 POP POP POP POP ISZERO DUP1 ISZERO PUSH2 0x94B JUMPI RETURNDATASIZE PUSH1 0x0 DUP1 RETURNDATACOPY RETURNDATASIZE PUSH1 0x0 REVERT JUMPDEST POP POP JUMP JUMPDEST PUSH1 0x0 SLOAD PUSH1 0x1 PUSH1 0x1 PUSH1 0xA0 SHL SUB AND CALLER EQ PUSH2 0x979 JUMPI PUSH1 0x40 MLOAD PUSH3 0x461BCD PUSH1 0xE5 SHL DUP2 MSTORE PUSH1 0x4 ADD PUSH2 0x505 SWAP1 PUSH2 0x1F7D JUMP JUMPDEST PUSH2 0x983 PUSH1 0x0 PUSH2 0x15ED JUMP JUMPDEST JUMP JUMPDEST PUSH1 0x0 SLOAD PUSH1 0x1 PUSH1 0x1 PUSH1 0xA0 SHL SUB AND CALLER EQ PUSH2 0x9AF JUMPI PUSH1 0x40 MLOAD PUSH3 0x461BCD PUSH1 0xE5 SHL DUP2 MSTORE PUSH1 0x4 ADD PUSH2 0x505 SWAP1 PUSH2 0x1F7D JUMP JUMPDEST PUSH1 0x1 SSTORE JUMP JUMPDEST PUSH1 0x0 SLOAD PUSH1 0x1 PUSH1 0x1 PUSH1 0xA0 SHL SUB AND CALLER EQ PUSH2 0x9DE JUMPI PUSH1 0x40 MLOAD PUSH3 0x461BCD PUSH1 0xE5 SHL DUP2 MSTORE PUSH1 0x4 ADD PUSH2 0x505 SWAP1 PUSH2 0x1F7D JUMP JUMPDEST PUSH1 0x3 DUP1 SLOAD PUSH1 0x1 PUSH1 0x1 PUSH1 0xA0 SHL SUB NOT AND PUSH1 0x1 PUSH1 0x1 PUSH1 0xA0 SHL SUB SWAP3 SWAP1 SWAP3 AND SWAP2 SWAP1 SWAP2 OR SWAP1 SSTORE JUMP JUMPDEST PUSH1 0x0 SLOAD PUSH1 0x1 PUSH1 0x1 PUSH1 0xA0 SHL SUB AND CALLER EQ PUSH2 0xA2A JUMPI PUSH1 0x40 MLOAD PUSH3 0x461BCD PUSH1 0xE5 SHL DUP2 MSTORE PUSH1 0x4 ADD PUSH2 0x505 SWAP1 PUSH2 0x1F7D JUMP JUMPDEST PUSH2 0x94B PUSH1 0x1 PUSH1 0x1 PUSH1 0xA0 SHL SUB DUP4 AND CALLER DUP4 PUSH2 0x13BA JUMP JUMPDEST PUSH1 0x0 SLOAD PUSH1 0x1 PUSH1 0x1 PUSH1 0xA0 SHL SUB AND CALLER EQ PUSH2 0xA68 JUMPI PUSH1 0x40 MLOAD PUSH3 0x461BCD PUSH1 0xE5 SHL DUP2 MSTORE PUSH1 0x4 ADD PUSH2 0x505 SWAP1 PUSH2 0x1F7D JUMP JUMPDEST PUSH1 0x5 DUP1 SLOAD PUSH1 0x1 PUSH1 0x1 PUSH1 0xA0 SHL SUB SWAP4 DUP5 AND PUSH1 0x1 PUSH1 0x1 PUSH1 0xA0 SHL SUB NOT SWAP2 DUP3 AND OR SWAP1 SWAP2 SSTORE PUSH1 0x6 DUP1 SLOAD SWAP3 SWAP1 SWAP4 AND SWAP2 AND OR SWAP1 SSTORE JUMP JUMPDEST PUSH1 0x1 PUSH1 0x1 PUSH1 0xA0 SHL SUB DUP5 AND PUSH2 0xB53 JUMPI DUP1 PUSH1 0x0 DUP2 MLOAD DUP2 LT PUSH2 0xAC5 JUMPI PUSH4 0x4E487B71 PUSH1 0xE0 SHL PUSH1 0x0 MSTORE PUSH1 0x32 PUSH1 0x4 MSTORE PUSH1 0x24 PUSH1 0x0 REVERT JUMPDEST PUSH1 0x20 SWAP1 DUP2 MUL SWAP2 SWAP1 SWAP2 ADD ADD MLOAD PUSH1 0x6 SLOAD PUSH1 0x1 PUSH1 0x1 PUSH1 0xA0 SHL SUB SWAP1 DUP2 AND SWAP2 AND EQ DUP1 ISZERO PUSH2 0xB32 JUMPI POP DUP1 PUSH1 0x1 DUP3 MLOAD PUSH2 0xAF7 SWAP2 SWAP1 PUSH2 0x21FF JUMP JUMPDEST DUP2 MLOAD DUP2 LT PUSH2 0xB15 JUMPI PUSH4 0x4E487B71 PUSH1 0xE0 SHL PUSH1 0x0 MSTORE PUSH1 0x32 PUSH1 0x4 MSTORE PUSH1 0x24 PUSH1 0x0 REVERT JUMPDEST PUSH1 0x20 MUL PUSH1 0x20 ADD ADD MLOAD PUSH1 0x1 PUSH1 0x1 PUSH1 0xA0 SHL SUB AND DUP4 PUSH1 0x1 PUSH1 0x1 PUSH1 0xA0 SHL SUB AND EQ JUMPDEST PUSH2 0xB4E JUMPI PUSH1 0x40 MLOAD PUSH3 0x461BCD PUSH1 0xE5 SHL DUP2 MSTORE PUSH1 0x4 ADD PUSH2 0x505 SWAP1 PUSH2 0x1F3B JUMP JUMPDEST PUSH2 0x8D6 JUMP JUMPDEST PUSH1 0x1 PUSH1 0x1 PUSH1 0xA0 SHL SUB DUP4 AND PUSH2 0xC0A JUMPI DUP1 PUSH1 0x0 DUP2 MLOAD DUP2 LT PUSH2 0xB82 JUMPI PUSH4 0x4E487B71 PUSH1 0xE0 SHL PUSH1 0x0 MSTORE PUSH1 0x32 PUSH1 0x4 MSTORE PUSH1 0x24 PUSH1 0x0 REVERT JUMPDEST PUSH1 0x20 MUL PUSH1 0x20 ADD ADD MLOAD PUSH1 0x1 PUSH1 0x1 PUSH1 0xA0 SHL SUB AND DUP5 PUSH1 0x1 PUSH1 0x1 PUSH1 0xA0 SHL SUB AND EQ DUP1 ISZERO PUSH2 0xB32 JUMPI POP DUP1 PUSH1 0x1 DUP3 MLOAD PUSH2 0xBB4 SWAP2 SWAP1 PUSH2 0x21FF JUMP JUMPDEST DUP2 MLOAD DUP2 LT PUSH2 0xBD2 JUMPI PUSH4 0x4E487B71 PUSH1 0xE0 SHL PUSH1 0x0 MSTORE PUSH1 0x32 PUSH1 0x4 MSTORE PUSH1 0x24 PUSH1 0x0 REVERT JUMPDEST PUSH1 0x20 SWAP1 DUP2 MUL SWAP2 SWAP1 SWAP2 ADD ADD MLOAD PUSH1 0x6 SLOAD PUSH1 0x1 PUSH1 0x1 PUSH1 0xA0 SHL SUB SWAP1 DUP2 AND SWAP2 AND EQ PUSH2 0xB4E JUMPI PUSH1 0x40 MLOAD PUSH3 0x461BCD PUSH1 0xE5 SHL DUP2 MSTORE PUSH1 0x4 ADD PUSH2 0x505 SWAP1 PUSH2 0x1F3B JUMP JUMPDEST DUP1 PUSH1 0x0 DUP2 MLOAD DUP2 LT PUSH2 0xC2B JUMPI PUSH4 0x4E487B71 PUSH1 0xE0 SHL PUSH1 0x0 MSTORE PUSH1 0x32 PUSH1 0x4 MSTORE PUSH1 0x24 PUSH1 0x0 REVERT JUMPDEST PUSH1 0x20 MUL PUSH1 0x20 ADD ADD MLOAD PUSH1 0x1 PUSH1 0x1 PUSH1 0xA0 SHL SUB AND DUP5 PUSH1 0x1 PUSH1 0x1 PUSH1 0xA0 SHL SUB AND EQ DUP1 ISZERO PUSH2 0xC98 JUMPI POP DUP1 PUSH1 0x1 DUP3 MLOAD PUSH2 0xC5D SWAP2 SWAP1 PUSH2 0x21FF JUMP JUMPDEST DUP2 MLOAD DUP2 LT PUSH2 0xC7B JUMPI PUSH4 0x4E487B71 PUSH1 0xE0 SHL PUSH1 0x0 MSTORE PUSH1 0x32 PUSH1 0x4 MSTORE PUSH1 0x24 PUSH1 0x0 REVERT JUMPDEST PUSH1 0x20 MUL PUSH1 0x20 ADD ADD MLOAD PUSH1 0x1 PUSH1 0x1 PUSH1 0xA0 SHL SUB AND DUP4 PUSH1 0x1 PUSH1 0x1 PUSH1 0xA0 SHL SUB AND EQ JUMPDEST PUSH2 0x8D6 JUMPI PUSH1 0x40 MLOAD PUSH3 0x461BCD PUSH1 0xE5 SHL DUP2 MSTORE PUSH1 0x4 ADD PUSH2 0x505 SWAP1 PUSH2 0x1F3B JUMP JUMPDEST PUSH1 0x0 SLOAD PUSH1 0x1 PUSH1 0x1 PUSH1 0xA0 SHL SUB AND CALLER EQ PUSH2 0xCDE JUMPI PUSH1 0x40 MLOAD PUSH3 0x461BCD PUSH1 0xE5 SHL DUP2 MSTORE PUSH1 0x4 ADD PUSH2 0x505 SWAP1 PUSH2 0x1F7D JUMP JUMPDEST PUSH1 0x2 SSTORE JUMP JUMPDEST PUSH1 0x8 SLOAD PUSH1 0x9 SLOAD PUSH1 0x40 MLOAD PUSH4 0xB4C7741 PUSH1 0xE1 SHL DUP2 MSTORE PUSH1 0x1 PUSH1 0x1 PUSH1 0xA0 SHL SUB DUP6 DUP2 AND PUSH1 0x4 DUP4 ADD MSTORE DUP5 DUP2 AND PUSH1 0x24 DUP4 ADD MSTORE PUSH1 0x1 PUSH1 0xA0 SHL SWAP1 SWAP3 DIV PUSH3 0xFFFFFF AND PUSH1 0x44 DUP3 ADD MSTORE PUSH1 0x0 SWAP3 DUP4 SWAP3 DUP4 SWAP3 SWAP2 AND SWAP1 PUSH4 0x1698EE82 SWAP1 PUSH1 0x64 ADD PUSH1 0x20 PUSH1 0x40 MLOAD DUP1 DUP4 SUB DUP2 DUP7 DUP1 EXTCODESIZE ISZERO DUP1 ISZERO PUSH2 0xD4B JUMPI PUSH1 0x0 DUP1 REVERT JUMPDEST POP GAS STATICCALL ISZERO DUP1 ISZERO PUSH2 0xD5F JUMPI RETURNDATASIZE PUSH1 0x0 DUP1 RETURNDATACOPY RETURNDATASIZE PUSH1 0x0 REVERT JUMPDEST POP POP POP POP PUSH1 0x40 MLOAD RETURNDATASIZE PUSH1 0x1F NOT PUSH1 0x1F DUP3 ADD AND DUP3 ADD DUP1 PUSH1 0x40 MSTORE POP DUP2 ADD SWAP1 PUSH2 0xD83 SWAP2 SWAP1 PUSH2 0x1B4E JUMP JUMPDEST SWAP1 POP DUP1 PUSH1 0x1 PUSH1 0x1 PUSH1 0xA0 SHL SUB AND PUSH4 0x3850C7BD PUSH1 0x40 MLOAD DUP2 PUSH4 0xFFFFFFFF AND PUSH1 0xE0 SHL DUP2 MSTORE PUSH1 0x4 ADD PUSH1 0xE0 PUSH1 0x40 MLOAD DUP1 DUP4 SUB DUP2 DUP7 DUP1 EXTCODESIZE ISZERO DUP1 ISZERO PUSH2 0xDBE JUMPI PUSH1 0x0 DUP1 REVERT JUMPDEST POP GAS STATICCALL ISZERO DUP1 ISZERO PUSH2 0xDD2 JUMPI RETURNDATASIZE PUSH1 0x0 DUP1 RETURNDATACOPY RETURNDATASIZE PUSH1 0x0 REVERT JUMPDEST POP POP POP POP PUSH1 0x40 MLOAD RETURNDATASIZE PUSH1 0x1F NOT PUSH1 0x1F DUP3 ADD AND DUP3 ADD DUP1 PUSH1 0x40 MSTORE POP DUP2 ADD SWAP1 PUSH2 0xDF6 SWAP2 SWAP1 PUSH2 0x1D24 JUMP JUMPDEST POP POP PUSH1 0x40 DUP1 MLOAD PUSH4 0xDFE1681 PUSH1 0xE0 SHL DUP2 MSTORE SWAP1 MLOAD PUSH1 0x1 PUSH1 0x1 PUSH1 0xA0 SHL SUB SWAP7 DUP8 AND SWAP9 POP PUSH1 0x0 SWAP7 DUP9 AND SWAP6 POP PUSH4 0xDFE1681 SWAP5 POP PUSH1 0x4 DUP1 DUP4 ADD SWAP5 POP PUSH1 0x20 SWAP4 POP SWAP1 SWAP2 DUP3 SWAP1 SUB ADD DUP2 DUP7 DUP1 EXTCODESIZE ISZERO DUP1 ISZERO PUSH2 0xE44 JUMPI PUSH1 0x0 DUP1 REVERT JUMPDEST POP GAS STATICCALL ISZERO DUP1 ISZERO PUSH2 0xE58 JUMPI RETURNDATASIZE PUSH1 0x0 DUP1 RETURNDATACOPY RETURNDATASIZE PUSH1 0x0 REVERT JUMPDEST POP POP POP POP PUSH1 0x40 MLOAD RETURNDATASIZE PUSH1 0x1F NOT PUSH1 0x1F DUP3 ADD AND DUP3 ADD DUP1 PUSH1 0x40 MSTORE POP DUP2 ADD SWAP1 PUSH2 0xE7C SWAP2 SWAP1 PUSH2 0x1B4E JUMP JUMPDEST SWAP1 POP DUP1 PUSH1 0x1 PUSH1 0x1 PUSH1 0xA0 SHL SUB AND DUP7 PUSH1 0x1 PUSH1 0x1 PUSH1 0xA0 SHL SUB AND EQ ISZERO PUSH2 0xEC4 JUMPI PUSH1 0x1 PUSH1 0xC0 SHL DUP8 PUSH2 0xEA9 PUSH1 0x2 DUP7 PUSH2 0x2135 JUMP JUMPDEST PUSH2 0xEB3 SWAP2 SWAP1 PUSH2 0x21E0 JUMP JUMPDEST PUSH2 0xEBD SWAP2 SWAP1 PUSH2 0x20D2 JUMP JUMPDEST SWAP4 POP PUSH2 0xEEA JUMP JUMPDEST PUSH2 0xECF PUSH1 0x2 DUP5 PUSH2 0x2135 JUMP JUMPDEST PUSH2 0xEDD DUP9 PUSH1 0x1 PUSH1 0xC0 SHL PUSH2 0x21E0 JUMP JUMPDEST PUSH2 0xEE7 SWAP2 SWAP1 PUSH2 0x20D2 JUMP JUMPDEST SWAP4 POP JUMPDEST POP POP POP SWAP4 SWAP3 POP POP POP JUMP JUMPDEST PUSH1 0x5 SLOAD PUSH1 0x40 MLOAD PUSH4 0xD06CA61F PUSH1 0xE0 SHL DUP2 MSTORE PUSH1 0x0 SWAP2 DUP3 SWAP2 PUSH1 0x1 PUSH1 0x1 PUSH1 0xA0 SHL SUB SWAP1 SWAP2 AND SWAP1 PUSH4 0xD06CA61F SWAP1 PUSH2 0xF2B SWAP1 DUP8 SWAP1 DUP8 SWAP1 PUSH1 0x4 ADD PUSH2 0x2010 JUMP JUMPDEST PUSH1 0x0 PUSH1 0x40 MLOAD DUP1 DUP4 SUB DUP2 DUP7 DUP1 EXTCODESIZE ISZERO DUP1 ISZERO PUSH2 0xF43 JUMPI PUSH1 0x0 DUP1 REVERT JUMPDEST POP GAS STATICCALL ISZERO DUP1 ISZERO PUSH2 0xF57 JUMPI RETURNDATASIZE PUSH1 0x0 DUP1 RETURNDATACOPY RETURNDATASIZE PUSH1 0x0 REVERT JUMPDEST POP POP POP POP PUSH1 0x40 MLOAD RETURNDATASIZE PUSH1 0x0 DUP3 RETURNDATACOPY PUSH1 0x1F RETURNDATASIZE SWAP1 DUP2 ADD PUSH1 0x1F NOT AND DUP3 ADD PUSH1 0x40 MSTORE PUSH2 0xF7F SWAP2 SWAP1 DUP2 ADD SWAP1 PUSH2 0x1C77 JUMP JUMPDEST SWAP1 POP DUP1 PUSH1 0x1 DUP3 MLOAD PUSH2 0xF90 SWAP2 SWAP1 PUSH2 0x21FF JUMP JUMPDEST DUP2 MLOAD DUP2 LT PUSH2 0xFAE JUMPI PUSH4 0x4E487B71 PUSH1 0xE0 SHL PUSH1 0x0 MSTORE PUSH1 0x32 PUSH1 0x4 MSTORE PUSH1 0x24 PUSH1 0x0 REVERT JUMPDEST PUSH1 0x20 MUL PUSH1 0x20 ADD ADD MLOAD SWAP2 POP POP JUMPDEST SWAP3 SWAP2 POP POP JUMP JUMPDEST CALLER PUSH1 0x0 DUP2 DUP2 MSTORE PUSH1 0xA PUSH1 0x20 SWAP1 DUP2 MSTORE PUSH1 0x40 DUP1 DUP4 KECCAK256 TIMESTAMP SWAP1 SSTORE DUP1 MLOAD PUSH1 0xE0 DUP2 ADD DUP3 MSTORE PUSH1 0x1 PUSH1 0x1 PUSH1 0xA0 SHL SUB DUP9 DUP2 AND DUP1 DUP4 MSTORE DUP9 DUP3 AND SWAP5 DUP4 ADD SWAP5 SWAP1 SWAP5 MSTORE PUSH1 0x9 SLOAD PUSH3 0xFFFFFF PUSH1 0x1 PUSH1 0xA0 SHL DUP3 DIV AND SWAP4 DUP4 ADD SWAP4 SWAP1 SWAP4 MSTORE PUSH1 0x60 DUP3 ADD SWAP6 SWAP1 SWAP6 MSTORE PUSH1 0x80 DUP2 ADD DUP7 SWAP1 MSTORE PUSH1 0xA0 DUP2 ADD DUP5 SWAP1 MSTORE PUSH1 0xC0 DUP2 ADD SWAP4 SWAP1 SWAP4 MSTORE SWAP2 SWAP3 SWAP2 SWAP1 SWAP2 AND EQ ISZERO PUSH2 0x10BF JUMPI PUSH1 0x7 SLOAD PUSH1 0x40 MLOAD PUSH4 0x4E45AAF PUSH1 0xE0 SHL DUP2 MSTORE PUSH1 0x1 PUSH1 0x1 PUSH1 0xA0 SHL SUB SWAP1 SWAP2 AND SWAP1 PUSH4 0x4E45AAF SWAP1 CALLVALUE SWAP1 PUSH2 0x1067 SWAP1 DUP6 SWAP1 PUSH1 0x4 ADD PUSH2 0x1FB2 JUMP JUMPDEST PUSH1 0x20 PUSH1 0x40 MLOAD DUP1 DUP4 SUB DUP2 DUP6 DUP9 DUP1 EXTCODESIZE ISZERO DUP1 ISZERO PUSH2 0x1080 JUMPI PUSH1 0x0 DUP1 REVERT JUMPDEST POP GAS CALL ISZERO DUP1 ISZERO PUSH2 0x1094 JUMPI RETURNDATASIZE PUSH1 0x0 DUP1 RETURNDATACOPY RETURNDATASIZE PUSH1 0x0 REVERT JUMPDEST POP POP POP POP POP PUSH1 0x40 MLOAD RETURNDATASIZE PUSH1 0x1F NOT PUSH1 0x1F DUP3 ADD AND DUP3 ADD DUP1 PUSH1 0x40 MSTORE POP DUP2 ADD SWAP1 PUSH2 0x10B9 SWAP2 SWAP1 PUSH2 0x1DD6 JUMP JUMPDEST POP PUSH2 0x1164 JUMP JUMPDEST PUSH2 0x10D4 PUSH1 0x1 PUSH1 0x1 PUSH1 0xA0 SHL SUB DUP6 AND CALLER ADDRESS DUP6 PUSH2 0x163D JUMP JUMPDEST PUSH2 0x10DE DUP5 DUP4 PUSH2 0x1675 JUMP JUMPDEST PUSH1 0x7 SLOAD PUSH1 0x40 MLOAD PUSH4 0x4E45AAF PUSH1 0xE0 SHL DUP2 MSTORE PUSH1 0x1 PUSH1 0x1 PUSH1 0xA0 SHL SUB SWAP1 SWAP2 AND SWAP1 PUSH4 0x4E45AAF SWAP1 CALLVALUE SWAP1 PUSH2 0x1110 SWAP1 DUP6 SWAP1 PUSH1 0x4 ADD PUSH2 0x1FB2 JUMP JUMPDEST PUSH1 0x20 PUSH1 0x40 MLOAD DUP1 DUP4 SUB DUP2 DUP6 DUP9 DUP1 EXTCODESIZE ISZERO DUP1 ISZERO PUSH2 0x1129 JUMPI PUSH1 0x0 DUP1 REVERT JUMPDEST POP GAS CALL ISZERO DUP1 ISZERO PUSH2 0x113D JUMPI RETURNDATASIZE PUSH1 0x0 DUP1 RETURNDATACOPY RETURNDATASIZE PUSH1 0x0 REVERT JUMPDEST POP POP POP POP POP PUSH1 0x40 MLOAD RETURNDATASIZE PUSH1 0x1F NOT PUSH1 0x1F DUP3 ADD AND DUP3 ADD DUP1 PUSH1 0x40 MSTORE POP DUP2 ADD SWAP1 PUSH2 0x1162 SWAP2 SWAP1 PUSH2 0x1DD6 JUMP JUMPDEST POP JUMPDEST PUSH1 0x7 PUSH1 0x0 SWAP1 SLOAD SWAP1 PUSH2 0x100 EXP SWAP1 DIV PUSH1 0x1 PUSH1 0x1 PUSH1 0xA0 SHL SUB AND PUSH1 0x1 PUSH1 0x1 PUSH1 0xA0 SHL SUB AND PUSH4 0x12210E8A PUSH1 0x40 MLOAD DUP2 PUSH4 0xFFFFFFFF AND PUSH1 0xE0 SHL DUP2 MSTORE PUSH1 0x4 ADD PUSH1 0x0 PUSH1 0x40 MLOAD DUP1 DUP4 SUB DUP2 PUSH1 0x0 DUP8 DUP1 EXTCODESIZE ISZERO DUP1 ISZERO PUSH2 0x11B4 JUMPI PUSH1 0x0 DUP1 REVERT JUMPDEST POP GAS CALL ISZERO DUP1 ISZERO PUSH2 0x11C8 JUMPI RETURNDATASIZE PUSH1 0x0 DUP1 RETURNDATACOPY RETURNDATASIZE PUSH1 0x0 REVERT JUMPDEST POP POP PUSH1 0x40 MLOAD PUSH1 0x0 SWAP3 POP CALLER SWAP2 POP SELFBALANCE SWAP1 DUP4 DUP2 DUP2 DUP2 DUP6 DUP8 GAS CALL SWAP3 POP POP POP RETURNDATASIZE DUP1 PUSH1 0x0 DUP2 EQ PUSH2 0x120E JUMPI PUSH1 0x40 MLOAD SWAP2 POP PUSH1 0x1F NOT PUSH1 0x3F RETURNDATASIZE ADD AND DUP3 ADD PUSH1 0x40 MSTORE RETURNDATASIZE DUP3 MSTORE RETURNDATASIZE PUSH1 0x0 PUSH1 0x20 DUP5 ADD RETURNDATACOPY PUSH2 0x1213 JUMP JUMPDEST PUSH1 0x60 SWAP2 POP JUMPDEST POP POP SWAP1 POP DUP1 PUSH2 0x1254 JUMPI PUSH1 0x40 MLOAD PUSH3 0x461BCD PUSH1 0xE5 SHL DUP2 MSTORE PUSH1 0x20 PUSH1 0x4 DUP3 ADD MSTORE PUSH1 0xD PUSH1 0x24 DUP3 ADD MSTORE PUSH13 0x1C99599D5B990819985A5B1959 PUSH1 0x9A SHL PUSH1 0x44 DUP3 ADD MSTORE PUSH1 0x64 ADD PUSH2 0x505 JUMP JUMPDEST POP POP POP POP POP JUMP JUMPDEST PUSH1 0x0 SLOAD PUSH1 0x1 PUSH1 0x1 PUSH1 0xA0 SHL SUB AND CALLER EQ PUSH2 0x1285 JUMPI PUSH1 0x40 MLOAD PUSH3 0x461BCD PUSH1 0xE5 SHL DUP2 MSTORE PUSH1 0x4 ADD PUSH2 0x505 SWAP1 PUSH2 0x1F7D JUMP JUMPDEST PUSH1 0x1 PUSH1 0x1 PUSH1 0xA0 SHL SUB DUP2 AND PUSH2 0x12EA JUMPI PUSH1 0x40 MLOAD PUSH3 0x461BCD PUSH1 0xE5 SHL DUP2 MSTORE PUSH1 0x20 PUSH1 0x4 DUP3 ADD MSTORE PUSH1 0x26 PUSH1 0x24 DUP3 ADD MSTORE PUSH32 0x4F776E61626C653A206E6577206F776E657220697320746865207A65726F2061 PUSH1 0x44 DUP3 ADD MSTORE PUSH6 0x646472657373 PUSH1 0xD0 SHL PUSH1 0x64 DUP3 ADD MSTORE PUSH1 0x84 ADD PUSH2 0x505 JUMP JUMPDEST PUSH2 0x12F3 DUP2 PUSH2 0x15ED JUMP JUMPDEST POP JUMP JUMPDEST PUSH1 0x0 SLOAD PUSH1 0x1 PUSH1 0x1 PUSH1 0xA0 SHL SUB AND CALLER EQ PUSH2 0x1320 JUMPI PUSH1 0x40 MLOAD PUSH3 0x461BCD PUSH1 0xE5 SHL DUP2 MSTORE PUSH1 0x4 ADD PUSH2 0x505 SWAP1 PUSH2 0x1F7D JUMP JUMPDEST PUSH1 0x0 DUP1 SLOAD PUSH1 0x40 MLOAD PUSH1 0x1 PUSH1 0x1 PUSH1 0xA0 SHL SUB SWAP1 SWAP2 AND SWAP1 DUP4 SWAP1 DUP4 DUP2 DUP2 DUP2 DUP6 DUP8 GAS CALL SWAP3 POP POP POP RETURNDATASIZE DUP1 PUSH1 0x0 DUP2 EQ PUSH2 0x136D JUMPI PUSH1 0x40 MLOAD SWAP2 POP PUSH1 0x1F NOT PUSH1 0x3F RETURNDATASIZE ADD AND DUP3 ADD PUSH1 0x40 MSTORE RETURNDATASIZE DUP3 MSTORE RETURNDATASIZE PUSH1 0x0 PUSH1 0x20 DUP5 ADD RETURNDATACOPY PUSH2 0x1372 JUMP JUMPDEST PUSH1 0x60 SWAP2 POP JUMPDEST POP POP SWAP1 POP DUP1 PUSH2 0x94B JUMPI PUSH1 0x40 MLOAD PUSH3 0x461BCD PUSH1 0xE5 SHL DUP2 MSTORE PUSH1 0x20 PUSH1 0x4 DUP3 ADD MSTORE PUSH1 0x14 PUSH1 0x24 DUP3 ADD MSTORE PUSH20 0x2330B4B632B2103A379039B2B7321022BA3432B9 PUSH1 0x61 SHL PUSH1 0x44 DUP3 ADD MSTORE PUSH1 0x64 ADD PUSH2 0x505 JUMP JUMPDEST PUSH1 0x40 MLOAD PUSH1 0x1 PUSH1 0x1 PUSH1 0xA0 SHL SUB DUP4 AND PUSH1 0x24 DUP3 ADD MSTORE PUSH1 0x44 DUP2 ADD DUP3 SWAP1 MSTORE PUSH2 0x5B0 SWAP1 DUP5 SWAP1 PUSH4 0xA9059CBB PUSH1 0xE0 SHL SWAP1 PUSH1 0x64 ADD JUMPDEST PUSH1 0x40 DUP1 MLOAD PUSH1 0x1F NOT DUP2 DUP5 SUB ADD DUP2 MSTORE SWAP2 SWAP1 MSTORE PUSH1 0x20 DUP2 ADD DUP1 MLOAD PUSH1 0x1 PUSH1 0x1 PUSH1 0xE0 SHL SUB AND PUSH1 0x1 PUSH1 0x1 PUSH1 0xE0 SHL SUB NOT SWAP1 SWAP4 AND SWAP3 SWAP1 SWAP3 OR SWAP1 SWAP2 MSTORE PUSH2 0x16AE JUMP JUMPDEST PUSH1 0x0 DUP3 GT PUSH2 0x1481 JUMPI PUSH1 0x40 MLOAD PUSH3 0x461BCD PUSH1 0xE5 SHL DUP2 MSTORE PUSH1 0x20 PUSH1 0x4 DUP3 ADD MSTORE PUSH1 0x2B PUSH1 0x24 DUP3 ADD MSTORE PUSH32 0x506174746965537761703A20616D6F756E74496E206D75737420626520677265 PUSH1 0x44 DUP3 ADD MSTORE PUSH11 0x61746572207468616E203 PUSH1 0xAC SHL PUSH1 0x64 DUP3 ADD MSTORE PUSH1 0x84 ADD PUSH2 0x505 JUMP JUMPDEST PUSH1 0x1 PUSH1 0x1 PUSH1 0xA0 SHL SUB DUP5 AND PUSH2 0x1557 JUMPI CALLVALUE DUP3 LT ISZERO PUSH2 0x14DF JUMPI PUSH1 0x40 MLOAD PUSH3 0x461BCD PUSH1 0xE5 SHL DUP2 MSTORE PUSH1 0x20 PUSH1 0x4 DUP3 ADD MSTORE PUSH1 0x1C PUSH1 0x24 DUP3 ADD MSTORE PUSH32 0x506174746965537761703A20496E73756666696369656E742045544800000000 PUSH1 0x44 DUP3 ADD MSTORE PUSH1 0x64 ADD PUSH2 0x505 JUMP JUMPDEST PUSH1 0x0 PUSH2 0x2710 PUSH1 0x1 SLOAD DUP5 PUSH2 0x14F2 SWAP2 SWAP1 PUSH2 0x21E0 JUMP JUMPDEST PUSH2 0x14FC SWAP2 SWAP1 PUSH2 0x20D2 JUMP JUMPDEST PUSH1 0x4 SLOAD PUSH1 0x40 MLOAD SWAP2 SWAP3 POP PUSH1 0x1 PUSH1 0x1 PUSH1 0xA0 SHL SUB AND SWAP1 DUP3 ISZERO PUSH2 0x8FC MUL SWAP1 DUP4 SWAP1 PUSH1 0x0 DUP2 DUP2 DUP2 DUP6 DUP9 DUP9 CALL SWAP4 POP POP POP POP ISZERO DUP1 ISZERO PUSH2 0x1537 JUMPI RETURNDATASIZE PUSH1 0x0 DUP1 RETURNDATACOPY RETURNDATASIZE PUSH1 0x0 REVERT JUMPDEST POP PUSH1 0x0 PUSH2 0x1544 DUP3 DUP6 PUSH2 0x21FF JUMP JUMPDEST SWAP1 POP PUSH2 0x1550 DUP2 DUP5 PUSH2 0x1780 JUMP JUMPDEST POP POP PUSH2 0x8E2 JUMP JUMPDEST PUSH2 0x156C PUSH1 0x1 PUSH1 0x1 PUSH1 0xA0 SHL SUB DUP6 AND CALLER ADDRESS DUP6 PUSH2 0x163D JUMP JUMPDEST PUSH1 0x0 PUSH2 0x2710 PUSH1 0x1 SLOAD DUP5 PUSH2 0x157F SWAP2 SWAP1 PUSH2 0x21E0 JUMP JUMPDEST PUSH2 0x1589 SWAP2 SWAP1 PUSH2 0x20D2 JUMP JUMPDEST PUSH1 0x4 SLOAD SWAP1 SWAP2 POP PUSH2 0x15A6 SWAP1 PUSH1 0x1 PUSH1 0x1 PUSH1 0xA0 SHL SUB DUP8 DUP2 AND SWAP2 AND DUP4 PUSH2 0x13BA JUMP JUMPDEST PUSH1 0x0 PUSH2 0x15B2 DUP3 DUP6 PUSH2 0x21FF JUMP JUMPDEST SWAP1 POP PUSH2 0x15BE DUP7 DUP3 PUSH2 0x180F JUMP JUMPDEST PUSH1 0x1 PUSH1 0x1 PUSH1 0xA0 SHL SUB DUP6 AND PUSH2 0x15DB JUMPI PUSH2 0x15D6 DUP2 DUP5 PUSH2 0x1848 JUMP JUMPDEST PUSH2 0x15E5 JUMP JUMPDEST PUSH2 0x15E5 DUP2 DUP5 PUSH2 0x18D7 JUMP JUMPDEST POP POP POP POP POP POP JUMP JUMPDEST PUSH1 0x0 DUP1 SLOAD PUSH1 0x1 PUSH1 0x1 PUSH1 0xA0 SHL SUB DUP4 DUP2 AND PUSH1 0x1 PUSH1 0x1 PUSH1 0xA0 SHL SUB NOT DUP4 AND DUP2 OR DUP5 SSTORE PUSH1 0x40 MLOAD SWAP2 SWAP1 SWAP3 AND SWAP3 DUP4 SWAP2 PUSH32 0x8BE0079C531659141344CD1FD0A4F28419497F9722A3DAAFE3B4186F6B6457E0 SWAP2 SWAP1 LOG3 POP POP JUMP JUMPDEST PUSH1 0x40 MLOAD PUSH1 0x1 PUSH1 0x1 PUSH1 0xA0 SHL SUB DUP1 DUP6 AND PUSH1 0x24 DUP4 ADD MSTORE DUP4 AND PUSH1 0x44 DUP3 ADD MSTORE PUSH1 0x64 DUP2 ADD DUP3 SWAP1 MSTORE PUSH2 0x8E2 SWAP1 DUP6 SWAP1 PUSH4 0x23B872DD PUSH1 0xE0 SHL SWAP1 PUSH1 0x84 ADD PUSH2 0x13E6 JUMP JUMPDEST PUSH1 0x7 SLOAD PUSH1 0x40 MLOAD PUSH4 0x95EA7B3 PUSH1 0xE0 SHL DUP2 MSTORE PUSH1 0x1 PUSH1 0x1 PUSH1 0xA0 SHL SUB SWAP2 DUP3 AND PUSH1 0x4 DUP3 ADD MSTORE PUSH1 0x24 DUP2 ADD DUP4 SWAP1 MSTORE SWAP1 DUP4 AND SWAP1 PUSH4 0x95EA7B3 SWAP1 PUSH1 0x44 ADD PUSH2 0x55E JUMP JUMPDEST PUSH1 0x0 PUSH2 0x1703 DUP3 PUSH1 0x40 MLOAD DUP1 PUSH1 0x40 ADD PUSH1 0x40 MSTORE DUP1 PUSH1 0x20 DUP2 MSTORE PUSH1 0x20 ADD PUSH32 0x5361666545524332303A206C6F772D6C6576656C2063616C6C206661696C6564 DUP2 MSTORE POP DUP6 PUSH1 0x1 PUSH1 0x1 PUSH1 0xA0 SHL SUB AND PUSH2 0x1910 SWAP1 SWAP3 SWAP2 SWAP1 PUSH4 0xFFFFFFFF AND JUMP JUMPDEST DUP1 MLOAD SWAP1 SWAP2 POP ISZERO PUSH2 0x5B0 JUMPI DUP1 DUP1 PUSH1 0x20 ADD SWAP1 MLOAD DUP2 ADD SWAP1 PUSH2 0x1721 SWAP2 SWAP1 PUSH2 0x1D0A JUMP JUMPDEST PUSH2 0x5B0 JUMPI PUSH1 0x40 MLOAD PUSH3 0x461BCD PUSH1 0xE5 SHL DUP2 MSTORE PUSH1 0x20 PUSH1 0x4 DUP3 ADD MSTORE PUSH1 0x2A PUSH1 0x24 DUP3 ADD MSTORE PUSH32 0x5361666545524332303A204552433230206F7065726174696F6E20646964206E PUSH1 0x44 DUP3 ADD MSTORE PUSH10 0x1BDD081CDD58D8D95959 PUSH1 0xB2 SHL PUSH1 0x64 DUP3 ADD MSTORE PUSH1 0x84 ADD PUSH2 0x505 JUMP JUMPDEST PUSH1 0x5 SLOAD PUSH1 0x40 MLOAD PUSH4 0x7FF36AB5 PUSH1 0xE0 SHL DUP2 MSTORE PUSH1 0x1 PUSH1 0x1 PUSH1 0xA0 SHL SUB SWAP1 SWAP2 AND SWAP1 PUSH4 0x7FF36AB5 SWAP1 DUP5 SWAP1 PUSH2 0x17B9 SWAP1 PUSH1 0x0 SWAP1 DUP7 SWAP1 CALLER SWAP1 TIMESTAMP SWAP1 PUSH1 0x4 ADD PUSH2 0x1ED3 JUMP JUMPDEST PUSH1 0x0 PUSH1 0x40 MLOAD DUP1 DUP4 SUB DUP2 DUP6 DUP9 DUP1 EXTCODESIZE ISZERO DUP1 ISZERO PUSH2 0x17D2 JUMPI PUSH1 0x0 DUP1 REVERT JUMPDEST POP GAS CALL ISZERO DUP1 ISZERO PUSH2 0x17E6 JUMPI RETURNDATASIZE PUSH1 0x0 DUP1 RETURNDATACOPY RETURNDATASIZE PUSH1 0x0 REVERT JUMPDEST POP POP POP POP POP PUSH1 0x40 MLOAD RETURNDATASIZE PUSH1 0x0 DUP3 RETURNDATACOPY PUSH1 0x1F RETURNDATASIZE SWAP1 DUP2 ADD PUSH1 0x1F NOT AND DUP3 ADD PUSH1 0x40 MSTORE PUSH2 0x5B0 SWAP2 SWAP1 DUP2 ADD SWAP1 PUSH2 0x1C77 JUMP JUMPDEST PUSH1 0x5 SLOAD PUSH1 0x40 MLOAD PUSH4 0x95EA7B3 PUSH1 0xE0 SHL DUP2 MSTORE PUSH1 0x1 PUSH1 0x1 PUSH1 0xA0 SHL SUB SWAP2 DUP3 AND PUSH1 0x4 DUP3 ADD MSTORE PUSH1 0x24 DUP2 ADD DUP4 SWAP1 MSTORE SWAP1 DUP4 AND SWAP1 PUSH4 0x95EA7B3 SWAP1 PUSH1 0x44 ADD PUSH2 0x55E JUMP JUMPDEST PUSH1 0x5 SLOAD PUSH1 0x40 MLOAD PUSH4 0x18CBAFE5 PUSH1 0xE0 SHL DUP2 MSTORE PUSH1 0x1 PUSH1 0x1 PUSH1 0xA0 SHL SUB SWAP1 SWAP2 AND SWAP1 PUSH4 0x18CBAFE5 SWAP1 PUSH2 0x1881 SWAP1 DUP6 SWAP1 PUSH1 0x0 SWAP1 DUP7 SWAP1 CALLER SWAP1 TIMESTAMP SWAP1 PUSH1 0x4 ADD PUSH2 0x2029 JUMP JUMPDEST PUSH1 0x0 PUSH1 0x40 MLOAD DUP1 DUP4 SUB DUP2 PUSH1 0x0 DUP8 DUP1 EXTCODESIZE ISZERO DUP1 ISZERO PUSH2 0x189B JUMPI PUSH1 0x0 DUP1 REVERT JUMPDEST POP GAS CALL ISZERO DUP1 ISZERO PUSH2 0x18AF JUMPI RETURNDATASIZE PUSH1 0x0 DUP1 RETURNDATACOPY RETURNDATASIZE PUSH1 0x0 REVERT JUMPDEST POP POP POP POP PUSH1 0x40 MLOAD RETURNDATASIZE PUSH1 0x0 DUP3 RETURNDATACOPY PUSH1 0x1F RETURNDATASIZE SWAP1 DUP2 ADD PUSH1 0x1F NOT AND DUP3 ADD PUSH1 0x40 MSTORE PUSH2 0x5B0 SWAP2 SWAP1 DUP2 ADD SWAP1 PUSH2 0x1C77 JUMP JUMPDEST PUSH1 0x5 SLOAD PUSH1 0x40 MLOAD PUSH4 0x38ED1739 PUSH1 0xE0 SHL DUP2 MSTORE PUSH1 0x1 PUSH1 0x1 PUSH1 0xA0 SHL SUB SWAP1 SWAP2 AND SWAP1 PUSH4 0x38ED1739 SWAP1 PUSH2 0x1881 SWAP1 DUP6 SWAP1 PUSH1 0x0 SWAP1 DUP7 SWAP1 CALLER SWAP1 TIMESTAMP SWAP1 PUSH1 0x4 ADD PUSH2 0x2029 JUMP JUMPDEST PUSH1 0x60 PUSH2 0x191F DUP5 DUP5 PUSH1 0x0 DUP6 PUSH2 0x1929 JUMP JUMPDEST SWAP1 POP JUMPDEST SWAP4 SWAP3 POP POP POP JUMP JUMPDEST PUSH1 0x60 DUP3 SELFBALANCE LT ISZERO PUSH2 0x198A JUMPI PUSH1 0x40 MLOAD PUSH3 0x461BCD PUSH1 0xE5 SHL DUP2 MSTORE PUSH1 0x20 PUSH1 0x4 DUP3 ADD MSTORE PUSH1 0x26 PUSH1 0x24 DUP3 ADD MSTORE PUSH32 0x416464726573733A20696E73756666696369656E742062616C616E636520666F PUSH1 0x44 DUP3 ADD MSTORE PUSH6 0x1C8818D85B1B PUSH1 0xD2 SHL PUSH1 0x64 DUP3 ADD MSTORE PUSH1 0x84 ADD PUSH2 0x505 JUMP JUMPDEST PUSH1 0x1 PUSH1 0x1 PUSH1 0xA0 SHL SUB DUP6 AND EXTCODESIZE PUSH2 0x19E1 JUMPI PUSH1 0x40 MLOAD PUSH3 0x461BCD PUSH1 0xE5 SHL DUP2 MSTORE PUSH1 0x20 PUSH1 0x4 DUP3 ADD MSTORE PUSH1 0x1D PUSH1 0x24 DUP3 ADD MSTORE PUSH32 0x416464726573733A2063616C6C20746F206E6F6E2D636F6E7472616374000000 PUSH1 0x44 DUP3 ADD MSTORE PUSH1 0x64 ADD PUSH2 0x505 JUMP JUMPDEST PUSH1 0x0 DUP1 DUP7 PUSH1 0x1 PUSH1 0x1 PUSH1 0xA0 SHL SUB AND DUP6 DUP8 PUSH1 0x40 MLOAD PUSH2 0x19FD SWAP2 SWAP1 PUSH2 0x1EB7 JUMP JUMPDEST PUSH1 0x0 PUSH1 0x40 MLOAD DUP1 DUP4 SUB DUP2 DUP6 DUP8 GAS CALL SWAP3 POP POP POP RETURNDATASIZE DUP1 PUSH1 0x0 DUP2 EQ PUSH2 0x1A3A JUMPI PUSH1 0x40 MLOAD SWAP2 POP PUSH1 0x1F NOT PUSH1 0x3F RETURNDATASIZE ADD AND DUP3 ADD PUSH1 0x40 MSTORE RETURNDATASIZE DUP3 MSTORE RETURNDATASIZE PUSH1 0x0 PUSH1 0x20 DUP5 ADD RETURNDATACOPY PUSH2 0x1A3F JUMP JUMPDEST PUSH1 0x60 SWAP2 POP JUMPDEST POP SWAP2 POP SWAP2 POP PUSH2 0x1A4F DUP3 DUP3 DUP7 PUSH2 0x1A5A JUMP JUMPDEST SWAP8 SWAP7 POP POP POP POP POP POP POP JUMP JUMPDEST PUSH1 0x60 DUP4 ISZERO PUSH2 0x1A69 JUMPI POP DUP2 PUSH2 0x1922 JUMP JUMPDEST DUP3 MLOAD ISZERO PUSH2 0x1A79 JUMPI DUP3 MLOAD DUP1 DUP5 PUSH1 0x20 ADD REVERT JUMPDEST DUP2 PUSH1 0x40 MLOAD PUSH3 0x461BCD PUSH1 0xE5 SHL DUP2 MSTORE PUSH1 0x4 ADD PUSH2 0x505 SWAP2 SWAP1 PUSH2 0x1F08 JUMP JUMPDEST PUSH1 0x0 DUP3 PUSH1 0x1F DUP4 ADD SLT PUSH2 0x1AA3 JUMPI DUP1 DUP2 REVERT JUMPDEST DUP2 CALLDATALOAD PUSH1 0x20 PUSH2 0x1AB8 PUSH2 0x1AB3 DUP4 PUSH2 0x2096 JUMP JUMPDEST PUSH2 0x2065 JUMP JUMPDEST DUP1 DUP4 DUP3 MSTORE DUP3 DUP3 ADD SWAP2 POP DUP3 DUP7 ADD DUP8 DUP5 DUP7 PUSH1 0x5 SHL DUP10 ADD ADD GT ISZERO PUSH2 0x1AD7 JUMPI DUP6 DUP7 REVERT JUMPDEST DUP6 JUMPDEST DUP6 DUP2 LT ISZERO PUSH2 0x1AFE JUMPI DUP2 CALLDATALOAD PUSH2 0x1AEC DUP2 PUSH2 0x226E JUMP JUMPDEST DUP5 MSTORE SWAP3 DUP5 ADD SWAP3 SWAP1 DUP5 ADD SWAP1 PUSH1 0x1 ADD PUSH2 0x1AD9 JUMP JUMPDEST POP SWAP1 SWAP8 SWAP7 POP POP POP POP POP POP POP JUMP JUMPDEST DUP1 MLOAD DUP1 ISZERO ISZERO DUP2 EQ PUSH2 0x1B1B JUMPI PUSH1 0x0 DUP1 REVERT JUMPDEST SWAP2 SWAP1 POP JUMP JUMPDEST DUP1 MLOAD PUSH2 0xFFFF DUP2 AND DUP2 EQ PUSH2 0x1B1B JUMPI PUSH1 0x0 DUP1 REVERT JUMPDEST PUSH1 0x0 PUSH1 0x20 DUP3 DUP5 SUB SLT ISZERO PUSH2 0x1B43 JUMPI DUP1 DUP2 REVERT JUMPDEST DUP2 CALLDATALOAD PUSH2 0x1922 DUP2 PUSH2 0x226E JUMP JUMPDEST PUSH1 0x0 PUSH1 0x20 DUP3 DUP5 SUB SLT ISZERO PUSH2 0x1B5F JUMPI DUP1 DUP2 REVERT JUMPDEST DUP2 MLOAD PUSH2 0x1922 DUP2 PUSH2 0x226E JUMP JUMPDEST PUSH1 0x0 DUP1 PUSH1 0x40 DUP4 DUP6 SUB SLT ISZERO PUSH2 0x1B7C JUMPI DUP1 DUP2 REVERT JUMPDEST DUP3 CALLDATALOAD PUSH2 0x1B87 DUP2 PUSH2 0x226E JUMP JUMPDEST SWAP2 POP PUSH1 0x20 DUP4 ADD CALLDATALOAD PUSH2 0x1B97 DUP2 PUSH2 0x226E JUMP JUMPDEST DUP1 SWAP2 POP POP SWAP3 POP SWAP3 SWAP1 POP JUMP JUMPDEST PUSH1 0x0 DUP1 PUSH1 0x0 PUSH1 0x60 DUP5 DUP7 SUB SLT ISZERO PUSH2 0x1BB6 JUMPI DUP1 DUP2 REVERT JUMPDEST DUP4 CALLDATALOAD PUSH2 0x1BC1 DUP2 PUSH2 0x226E JUMP JUMPDEST SWAP3 POP PUSH1 0x20 DUP5 ADD CALLDATALOAD PUSH2 0x1BD1 DUP2 PUSH2 0x226E JUMP JUMPDEST SWAP3 SWAP6 SWAP3 SWAP5 POP POP POP PUSH1 0x40 SWAP2 SWAP1 SWAP2 ADD CALLDATALOAD SWAP1 JUMP JUMPDEST PUSH1 0x0 DUP1 PUSH1 0x0 DUP1 PUSH1 0x80 DUP6 DUP8 SUB SLT ISZERO PUSH2 0x1BF7 JUMPI DUP1 DUP2 REVERT JUMPDEST DUP5 CALLDATALOAD PUSH2 0x1C02 DUP2 PUSH2 0x226E JUMP JUMPDEST SWAP4 POP PUSH1 0x20 DUP6 ADD CALLDATALOAD PUSH2 0x1C12 DUP2 PUSH2 0x226E JUMP JUMPDEST SWAP3 POP PUSH1 0x40 DUP6 ADD CALLDATALOAD SWAP2 POP PUSH1 0x60 DUP6 ADD CALLDATALOAD PUSH8 0xFFFFFFFFFFFFFFFF DUP2 GT ISZERO PUSH2 0x1C34 JUMPI DUP2 DUP3 REVERT JUMPDEST PUSH2 0x1C40 DUP8 DUP3 DUP9 ADD PUSH2 0x1A93 JUMP JUMPDEST SWAP2 POP POP SWAP3 SWAP6 SWAP2 SWAP5 POP SWAP3 POP JUMP JUMPDEST PUSH1 0x0 DUP1 PUSH1 0x40 DUP4 DUP6 SUB SLT ISZERO PUSH2 0x1C5E JUMPI DUP2 DUP3 REVERT JUMPDEST DUP3 CALLDATALOAD PUSH2 0x1C69 DUP2 PUSH2 0x226E JUMP JUMPDEST SWAP5 PUSH1 0x20 SWAP4 SWAP1 SWAP4 ADD CALLDATALOAD SWAP4 POP POP POP JUMP JUMPDEST PUSH1 0x0 PUSH1 0x20 DUP1 DUP4 DUP6 SUB SLT ISZERO PUSH2 0x1C89 JUMPI DUP2 DUP3 REVERT JUMPDEST DUP3 MLOAD PUSH8 0xFFFFFFFFFFFFFFFF DUP2 GT ISZERO PUSH2 0x1C9F JUMPI DUP3 DUP4 REVERT JUMPDEST DUP4 ADD PUSH1 0x1F DUP2 ADD DUP6 SGT PUSH2 0x1CAF JUMPI DUP3 DUP4 REVERT JUMPDEST DUP1 MLOAD PUSH2 0x1CBD PUSH2 0x1AB3 DUP3 PUSH2 0x2096 JUMP JUMPDEST DUP1 DUP3 DUP3 MSTORE DUP5 DUP3 ADD SWAP2 POP DUP5 DUP5 ADD DUP9 DUP7 DUP6 PUSH1 0x5 SHL DUP8 ADD ADD GT ISZERO PUSH2 0x1CDC JUMPI DUP7 DUP8 REVERT JUMPDEST DUP7 SWAP5 POP JUMPDEST DUP4 DUP6 LT ISZERO PUSH2 0x1CFE JUMPI DUP1 MLOAD DUP4 MSTORE PUSH1 0x1 SWAP5 SWAP1 SWAP5 ADD SWAP4 SWAP2 DUP6 ADD SWAP2 DUP6 ADD PUSH2 0x1CE0 JUMP JUMPDEST POP SWAP8 SWAP7 POP POP POP POP POP POP POP JUMP JUMPDEST PUSH1 0x0 PUSH1 0x20 DUP3 DUP5 SUB SLT ISZERO PUSH2 0x1D1B JUMPI DUP1 DUP2 REVERT JUMPDEST PUSH2 0x1922 DUP3 PUSH2 0x1B0B JUMP JUMPDEST PUSH1 0x0 DUP1 PUSH1 0x0 DUP1 PUSH1 0x0 DUP1 PUSH1 0x0 PUSH1 0xE0 DUP9 DUP11 SUB SLT ISZERO PUSH2 0x1D3E JUMPI DUP3 DUP4 REVERT JUMPDEST DUP8 MLOAD PUSH2 0x1D49 DUP2 PUSH2 0x226E JUMP JUMPDEST DUP1 SWAP8 POP POP PUSH1 0x20 DUP9 ADD MLOAD DUP1 PUSH1 0x2 SIGNEXTEND DUP2 EQ PUSH2 0x1D60 JUMPI DUP4 DUP5 REVERT JUMPDEST SWAP6 POP PUSH2 0x1D6E PUSH1 0x40 DUP10 ADD PUSH2 0x1B20 JUMP JUMPDEST SWAP5 POP PUSH2 0x1D7C PUSH1 0x60 DUP10 ADD PUSH2 0x1B20 JUMP JUMPDEST SWAP4 POP PUSH2 0x1D8A PUSH1 0x80 DUP10 ADD PUSH2 0x1B20 JUMP JUMPDEST SWAP3 POP PUSH1 0xA0 DUP9 ADD MLOAD PUSH4 0xFFFFFFFF DUP2 AND DUP2 EQ PUSH2 0x1DA2 JUMPI DUP3 DUP4 REVERT JUMPDEST SWAP2 POP PUSH2 0x1DB0 PUSH1 0xC0 DUP10 ADD PUSH2 0x1B0B JUMP JUMPDEST SWAP1 POP SWAP3 SWAP6 SWAP9 SWAP2 SWAP5 SWAP8 POP SWAP3 SWAP6 POP JUMP JUMPDEST PUSH1 0x0 PUSH1 0x20 DUP3 DUP5 SUB SLT ISZERO PUSH2 0x1DCF JUMPI DUP1 DUP2 REVERT JUMPDEST POP CALLDATALOAD SWAP2 SWAP1 POP JUMP JUMPDEST PUSH1 0x0 PUSH1 0x20 DUP3 DUP5 SUB SLT ISZERO PUSH2 0x1DE7 JUMPI DUP1 DUP2 REVERT JUMPDEST POP MLOAD SWAP2 SWAP1 POP JUMP JUMPDEST PUSH1 0x0 DUP1 PUSH1 0x0 PUSH1 0x60 DUP5 DUP7 SUB SLT ISZERO PUSH2 0x1E02 JUMPI DUP1 DUP2 REVERT JUMPDEST DUP4 CALLDATALOAD SWAP3 POP PUSH1 0x20 DUP5 ADD CALLDATALOAD PUSH2 0x1E14 DUP2 PUSH2 0x226E JUMP JUMPDEST SWAP2 POP PUSH1 0x40 DUP5 ADD CALLDATALOAD PUSH2 0x1E24 DUP2 PUSH2 0x226E JUMP JUMPDEST DUP1 SWAP2 POP POP SWAP3 POP SWAP3 POP SWAP3 JUMP JUMPDEST PUSH1 0x0 DUP1 PUSH1 0x40 DUP4 DUP6 SUB SLT ISZERO PUSH2 0x1E41 JUMPI DUP2 DUP3 REVERT JUMPDEST DUP3 CALLDATALOAD SWAP2 POP PUSH1 0x20 DUP4 ADD CALLDATALOAD PUSH8 0xFFFFFFFFFFFFFFFF DUP2 GT ISZERO PUSH2 0x1E5E JUMPI DUP2 DUP3 REVERT JUMPDEST PUSH2 0x1E6A DUP6 DUP3 DUP7 ADD PUSH2 0x1A93 JUMP JUMPDEST SWAP2 POP POP SWAP3 POP SWAP3 SWAP1 POP JUMP JUMPDEST PUSH1 0x0 DUP2 MLOAD DUP1 DUP5 MSTORE PUSH1 0x20 DUP1 DUP6 ADD SWAP5 POP DUP1 DUP5 ADD DUP4 JUMPDEST DUP4 DUP2 LT ISZERO PUSH2 0x1EAC JUMPI DUP2 MLOAD PUSH1 0x1 PUSH1 0x1 PUSH1 0xA0 SHL SUB AND DUP8 MSTORE SWAP6 DUP3 ADD SWAP6 SWAP1 DUP3 ADD SWAP1 PUSH1 0x1 ADD PUSH2 0x1E87 JUMP JUMPDEST POP SWAP5 SWAP6 SWAP5 POP POP POP POP POP JUMP JUMPDEST PUSH1 0x0 DUP3 MLOAD PUSH2 0x1EC9 DUP2 DUP5 PUSH1 0x20 DUP8 ADD PUSH2 0x2216 JUMP JUMPDEST SWAP2 SWAP1 SWAP2 ADD SWAP3 SWAP2 POP POP JUMP JUMPDEST DUP5 DUP2 MSTORE PUSH1 0x80 PUSH1 0x20 DUP3 ADD MSTORE PUSH1 0x0 PUSH2 0x1EEC PUSH1 0x80 DUP4 ADD DUP7 PUSH2 0x1E74 JUMP JUMPDEST PUSH1 0x1 PUSH1 0x1 PUSH1 0xA0 SHL SUB SWAP5 SWAP1 SWAP5 AND PUSH1 0x40 DUP4 ADD MSTORE POP PUSH1 0x60 ADD MSTORE SWAP3 SWAP2 POP POP JUMP JUMPDEST PUSH1 0x20 DUP2 MSTORE PUSH1 0x0 DUP3 MLOAD DUP1 PUSH1 0x20 DUP5 ADD MSTORE PUSH2 0x1F27 DUP2 PUSH1 0x40 DUP6 ADD PUSH1 0x20 DUP8 ADD PUSH2 0x2216 JUMP JUMPDEST PUSH1 0x1F ADD PUSH1 0x1F NOT AND SWAP2 SWAP1 SWAP2 ADD PUSH1 0x40 ADD SWAP3 SWAP2 POP POP JUMP JUMPDEST PUSH1 0x20 DUP1 DUP3 MSTORE PUSH1 0x22 SWAP1 DUP3 ADD MSTORE PUSH32 0x506174746965537761703A2050617468206D7573742062652073706563696669 PUSH1 0x40 DUP3 ADD MSTORE PUSH2 0x1959 PUSH1 0xF2 SHL PUSH1 0x60 DUP3 ADD MSTORE PUSH1 0x80 ADD SWAP1 JUMP JUMPDEST PUSH1 0x20 DUP1 DUP3 MSTORE DUP2 DUP2 ADD MSTORE PUSH32 0x4F776E61626C653A2063616C6C6572206973206E6F7420746865206F776E6572 PUSH1 0x40 DUP3 ADD MSTORE PUSH1 0x60 ADD SWAP1 JUMP JUMPDEST DUP2 MLOAD PUSH1 0x1 PUSH1 0x1 PUSH1 0xA0 SHL SUB SWAP1 DUP2 AND DUP3 MSTORE PUSH1 0x20 DUP1 DUP5 ADD MLOAD DUP3 AND SWAP1 DUP4 ADD MSTORE PUSH1 0x40 DUP1 DUP5 ADD MLOAD PUSH3 0xFFFFFF AND SWAP1 DUP4 ADD MSTORE PUSH1 0x60 DUP1 DUP5 ADD MLOAD DUP3 AND SWAP1 DUP4 ADD MSTORE PUSH1 0x80 DUP1 DUP5 ADD MLOAD SWAP1 DUP4 ADD MSTORE PUSH1 0xA0 DUP4 DUP2 ADD MLOAD SWAP1 DUP4 ADD MSTORE PUSH1 0xC0 SWAP3 DUP4 ADD MLOAD AND SWAP2 DUP2 ADD SWAP2 SWAP1 SWAP2 MSTORE PUSH1 0xE0 ADD SWAP1 JUMP JUMPDEST DUP3 DUP2 MSTORE PUSH1 0x40 PUSH1 0x20 DUP3 ADD MSTORE PUSH1 0x0 PUSH2 0x191F PUSH1 0x40 DUP4 ADD DUP5 PUSH2 0x1E74 JUMP JUMPDEST DUP6 DUP2 MSTORE DUP5 PUSH1 0x20 DUP3 ADD MSTORE PUSH1 0xA0 PUSH1 0x40 DUP3 ADD MSTORE PUSH1 0x0 PUSH2 0x2048 PUSH1 0xA0 DUP4 ADD DUP7 PUSH2 0x1E74 JUMP JUMPDEST PUSH1 0x1 PUSH1 0x1 PUSH1 0xA0 SHL SUB SWAP5 SWAP1 SWAP5 AND PUSH1 0x60 DUP4 ADD MSTORE POP PUSH1 0x80 ADD MSTORE SWAP4 SWAP3 POP POP POP JUMP JUMPDEST PUSH1 0x40 MLOAD PUSH1 0x1F DUP3 ADD PUSH1 0x1F NOT AND DUP2 ADD PUSH8 0xFFFFFFFFFFFFFFFF DUP2 GT DUP3 DUP3 LT OR ISZERO PUSH2 0x208E JUMPI PUSH2 0x208E PUSH2 0x2258 JUMP JUMPDEST PUSH1 0x40 MSTORE SWAP2 SWAP1 POP JUMP JUMPDEST PUSH1 0x0 PUSH8 0xFFFFFFFFFFFFFFFF DUP3 GT ISZERO PUSH2 0x20B0 JUMPI PUSH2 0x20B0 PUSH2 0x2258 JUMP JUMPDEST POP PUSH1 0x5 SHL PUSH1 0x20 ADD SWAP1 JUMP JUMPDEST PUSH1 0x0 DUP3 NOT DUP3 GT ISZERO PUSH2 0x20CD JUMPI PUSH2 0x20CD PUSH2 0x2242 JUMP JUMPDEST POP ADD SWAP1 JUMP JUMPDEST PUSH1 0x0 DUP3 PUSH2 0x20ED JUMPI PUSH4 0x4E487B71 PUSH1 0xE0 SHL DUP2 MSTORE PUSH1 0x12 PUSH1 0x4 MSTORE PUSH1 0x24 DUP2 REVERT JUMPDEST POP DIV SWAP1 JUMP JUMPDEST PUSH1 0x1 DUP2 DUP2 JUMPDEST DUP1 DUP6 GT ISZERO PUSH2 0x212D JUMPI DUP2 PUSH1 0x0 NOT DIV DUP3 GT ISZERO PUSH2 0x2113 JUMPI PUSH2 0x2113 PUSH2 0x2242 JUMP JUMPDEST DUP1 DUP6 AND ISZERO PUSH2 0x2120 JUMPI SWAP2 DUP2 MUL SWAP2 JUMPDEST SWAP4 DUP5 SHR SWAP4 SWAP1 DUP1 MUL SWAP1 PUSH2 0x20F7 JUMP JUMPDEST POP SWAP3 POP SWAP3 SWAP1 POP JUMP JUMPDEST PUSH1 0x0 PUSH2 0x1922 PUSH1 0xFF DUP5 AND DUP4 PUSH1 0x0 DUP3 PUSH2 0x214E JUMPI POP PUSH1 0x1 PUSH2 0xFBA JUMP JUMPDEST DUP2 PUSH2 0x215B JUMPI POP PUSH1 0x0 PUSH2 0xFBA JUMP JUMPDEST DUP2 PUSH1 0x1 DUP2 EQ PUSH2 0x2171 JUMPI PUSH1 0x2 DUP2 EQ PUSH2 0x217B JUMPI PUSH2 0x2197 JUMP JUMPDEST PUSH1 0x1 SWAP2 POP POP PUSH2 0xFBA JUMP JUMPDEST PUSH1 0xFF DUP5 GT ISZERO PUSH2 0x218C JUMPI PUSH2 0x218C PUSH2 0x2242 JUMP JUMPDEST POP POP PUSH1 0x1 DUP3 SHL PUSH2 0xFBA JUMP JUMPDEST POP PUSH1 0x20 DUP4 LT PUSH2 0x133 DUP4 LT AND PUSH1 0x4E DUP5 LT PUSH1 0xB DUP5 LT AND OR ISZERO PUSH2 0x21BA JUMPI POP DUP2 DUP2 EXP PUSH2 0xFBA JUMP JUMPDEST PUSH2 0x21C4 DUP4 DUP4 PUSH2 0x20F2 JUMP JUMPDEST DUP1 PUSH1 0x0 NOT DIV DUP3 GT ISZERO PUSH2 0x21D8 JUMPI PUSH2 0x21D8 PUSH2 0x2242 JUMP JUMPDEST MUL SWAP4 SWAP3 POP POP POP JUMP JUMPDEST PUSH1 0x0 DUP2 PUSH1 0x0 NOT DIV DUP4 GT DUP3 ISZERO ISZERO AND ISZERO PUSH2 0x21FA JUMPI PUSH2 0x21FA PUSH2 0x2242 JUMP JUMPDEST POP MUL SWAP1 JUMP JUMPDEST PUSH1 0x0 DUP3 DUP3 LT ISZERO PUSH2 0x2211 JUMPI PUSH2 0x2211 PUSH2 0x2242 JUMP JUMPDEST POP SUB SWAP1 JUMP JUMPDEST PUSH1 0x0 JUMPDEST DUP4 DUP2 LT ISZERO PUSH2 0x2231 JUMPI DUP2 DUP2 ADD MLOAD DUP4 DUP3 ADD MSTORE PUSH1 0x20 ADD PUSH2 0x2219 JUMP JUMPDEST DUP4 DUP2 GT ISZERO PUSH2 0x8E2 JUMPI POP POP PUSH1 0x0 SWAP2 ADD MSTORE JUMP JUMPDEST PUSH4 0x4E487B71 PUSH1 0xE0 SHL PUSH1 0x0 MSTORE PUSH1 0x11 PUSH1 0x4 MSTORE PUSH1 0x24 PUSH1 0x0 REVERT JUMPDEST PUSH4 0x4E487B71 PUSH1 0xE0 SHL PUSH1 0x0 MSTORE PUSH1 0x41 PUSH1 0x4 MSTORE PUSH1 0x24 PUSH1 0x0 REVERT JUMPDEST PUSH1 0x1 PUSH1 0x1 PUSH1 0xA0 SHL SUB DUP2 AND DUP2 EQ PUSH2 0x12F3 JUMPI PUSH1 0x0 DUP1 REVERT INVALID LOG2 PUSH5 0x6970667358 0x22 SLT KECCAK256 SWAP14 0xBD 0xA7 EXTCODESIZE 0x49 0xFC AND ADD DUP4 0xE0 0xE 0xF6 DUP5 0x2A 0xB4 0x2A NOT KECCAK256 AND PUSH30 0xB1DBB584C649C9398E194F1C64736F6C6343000804003300000000000000 "},"gasEstimates":{"creation":{"codeDepositCost":"1777800","executionCost":"infinite","totalCost":"infinite"},"external":{"airdrop()":"infinite","claimETH(uint256)":"infinite","claimToken(address,uint256)":"infinite","customSwapTokens(address,address,uint256,address[])":"infinite","emergencyWithdraw(address,uint256)":"infinite","emergencyWithdrawETH(uint256)":"infinite","factoryAddress()":"1071","feeAccount()":"1094","feePercent()":"1084","getOutputTokenAmount(uint256,address[])":"infinite","getV3OutputTokenAmount(uint256,address,address)":"infinite","owner()":"1088","renounceOwnership()":"23459","rewardAddress()":"1072","rewardAmount()":"1061","router()":"1114","routerAddress()":"1094","setFeeAccount(address)":"22117","setFeePercent(uint256)":"21131","setRewardAmount(uint256)":"21175","setRewardToken(address)":"22116","setRouterWAVAX(address,address)":"infinite","swapTokens(address,address,uint256)":"infinite","swapV2Tokens(address,address,uint256)":"infinite","transferOwnership(address)":"infinite","wavax()":"1050","wbnbAddress()":"1072"},"internal":{"_approve(address,uint256)":"infinite","_proceedToUniswap(address,address,uint256,address[] memory)":"infinite","_swapAVAXForTokens(uint256,address[] memory)":"infinite","_swapTokensForAVAX(uint256,address[] memory)":"infinite","_swapTokensForTokens(uint256,address[] memory)":"infinite","_v3Approve(address,uint256)":"infinite"}},"methodIdentifiers":{"airdrop()":"3884d635","claimETH(uint256)":"fe96973a","claimToken(address,uint256)":"1698755f","customSwapTokens(address,address,uint256,address[])":"9de2827b","emergencyWithdraw(address,uint256)":"95ccea67","emergencyWithdrawETH(uint256)":"6b792c4b","factoryAddress()":"966dae0e","feeAccount()":"65e17c9d","feePercent()":"7fd6f15c","getOutputTokenAmount(uint256,address[])":"d654e9a4","getV3OutputTokenAmount(uint256,address,address)":"c36c557f","owner()":"8da5cb5b","renounceOwnership()":"715018a6","rewardAddress()":"8cf57cb9","rewardAmount()":"f7b2a7be","router()":"f887ea40","routerAddress()":"3268cc56","setFeeAccount(address)":"4b023cf8","setFeePercent(uint256)":"7ce3489b","setRewardAmount(uint256)":"a8a65a78","setRewardToken(address)":"8aee8127","setRouterWAVAX(address,address)":"9cf355ad","swapTokens(address,address,uint256)":"ec6cc0cc","swapV2Tokens(address,address,uint256)":"4ce222da","transferOwnership(address)":"f2fde38b","wavax()":"117be4c2","wbnbAddress()":"63fe3e3a"}},"storageLayout":{"storage":[{"astId":795,"contract":"contracts/swap.sol:ProSwap","label":"_owner","offset":0,"slot":"0","type":"t_address"},{"astId":2015,"contract":"contracts/swap.sol:ProSwap","label":"feePercent","offset":0,"slot":"1","type":"t_uint256"},{"astId":2018,"contract":"contracts/swap.sol:ProSwap","label":"rewardAmount","offset":0,"slot":"2","type":"t_uint256"},{"astId":2020,"contract":"contracts/swap.sol:ProSwap","label":"rewardAddress","offset":0,"slot":"3","type":"t_address"},{"astId":2022,"contract":"contracts/swap.sol:ProSwap","label":"feeAccount","offset":0,"slot":"4","type":"t_address"},{"astId":2024,"contract":"contracts/swap.sol:ProSwap","label":"router","offset":0,"slot":"5","type":"t_address"},{"astId":2026,"contract":"contracts/swap.sol:ProSwap","label":"wavax","offset":0,"slot":"6","type":"t_address"},{"astId":2029,"contract":"contracts/swap.sol:ProSwap","label":"routerAddress","offset":0,"slot":"7","type":"t_address"},{"astId":2032,"contract":"contracts/swap.sol:ProSwap","label":"factoryAddress","offset":0,"slot":"8","type":"t_address"},{"astId":2035,"contract":"contracts/swap.sol:ProSwap","label":"wbnbAddress","offset":0,"slot":"9","type":"t_address"},{"astId":2038,"contract":"contracts/swap.sol:ProSwap","label":"poolFee","offset":20,"slot":"9","type":"t_uint24"},{"astId":2042,"contract":"contracts/swap.sol:ProSwap","label":"airdropAddress","offset":0,"slot":"10","type":"t_mapping(t_address,t_uint256)"},{"astId":2046,"contract":"contracts/swap.sol:ProSwap","label":"airdropLastTime","offset":0,"slot":"11","type":"t_mapping(t_address,t_uint256)"}],"types":{"t_address":{"encoding":"inplace","label":"address","numberOfBytes":"20"},"t_mapping(t_address,t_uint256)":{"encoding":"mapping","key":"t_address","label":"mapping(address => uint256)","numberOfBytes":"32","value":"t_uint256"},"t_uint24":{"encoding":"inplace","label":"uint24","numberOfBytes":"3"},"t_uint256":{"encoding":"inplace","label":"uint256","numberOfBytes":"32"}}},"userdoc":{"kind":"user","methods":{},"version":1}}}}