{"contracts/v3dex.sol":{"V3Swap":{"abi":[{"inputs":[],"stateMutability":"nonpayable","type":"constructor"},{"inputs":[],"name":"factoryAddress","outputs":[{"internalType":"address","name":"","type":"address"}],"stateMutability":"view","type":"function"},{"inputs":[{"internalType":"uint256","name":"_inputAmount","type":"uint256"},{"internalType":"address","name":"_tokenIn","type":"address"},{"internalType":"address","name":"_tokenOut","type":"address"}],"name":"getOutputTokenAmount","outputs":[{"internalType":"uint256","name":"outputAmount","type":"uint256"}],"stateMutability":"view","type":"function"},{"inputs":[],"name":"routerAddress","outputs":[{"internalType":"address","name":"","type":"address"}],"stateMutability":"view","type":"function"},{"inputs":[{"internalType":"address","name":"_tokenIn","type":"address"},{"internalType":"address","name":"_tokenOut","type":"address"},{"internalType":"uint256","name":"_amountIn","type":"uint256"}],"name":"swapTokens","outputs":[],"stateMutability":"payable","type":"function"},{"inputs":[],"name":"wbnbAddress","outputs":[{"internalType":"address","name":"","type":"address"}],"stateMutability":"view","type":"function"}],"devdoc":{"kind":"dev","methods":{},"version":1},"evm":{"bytecode":{"linkReferences":{},"object":"6080604052600080546001600160a01b03199081167313f4ea83d0bd40e75c8222255bc855a974568dd41790915560018054909116730bfbcf9fa4f9c56b0f40a671ad40e0805a091865179055600280547464bb4cdb9cbd36b01bd1cbaebf2de08d9173bc095c6001600160b81b031990911617905534801561008157600080fd5b50610cd2806100916000396000f3fe60806040526004361061004a5760003560e01c80633268cc561461004f57806363fe3e3a1461008c578063966dae0e146100ac578063a189d648146100cc578063ec6cc0cc146100fa575b600080fd5b34801561005b57600080fd5b5060005461006f906001600160a01b031681565b6040516001600160a01b0390911681526020015b60405180910390f35b34801561009857600080fd5b5060025461006f906001600160a01b031681565b3480156100b857600080fd5b5060015461006f906001600160a01b031681565b3480156100d857600080fd5b506100ec6100e7366004610a25565b61010f565b604051908152602001610083565b61010d610108366004610919565b610320565b005b600154600254604051630b4c774160e11b81526001600160a01b0385811660048301528481166024830152600160a01b90920462ffffff16604482015260009283928392911690631698ee829060640160206040518083038186803b15801561017757600080fd5b505afa15801561018b573d6000803e3d6000fd5b505050506040513d601f19601f820116820180604052508101906101af91906108fd565b9050806001600160a01b0316633850c7bd6040518163ffffffff1660e01b815260040160e06040518083038186803b1580156101ea57600080fd5b505afa1580156101fe573d6000803e3d6000fd5b505050506040513d601f19601f820116820180604052508101906102229190610973565b505060408051630dfe168160e01b815290516001600160a01b03968716985060009688169550630dfe1681945060048083019450602093509091829003018186803b15801561027057600080fd5b505afa158015610284573d6000803e3d6000fd5b505050506040513d601f19601f820116820180604052508101906102a891906108fd565b9050806001600160a01b0316866001600160a01b031614156102f057600160c01b876102d5600286610b76565b6102df9190610c23565b6102e99190610b13565b9350610316565b6102fb600284610b76565b61030988600160c01b610c23565b6103139190610b13565b93505b5050509392505050565b6040805160e0810182526001600160a01b03808616808352858216602084015260025462ffffff600160a01b8204169484019490945233606084015260808301859052600060a0840181905260c08401529192161415610404576000546040516304e45aaf60e01b81526001600160a01b03909116906304e45aaf9034906103ac908590600401610ab5565b6020604051808303818588803b1580156103c557600080fd5b505af11580156103d9573d6000803e3d6000fd5b50505050506040513d601f19601f820116820180604052508101906103fe9190610a0d565b506104a9565b6104196001600160a01b038516333085610596565b61042384836105f6565b6000546040516304e45aaf60e01b81526001600160a01b03909116906304e45aaf903490610455908590600401610ab5565b6020604051808303818588803b15801561046e57600080fd5b505af1158015610482573d6000803e3d6000fd5b50505050506040513d601f19601f820116820180604052508101906104a79190610a0d565b505b6000805460408051630910874560e11b815290516001600160a01b03909216926312210e8a9260048084019382900301818387803b1580156104ea57600080fd5b505af11580156104fe573d6000803e3d6000fd5b50506040516000925033915047908381818185875af1925050503d8060008114610544576040519150601f19603f3d011682016040523d82523d6000602084013e610549565b606091505b505090508061058f5760405162461bcd60e51b815260206004820152600d60248201526c1c99599d5b990819985a5b1959609a1b60448201526064015b60405180910390fd5b5050505050565b604080516001600160a01b0385811660248301528416604482015260648082018490528251808303909101815260849091019091526020810180516001600160e01b03166323b872dd60e01b1790526105f0908590610681565b50505050565b60005460405163095ea7b360e01b81526001600160a01b039182166004820152602481018390529083169063095ea7b390604401602060405180830381600087803b15801561064457600080fd5b505af1158015610658573d6000803e3d6000fd5b505050506040513d601f19601f8201168201806040525081019061067c9190610959565b505050565b60006106d6826040518060400160405280602081526020017f5361666545524332303a206c6f772d6c6576656c2063616c6c206661696c6564815250856001600160a01b03166107539092919063ffffffff16565b80519091501561067c57808060200190518101906106f49190610959565b61067c5760405162461bcd60e51b815260206004820152602a60248201527f5361666545524332303a204552433230206f7065726174696f6e20646964206e6044820152691bdd081cdd58d8d9595960b21b6064820152608401610586565b6060610762848460008561076c565b90505b9392505050565b6060824710156107cd5760405162461bcd60e51b815260206004820152602660248201527f416464726573733a20696e73756666696369656e742062616c616e636520666f6044820152651c8818d85b1b60d21b6064820152608401610586565b6001600160a01b0385163b6108245760405162461bcd60e51b815260206004820152601d60248201527f416464726573733a2063616c6c20746f206e6f6e2d636f6e74726163740000006044820152606401610586565b600080866001600160a01b031685876040516108409190610a66565b60006040518083038185875af1925050503d806000811461087d576040519150601f19603f3d011682016040523d82523d6000602084013e610882565b606091505b509150915061089282828661089d565b979650505050505050565b606083156108ac575081610765565b8251156108bc5782518084602001fd5b8160405162461bcd60e51b81526004016105869190610a82565b805180151581146108e657600080fd5b919050565b805161ffff811681146108e657600080fd5b60006020828403121561090e578081fd5b815161076581610c84565b60008060006060848603121561092d578182fd5b833561093881610c84565b9250602084013561094881610c84565b929592945050506040919091013590565b60006020828403121561096a578081fd5b610765826108d6565b600080600080600080600060e0888a03121561098d578283fd5b875161099881610c84565b8097505060208801518060020b81146109af578384fd5b95506109bd604089016108eb565b94506109cb606089016108eb565b93506109d9608089016108eb565b925060a088015163ffffffff811681146109f1578283fd5b91506109ff60c089016108d6565b905092959891949750929550565b600060208284031215610a1e578081fd5b5051919050565b600080600060608486031215610a39578283fd5b833592506020840135610a4b81610c84565b91506040840135610a5b81610c84565b809150509250925092565b60008251610a78818460208701610c42565b9190910192915050565b6020815260008251806020840152610aa1816040850160208701610c42565b601f01601f19169190910160400192915050565b81516001600160a01b03908116825260208084015182169083015260408084015162ffffff16908301526060808401518216908301526080808401519083015260a0838101519083015260c092830151169181019190915260e00190565b600082610b2e57634e487b7160e01b81526012600452602481fd5b500490565b600181815b80851115610b6e578160001904821115610b5457610b54610c6e565b80851615610b6157918102915b93841c9390800290610b38565b509250929050565b600061076560ff841683600082610b8f57506001610c1d565b81610b9c57506000610c1d565b8160018114610bb25760028114610bbc57610bd8565b6001915050610c1d565b60ff841115610bcd57610bcd610c6e565b50506001821b610c1d565b5060208310610133831016604e8410600b8410161715610bfb575081810a610c1d565b610c058383610b33565b8060001904821115610c1957610c19610c6e565b0290505b92915050565b6000816000190483118215151615610c3d57610c3d610c6e565b500290565b60005b83811015610c5d578181015183820152602001610c45565b838111156105f05750506000910152565b634e487b7160e01b600052601160045260246000fd5b6001600160a01b0381168114610c9957600080fd5b5056fea264697066735822122017f7a528e6ea686ff249e208acaca333201fa48d6d5f6e6b89327e4a5eed4ea964736f6c63430008040033","opcodes":"PUSH1 0x80 PUSH1 0x40 MSTORE PUSH1 0x0 DUP1 SLOAD PUSH1 0x1 PUSH1 0x1 PUSH1 0xA0 SHL SUB NOT SWAP1 DUP2 AND PUSH20 0x13F4EA83D0BD40E75C8222255BC855A974568DD4 OR SWAP1 SWAP2 SSTORE PUSH1 0x1 DUP1 SLOAD SWAP1 SWAP2 AND PUSH20 0xBFBCF9FA4F9C56B0F40A671AD40E0805A091865 OR SWAP1 SSTORE PUSH1 0x2 DUP1 SLOAD PUSH21 0x64BB4CDB9CBD36B01BD1CBAEBF2DE08D9173BC095C PUSH1 0x1 PUSH1 0x1 PUSH1 0xB8 SHL SUB NOT SWAP1 SWAP2 AND OR SWAP1 SSTORE CALLVALUE DUP1 ISZERO PUSH2 0x81 JUMPI PUSH1 0x0 DUP1 REVERT JUMPDEST POP PUSH2 0xCD2 DUP1 PUSH2 0x91 PUSH1 0x0 CODECOPY PUSH1 0x0 RETURN INVALID PUSH1 0x80 PUSH1 0x40 MSTORE PUSH1 0x4 CALLDATASIZE LT PUSH2 0x4A JUMPI PUSH1 0x0 CALLDATALOAD PUSH1 0xE0 SHR DUP1 PUSH4 0x3268CC56 EQ PUSH2 0x4F JUMPI DUP1 PUSH4 0x63FE3E3A EQ PUSH2 0x8C JUMPI DUP1 PUSH4 0x966DAE0E EQ PUSH2 0xAC JUMPI DUP1 PUSH4 0xA189D648 EQ PUSH2 0xCC JUMPI DUP1 PUSH4 0xEC6CC0CC EQ PUSH2 0xFA JUMPI JUMPDEST PUSH1 0x0 DUP1 REVERT JUMPDEST CALLVALUE DUP1 ISZERO PUSH2 0x5B JUMPI PUSH1 0x0 DUP1 REVERT JUMPDEST POP PUSH1 0x0 SLOAD PUSH2 0x6F SWAP1 PUSH1 0x1 PUSH1 0x1 PUSH1 0xA0 SHL SUB AND DUP2 JUMP JUMPDEST PUSH1 0x40 MLOAD PUSH1 0x1 PUSH1 0x1 PUSH1 0xA0 SHL SUB SWAP1 SWAP2 AND DUP2 MSTORE PUSH1 0x20 ADD JUMPDEST PUSH1 0x40 MLOAD DUP1 SWAP2 SUB SWAP1 RETURN JUMPDEST CALLVALUE DUP1 ISZERO PUSH2 0x98 JUMPI PUSH1 0x0 DUP1 REVERT JUMPDEST POP PUSH1 0x2 SLOAD PUSH2 0x6F SWAP1 PUSH1 0x1 PUSH1 0x1 PUSH1 0xA0 SHL SUB AND DUP2 JUMP JUMPDEST CALLVALUE DUP1 ISZERO PUSH2 0xB8 JUMPI PUSH1 0x0 DUP1 REVERT JUMPDEST POP PUSH1 0x1 SLOAD PUSH2 0x6F SWAP1 PUSH1 0x1 PUSH1 0x1 PUSH1 0xA0 SHL SUB AND DUP2 JUMP JUMPDEST CALLVALUE DUP1 ISZERO PUSH2 0xD8 JUMPI PUSH1 0x0 DUP1 REVERT JUMPDEST POP PUSH2 0xEC PUSH2 0xE7 CALLDATASIZE PUSH1 0x4 PUSH2 0xA25 JUMP JUMPDEST PUSH2 0x10F JUMP JUMPDEST PUSH1 0x40 MLOAD SWAP1 DUP2 MSTORE PUSH1 0x20 ADD PUSH2 0x83 JUMP JUMPDEST PUSH2 0x10D PUSH2 0x108 CALLDATASIZE PUSH1 0x4 PUSH2 0x919 JUMP JUMPDEST PUSH2 0x320 JUMP JUMPDEST STOP JUMPDEST PUSH1 0x1 SLOAD PUSH1 0x2 SLOAD PUSH1 0x40 MLOAD PUSH4 0xB4C7741 PUSH1 0xE1 SHL DUP2 MSTORE PUSH1 0x1 PUSH1 0x1 PUSH1 0xA0 SHL SUB DUP6 DUP2 AND PUSH1 0x4 DUP4 ADD MSTORE DUP5 DUP2 AND PUSH1 0x24 DUP4 ADD MSTORE PUSH1 0x1 PUSH1 0xA0 SHL SWAP1 SWAP3 DIV PUSH3 0xFFFFFF AND PUSH1 0x44 DUP3 ADD MSTORE PUSH1 0x0 SWAP3 DUP4 SWAP3 DUP4 SWAP3 SWAP2 AND SWAP1 PUSH4 0x1698EE82 SWAP1 PUSH1 0x64 ADD PUSH1 0x20 PUSH1 0x40 MLOAD DUP1 DUP4 SUB DUP2 DUP7 DUP1 EXTCODESIZE ISZERO DUP1 ISZERO PUSH2 0x177 JUMPI PUSH1 0x0 DUP1 REVERT JUMPDEST POP GAS STATICCALL ISZERO DUP1 ISZERO PUSH2 0x18B JUMPI RETURNDATASIZE PUSH1 0x0 DUP1 RETURNDATACOPY RETURNDATASIZE PUSH1 0x0 REVERT JUMPDEST POP POP POP POP PUSH1 0x40 MLOAD RETURNDATASIZE PUSH1 0x1F NOT PUSH1 0x1F DUP3 ADD AND DUP3 ADD DUP1 PUSH1 0x40 MSTORE POP DUP2 ADD SWAP1 PUSH2 0x1AF SWAP2 SWAP1 PUSH2 0x8FD JUMP JUMPDEST SWAP1 POP DUP1 PUSH1 0x1 PUSH1 0x1 PUSH1 0xA0 SHL SUB AND PUSH4 0x3850C7BD PUSH1 0x40 MLOAD DUP2 PUSH4 0xFFFFFFFF AND PUSH1 0xE0 SHL DUP2 MSTORE PUSH1 0x4 ADD PUSH1 0xE0 PUSH1 0x40 MLOAD DUP1 DUP4 SUB DUP2 DUP7 DUP1 EXTCODESIZE ISZERO DUP1 ISZERO PUSH2 0x1EA JUMPI PUSH1 0x0 DUP1 REVERT JUMPDEST POP GAS STATICCALL ISZERO DUP1 ISZERO PUSH2 0x1FE JUMPI RETURNDATASIZE PUSH1 0x0 DUP1 RETURNDATACOPY RETURNDATASIZE PUSH1 0x0 REVERT JUMPDEST POP POP POP POP PUSH1 0x40 MLOAD RETURNDATASIZE PUSH1 0x1F NOT PUSH1 0x1F DUP3 ADD AND DUP3 ADD DUP1 PUSH1 0x40 MSTORE POP DUP2 ADD SWAP1 PUSH2 0x222 SWAP2 SWAP1 PUSH2 0x973 JUMP JUMPDEST POP POP PUSH1 0x40 DUP1 MLOAD PUSH4 0xDFE1681 PUSH1 0xE0 SHL DUP2 MSTORE SWAP1 MLOAD PUSH1 0x1 PUSH1 0x1 PUSH1 0xA0 SHL SUB SWAP7 DUP8 AND SWAP9 POP PUSH1 0x0 SWAP7 DUP9 AND SWAP6 POP PUSH4 0xDFE1681 SWAP5 POP PUSH1 0x4 DUP1 DUP4 ADD SWAP5 POP PUSH1 0x20 SWAP4 POP SWAP1 SWAP2 DUP3 SWAP1 SUB ADD DUP2 DUP7 DUP1 EXTCODESIZE ISZERO DUP1 ISZERO PUSH2 0x270 JUMPI PUSH1 0x0 DUP1 REVERT JUMPDEST POP GAS STATICCALL ISZERO DUP1 ISZERO PUSH2 0x284 JUMPI RETURNDATASIZE PUSH1 0x0 DUP1 RETURNDATACOPY RETURNDATASIZE PUSH1 0x0 REVERT JUMPDEST POP POP POP POP PUSH1 0x40 MLOAD RETURNDATASIZE PUSH1 0x1F NOT PUSH1 0x1F DUP3 ADD AND DUP3 ADD DUP1 PUSH1 0x40 MSTORE POP DUP2 ADD SWAP1 PUSH2 0x2A8 SWAP2 SWAP1 PUSH2 0x8FD JUMP JUMPDEST SWAP1 POP DUP1 PUSH1 0x1 PUSH1 0x1 PUSH1 0xA0 SHL SUB AND DUP7 PUSH1 0x1 PUSH1 0x1 PUSH1 0xA0 SHL SUB AND EQ ISZERO PUSH2 0x2F0 JUMPI PUSH1 0x1 PUSH1 0xC0 SHL DUP8 PUSH2 0x2D5 PUSH1 0x2 DUP7 PUSH2 0xB76 JUMP JUMPDEST PUSH2 0x2DF SWAP2 SWAP1 PUSH2 0xC23 JUMP JUMPDEST PUSH2 0x2E9 SWAP2 SWAP1 PUSH2 0xB13 JUMP JUMPDEST SWAP4 POP PUSH2 0x316 JUMP JUMPDEST PUSH2 0x2FB PUSH1 0x2 DUP5 PUSH2 0xB76 JUMP JUMPDEST PUSH2 0x309 DUP9 PUSH1 0x1 PUSH1 0xC0 SHL PUSH2 0xC23 JUMP JUMPDEST PUSH2 0x313 SWAP2 SWAP1 PUSH2 0xB13 JUMP JUMPDEST SWAP4 POP JUMPDEST POP POP POP SWAP4 SWAP3 POP POP POP JUMP JUMPDEST PUSH1 0x40 DUP1 MLOAD PUSH1 0xE0 DUP2 ADD DUP3 MSTORE PUSH1 0x1 PUSH1 0x1 PUSH1 0xA0 SHL SUB DUP1 DUP7 AND DUP1 DUP4 MSTORE DUP6 DUP3 AND PUSH1 0x20 DUP5 ADD MSTORE PUSH1 0x2 SLOAD PUSH3 0xFFFFFF PUSH1 0x1 PUSH1 0xA0 SHL DUP3 DIV AND SWAP5 DUP5 ADD SWAP5 SWAP1 SWAP5 MSTORE CALLER PUSH1 0x60 DUP5 ADD MSTORE PUSH1 0x80 DUP4 ADD DUP6 SWAP1 MSTORE PUSH1 0x0 PUSH1 0xA0 DUP5 ADD DUP2 SWAP1 MSTORE PUSH1 0xC0 DUP5 ADD MSTORE SWAP2 SWAP3 AND EQ ISZERO PUSH2 0x404 JUMPI PUSH1 0x0 SLOAD PUSH1 0x40 MLOAD PUSH4 0x4E45AAF PUSH1 0xE0 SHL DUP2 MSTORE PUSH1 0x1 PUSH1 0x1 PUSH1 0xA0 SHL SUB SWAP1 SWAP2 AND SWAP1 PUSH4 0x4E45AAF SWAP1 CALLVALUE SWAP1 PUSH2 0x3AC SWAP1 DUP6 SWAP1 PUSH1 0x4 ADD PUSH2 0xAB5 JUMP JUMPDEST PUSH1 0x20 PUSH1 0x40 MLOAD DUP1 DUP4 SUB DUP2 DUP6 DUP9 DUP1 EXTCODESIZE ISZERO DUP1 ISZERO PUSH2 0x3C5 JUMPI PUSH1 0x0 DUP1 REVERT JUMPDEST POP GAS CALL ISZERO DUP1 ISZERO PUSH2 0x3D9 JUMPI RETURNDATASIZE PUSH1 0x0 DUP1 RETURNDATACOPY RETURNDATASIZE PUSH1 0x0 REVERT JUMPDEST POP POP POP POP POP PUSH1 0x40 MLOAD RETURNDATASIZE PUSH1 0x1F NOT PUSH1 0x1F DUP3 ADD AND DUP3 ADD DUP1 PUSH1 0x40 MSTORE POP DUP2 ADD SWAP1 PUSH2 0x3FE SWAP2 SWAP1 PUSH2 0xA0D JUMP JUMPDEST POP PUSH2 0x4A9 JUMP JUMPDEST PUSH2 0x419 PUSH1 0x1 PUSH1 0x1 PUSH1 0xA0 SHL SUB DUP6 AND CALLER ADDRESS DUP6 PUSH2 0x596 JUMP JUMPDEST PUSH2 0x423 DUP5 DUP4 PUSH2 0x5F6 JUMP JUMPDEST PUSH1 0x0 SLOAD PUSH1 0x40 MLOAD PUSH4 0x4E45AAF PUSH1 0xE0 SHL DUP2 MSTORE PUSH1 0x1 PUSH1 0x1 PUSH1 0xA0 SHL SUB SWAP1 SWAP2 AND SWAP1 PUSH4 0x4E45AAF SWAP1 CALLVALUE SWAP1 PUSH2 0x455 SWAP1 DUP6 SWAP1 PUSH1 0x4 ADD PUSH2 0xAB5 JUMP JUMPDEST PUSH1 0x20 PUSH1 0x40 MLOAD DUP1 DUP4 SUB DUP2 DUP6 DUP9 DUP1 EXTCODESIZE ISZERO DUP1 ISZERO PUSH2 0x46E JUMPI PUSH1 0x0 DUP1 REVERT JUMPDEST POP GAS CALL ISZERO DUP1 ISZERO PUSH2 0x482 JUMPI RETURNDATASIZE PUSH1 0x0 DUP1 RETURNDATACOPY RETURNDATASIZE PUSH1 0x0 REVERT JUMPDEST POP POP POP POP POP PUSH1 0x40 MLOAD RETURNDATASIZE PUSH1 0x1F NOT PUSH1 0x1F DUP3 ADD AND DUP3 ADD DUP1 PUSH1 0x40 MSTORE POP DUP2 ADD SWAP1 PUSH2 0x4A7 SWAP2 SWAP1 PUSH2 0xA0D JUMP JUMPDEST POP JUMPDEST PUSH1 0x0 DUP1 SLOAD PUSH1 0x40 DUP1 MLOAD PUSH4 0x9108745 PUSH1 0xE1 SHL DUP2 MSTORE SWAP1 MLOAD PUSH1 0x1 PUSH1 0x1 PUSH1 0xA0 SHL SUB SWAP1 SWAP3 AND SWAP3 PUSH4 0x12210E8A SWAP3 PUSH1 0x4 DUP1 DUP5 ADD SWAP4 DUP3 SWAP1 SUB ADD DUP2 DUP4 DUP8 DUP1 EXTCODESIZE ISZERO DUP1 ISZERO PUSH2 0x4EA JUMPI PUSH1 0x0 DUP1 REVERT JUMPDEST POP GAS CALL ISZERO DUP1 ISZERO PUSH2 0x4FE JUMPI RETURNDATASIZE PUSH1 0x0 DUP1 RETURNDATACOPY RETURNDATASIZE PUSH1 0x0 REVERT JUMPDEST POP POP PUSH1 0x40 MLOAD PUSH1 0x0 SWAP3 POP CALLER SWAP2 POP SELFBALANCE SWAP1 DUP4 DUP2 DUP2 DUP2 DUP6 DUP8 GAS CALL SWAP3 POP POP POP RETURNDATASIZE DUP1 PUSH1 0x0 DUP2 EQ PUSH2 0x544 JUMPI PUSH1 0x40 MLOAD SWAP2 POP PUSH1 0x1F NOT PUSH1 0x3F RETURNDATASIZE ADD AND DUP3 ADD PUSH1 0x40 MSTORE RETURNDATASIZE DUP3 MSTORE RETURNDATASIZE PUSH1 0x0 PUSH1 0x20 DUP5 ADD RETURNDATACOPY PUSH2 0x549 JUMP JUMPDEST PUSH1 0x60 SWAP2 POP JUMPDEST POP POP SWAP1 POP DUP1 PUSH2 0x58F JUMPI PUSH1 0x40 MLOAD PUSH3 0x461BCD PUSH1 0xE5 SHL DUP2 MSTORE PUSH1 0x20 PUSH1 0x4 DUP3 ADD MSTORE PUSH1 0xD PUSH1 0x24 DUP3 ADD MSTORE PUSH13 0x1C99599D5B990819985A5B1959 PUSH1 0x9A SHL PUSH1 0x44 DUP3 ADD MSTORE PUSH1 0x64 ADD JUMPDEST PUSH1 0x40 MLOAD DUP1 SWAP2 SUB SWAP1 REVERT JUMPDEST POP POP POP POP POP JUMP JUMPDEST PUSH1 0x40 DUP1 MLOAD PUSH1 0x1 PUSH1 0x1 PUSH1 0xA0 SHL SUB DUP6 DUP2 AND PUSH1 0x24 DUP4 ADD MSTORE DUP5 AND PUSH1 0x44 DUP3 ADD MSTORE PUSH1 0x64 DUP1 DUP3 ADD DUP5 SWAP1 MSTORE DUP3 MLOAD DUP1 DUP4 SUB SWAP1 SWAP2 ADD DUP2 MSTORE PUSH1 0x84 SWAP1 SWAP2 ADD SWAP1 SWAP2 MSTORE PUSH1 0x20 DUP2 ADD DUP1 MLOAD PUSH1 0x1 PUSH1 0x1 PUSH1 0xE0 SHL SUB AND PUSH4 0x23B872DD PUSH1 0xE0 SHL OR SWAP1 MSTORE PUSH2 0x5F0 SWAP1 DUP6 SWAP1 PUSH2 0x681 JUMP JUMPDEST POP POP POP POP JUMP JUMPDEST PUSH1 0x0 SLOAD PUSH1 0x40 MLOAD PUSH4 0x95EA7B3 PUSH1 0xE0 SHL DUP2 MSTORE PUSH1 0x1 PUSH1 0x1 PUSH1 0xA0 SHL SUB SWAP2 DUP3 AND PUSH1 0x4 DUP3 ADD MSTORE PUSH1 0x24 DUP2 ADD DUP4 SWAP1 MSTORE SWAP1 DUP4 AND SWAP1 PUSH4 0x95EA7B3 SWAP1 PUSH1 0x44 ADD PUSH1 0x20 PUSH1 0x40 MLOAD DUP1 DUP4 SUB DUP2 PUSH1 0x0 DUP8 DUP1 EXTCODESIZE ISZERO DUP1 ISZERO PUSH2 0x644 JUMPI PUSH1 0x0 DUP1 REVERT JUMPDEST POP GAS CALL ISZERO DUP1 ISZERO PUSH2 0x658 JUMPI RETURNDATASIZE PUSH1 0x0 DUP1 RETURNDATACOPY RETURNDATASIZE PUSH1 0x0 REVERT JUMPDEST POP POP POP POP PUSH1 0x40 MLOAD RETURNDATASIZE PUSH1 0x1F NOT PUSH1 0x1F DUP3 ADD AND DUP3 ADD DUP1 PUSH1 0x40 MSTORE POP DUP2 ADD SWAP1 PUSH2 0x67C SWAP2 SWAP1 PUSH2 0x959 JUMP JUMPDEST POP POP POP JUMP JUMPDEST PUSH1 0x0 PUSH2 0x6D6 DUP3 PUSH1 0x40 MLOAD DUP1 PUSH1 0x40 ADD PUSH1 0x40 MSTORE DUP1 PUSH1 0x20 DUP2 MSTORE PUSH1 0x20 ADD PUSH32 0x5361666545524332303A206C6F772D6C6576656C2063616C6C206661696C6564 DUP2 MSTORE POP DUP6 PUSH1 0x1 PUSH1 0x1 PUSH1 0xA0 SHL SUB AND PUSH2 0x753 SWAP1 SWAP3 SWAP2 SWAP1 PUSH4 0xFFFFFFFF AND JUMP JUMPDEST DUP1 MLOAD SWAP1 SWAP2 POP ISZERO PUSH2 0x67C JUMPI DUP1 DUP1 PUSH1 0x20 ADD SWAP1 MLOAD DUP2 ADD SWAP1 PUSH2 0x6F4 SWAP2 SWAP1 PUSH2 0x959 JUMP JUMPDEST PUSH2 0x67C JUMPI PUSH1 0x40 MLOAD PUSH3 0x461BCD PUSH1 0xE5 SHL DUP2 MSTORE PUSH1 0x20 PUSH1 0x4 DUP3 ADD MSTORE PUSH1 0x2A PUSH1 0x24 DUP3 ADD MSTORE PUSH32 0x5361666545524332303A204552433230206F7065726174696F6E20646964206E PUSH1 0x44 DUP3 ADD MSTORE PUSH10 0x1BDD081CDD58D8D95959 PUSH1 0xB2 SHL PUSH1 0x64 DUP3 ADD MSTORE PUSH1 0x84 ADD PUSH2 0x586 JUMP JUMPDEST PUSH1 0x60 PUSH2 0x762 DUP5 DUP5 PUSH1 0x0 DUP6 PUSH2 0x76C JUMP JUMPDEST SWAP1 POP JUMPDEST SWAP4 SWAP3 POP POP POP JUMP JUMPDEST PUSH1 0x60 DUP3 SELFBALANCE LT ISZERO PUSH2 0x7CD JUMPI PUSH1 0x40 MLOAD PUSH3 0x461BCD PUSH1 0xE5 SHL DUP2 MSTORE PUSH1 0x20 PUSH1 0x4 DUP3 ADD MSTORE PUSH1 0x26 PUSH1 0x24 DUP3 ADD MSTORE PUSH32 0x416464726573733A20696E73756666696369656E742062616C616E636520666F PUSH1 0x44 DUP3 ADD MSTORE PUSH6 0x1C8818D85B1B PUSH1 0xD2 SHL PUSH1 0x64 DUP3 ADD MSTORE PUSH1 0x84 ADD PUSH2 0x586 JUMP JUMPDEST PUSH1 0x1 PUSH1 0x1 PUSH1 0xA0 SHL SUB DUP6 AND EXTCODESIZE PUSH2 0x824 JUMPI PUSH1 0x40 MLOAD PUSH3 0x461BCD PUSH1 0xE5 SHL DUP2 MSTORE PUSH1 0x20 PUSH1 0x4 DUP3 ADD MSTORE PUSH1 0x1D PUSH1 0x24 DUP3 ADD MSTORE PUSH32 0x416464726573733A2063616C6C20746F206E6F6E2D636F6E7472616374000000 PUSH1 0x44 DUP3 ADD MSTORE PUSH1 0x64 ADD PUSH2 0x586 JUMP JUMPDEST PUSH1 0x0 DUP1 DUP7 PUSH1 0x1 PUSH1 0x1 PUSH1 0xA0 SHL SUB AND DUP6 DUP8 PUSH1 0x40 MLOAD PUSH2 0x840 SWAP2 SWAP1 PUSH2 0xA66 JUMP JUMPDEST PUSH1 0x0 PUSH1 0x40 MLOAD DUP1 DUP4 SUB DUP2 DUP6 DUP8 GAS CALL SWAP3 POP POP POP RETURNDATASIZE DUP1 PUSH1 0x0 DUP2 EQ PUSH2 0x87D JUMPI PUSH1 0x40 MLOAD SWAP2 POP PUSH1 0x1F NOT PUSH1 0x3F RETURNDATASIZE ADD AND DUP3 ADD PUSH1 0x40 MSTORE RETURNDATASIZE DUP3 MSTORE RETURNDATASIZE PUSH1 0x0 PUSH1 0x20 DUP5 ADD RETURNDATACOPY PUSH2 0x882 JUMP JUMPDEST PUSH1 0x60 SWAP2 POP JUMPDEST POP SWAP2 POP SWAP2 POP PUSH2 0x892 DUP3 DUP3 DUP7 PUSH2 0x89D JUMP JUMPDEST SWAP8 SWAP7 POP POP POP POP POP POP POP JUMP JUMPDEST PUSH1 0x60 DUP4 ISZERO PUSH2 0x8AC JUMPI POP DUP2 PUSH2 0x765 JUMP JUMPDEST DUP3 MLOAD ISZERO PUSH2 0x8BC JUMPI DUP3 MLOAD DUP1 DUP5 PUSH1 0x20 ADD REVERT JUMPDEST DUP2 PUSH1 0x40 MLOAD PUSH3 0x461BCD PUSH1 0xE5 SHL DUP2 MSTORE PUSH1 0x4 ADD PUSH2 0x586 SWAP2 SWAP1 PUSH2 0xA82 JUMP JUMPDEST DUP1 MLOAD DUP1 ISZERO ISZERO DUP2 EQ PUSH2 0x8E6 JUMPI PUSH1 0x0 DUP1 REVERT JUMPDEST SWAP2 SWAP1 POP JUMP JUMPDEST DUP1 MLOAD PUSH2 0xFFFF DUP2 AND DUP2 EQ PUSH2 0x8E6 JUMPI PUSH1 0x0 DUP1 REVERT JUMPDEST PUSH1 0x0 PUSH1 0x20 DUP3 DUP5 SUB SLT ISZERO PUSH2 0x90E JUMPI DUP1 DUP2 REVERT JUMPDEST DUP2 MLOAD PUSH2 0x765 DUP2 PUSH2 0xC84 JUMP JUMPDEST PUSH1 0x0 DUP1 PUSH1 0x0 PUSH1 0x60 DUP5 DUP7 SUB SLT ISZERO PUSH2 0x92D JUMPI DUP2 DUP3 REVERT JUMPDEST DUP4 CALLDATALOAD PUSH2 0x938 DUP2 PUSH2 0xC84 JUMP JUMPDEST SWAP3 POP PUSH1 0x20 DUP5 ADD CALLDATALOAD PUSH2 0x948 DUP2 PUSH2 0xC84 JUMP JUMPDEST SWAP3 SWAP6 SWAP3 SWAP5 POP POP POP PUSH1 0x40 SWAP2 SWAP1 SWAP2 ADD CALLDATALOAD SWAP1 JUMP JUMPDEST PUSH1 0x0 PUSH1 0x20 DUP3 DUP5 SUB SLT ISZERO PUSH2 0x96A JUMPI DUP1 DUP2 REVERT JUMPDEST PUSH2 0x765 DUP3 PUSH2 0x8D6 JUMP JUMPDEST PUSH1 0x0 DUP1 PUSH1 0x0 DUP1 PUSH1 0x0 DUP1 PUSH1 0x0 PUSH1 0xE0 DUP9 DUP11 SUB SLT ISZERO PUSH2 0x98D JUMPI DUP3 DUP4 REVERT JUMPDEST DUP8 MLOAD PUSH2 0x998 DUP2 PUSH2 0xC84 JUMP JUMPDEST DUP1 SWAP8 POP POP PUSH1 0x20 DUP9 ADD MLOAD DUP1 PUSH1 0x2 SIGNEXTEND DUP2 EQ PUSH2 0x9AF JUMPI DUP4 DUP5 REVERT JUMPDEST SWAP6 POP PUSH2 0x9BD PUSH1 0x40 DUP10 ADD PUSH2 0x8EB JUMP JUMPDEST SWAP5 POP PUSH2 0x9CB PUSH1 0x60 DUP10 ADD PUSH2 0x8EB JUMP JUMPDEST SWAP4 POP PUSH2 0x9D9 PUSH1 0x80 DUP10 ADD PUSH2 0x8EB JUMP JUMPDEST SWAP3 POP PUSH1 0xA0 DUP9 ADD MLOAD PUSH4 0xFFFFFFFF DUP2 AND DUP2 EQ PUSH2 0x9F1 JUMPI DUP3 DUP4 REVERT JUMPDEST SWAP2 POP PUSH2 0x9FF PUSH1 0xC0 DUP10 ADD PUSH2 0x8D6 JUMP JUMPDEST SWAP1 POP SWAP3 SWAP6 SWAP9 SWAP2 SWAP5 SWAP8 POP SWAP3 SWAP6 POP JUMP JUMPDEST PUSH1 0x0 PUSH1 0x20 DUP3 DUP5 SUB SLT ISZERO PUSH2 0xA1E JUMPI DUP1 DUP2 REVERT JUMPDEST POP MLOAD SWAP2 SWAP1 POP JUMP JUMPDEST PUSH1 0x0 DUP1 PUSH1 0x0 PUSH1 0x60 DUP5 DUP7 SUB SLT ISZERO PUSH2 0xA39 JUMPI DUP3 DUP4 REVERT JUMPDEST DUP4 CALLDATALOAD SWAP3 POP PUSH1 0x20 DUP5 ADD CALLDATALOAD PUSH2 0xA4B DUP2 PUSH2 0xC84 JUMP JUMPDEST SWAP2 POP PUSH1 0x40 DUP5 ADD CALLDATALOAD PUSH2 0xA5B DUP2 PUSH2 0xC84 JUMP JUMPDEST DUP1 SWAP2 POP POP SWAP3 POP SWAP3 POP SWAP3 JUMP JUMPDEST PUSH1 0x0 DUP3 MLOAD PUSH2 0xA78 DUP2 DUP5 PUSH1 0x20 DUP8 ADD PUSH2 0xC42 JUMP JUMPDEST SWAP2 SWAP1 SWAP2 ADD SWAP3 SWAP2 POP POP JUMP JUMPDEST PUSH1 0x20 DUP2 MSTORE PUSH1 0x0 DUP3 MLOAD DUP1 PUSH1 0x20 DUP5 ADD MSTORE PUSH2 0xAA1 DUP2 PUSH1 0x40 DUP6 ADD PUSH1 0x20 DUP8 ADD PUSH2 0xC42 JUMP JUMPDEST PUSH1 0x1F ADD PUSH1 0x1F NOT AND SWAP2 SWAP1 SWAP2 ADD PUSH1 0x40 ADD SWAP3 SWAP2 POP POP JUMP JUMPDEST DUP2 MLOAD PUSH1 0x1 PUSH1 0x1 PUSH1 0xA0 SHL SUB SWAP1 DUP2 AND DUP3 MSTORE PUSH1 0x20 DUP1 DUP5 ADD MLOAD DUP3 AND SWAP1 DUP4 ADD MSTORE PUSH1 0x40 DUP1 DUP5 ADD MLOAD PUSH3 0xFFFFFF AND SWAP1 DUP4 ADD MSTORE PUSH1 0x60 DUP1 DUP5 ADD MLOAD DUP3 AND SWAP1 DUP4 ADD MSTORE PUSH1 0x80 DUP1 DUP5 ADD MLOAD SWAP1 DUP4 ADD MSTORE PUSH1 0xA0 DUP4 DUP2 ADD MLOAD SWAP1 DUP4 ADD MSTORE PUSH1 0xC0 SWAP3 DUP4 ADD MLOAD AND SWAP2 DUP2 ADD SWAP2 SWAP1 SWAP2 MSTORE PUSH1 0xE0 ADD SWAP1 JUMP JUMPDEST PUSH1 0x0 DUP3 PUSH2 0xB2E JUMPI PUSH4 0x4E487B71 PUSH1 0xE0 SHL DUP2 MSTORE PUSH1 0x12 PUSH1 0x4 MSTORE PUSH1 0x24 DUP2 REVERT JUMPDEST POP DIV SWAP1 JUMP JUMPDEST PUSH1 0x1 DUP2 DUP2 JUMPDEST DUP1 DUP6 GT ISZERO PUSH2 0xB6E JUMPI DUP2 PUSH1 0x0 NOT DIV DUP3 GT ISZERO PUSH2 0xB54 JUMPI PUSH2 0xB54 PUSH2 0xC6E JUMP JUMPDEST DUP1 DUP6 AND ISZERO PUSH2 0xB61 JUMPI SWAP2 DUP2 MUL SWAP2 JUMPDEST SWAP4 DUP5 SHR SWAP4 SWAP1 DUP1 MUL SWAP1 PUSH2 0xB38 JUMP JUMPDEST POP SWAP3 POP SWAP3 SWAP1 POP JUMP JUMPDEST PUSH1 0x0 PUSH2 0x765 PUSH1 0xFF DUP5 AND DUP4 PUSH1 0x0 DUP3 PUSH2 0xB8F JUMPI POP PUSH1 0x1 PUSH2 0xC1D JUMP JUMPDEST DUP2 PUSH2 0xB9C JUMPI POP PUSH1 0x0 PUSH2 0xC1D JUMP JUMPDEST DUP2 PUSH1 0x1 DUP2 EQ PUSH2 0xBB2 JUMPI PUSH1 0x2 DUP2 EQ PUSH2 0xBBC JUMPI PUSH2 0xBD8 JUMP JUMPDEST PUSH1 0x1 SWAP2 POP POP PUSH2 0xC1D JUMP JUMPDEST PUSH1 0xFF DUP5 GT ISZERO PUSH2 0xBCD JUMPI PUSH2 0xBCD PUSH2 0xC6E JUMP JUMPDEST POP POP PUSH1 0x1 DUP3 SHL PUSH2 0xC1D JUMP JUMPDEST POP PUSH1 0x20 DUP4 LT PUSH2 0x133 DUP4 LT AND PUSH1 0x4E DUP5 LT PUSH1 0xB DUP5 LT AND OR ISZERO PUSH2 0xBFB JUMPI POP DUP2 DUP2 EXP PUSH2 0xC1D JUMP JUMPDEST PUSH2 0xC05 DUP4 DUP4 PUSH2 0xB33 JUMP JUMPDEST DUP1 PUSH1 0x0 NOT DIV DUP3 GT ISZERO PUSH2 0xC19 JUMPI PUSH2 0xC19 PUSH2 0xC6E JUMP JUMPDEST MUL SWAP1 POP JUMPDEST SWAP3 SWAP2 POP POP JUMP JUMPDEST PUSH1 0x0 DUP2 PUSH1 0x0 NOT DIV DUP4 GT DUP3 ISZERO ISZERO AND ISZERO PUSH2 0xC3D JUMPI PUSH2 0xC3D PUSH2 0xC6E JUMP JUMPDEST POP MUL SWAP1 JUMP JUMPDEST PUSH1 0x0 JUMPDEST DUP4 DUP2 LT ISZERO PUSH2 0xC5D JUMPI DUP2 DUP2 ADD MLOAD DUP4 DUP3 ADD MSTORE PUSH1 0x20 ADD PUSH2 0xC45 JUMP JUMPDEST DUP4 DUP2 GT ISZERO PUSH2 0x5F0 JUMPI POP POP PUSH1 0x0 SWAP2 ADD MSTORE JUMP JUMPDEST PUSH4 0x4E487B71 PUSH1 0xE0 SHL PUSH1 0x0 MSTORE PUSH1 0x11 PUSH1 0x4 MSTORE PUSH1 0x24 PUSH1 0x0 REVERT JUMPDEST PUSH1 0x1 PUSH1 0x1 PUSH1 0xA0 SHL SUB DUP2 AND DUP2 EQ PUSH2 0xC99 JUMPI PUSH1 0x0 DUP1 REVERT JUMPDEST POP JUMP INVALID LOG2 PUSH5 0x6970667358 0x22 SLT KECCAK256 OR 0xF7 0xA5 0x28 0xE6 0xEA PUSH9 0x6FF249E208ACACA333 KECCAK256 0x1F LOG4 DUP14 PUSH14 0x5F6E6B89327E4A5EED4EA964736F PUSH13 0x63430008040033000000000000 "},"gasEstimates":{"creation":{"codeDepositCost":"656400","executionCost":"63200","totalCost":"719600"},"external":{"factoryAddress()":"1048","getOutputTokenAmount(uint256,address,address)":"infinite","routerAddress()":"1004","swapTokens(address,address,uint256)":"infinite","wbnbAddress()":"1026"},"internal":{"_approve(address,uint256)":"infinite"}},"methodIdentifiers":{"factoryAddress()":"966dae0e","getOutputTokenAmount(uint256,address,address)":"a189d648","routerAddress()":"3268cc56","swapTokens(address,address,uint256)":"ec6cc0cc","wbnbAddress()":"63fe3e3a"}},"storageLayout":{"storage":[{"astId":4052,"contract":"contracts/v3dex.sol:V3Swap","label":"routerAddress","offset":0,"slot":"0","type":"t_address"},{"astId":4055,"contract":"contracts/v3dex.sol:V3Swap","label":"factoryAddress","offset":0,"slot":"1","type":"t_address"},{"astId":4058,"contract":"contracts/v3dex.sol:V3Swap","label":"wbnbAddress","offset":0,"slot":"2","type":"t_address"},{"astId":4061,"contract":"contracts/v3dex.sol:V3Swap","label":"fee","offset":20,"slot":"2","type":"t_uint24"}],"types":{"t_address":{"encoding":"inplace","label":"address","numberOfBytes":"20"},"t_uint24":{"encoding":"inplace","label":"uint24","numberOfBytes":"3"}}},"userdoc":{"kind":"user","methods":{},"version":1}}}}