{"contracts/staking.sol":{"Staking":{"abi":[{"inputs":[],"stateMutability":"nonpayable","type":"constructor"},{"anonymous":false,"inputs":[{"indexed":true,"internalType":"address","name":"previousOwner","type":"address"},{"indexed":true,"internalType":"address","name":"newOwner","type":"address"}],"name":"OwnershipTransferred","type":"event"},{"stateMutability":"payable","type":"fallback"},{"inputs":[],"name":"busdAddress","outputs":[{"internalType":"address","name":"","type":"address"}],"stateMutability":"view","type":"function"},{"inputs":[{"internalType":"uint256","name":"amount","type":"uint256"}],"name":"claimETH","outputs":[],"stateMutability":"nonpayable","type":"function"},{"inputs":[{"internalType":"address","name":"tokenAddress","type":"address"},{"internalType":"uint256","name":"amount","type":"uint256"}],"name":"claimToken","outputs":[],"stateMutability":"nonpayable","type":"function"},{"inputs":[],"name":"getPool","outputs":[{"components":[{"internalType":"uint256","name":"totalStaked","type":"uint256"},{"internalType":"uint256","name":"totalStakers","type":"uint256"},{"internalType":"uint256","name":"totalRewardDistributed","type":"uint256"}],"internalType":"struct Staking.PoolInfo","name":"","type":"tuple"}],"stateMutability":"view","type":"function"},{"inputs":[{"internalType":"address","name":"_address","type":"address"}],"name":"getUser","outputs":[{"components":[{"internalType":"uint256","name":"stakeAmount","type":"uint256"},{"internalType":"uint256","name":"finishedTime","type":"uint256"},{"internalType":"uint256","name":"profit","type":"uint256"}],"internalType":"struct Staking.UserInfo","name":"","type":"tuple"}],"stateMutability":"view","type":"function"},{"inputs":[],"name":"owner","outputs":[{"internalType":"address","name":"","type":"address"}],"stateMutability":"view","type":"function"},{"inputs":[],"name":"poolInfo","outputs":[{"internalType":"uint256","name":"totalStaked","type":"uint256"},{"internalType":"uint256","name":"totalStakers","type":"uint256"},{"internalType":"uint256","name":"totalRewardDistributed","type":"uint256"}],"stateMutability":"view","type":"function"},{"inputs":[],"name":"renounceOwnership","outputs":[],"stateMutability":"nonpayable","type":"function"},{"inputs":[],"name":"router","outputs":[{"internalType":"address","name":"","type":"address"}],"stateMutability":"view","type":"function"},{"inputs":[{"internalType":"address","name":"_tokenAddress","type":"address"}],"name":"setBusdAddress","outputs":[],"stateMutability":"nonpayable","type":"function"},{"inputs":[{"internalType":"address","name":"_address","type":"address"}],"name":"setRouterAddress","outputs":[],"stateMutability":"nonpayable","type":"function"},{"inputs":[{"internalType":"address","name":"_teamAddress","type":"address"}],"name":"setTeamAddress","outputs":[],"stateMutability":"nonpayable","type":"function"},{"inputs":[{"internalType":"address","name":"_tokenAddress","type":"address"}],"name":"setTokenAddress","outputs":[],"stateMutability":"nonpayable","type":"function"},{"inputs":[{"internalType":"uint256","name":"_amount","type":"uint256"},{"internalType":"uint256","name":"_planId","type":"uint256"}],"name":"stake","outputs":[],"stateMutability":"nonpayable","type":"function"},{"inputs":[],"name":"teamAddress","outputs":[{"internalType":"address","name":"","type":"address"}],"stateMutability":"view","type":"function"},{"inputs":[],"name":"tokenAddress","outputs":[{"internalType":"address","name":"","type":"address"}],"stateMutability":"view","type":"function"},{"inputs":[{"internalType":"address","name":"newOwner","type":"address"}],"name":"transferOwnership","outputs":[],"stateMutability":"nonpayable","type":"function"},{"inputs":[{"internalType":"bool","name":"isFTT","type":"bool"}],"name":"unStake","outputs":[],"stateMutability":"nonpayable","type":"function"},{"stateMutability":"payable","type":"receive"}],"devdoc":{"kind":"dev","methods":{},"version":1},"evm":{"bytecode":{"linkReferences":{},"object":"60806040526000805460ff60a01b19169055612710600a908155600b55600f600c5534801561002d57600080fd5b50600080546001600160a01b031916339081178255604051909182917f8be0079c531659141344cd1fd0a4f28419497f9722a3daafe3b4186f6b6457e0908290a35060408051808201825262278d008152600f60208083019182526000808052600580835293517f05b8ccbb9d4d8fb16ea74ce3c29a41f1b461fbdaff4714a0d9a8eb05499746bc5591517f05b8ccbb9d4d8fb16ea74ce3c29a41f1b461fbdaff4714a0d9a8eb05499746bd55835180850185526276a700815260328183019081526001845284835290517f1471eb6eb2c5e789fc3de43f8ce62938c7d1836ec861730447e2ada8fd81017b55517f1471eb6eb2c5e789fc3de43f8ce62938c7d1836ec861730447e2ada8fd81017c558351808501855262ed4e008152608c818301908152600280855285845291517f89832631fb3c3307a103ba2c84ab569c64d6182a18893dcd163f0f1c2090733a55517f89832631fb3c3307a103ba2c84ab569c64d6182a18893dcd163f0f1c2090733b55845180860186526301da9c00815261012c818401908152600380865295845290517fa9bc9a3a348c357ba16b37005d7e6b3236198c0e939f4af8c5f19b8deeb8ebc055517fa9bc9a3a348c357ba16b37005d7e6b3236198c0e939f4af8c5f19b8deeb8ebc1558451606081018652838152918201839052930181905291829055819055600455611043806102366000396000f3fe6080604052600436106101015760003560e01c806376a902311161008f5780639d76ea58116100615780639d76ea58146102da578063d48e64881461018d578063f2fde38b146102fa578063f887ea401461031a578063fe96973a1461033a57005b806376a902311461025c57806377155cf51461027c5780637b0472f01461029c5780638da5cb5b146102bc57005b806341cb87fc116100d357806341cb87fc146101ad5780635a2f3d09146101cd5780636690864e146102075780636f77926b14610227578063715018a61461024757005b8063026b1d5f1461010a5780631698755f146101355780631c75f0851461015557806326a4e8d21461018d57005b3661010857005b005b34801561011657600080fd5b5061011f61035a565b60405161012c9190610f71565b60405180910390f35b34801561014157600080fd5b50610108610150366004610e9b565b6103a3565b34801561016157600080fd5b50600954610175906001600160a01b031681565b6040516001600160a01b03909116815260200161012c565b34801561019957600080fd5b506101086101a8366004610e81565b61047d565b3480156101b957600080fd5b506101086101c8366004610e81565b6104c9565b3480156101d957600080fd5b506002546003546004546101ec92919083565b6040805193845260208401929092529082015260600161012c565b34801561021357600080fd5b50610108610222366004610e81565b610515565b34801561023357600080fd5b5061011f610242366004610e81565b610561565b34801561025357600080fd5b506101086105c7565b34801561026857600080fd5b50600854610175906001600160a01b031681565b34801561028857600080fd5b50610108610297366004610ec4565b61063b565b3480156102a857600080fd5b506101086102b7366004610f1b565b6109cf565b3480156102c857600080fd5b506000546001600160a01b0316610175565b3480156102e657600080fd5b50600754610175906001600160a01b031681565b34801561030657600080fd5b50610108610315366004610e81565b610c59565b34801561032657600080fd5b50600154610175906001600160a01b031681565b34801561034657600080fd5b50610108610355366004610f03565b610c8f565b61037e60405180606001604052806000815260200160008152602001600081525090565b5060408051606081018252600254815260035460208201526004549181019190915290565b6000546001600160a01b031633146103d65760405162461bcd60e51b81526004016103cd90610f3c565b60405180910390fd5b816001600160a01b031663a9059cbb6103f76000546001600160a01b031690565b6040516001600160e01b031960e084901b1681526001600160a01b039091166004820152602481018490526044015b602060405180830381600087803b15801561044057600080fd5b505af1158015610454573d6000803e3d6000fd5b505050506040513d601f19601f820116820180604052508101906104789190610ee7565b505050565b6000546001600160a01b031633146104a75760405162461bcd60e51b81526004016103cd90610f3c565b600780546001600160a01b0319166001600160a01b0392909216919091179055565b6000546001600160a01b031633146104f35760405162461bcd60e51b81526004016103cd90610f3c565b600180546001600160a01b0319166001600160a01b0392909216919091179055565b6000546001600160a01b0316331461053f5760405162461bcd60e51b81526004016103cd90610f3c565b600980546001600160a01b0319166001600160a01b0392909216919091179055565b61058560405180606001604052806000815260200160008152602001600081525090565b506001600160a01b0316600090815260066020908152604091829020825160608101845281548152600182015492810192909252600201549181019190915290565b6000546001600160a01b031633146105f15760405162461bcd60e51b81526004016103cd90610f3c565b600080546040516001600160a01b03909116907f8be0079c531659141344cd1fd0a4f28419497f9722a3daafe3b4186f6b6457e0908390a3600080546001600160a01b0319169055565b600061064633610561565b80519091506106975760405162461bcd60e51b815260206004820152601b60248201527f54686973207573657220646964206e6f74207374616b6520796574000000000060448201526064016103cd565b806020015142116106ea5760405162461bcd60e51b815260206004820152601e60248201527f506c65617365207761697420756e74696c20756e7374616b652074696d65000060448201526064016103cd565b81156107d557600754604082015182516001600160a01b039092169163a9059cbb9133916107189190610f92565b6040516001600160e01b031960e085901b1681526001600160a01b0390921660048301526024820152604401602060405180830381600087803b15801561075e57600080fd5b505af1158015610772573d6000803e3d6000fd5b505050506040513d601f19601f820116820180604052508101906107969190610ee7565b6107d05760405162461bcd60e51b815260206004820152600b60248201526a14d95b9d0819985a5b195960aa1b60448201526064016103cd565b6108ab565b600754604082015182516107fb926001600160a01b0316916107f691610f92565b610d57565b604080516002808252606082018352600092602083019080368337505060075482519293506001600160a01b03169183915060009061084a57634e487b7160e01b600052603260045260246000fd5b6001600160a01b03928316602091820292909201015260085482519116908290600190811061088957634e487b7160e01b600052603260045260246000fd5b60200260200101906001600160a01b031690816001600160a01b031681525050505b600754600954600a54600c54604085015185516001600160a01b039586169563a9059cbb9516936108f493909290916108e49190610f92565b6108ee9190610fca565b90610d90565b6040516001600160e01b031960e085901b1681526001600160a01b0390921660048301526024820152604401602060405180830381600087803b15801561093a57600080fd5b505af115801561094e573d6000803e3d6000fd5b505050506040513d601f19601f820116820180604052508101906109729190610ee7565b5060408101516004805460009061098a908490610f92565b90915550506040805160608101825260008082526020808301828152838501838152338452600690925293909120915182559151600182015590516002909101555050565b60006109da33610561565b805190915015610a2c5760405162461bcd60e51b815260206004820152601d60248201527f5468697320757365722068617320756e7374616b656420616d6f756e7400000060448201526064016103cd565b6007546040516323b872dd60e01b8152336004820152306024820152604481018590526001600160a01b03909116906323b872dd90606401602060405180830381600087803b158015610a7e57600080fd5b505af1158015610a92573d6000803e3d6000fd5b505050506040513d601f19601f82011682018060405250810190610ab69190610ee7565b610af35760405162461bcd60e51b815260206004820152600e60248201526d19195c1bdcda5d0819985a5b195960921b60448201526064016103cd565b600082815260056020526040812054610b0c9042610f92565b600a5460008581526005602052604081206001015492935091610b3491906108ee9088610fca565b85845260208085018481526040808701848152336000908152600690945292208651808255915160018201559151600290920191909155600754600954600a54600b549495506001600160a01b039283169463a9059cbb949390921692610b9e926108ee91610fca565b6040516001600160e01b031960e085901b1681526001600160a01b0390921660048301526024820152604401602060405180830381600087803b158015610be457600080fd5b505af1158015610bf8573d6000803e3d6000fd5b505050506040513d601f19601f82011682018060405250810190610c1c9190610ee7565b508460026000016000828254610c329190610f92565b90915550506003805460019190600090610c4d908490610f92565b90915550505050505050565b6000546001600160a01b03163314610c835760405162461bcd60e51b81526004016103cd90610f3c565b610c8c81610da5565b50565b6000546001600160a01b03163314610cb95760405162461bcd60e51b81526004016103cd90610f3c565b600080546040516001600160a01b039091169083908381818185875af1925050503d8060008114610d06576040519150601f19603f3d011682016040523d82523d6000602084013e610d0b565b606091505b5050905080610d535760405162461bcd60e51b81526020600482015260146024820152732330b4b632b2103a379039b2b7321022ba3432b960611b60448201526064016103cd565b5050565b60015460405163095ea7b360e01b81526001600160a01b039182166004820152602481018390529083169063095ea7b390604401610426565b6000610d9c8284610faa565b90505b92915050565b6001600160a01b038116610e0a5760405162461bcd60e51b815260206004820152602660248201527f4f776e61626c653a206e6577206f776e657220697320746865207a65726f206160448201526564647265737360d01b60648201526084016103cd565b600080546040516001600160a01b03808516939216917f8be0079c531659141344cd1fd0a4f28419497f9722a3daafe3b4186f6b6457e091a3600080546001600160a01b0319166001600160a01b0392909216919091179055565b80356001600160a01b0381168114610e7c57600080fd5b919050565b600060208284031215610e92578081fd5b610d9c82610e65565b60008060408385031215610ead578081fd5b610eb683610e65565b946020939093013593505050565b600060208284031215610ed5578081fd5b8135610ee081610fff565b9392505050565b600060208284031215610ef8578081fd5b8151610ee081610fff565b600060208284031215610f14578081fd5b5035919050565b60008060408385031215610f2d578182fd5b50508035926020909101359150565b6020808252818101527f4f776e61626c653a2063616c6c6572206973206e6f7420746865206f776e6572604082015260600190565b81518152602080830151908201526040808301519082015260608101610d9f565b60008219821115610fa557610fa5610fe9565b500190565b600082610fc557634e487b7160e01b81526012600452602481fd5b500490565b6000816000190483118215151615610fe457610fe4610fe9565b500290565b634e487b7160e01b600052601160045260246000fd5b8015158114610c8c57600080fdfea26469706673582212208e6e54e0329229f1f7db910ec8889bbca98dce41aa9d4a637e734286b3ee34d664736f6c63430008040033","opcodes":"PUSH1 0x80 PUSH1 0x40 MSTORE PUSH1 0x0 DUP1 SLOAD PUSH1 0xFF PUSH1 0xA0 SHL NOT AND SWAP1 SSTORE PUSH2 0x2710 PUSH1 0xA SWAP1 DUP2 SSTORE PUSH1 0xB SSTORE PUSH1 0xF PUSH1 0xC SSTORE CALLVALUE DUP1 ISZERO PUSH2 0x2D JUMPI PUSH1 0x0 DUP1 REVERT JUMPDEST POP PUSH1 0x0 DUP1 SLOAD PUSH1 0x1 PUSH1 0x1 PUSH1 0xA0 SHL SUB NOT AND CALLER SWAP1 DUP2 OR DUP3 SSTORE PUSH1 0x40 MLOAD SWAP1 SWAP2 DUP3 SWAP2 PUSH32 0x8BE0079C531659141344CD1FD0A4F28419497F9722A3DAAFE3B4186F6B6457E0 SWAP1 DUP3 SWAP1 LOG3 POP PUSH1 0x40 DUP1 MLOAD DUP1 DUP3 ADD DUP3 MSTORE PUSH3 0x278D00 DUP2 MSTORE PUSH1 0xF PUSH1 0x20 DUP1 DUP4 ADD SWAP2 DUP3 MSTORE PUSH1 0x0 DUP1 DUP1 MSTORE PUSH1 0x5 DUP1 DUP4 MSTORE SWAP4 MLOAD PUSH32 0x5B8CCBB9D4D8FB16EA74CE3C29A41F1B461FBDAFF4714A0D9A8EB05499746BC SSTORE SWAP2 MLOAD PUSH32 0x5B8CCBB9D4D8FB16EA74CE3C29A41F1B461FBDAFF4714A0D9A8EB05499746BD SSTORE DUP4 MLOAD DUP1 DUP6 ADD DUP6 MSTORE PUSH3 0x76A700 DUP2 MSTORE PUSH1 0x32 DUP2 DUP4 ADD SWAP1 DUP2 MSTORE PUSH1 0x1 DUP5 MSTORE DUP5 DUP4 MSTORE SWAP1 MLOAD PUSH32 0x1471EB6EB2C5E789FC3DE43F8CE62938C7D1836EC861730447E2ADA8FD81017B SSTORE MLOAD PUSH32 0x1471EB6EB2C5E789FC3DE43F8CE62938C7D1836EC861730447E2ADA8FD81017C SSTORE DUP4 MLOAD DUP1 DUP6 ADD DUP6 MSTORE PUSH3 0xED4E00 DUP2 MSTORE PUSH1 0x8C DUP2 DUP4 ADD SWAP1 DUP2 MSTORE PUSH1 0x2 DUP1 DUP6 MSTORE DUP6 DUP5 MSTORE SWAP2 MLOAD PUSH32 0x89832631FB3C3307A103BA2C84AB569C64D6182A18893DCD163F0F1C2090733A SSTORE MLOAD PUSH32 0x89832631FB3C3307A103BA2C84AB569C64D6182A18893DCD163F0F1C2090733B SSTORE DUP5 MLOAD DUP1 DUP7 ADD DUP7 MSTORE PUSH4 0x1DA9C00 DUP2 MSTORE PUSH2 0x12C DUP2 DUP5 ADD SWAP1 DUP2 MSTORE PUSH1 0x3 DUP1 DUP7 MSTORE SWAP6 DUP5 MSTORE SWAP1 MLOAD PUSH32 0xA9BC9A3A348C357BA16B37005D7E6B3236198C0E939F4AF8C5F19B8DEEB8EBC0 SSTORE MLOAD PUSH32 0xA9BC9A3A348C357BA16B37005D7E6B3236198C0E939F4AF8C5F19B8DEEB8EBC1 SSTORE DUP5 MLOAD PUSH1 0x60 DUP2 ADD DUP7 MSTORE DUP4 DUP2 MSTORE SWAP2 DUP3 ADD DUP4 SWAP1 MSTORE SWAP4 ADD DUP2 SWAP1 MSTORE SWAP2 DUP3 SWAP1 SSTORE DUP2 SWAP1 SSTORE PUSH1 0x4 SSTORE PUSH2 0x1043 DUP1 PUSH2 0x236 PUSH1 0x0 CODECOPY PUSH1 0x0 RETURN INVALID PUSH1 0x80 PUSH1 0x40 MSTORE PUSH1 0x4 CALLDATASIZE LT PUSH2 0x101 JUMPI PUSH1 0x0 CALLDATALOAD PUSH1 0xE0 SHR DUP1 PUSH4 0x76A90231 GT PUSH2 0x8F JUMPI DUP1 PUSH4 0x9D76EA58 GT PUSH2 0x61 JUMPI DUP1 PUSH4 0x9D76EA58 EQ PUSH2 0x2DA JUMPI DUP1 PUSH4 0xD48E6488 EQ PUSH2 0x18D JUMPI DUP1 PUSH4 0xF2FDE38B EQ PUSH2 0x2FA JUMPI DUP1 PUSH4 0xF887EA40 EQ PUSH2 0x31A JUMPI DUP1 PUSH4 0xFE96973A EQ PUSH2 0x33A JUMPI STOP JUMPDEST DUP1 PUSH4 0x76A90231 EQ PUSH2 0x25C JUMPI DUP1 PUSH4 0x77155CF5 EQ PUSH2 0x27C JUMPI DUP1 PUSH4 0x7B0472F0 EQ PUSH2 0x29C JUMPI DUP1 PUSH4 0x8DA5CB5B EQ PUSH2 0x2BC JUMPI STOP JUMPDEST DUP1 PUSH4 0x41CB87FC GT PUSH2 0xD3 JUMPI DUP1 PUSH4 0x41CB87FC EQ PUSH2 0x1AD JUMPI DUP1 PUSH4 0x5A2F3D09 EQ PUSH2 0x1CD JUMPI DUP1 PUSH4 0x6690864E EQ PUSH2 0x207 JUMPI DUP1 PUSH4 0x6F77926B EQ PUSH2 0x227 JUMPI DUP1 PUSH4 0x715018A6 EQ PUSH2 0x247 JUMPI STOP JUMPDEST DUP1 PUSH4 0x26B1D5F EQ PUSH2 0x10A JUMPI DUP1 PUSH4 0x1698755F EQ PUSH2 0x135 JUMPI DUP1 PUSH4 0x1C75F085 EQ PUSH2 0x155 JUMPI DUP1 PUSH4 0x26A4E8D2 EQ PUSH2 0x18D JUMPI STOP JUMPDEST CALLDATASIZE PUSH2 0x108 JUMPI STOP JUMPDEST STOP JUMPDEST CALLVALUE DUP1 ISZERO PUSH2 0x116 JUMPI PUSH1 0x0 DUP1 REVERT JUMPDEST POP PUSH2 0x11F PUSH2 0x35A JUMP JUMPDEST PUSH1 0x40 MLOAD PUSH2 0x12C SWAP2 SWAP1 PUSH2 0xF71 JUMP JUMPDEST PUSH1 0x40 MLOAD DUP1 SWAP2 SUB SWAP1 RETURN JUMPDEST CALLVALUE DUP1 ISZERO PUSH2 0x141 JUMPI PUSH1 0x0 DUP1 REVERT JUMPDEST POP PUSH2 0x108 PUSH2 0x150 CALLDATASIZE PUSH1 0x4 PUSH2 0xE9B JUMP JUMPDEST PUSH2 0x3A3 JUMP JUMPDEST CALLVALUE DUP1 ISZERO PUSH2 0x161 JUMPI PUSH1 0x0 DUP1 REVERT JUMPDEST POP PUSH1 0x9 SLOAD PUSH2 0x175 SWAP1 PUSH1 0x1 PUSH1 0x1 PUSH1 0xA0 SHL SUB AND DUP2 JUMP JUMPDEST PUSH1 0x40 MLOAD PUSH1 0x1 PUSH1 0x1 PUSH1 0xA0 SHL SUB SWAP1 SWAP2 AND DUP2 MSTORE PUSH1 0x20 ADD PUSH2 0x12C JUMP JUMPDEST CALLVALUE DUP1 ISZERO PUSH2 0x199 JUMPI PUSH1 0x0 DUP1 REVERT JUMPDEST POP PUSH2 0x108 PUSH2 0x1A8 CALLDATASIZE PUSH1 0x4 PUSH2 0xE81 JUMP JUMPDEST PUSH2 0x47D JUMP JUMPDEST CALLVALUE DUP1 ISZERO PUSH2 0x1B9 JUMPI PUSH1 0x0 DUP1 REVERT JUMPDEST POP PUSH2 0x108 PUSH2 0x1C8 CALLDATASIZE PUSH1 0x4 PUSH2 0xE81 JUMP JUMPDEST PUSH2 0x4C9 JUMP JUMPDEST CALLVALUE DUP1 ISZERO PUSH2 0x1D9 JUMPI PUSH1 0x0 DUP1 REVERT JUMPDEST POP PUSH1 0x2 SLOAD PUSH1 0x3 SLOAD PUSH1 0x4 SLOAD PUSH2 0x1EC SWAP3 SWAP2 SWAP1 DUP4 JUMP JUMPDEST PUSH1 0x40 DUP1 MLOAD SWAP4 DUP5 MSTORE PUSH1 0x20 DUP5 ADD SWAP3 SWAP1 SWAP3 MSTORE SWAP1 DUP3 ADD MSTORE PUSH1 0x60 ADD PUSH2 0x12C JUMP JUMPDEST CALLVALUE DUP1 ISZERO PUSH2 0x213 JUMPI PUSH1 0x0 DUP1 REVERT JUMPDEST POP PUSH2 0x108 PUSH2 0x222 CALLDATASIZE PUSH1 0x4 PUSH2 0xE81 JUMP JUMPDEST PUSH2 0x515 JUMP JUMPDEST CALLVALUE DUP1 ISZERO PUSH2 0x233 JUMPI PUSH1 0x0 DUP1 REVERT JUMPDEST POP PUSH2 0x11F PUSH2 0x242 CALLDATASIZE PUSH1 0x4 PUSH2 0xE81 JUMP JUMPDEST PUSH2 0x561 JUMP JUMPDEST CALLVALUE DUP1 ISZERO PUSH2 0x253 JUMPI PUSH1 0x0 DUP1 REVERT JUMPDEST POP PUSH2 0x108 PUSH2 0x5C7 JUMP JUMPDEST CALLVALUE DUP1 ISZERO PUSH2 0x268 JUMPI PUSH1 0x0 DUP1 REVERT JUMPDEST POP PUSH1 0x8 SLOAD PUSH2 0x175 SWAP1 PUSH1 0x1 PUSH1 0x1 PUSH1 0xA0 SHL SUB AND DUP2 JUMP JUMPDEST CALLVALUE DUP1 ISZERO PUSH2 0x288 JUMPI PUSH1 0x0 DUP1 REVERT JUMPDEST POP PUSH2 0x108 PUSH2 0x297 CALLDATASIZE PUSH1 0x4 PUSH2 0xEC4 JUMP JUMPDEST PUSH2 0x63B JUMP JUMPDEST CALLVALUE DUP1 ISZERO PUSH2 0x2A8 JUMPI PUSH1 0x0 DUP1 REVERT JUMPDEST POP PUSH2 0x108 PUSH2 0x2B7 CALLDATASIZE PUSH1 0x4 PUSH2 0xF1B JUMP JUMPDEST PUSH2 0x9CF JUMP JUMPDEST CALLVALUE DUP1 ISZERO PUSH2 0x2C8 JUMPI PUSH1 0x0 DUP1 REVERT JUMPDEST POP PUSH1 0x0 SLOAD PUSH1 0x1 PUSH1 0x1 PUSH1 0xA0 SHL SUB AND PUSH2 0x175 JUMP JUMPDEST CALLVALUE DUP1 ISZERO PUSH2 0x2E6 JUMPI PUSH1 0x0 DUP1 REVERT JUMPDEST POP PUSH1 0x7 SLOAD PUSH2 0x175 SWAP1 PUSH1 0x1 PUSH1 0x1 PUSH1 0xA0 SHL SUB AND DUP2 JUMP JUMPDEST CALLVALUE DUP1 ISZERO PUSH2 0x306 JUMPI PUSH1 0x0 DUP1 REVERT JUMPDEST POP PUSH2 0x108 PUSH2 0x315 CALLDATASIZE PUSH1 0x4 PUSH2 0xE81 JUMP JUMPDEST PUSH2 0xC59 JUMP JUMPDEST CALLVALUE DUP1 ISZERO PUSH2 0x326 JUMPI PUSH1 0x0 DUP1 REVERT JUMPDEST POP PUSH1 0x1 SLOAD PUSH2 0x175 SWAP1 PUSH1 0x1 PUSH1 0x1 PUSH1 0xA0 SHL SUB AND DUP2 JUMP JUMPDEST CALLVALUE DUP1 ISZERO PUSH2 0x346 JUMPI PUSH1 0x0 DUP1 REVERT JUMPDEST POP PUSH2 0x108 PUSH2 0x355 CALLDATASIZE PUSH1 0x4 PUSH2 0xF03 JUMP JUMPDEST PUSH2 0xC8F JUMP JUMPDEST PUSH2 0x37E PUSH1 0x40 MLOAD DUP1 PUSH1 0x60 ADD PUSH1 0x40 MSTORE DUP1 PUSH1 0x0 DUP2 MSTORE PUSH1 0x20 ADD PUSH1 0x0 DUP2 MSTORE PUSH1 0x20 ADD PUSH1 0x0 DUP2 MSTORE POP SWAP1 JUMP JUMPDEST POP PUSH1 0x40 DUP1 MLOAD PUSH1 0x60 DUP2 ADD DUP3 MSTORE PUSH1 0x2 SLOAD DUP2 MSTORE PUSH1 0x3 SLOAD PUSH1 0x20 DUP3 ADD MSTORE PUSH1 0x4 SLOAD SWAP2 DUP2 ADD SWAP2 SWAP1 SWAP2 MSTORE SWAP1 JUMP JUMPDEST PUSH1 0x0 SLOAD PUSH1 0x1 PUSH1 0x1 PUSH1 0xA0 SHL SUB AND CALLER EQ PUSH2 0x3D6 JUMPI PUSH1 0x40 MLOAD PUSH3 0x461BCD PUSH1 0xE5 SHL DUP2 MSTORE PUSH1 0x4 ADD PUSH2 0x3CD SWAP1 PUSH2 0xF3C JUMP JUMPDEST PUSH1 0x40 MLOAD DUP1 SWAP2 SUB SWAP1 REVERT JUMPDEST DUP2 PUSH1 0x1 PUSH1 0x1 PUSH1 0xA0 SHL SUB AND PUSH4 0xA9059CBB PUSH2 0x3F7 PUSH1 0x0 SLOAD PUSH1 0x1 PUSH1 0x1 PUSH1 0xA0 SHL SUB AND SWAP1 JUMP JUMPDEST PUSH1 0x40 MLOAD PUSH1 0x1 PUSH1 0x1 PUSH1 0xE0 SHL SUB NOT PUSH1 0xE0 DUP5 SWAP1 SHL AND DUP2 MSTORE PUSH1 0x1 PUSH1 0x1 PUSH1 0xA0 SHL SUB SWAP1 SWAP2 AND PUSH1 0x4 DUP3 ADD MSTORE PUSH1 0x24 DUP2 ADD DUP5 SWAP1 MSTORE PUSH1 0x44 ADD JUMPDEST PUSH1 0x20 PUSH1 0x40 MLOAD DUP1 DUP4 SUB DUP2 PUSH1 0x0 DUP8 DUP1 EXTCODESIZE ISZERO DUP1 ISZERO PUSH2 0x440 JUMPI PUSH1 0x0 DUP1 REVERT JUMPDEST POP GAS CALL ISZERO DUP1 ISZERO PUSH2 0x454 JUMPI RETURNDATASIZE PUSH1 0x0 DUP1 RETURNDATACOPY RETURNDATASIZE PUSH1 0x0 REVERT JUMPDEST POP POP POP POP PUSH1 0x40 MLOAD RETURNDATASIZE PUSH1 0x1F NOT PUSH1 0x1F DUP3 ADD AND DUP3 ADD DUP1 PUSH1 0x40 MSTORE POP DUP2 ADD SWAP1 PUSH2 0x478 SWAP2 SWAP1 PUSH2 0xEE7 JUMP JUMPDEST POP POP POP JUMP JUMPDEST PUSH1 0x0 SLOAD PUSH1 0x1 PUSH1 0x1 PUSH1 0xA0 SHL SUB AND CALLER EQ PUSH2 0x4A7 JUMPI PUSH1 0x40 MLOAD PUSH3 0x461BCD PUSH1 0xE5 SHL DUP2 MSTORE PUSH1 0x4 ADD PUSH2 0x3CD SWAP1 PUSH2 0xF3C JUMP JUMPDEST PUSH1 0x7 DUP1 SLOAD PUSH1 0x1 PUSH1 0x1 PUSH1 0xA0 SHL SUB NOT AND PUSH1 0x1 PUSH1 0x1 PUSH1 0xA0 SHL SUB SWAP3 SWAP1 SWAP3 AND SWAP2 SWAP1 SWAP2 OR SWAP1 SSTORE JUMP JUMPDEST PUSH1 0x0 SLOAD PUSH1 0x1 PUSH1 0x1 PUSH1 0xA0 SHL SUB AND CALLER EQ PUSH2 0x4F3 JUMPI PUSH1 0x40 MLOAD PUSH3 0x461BCD PUSH1 0xE5 SHL DUP2 MSTORE PUSH1 0x4 ADD PUSH2 0x3CD SWAP1 PUSH2 0xF3C JUMP JUMPDEST PUSH1 0x1 DUP1 SLOAD PUSH1 0x1 PUSH1 0x1 PUSH1 0xA0 SHL SUB NOT AND PUSH1 0x1 PUSH1 0x1 PUSH1 0xA0 SHL SUB SWAP3 SWAP1 SWAP3 AND SWAP2 SWAP1 SWAP2 OR SWAP1 SSTORE JUMP JUMPDEST PUSH1 0x0 SLOAD PUSH1 0x1 PUSH1 0x1 PUSH1 0xA0 SHL SUB AND CALLER EQ PUSH2 0x53F JUMPI PUSH1 0x40 MLOAD PUSH3 0x461BCD PUSH1 0xE5 SHL DUP2 MSTORE PUSH1 0x4 ADD PUSH2 0x3CD SWAP1 PUSH2 0xF3C JUMP JUMPDEST PUSH1 0x9 DUP1 SLOAD PUSH1 0x1 PUSH1 0x1 PUSH1 0xA0 SHL SUB NOT AND PUSH1 0x1 PUSH1 0x1 PUSH1 0xA0 SHL SUB SWAP3 SWAP1 SWAP3 AND SWAP2 SWAP1 SWAP2 OR SWAP1 SSTORE JUMP JUMPDEST PUSH2 0x585 PUSH1 0x40 MLOAD DUP1 PUSH1 0x60 ADD PUSH1 0x40 MSTORE DUP1 PUSH1 0x0 DUP2 MSTORE PUSH1 0x20 ADD PUSH1 0x0 DUP2 MSTORE PUSH1 0x20 ADD PUSH1 0x0 DUP2 MSTORE POP SWAP1 JUMP JUMPDEST POP PUSH1 0x1 PUSH1 0x1 PUSH1 0xA0 SHL SUB AND PUSH1 0x0 SWAP1 DUP2 MSTORE PUSH1 0x6 PUSH1 0x20 SWAP1 DUP2 MSTORE PUSH1 0x40 SWAP2 DUP3 SWAP1 KECCAK256 DUP3 MLOAD PUSH1 0x60 DUP2 ADD DUP5 MSTORE DUP2 SLOAD DUP2 MSTORE PUSH1 0x1 DUP3 ADD SLOAD SWAP3 DUP2 ADD SWAP3 SWAP1 SWAP3 MSTORE PUSH1 0x2 ADD SLOAD SWAP2 DUP2 ADD SWAP2 SWAP1 SWAP2 MSTORE SWAP1 JUMP JUMPDEST PUSH1 0x0 SLOAD PUSH1 0x1 PUSH1 0x1 PUSH1 0xA0 SHL SUB AND CALLER EQ PUSH2 0x5F1 JUMPI PUSH1 0x40 MLOAD PUSH3 0x461BCD PUSH1 0xE5 SHL DUP2 MSTORE PUSH1 0x4 ADD PUSH2 0x3CD SWAP1 PUSH2 0xF3C JUMP JUMPDEST PUSH1 0x0 DUP1 SLOAD PUSH1 0x40 MLOAD PUSH1 0x1 PUSH1 0x1 PUSH1 0xA0 SHL SUB SWAP1 SWAP2 AND SWAP1 PUSH32 0x8BE0079C531659141344CD1FD0A4F28419497F9722A3DAAFE3B4186F6B6457E0 SWAP1 DUP4 SWAP1 LOG3 PUSH1 0x0 DUP1 SLOAD PUSH1 0x1 PUSH1 0x1 PUSH1 0xA0 SHL SUB NOT AND SWAP1 SSTORE JUMP JUMPDEST PUSH1 0x0 PUSH2 0x646 CALLER PUSH2 0x561 JUMP JUMPDEST DUP1 MLOAD SWAP1 SWAP2 POP PUSH2 0x697 JUMPI PUSH1 0x40 MLOAD PUSH3 0x461BCD PUSH1 0xE5 SHL DUP2 MSTORE PUSH1 0x20 PUSH1 0x4 DUP3 ADD MSTORE PUSH1 0x1B PUSH1 0x24 DUP3 ADD MSTORE PUSH32 0x54686973207573657220646964206E6F74207374616B65207965740000000000 PUSH1 0x44 DUP3 ADD MSTORE PUSH1 0x64 ADD PUSH2 0x3CD JUMP JUMPDEST DUP1 PUSH1 0x20 ADD MLOAD TIMESTAMP GT PUSH2 0x6EA JUMPI PUSH1 0x40 MLOAD PUSH3 0x461BCD PUSH1 0xE5 SHL DUP2 MSTORE PUSH1 0x20 PUSH1 0x4 DUP3 ADD MSTORE PUSH1 0x1E PUSH1 0x24 DUP3 ADD MSTORE PUSH32 0x506C65617365207761697420756E74696C20756E7374616B652074696D650000 PUSH1 0x44 DUP3 ADD MSTORE PUSH1 0x64 ADD PUSH2 0x3CD JUMP JUMPDEST DUP2 ISZERO PUSH2 0x7D5 JUMPI PUSH1 0x7 SLOAD PUSH1 0x40 DUP3 ADD MLOAD DUP3 MLOAD PUSH1 0x1 PUSH1 0x1 PUSH1 0xA0 SHL SUB SWAP1 SWAP3 AND SWAP2 PUSH4 0xA9059CBB SWAP2 CALLER SWAP2 PUSH2 0x718 SWAP2 SWAP1 PUSH2 0xF92 JUMP JUMPDEST PUSH1 0x40 MLOAD PUSH1 0x1 PUSH1 0x1 PUSH1 0xE0 SHL SUB NOT PUSH1 0xE0 DUP6 SWAP1 SHL AND DUP2 MSTORE PUSH1 0x1 PUSH1 0x1 PUSH1 0xA0 SHL SUB SWAP1 SWAP3 AND PUSH1 0x4 DUP4 ADD MSTORE PUSH1 0x24 DUP3 ADD MSTORE PUSH1 0x44 ADD PUSH1 0x20 PUSH1 0x40 MLOAD DUP1 DUP4 SUB DUP2 PUSH1 0x0 DUP8 DUP1 EXTCODESIZE ISZERO DUP1 ISZERO PUSH2 0x75E JUMPI PUSH1 0x0 DUP1 REVERT JUMPDEST POP GAS CALL ISZERO DUP1 ISZERO PUSH2 0x772 JUMPI RETURNDATASIZE PUSH1 0x0 DUP1 RETURNDATACOPY RETURNDATASIZE PUSH1 0x0 REVERT JUMPDEST POP POP POP POP PUSH1 0x40 MLOAD RETURNDATASIZE PUSH1 0x1F NOT PUSH1 0x1F DUP3 ADD AND DUP3 ADD DUP1 PUSH1 0x40 MSTORE POP DUP2 ADD SWAP1 PUSH2 0x796 SWAP2 SWAP1 PUSH2 0xEE7 JUMP JUMPDEST PUSH2 0x7D0 JUMPI PUSH1 0x40 MLOAD PUSH3 0x461BCD PUSH1 0xE5 SHL DUP2 MSTORE PUSH1 0x20 PUSH1 0x4 DUP3 ADD MSTORE PUSH1 0xB PUSH1 0x24 DUP3 ADD MSTORE PUSH11 0x14D95B9D0819985A5B1959 PUSH1 0xAA SHL PUSH1 0x44 DUP3 ADD MSTORE PUSH1 0x64 ADD PUSH2 0x3CD JUMP JUMPDEST PUSH2 0x8AB JUMP JUMPDEST PUSH1 0x7 SLOAD PUSH1 0x40 DUP3 ADD MLOAD DUP3 MLOAD PUSH2 0x7FB SWAP3 PUSH1 0x1 PUSH1 0x1 PUSH1 0xA0 SHL SUB AND SWAP2 PUSH2 0x7F6 SWAP2 PUSH2 0xF92 JUMP JUMPDEST PUSH2 0xD57 JUMP JUMPDEST PUSH1 0x40 DUP1 MLOAD PUSH1 0x2 DUP1 DUP3 MSTORE PUSH1 0x60 DUP3 ADD DUP4 MSTORE PUSH1 0x0 SWAP3 PUSH1 0x20 DUP4 ADD SWAP1 DUP1 CALLDATASIZE DUP4 CALLDATACOPY POP POP PUSH1 0x7 SLOAD DUP3 MLOAD SWAP3 SWAP4 POP PUSH1 0x1 PUSH1 0x1 PUSH1 0xA0 SHL SUB AND SWAP2 DUP4 SWAP2 POP PUSH1 0x0 SWAP1 PUSH2 0x84A JUMPI PUSH4 0x4E487B71 PUSH1 0xE0 SHL PUSH1 0x0 MSTORE PUSH1 0x32 PUSH1 0x4 MSTORE PUSH1 0x24 PUSH1 0x0 REVERT JUMPDEST PUSH1 0x1 PUSH1 0x1 PUSH1 0xA0 SHL SUB SWAP3 DUP4 AND PUSH1 0x20 SWAP2 DUP3 MUL SWAP3 SWAP1 SWAP3 ADD ADD MSTORE PUSH1 0x8 SLOAD DUP3 MLOAD SWAP2 AND SWAP1 DUP3 SWAP1 PUSH1 0x1 SWAP1 DUP2 LT PUSH2 0x889 JUMPI PUSH4 0x4E487B71 PUSH1 0xE0 SHL PUSH1 0x0 MSTORE PUSH1 0x32 PUSH1 0x4 MSTORE PUSH1 0x24 PUSH1 0x0 REVERT JUMPDEST PUSH1 0x20 MUL PUSH1 0x20 ADD ADD SWAP1 PUSH1 0x1 PUSH1 0x1 PUSH1 0xA0 SHL SUB AND SWAP1 DUP2 PUSH1 0x1 PUSH1 0x1 PUSH1 0xA0 SHL SUB AND DUP2 MSTORE POP POP POP JUMPDEST PUSH1 0x7 SLOAD PUSH1 0x9 SLOAD PUSH1 0xA SLOAD PUSH1 0xC SLOAD PUSH1 0x40 DUP6 ADD MLOAD DUP6 MLOAD PUSH1 0x1 PUSH1 0x1 PUSH1 0xA0 SHL SUB SWAP6 DUP7 AND SWAP6 PUSH4 0xA9059CBB SWAP6 AND SWAP4 PUSH2 0x8F4 SWAP4 SWAP1 SWAP3 SWAP1 SWAP2 PUSH2 0x8E4 SWAP2 SWAP1 PUSH2 0xF92 JUMP JUMPDEST PUSH2 0x8EE SWAP2 SWAP1 PUSH2 0xFCA JUMP JUMPDEST SWAP1 PUSH2 0xD90 JUMP JUMPDEST PUSH1 0x40 MLOAD PUSH1 0x1 PUSH1 0x1 PUSH1 0xE0 SHL SUB NOT PUSH1 0xE0 DUP6 SWAP1 SHL AND DUP2 MSTORE PUSH1 0x1 PUSH1 0x1 PUSH1 0xA0 SHL SUB SWAP1 SWAP3 AND PUSH1 0x4 DUP4 ADD MSTORE PUSH1 0x24 DUP3 ADD MSTORE PUSH1 0x44 ADD PUSH1 0x20 PUSH1 0x40 MLOAD DUP1 DUP4 SUB DUP2 PUSH1 0x0 DUP8 DUP1 EXTCODESIZE ISZERO DUP1 ISZERO PUSH2 0x93A JUMPI PUSH1 0x0 DUP1 REVERT JUMPDEST POP GAS CALL ISZERO DUP1 ISZERO PUSH2 0x94E JUMPI RETURNDATASIZE PUSH1 0x0 DUP1 RETURNDATACOPY RETURNDATASIZE PUSH1 0x0 REVERT JUMPDEST POP POP POP POP PUSH1 0x40 MLOAD RETURNDATASIZE PUSH1 0x1F NOT PUSH1 0x1F DUP3 ADD AND DUP3 ADD DUP1 PUSH1 0x40 MSTORE POP DUP2 ADD SWAP1 PUSH2 0x972 SWAP2 SWAP1 PUSH2 0xEE7 JUMP JUMPDEST POP PUSH1 0x40 DUP2 ADD MLOAD PUSH1 0x4 DUP1 SLOAD PUSH1 0x0 SWAP1 PUSH2 0x98A SWAP1 DUP5 SWAP1 PUSH2 0xF92 JUMP JUMPDEST SWAP1 SWAP2 SSTORE POP POP PUSH1 0x40 DUP1 MLOAD PUSH1 0x60 DUP2 ADD DUP3 MSTORE PUSH1 0x0 DUP1 DUP3 MSTORE PUSH1 0x20 DUP1 DUP4 ADD DUP3 DUP2 MSTORE DUP4 DUP6 ADD DUP4 DUP2 MSTORE CALLER DUP5 MSTORE PUSH1 0x6 SWAP1 SWAP3 MSTORE SWAP4 SWAP1 SWAP2 KECCAK256 SWAP2 MLOAD DUP3 SSTORE SWAP2 MLOAD PUSH1 0x1 DUP3 ADD SSTORE SWAP1 MLOAD PUSH1 0x2 SWAP1 SWAP2 ADD SSTORE POP POP JUMP JUMPDEST PUSH1 0x0 PUSH2 0x9DA CALLER PUSH2 0x561 JUMP JUMPDEST DUP1 MLOAD SWAP1 SWAP2 POP ISZERO PUSH2 0xA2C JUMPI PUSH1 0x40 MLOAD PUSH3 0x461BCD PUSH1 0xE5 SHL DUP2 MSTORE PUSH1 0x20 PUSH1 0x4 DUP3 ADD MSTORE PUSH1 0x1D PUSH1 0x24 DUP3 ADD MSTORE PUSH32 0x5468697320757365722068617320756E7374616B656420616D6F756E74000000 PUSH1 0x44 DUP3 ADD MSTORE PUSH1 0x64 ADD PUSH2 0x3CD JUMP JUMPDEST PUSH1 0x7 SLOAD PUSH1 0x40 MLOAD PUSH4 0x23B872DD PUSH1 0xE0 SHL DUP2 MSTORE CALLER PUSH1 0x4 DUP3 ADD MSTORE ADDRESS PUSH1 0x24 DUP3 ADD MSTORE PUSH1 0x44 DUP2 ADD DUP6 SWAP1 MSTORE PUSH1 0x1 PUSH1 0x1 PUSH1 0xA0 SHL SUB SWAP1 SWAP2 AND SWAP1 PUSH4 0x23B872DD SWAP1 PUSH1 0x64 ADD PUSH1 0x20 PUSH1 0x40 MLOAD DUP1 DUP4 SUB DUP2 PUSH1 0x0 DUP8 DUP1 EXTCODESIZE ISZERO DUP1 ISZERO PUSH2 0xA7E JUMPI PUSH1 0x0 DUP1 REVERT JUMPDEST POP GAS CALL ISZERO DUP1 ISZERO PUSH2 0xA92 JUMPI RETURNDATASIZE PUSH1 0x0 DUP1 RETURNDATACOPY RETURNDATASIZE PUSH1 0x0 REVERT JUMPDEST POP POP POP POP PUSH1 0x40 MLOAD RETURNDATASIZE PUSH1 0x1F NOT PUSH1 0x1F DUP3 ADD AND DUP3 ADD DUP1 PUSH1 0x40 MSTORE POP DUP2 ADD SWAP1 PUSH2 0xAB6 SWAP2 SWAP1 PUSH2 0xEE7 JUMP JUMPDEST PUSH2 0xAF3 JUMPI PUSH1 0x40 MLOAD PUSH3 0x461BCD PUSH1 0xE5 SHL DUP2 MSTORE PUSH1 0x20 PUSH1 0x4 DUP3 ADD MSTORE PUSH1 0xE PUSH1 0x24 DUP3 ADD MSTORE PUSH14 0x19195C1BDCDA5D0819985A5B1959 PUSH1 0x92 SHL PUSH1 0x44 DUP3 ADD MSTORE PUSH1 0x64 ADD PUSH2 0x3CD JUMP JUMPDEST PUSH1 0x0 DUP3 DUP2 MSTORE PUSH1 0x5 PUSH1 0x20 MSTORE PUSH1 0x40 DUP2 KECCAK256 SLOAD PUSH2 0xB0C SWAP1 TIMESTAMP PUSH2 0xF92 JUMP JUMPDEST PUSH1 0xA SLOAD PUSH1 0x0 DUP6 DUP2 MSTORE PUSH1 0x5 PUSH1 0x20 MSTORE PUSH1 0x40 DUP2 KECCAK256 PUSH1 0x1 ADD SLOAD SWAP3 SWAP4 POP SWAP2 PUSH2 0xB34 SWAP2 SWAP1 PUSH2 0x8EE SWAP1 DUP9 PUSH2 0xFCA JUMP JUMPDEST DUP6 DUP5 MSTORE PUSH1 0x20 DUP1 DUP6 ADD DUP5 DUP2 MSTORE PUSH1 0x40 DUP1 DUP8 ADD DUP5 DUP2 MSTORE CALLER PUSH1 0x0 SWAP1 DUP2 MSTORE PUSH1 0x6 SWAP1 SWAP5 MSTORE SWAP3 KECCAK256 DUP7 MLOAD DUP1 DUP3 SSTORE SWAP2 MLOAD PUSH1 0x1 DUP3 ADD SSTORE SWAP2 MLOAD PUSH1 0x2 SWAP1 SWAP3 ADD SWAP2 SWAP1 SWAP2 SSTORE PUSH1 0x7 SLOAD PUSH1 0x9 SLOAD PUSH1 0xA SLOAD PUSH1 0xB SLOAD SWAP5 SWAP6 POP PUSH1 0x1 PUSH1 0x1 PUSH1 0xA0 SHL SUB SWAP3 DUP4 AND SWAP5 PUSH4 0xA9059CBB SWAP5 SWAP4 SWAP1 SWAP3 AND SWAP3 PUSH2 0xB9E SWAP3 PUSH2 0x8EE SWAP2 PUSH2 0xFCA JUMP JUMPDEST PUSH1 0x40 MLOAD PUSH1 0x1 PUSH1 0x1 PUSH1 0xE0 SHL SUB NOT PUSH1 0xE0 DUP6 SWAP1 SHL AND DUP2 MSTORE PUSH1 0x1 PUSH1 0x1 PUSH1 0xA0 SHL SUB SWAP1 SWAP3 AND PUSH1 0x4 DUP4 ADD MSTORE PUSH1 0x24 DUP3 ADD MSTORE PUSH1 0x44 ADD PUSH1 0x20 PUSH1 0x40 MLOAD DUP1 DUP4 SUB DUP2 PUSH1 0x0 DUP8 DUP1 EXTCODESIZE ISZERO DUP1 ISZERO PUSH2 0xBE4 JUMPI PUSH1 0x0 DUP1 REVERT JUMPDEST POP GAS CALL ISZERO DUP1 ISZERO PUSH2 0xBF8 JUMPI RETURNDATASIZE PUSH1 0x0 DUP1 RETURNDATACOPY RETURNDATASIZE PUSH1 0x0 REVERT JUMPDEST POP POP POP POP PUSH1 0x40 MLOAD RETURNDATASIZE PUSH1 0x1F NOT PUSH1 0x1F DUP3 ADD AND DUP3 ADD DUP1 PUSH1 0x40 MSTORE POP DUP2 ADD SWAP1 PUSH2 0xC1C SWAP2 SWAP1 PUSH2 0xEE7 JUMP JUMPDEST POP DUP5 PUSH1 0x2 PUSH1 0x0 ADD PUSH1 0x0 DUP3 DUP3 SLOAD PUSH2 0xC32 SWAP2 SWAP1 PUSH2 0xF92 JUMP JUMPDEST SWAP1 SWAP2 SSTORE POP POP PUSH1 0x3 DUP1 SLOAD PUSH1 0x1 SWAP2 SWAP1 PUSH1 0x0 SWAP1 PUSH2 0xC4D SWAP1 DUP5 SWAP1 PUSH2 0xF92 JUMP JUMPDEST SWAP1 SWAP2 SSTORE POP POP POP POP POP POP POP JUMP JUMPDEST PUSH1 0x0 SLOAD PUSH1 0x1 PUSH1 0x1 PUSH1 0xA0 SHL SUB AND CALLER EQ PUSH2 0xC83 JUMPI PUSH1 0x40 MLOAD PUSH3 0x461BCD PUSH1 0xE5 SHL DUP2 MSTORE PUSH1 0x4 ADD PUSH2 0x3CD SWAP1 PUSH2 0xF3C JUMP JUMPDEST PUSH2 0xC8C DUP2 PUSH2 0xDA5 JUMP JUMPDEST POP JUMP JUMPDEST PUSH1 0x0 SLOAD PUSH1 0x1 PUSH1 0x1 PUSH1 0xA0 SHL SUB AND CALLER EQ PUSH2 0xCB9 JUMPI PUSH1 0x40 MLOAD PUSH3 0x461BCD PUSH1 0xE5 SHL DUP2 MSTORE PUSH1 0x4 ADD PUSH2 0x3CD SWAP1 PUSH2 0xF3C JUMP JUMPDEST PUSH1 0x0 DUP1 SLOAD PUSH1 0x40 MLOAD PUSH1 0x1 PUSH1 0x1 PUSH1 0xA0 SHL SUB SWAP1 SWAP2 AND SWAP1 DUP4 SWAP1 DUP4 DUP2 DUP2 DUP2 DUP6 DUP8 GAS CALL SWAP3 POP POP POP RETURNDATASIZE DUP1 PUSH1 0x0 DUP2 EQ PUSH2 0xD06 JUMPI PUSH1 0x40 MLOAD SWAP2 POP PUSH1 0x1F NOT PUSH1 0x3F RETURNDATASIZE ADD AND DUP3 ADD PUSH1 0x40 MSTORE RETURNDATASIZE DUP3 MSTORE RETURNDATASIZE PUSH1 0x0 PUSH1 0x20 DUP5 ADD RETURNDATACOPY PUSH2 0xD0B JUMP JUMPDEST PUSH1 0x60 SWAP2 POP JUMPDEST POP POP SWAP1 POP DUP1 PUSH2 0xD53 JUMPI PUSH1 0x40 MLOAD PUSH3 0x461BCD PUSH1 0xE5 SHL DUP2 MSTORE PUSH1 0x20 PUSH1 0x4 DUP3 ADD MSTORE PUSH1 0x14 PUSH1 0x24 DUP3 ADD MSTORE PUSH20 0x2330B4B632B2103A379039B2B7321022BA3432B9 PUSH1 0x61 SHL PUSH1 0x44 DUP3 ADD MSTORE PUSH1 0x64 ADD PUSH2 0x3CD JUMP JUMPDEST POP POP JUMP JUMPDEST PUSH1 0x1 SLOAD PUSH1 0x40 MLOAD PUSH4 0x95EA7B3 PUSH1 0xE0 SHL DUP2 MSTORE PUSH1 0x1 PUSH1 0x1 PUSH1 0xA0 SHL SUB SWAP2 DUP3 AND PUSH1 0x4 DUP3 ADD MSTORE PUSH1 0x24 DUP2 ADD DUP4 SWAP1 MSTORE SWAP1 DUP4 AND SWAP1 PUSH4 0x95EA7B3 SWAP1 PUSH1 0x44 ADD PUSH2 0x426 JUMP JUMPDEST PUSH1 0x0 PUSH2 0xD9C DUP3 DUP5 PUSH2 0xFAA JUMP JUMPDEST SWAP1 POP JUMPDEST SWAP3 SWAP2 POP POP JUMP JUMPDEST PUSH1 0x1 PUSH1 0x1 PUSH1 0xA0 SHL SUB DUP2 AND PUSH2 0xE0A JUMPI PUSH1 0x40 MLOAD PUSH3 0x461BCD PUSH1 0xE5 SHL DUP2 MSTORE PUSH1 0x20 PUSH1 0x4 DUP3 ADD MSTORE PUSH1 0x26 PUSH1 0x24 DUP3 ADD MSTORE PUSH32 0x4F776E61626C653A206E6577206F776E657220697320746865207A65726F2061 PUSH1 0x44 DUP3 ADD MSTORE PUSH6 0x646472657373 PUSH1 0xD0 SHL PUSH1 0x64 DUP3 ADD MSTORE PUSH1 0x84 ADD PUSH2 0x3CD JUMP JUMPDEST PUSH1 0x0 DUP1 SLOAD PUSH1 0x40 MLOAD PUSH1 0x1 PUSH1 0x1 PUSH1 0xA0 SHL SUB DUP1 DUP6 AND SWAP4 SWAP3 AND SWAP2 PUSH32 0x8BE0079C531659141344CD1FD0A4F28419497F9722A3DAAFE3B4186F6B6457E0 SWAP2 LOG3 PUSH1 0x0 DUP1 SLOAD PUSH1 0x1 PUSH1 0x1 PUSH1 0xA0 SHL SUB NOT AND PUSH1 0x1 PUSH1 0x1 PUSH1 0xA0 SHL SUB SWAP3 SWAP1 SWAP3 AND SWAP2 SWAP1 SWAP2 OR SWAP1 SSTORE JUMP JUMPDEST DUP1 CALLDATALOAD PUSH1 0x1 PUSH1 0x1 PUSH1 0xA0 SHL SUB DUP2 AND DUP2 EQ PUSH2 0xE7C JUMPI PUSH1 0x0 DUP1 REVERT JUMPDEST SWAP2 SWAP1 POP JUMP JUMPDEST PUSH1 0x0 PUSH1 0x20 DUP3 DUP5 SUB SLT ISZERO PUSH2 0xE92 JUMPI DUP1 DUP2 REVERT JUMPDEST PUSH2 0xD9C DUP3 PUSH2 0xE65 JUMP JUMPDEST PUSH1 0x0 DUP1 PUSH1 0x40 DUP4 DUP6 SUB SLT ISZERO PUSH2 0xEAD JUMPI DUP1 DUP2 REVERT JUMPDEST PUSH2 0xEB6 DUP4 PUSH2 0xE65 JUMP JUMPDEST SWAP5 PUSH1 0x20 SWAP4 SWAP1 SWAP4 ADD CALLDATALOAD SWAP4 POP POP POP JUMP JUMPDEST PUSH1 0x0 PUSH1 0x20 DUP3 DUP5 SUB SLT ISZERO PUSH2 0xED5 JUMPI DUP1 DUP2 REVERT JUMPDEST DUP2 CALLDATALOAD PUSH2 0xEE0 DUP2 PUSH2 0xFFF JUMP JUMPDEST SWAP4 SWAP3 POP POP POP JUMP JUMPDEST PUSH1 0x0 PUSH1 0x20 DUP3 DUP5 SUB SLT ISZERO PUSH2 0xEF8 JUMPI DUP1 DUP2 REVERT JUMPDEST DUP2 MLOAD PUSH2 0xEE0 DUP2 PUSH2 0xFFF JUMP JUMPDEST PUSH1 0x0 PUSH1 0x20 DUP3 DUP5 SUB SLT ISZERO PUSH2 0xF14 JUMPI DUP1 DUP2 REVERT JUMPDEST POP CALLDATALOAD SWAP2 SWAP1 POP JUMP JUMPDEST PUSH1 0x0 DUP1 PUSH1 0x40 DUP4 DUP6 SUB SLT ISZERO PUSH2 0xF2D JUMPI DUP2 DUP3 REVERT JUMPDEST POP POP DUP1 CALLDATALOAD SWAP3 PUSH1 0x20 SWAP1 SWAP2 ADD CALLDATALOAD SWAP2 POP JUMP JUMPDEST PUSH1 0x20 DUP1 DUP3 MSTORE DUP2 DUP2 ADD MSTORE PUSH32 0x4F776E61626C653A2063616C6C6572206973206E6F7420746865206F776E6572 PUSH1 0x40 DUP3 ADD MSTORE PUSH1 0x60 ADD SWAP1 JUMP JUMPDEST DUP2 MLOAD DUP2 MSTORE PUSH1 0x20 DUP1 DUP4 ADD MLOAD SWAP1 DUP3 ADD MSTORE PUSH1 0x40 DUP1 DUP4 ADD MLOAD SWAP1 DUP3 ADD MSTORE PUSH1 0x60 DUP2 ADD PUSH2 0xD9F JUMP JUMPDEST PUSH1 0x0 DUP3 NOT DUP3 GT ISZERO PUSH2 0xFA5 JUMPI PUSH2 0xFA5 PUSH2 0xFE9 JUMP JUMPDEST POP ADD SWAP1 JUMP JUMPDEST PUSH1 0x0 DUP3 PUSH2 0xFC5 JUMPI PUSH4 0x4E487B71 PUSH1 0xE0 SHL DUP2 MSTORE PUSH1 0x12 PUSH1 0x4 MSTORE PUSH1 0x24 DUP2 REVERT JUMPDEST POP DIV SWAP1 JUMP JUMPDEST PUSH1 0x0 DUP2 PUSH1 0x0 NOT DIV DUP4 GT DUP3 ISZERO ISZERO AND ISZERO PUSH2 0xFE4 JUMPI PUSH2 0xFE4 PUSH2 0xFE9 JUMP JUMPDEST POP MUL SWAP1 JUMP JUMPDEST PUSH4 0x4E487B71 PUSH1 0xE0 SHL PUSH1 0x0 MSTORE PUSH1 0x11 PUSH1 0x4 MSTORE PUSH1 0x24 PUSH1 0x0 REVERT JUMPDEST DUP1 ISZERO ISZERO DUP2 EQ PUSH2 0xC8C JUMPI PUSH1 0x0 DUP1 REVERT INVALID LOG2 PUSH5 0x6970667358 0x22 SLT KECCAK256 DUP15 PUSH15 0x54E0329229F1F7DB910EC8889BBCA9 DUP14 0xCE COINBASE 0xAA SWAP14 0x4A PUSH4 0x7E734286 0xB3 0xEE CALLVALUE 0xD6 PUSH5 0x736F6C6343 STOP ADDMOD DIV STOP CALLER "},"gasEstimates":{"creation":{"codeDepositCost":"832600","executionCost":"279526","totalCost":"1112126"},"external":{"":"185","busdAddress()":"1060","claimETH(uint256)":"infinite","claimToken(address,uint256)":"infinite","getPool()":"2906","getUser(address)":"infinite","owner()":"1120","poolInfo()":"2697","renounceOwnership()":"24276","router()":"1125","setBusdAddress(address)":"22059","setRouterAddress(address)":"22038","setTeamAddress(address)":"22082","setTokenAddress(address)":"22105","stake(uint256,uint256)":"infinite","teamAddress()":"1105","tokenAddress()":"1059","transferOwnership(address)":"24499","unStake(bool)":"infinite"},"internal":{"_approve(address,uint256)":"infinite"}},"methodIdentifiers":{"busdAddress()":"76a90231","claimETH(uint256)":"fe96973a","claimToken(address,uint256)":"1698755f","getPool()":"026b1d5f","getUser(address)":"6f77926b","owner()":"8da5cb5b","poolInfo()":"5a2f3d09","renounceOwnership()":"715018a6","router()":"f887ea40","setBusdAddress(address)":"d48e6488","setRouterAddress(address)":"41cb87fc","setTeamAddress(address)":"6690864e","setTokenAddress(address)":"26a4e8d2","stake(uint256,uint256)":"7b0472f0","teamAddress()":"1c75f085","tokenAddress()":"9d76ea58","transferOwnership(address)":"f2fde38b","unStake(bool)":"77155cf5"}},"storageLayout":{"storage":[{"astId":336,"contract":"contracts/staking.sol:Staking","label":"_owner","offset":0,"slot":"0","type":"t_address"},{"astId":447,"contract":"contracts/staking.sol:Staking","label":"isclaimable","offset":20,"slot":"0","type":"t_bool"},{"astId":659,"contract":"contracts/staking.sol:Staking","label":"router","offset":0,"slot":"1","type":"t_address"},{"astId":662,"contract":"contracts/staking.sol:Staking","label":"poolInfo","offset":0,"slot":"2","type":"t_struct(PoolInfo)645_storage"},{"astId":667,"contract":"contracts/staking.sol:Staking","label":"plans","offset":0,"slot":"5","type":"t_mapping(t_uint256,t_struct(Plan)657_storage)"},{"astId":672,"contract":"contracts/staking.sol:Staking","label":"users","offset":0,"slot":"6","type":"t_mapping(t_address,t_struct(UserInfo)652_storage)"},{"astId":674,"contract":"contracts/staking.sol:Staking","label":"tokenAddress","offset":0,"slot":"7","type":"t_address"},{"astId":676,"contract":"contracts/staking.sol:Staking","label":"busdAddress","offset":0,"slot":"8","type":"t_address"},{"astId":678,"contract":"contracts/staking.sol:Staking","label":"teamAddress","offset":0,"slot":"9","type":"t_address"},{"astId":681,"contract":"contracts/staking.sol:Staking","label":"feeDecimal","offset":0,"slot":"10","type":"t_uint256"},{"astId":684,"contract":"contracts/staking.sol:Staking","label":"stakeFee","offset":0,"slot":"11","type":"t_uint256"},{"astId":687,"contract":"contracts/staking.sol:Staking","label":"unStakeFee","offset":0,"slot":"12","type":"t_uint256"}],"types":{"t_address":{"encoding":"inplace","label":"address","numberOfBytes":"20"},"t_bool":{"encoding":"inplace","label":"bool","numberOfBytes":"1"},"t_mapping(t_address,t_struct(UserInfo)652_storage)":{"encoding":"mapping","key":"t_address","label":"mapping(address => struct Staking.UserInfo)","numberOfBytes":"32","value":"t_struct(UserInfo)652_storage"},"t_mapping(t_uint256,t_struct(Plan)657_storage)":{"encoding":"mapping","key":"t_uint256","label":"mapping(uint256 => struct Staking.Plan)","numberOfBytes":"32","value":"t_struct(Plan)657_storage"},"t_struct(Plan)657_storage":{"encoding":"inplace","label":"struct Staking.Plan","members":[{"astId":654,"contract":"contracts/staking.sol:Staking","label":"stakeTime","offset":0,"slot":"0","type":"t_uint256"},{"astId":656,"contract":"contracts/staking.sol:Staking","label":"stakePercent","offset":0,"slot":"1","type":"t_uint256"}],"numberOfBytes":"64"},"t_struct(PoolInfo)645_storage":{"encoding":"inplace","label":"struct Staking.PoolInfo","members":[{"astId":640,"contract":"contracts/staking.sol:Staking","label":"totalStaked","offset":0,"slot":"0","type":"t_uint256"},{"astId":642,"contract":"contracts/staking.sol:Staking","label":"totalStakers","offset":0,"slot":"1","type":"t_uint256"},{"astId":644,"contract":"contracts/staking.sol:Staking","label":"totalRewardDistributed","offset":0,"slot":"2","type":"t_uint256"}],"numberOfBytes":"96"},"t_struct(UserInfo)652_storage":{"encoding":"inplace","label":"struct Staking.UserInfo","members":[{"astId":647,"contract":"contracts/staking.sol:Staking","label":"stakeAmount","offset":0,"slot":"0","type":"t_uint256"},{"astId":649,"contract":"contracts/staking.sol:Staking","label":"finishedTime","offset":0,"slot":"1","type":"t_uint256"},{"astId":651,"contract":"contracts/staking.sol:Staking","label":"profit","offset":0,"slot":"2","type":"t_uint256"}],"numberOfBytes":"96"},"t_uint256":{"encoding":"inplace","label":"uint256","numberOfBytes":"32"}}},"userdoc":{"kind":"user","methods":{},"version":1}}}}