{"contracts/joey-presale.sol":{"BTC30_Presale":{"abi":[{"inputs":[{"internalType":"address","name":"_tokenAddress","type":"address"},{"internalType":"uint256","name":"_price","type":"uint256"}],"stateMutability":"nonpayable","type":"constructor"},{"anonymous":false,"inputs":[{"indexed":false,"internalType":"address","name":"to","type":"address"},{"indexed":false,"internalType":"uint256","name":"amount","type":"uint256"}],"name":"Buy","type":"event"},{"anonymous":false,"inputs":[{"indexed":false,"internalType":"address","name":"to","type":"address"},{"indexed":false,"internalType":"uint256","name":"amount","type":"uint256"}],"name":"Claim","type":"event"},{"anonymous":false,"inputs":[{"indexed":true,"internalType":"address","name":"previousOwner","type":"address"},{"indexed":true,"internalType":"address","name":"newOwner","type":"address"}],"name":"OwnershipTransferred","type":"event"},{"stateMutability":"payable","type":"fallback"},{"inputs":[],"name":"baseDecimal","outputs":[{"internalType":"uint256","name":"","type":"uint256"}],"stateMutability":"view","type":"function"},{"inputs":[{"internalType":"address","name":"referralAddress","type":"address"}],"name":"buy","outputs":[],"stateMutability":"payable","type":"function"},{"inputs":[{"internalType":"uint256","name":"usdtPrice","type":"uint256"},{"internalType":"address","name":"referralAddress","type":"address"}],"name":"buyWithUSDT","outputs":[{"internalType":"bool","name":"","type":"bool"}],"stateMutability":"nonpayable","type":"function"},{"inputs":[{"internalType":"uint256","name":"amount","type":"uint256"}],"name":"claimETH","outputs":[],"stateMutability":"nonpayable","type":"function"},{"inputs":[{"internalType":"address","name":"tokenAddress","type":"address"},{"internalType":"uint256","name":"amount","type":"uint256"}],"name":"claimToken","outputs":[],"stateMutability":"nonpayable","type":"function"},{"inputs":[],"name":"claimUserToken","outputs":[],"stateMutability":"nonpayable","type":"function"},{"inputs":[{"internalType":"uint256","name":"ethAmount","type":"uint256"}],"name":"ethBuyHelper","outputs":[{"internalType":"uint256","name":"amount","type":"uint256"}],"stateMutability":"view","type":"function"},{"inputs":[{"internalType":"address","name":"userAddress","type":"address"}],"name":"getClaimAmount","outputs":[{"internalType":"uint256","name":"claimAmount","type":"uint256"}],"stateMutability":"view","type":"function"},{"inputs":[],"name":"getClaimStatus","outputs":[{"internalType":"bool","name":"","type":"bool"}],"stateMutability":"view","type":"function"},{"inputs":[],"name":"getLatestPrice","outputs":[{"internalType":"uint256","name":"","type":"uint256"}],"stateMutability":"view","type":"function"},{"inputs":[],"name":"getPrice","outputs":[{"internalType":"uint256","name":"tokenPrice","type":"uint256"}],"stateMutability":"view","type":"function"},{"inputs":[],"name":"owner","outputs":[{"internalType":"address","name":"","type":"address"}],"stateMutability":"view","type":"function"},{"inputs":[],"name":"renounceOwnership","outputs":[],"stateMutability":"nonpayable","type":"function"},{"inputs":[{"internalType":"uint256","name":"_price","type":"uint256"}],"name":"resetPrice","outputs":[],"stateMutability":"nonpayable","type":"function"},{"inputs":[{"internalType":"uint256","name":"newReferral","type":"uint256"}],"name":"resetReferralPercent","outputs":[],"stateMutability":"nonpayable","type":"function"},{"inputs":[],"name":"resetStartTime","outputs":[],"stateMutability":"nonpayable","type":"function"},{"inputs":[],"name":"startClaim","outputs":[],"stateMutability":"nonpayable","type":"function"},{"inputs":[],"name":"startTime","outputs":[{"internalType":"uint256","name":"","type":"uint256"}],"stateMutability":"view","type":"function"},{"inputs":[],"name":"stopClaim","outputs":[],"stateMutability":"nonpayable","type":"function"},{"inputs":[],"name":"tokenAddress","outputs":[{"internalType":"address","name":"","type":"address"}],"stateMutability":"view","type":"function"},{"inputs":[],"name":"totalSaled","outputs":[{"internalType":"uint256","name":"","type":"uint256"}],"stateMutability":"view","type":"function"},{"inputs":[{"internalType":"address","name":"newOwner","type":"address"}],"name":"transferOwnership","outputs":[],"stateMutability":"nonpayable","type":"function"},{"inputs":[{"internalType":"uint256","name":"usdPrice","type":"uint256"}],"name":"usdtBuyHelper","outputs":[{"internalType":"uint256","name":"amount","type":"uint256"}],"stateMutability":"view","type":"function"},{"inputs":[{"internalType":"address","name":"","type":"address"}],"name":"userDeposits","outputs":[{"internalType":"uint256","name":"","type":"uint256"}],"stateMutability":"view","type":"function"},{"stateMutability":"payable","type":"receive"}],"devdoc":{"kind":"dev","methods":{},"version":1},"evm":{"bytecode":{"linkReferences":{},"object":"60806040526000805460ff60a01b19169055600580546001600160a01b0319908116730567f2323251f0aab15c8dfb1967e4e8a7d42aee178255600680549091167355d398326f99059ff775485246999027b3197955179055620f424060075560085534801561006e57600080fd5b506040516110b53803806110b583398101604081905261008d91610100565b600080546001600160a01b031916339081178255604051909182917f8be0079c531659141344cd1fd0a4f28419497f9722a3daafe3b4186f6b6457e0908290a350600180546001600160a01b0319166001600160a01b039390931692909217909155600255426003556000600455610138565b60008060408385031215610112578182fd5b82516001600160a01b0381168114610128578283fd5b6020939093015192949293505050565b610f6e806101476000396000f3fe60806040526004361061014f5760003560e01c80639d76ea58116100b6578063ecbfc0771161006f578063ecbfc077146103b9578063f088d547146103ce578063f2fde38b146103e1578063f42958be14610401578063fe96973a14610416578063ff6c9bc91461043657610160565b80639d76ea58146102f8578063c8dbbcbc14610318578063d095362f1461032d578063db7b373e1461034d578063dde070e814610363578063de8e81ed1461039957610160565b806378e979251161010857806378e97925146102355780637ff12e791461024b5780638da5cb5b1461026b5780638e15f4731461029d57806398d5fdca146102b85780639b77c21a146102cd57610160565b80630ba36dcd1461016a5780631698755f146101aa57806329a5a0b6146101ca57806363e40879146101ea57806368e453ed1461020a578063715018a61461022057610160565b366101605761015e600061044b565b005b61015e600061044b565b34801561017657600080fd5b50610197610185366004610dba565b60096020526000908152604090205481565b6040519081526020015b60405180910390f35b3480156101b657600080fd5b5061015e6101c5366004610ddb565b610614565b3480156101d657600080fd5b506101976101e5366004610e24565b6106e4565b3480156101f657600080fd5b50610197610205366004610e24565b610727565b34801561021657600080fd5b5061019760045481565b34801561022c57600080fd5b5061015e61073a565b34801561024157600080fd5b5061019760035481565b34801561025757600080fd5b5061015e610266366004610e24565b6107ae565b34801561027757600080fd5b506000546001600160a01b03165b6040516001600160a01b0390911681526020016101a1565b3480156102a957600080fd5b5067016345785d8a0000610197565b3480156102c457600080fd5b50600254610197565b3480156102d957600080fd5b50600054600160a01b900460ff165b60405190151581526020016101a1565b34801561030457600080fd5b50600154610285906001600160a01b031681565b34801561032457600080fd5b5061015e6107dd565b34801561033957600080fd5b506102e8610348366004610e54565b610923565b34801561035957600080fd5b5061019760075481565b34801561036f57600080fd5b5061019761037e366004610dba565b6001600160a01b031660009081526009602052604090205490565b3480156103a557600080fd5b5061015e6103b4366004610e24565b610b09565b3480156103c557600080fd5b5061015e610b38565b61015e6103dc366004610dba565b61044b565b3480156103ed57600080fd5b5061015e6103fc366004610dba565b610b77565b34801561040d57600080fd5b5061015e610bad565b34801561042257600080fd5b5061015e610431366004610e24565b610bdd565b34801561044257600080fd5b5061015e610ca5565b6000610456346106e4565b9050806004600082825461046a9190610eb4565b9091555050600080546040516001600160a01b039091169034908381818185875af1925050503d80600081146104bc576040519150601f19603f3d011682016040523d82523d6000602084013e6104c1565b606091505b505090508061050e5760405162461bcd60e51b81526020600482015260146024820152732330b4b632b2103a379039b2b7321022ba3432b960611b60448201526064015b60405180910390fd5b6001600160a01b03831661054657336000908152600960205260408120805484929061053b908490610eb4565b909155506105d69050565b6064600854836105569190610eec565b6105609190610ecc565b6001600160a01b03841660009081526009602052604081208054909190610588908490610eb4565b909155505060085460649061059d9082610f0b565b6105a79084610eec565b6105b19190610ecc565b33600090815260096020526040812080549091906105d0908490610eb4565b90915550505b60408051338152602081018490527fe3d4187f6ca4248660cc0ac8b8056515bac4a8132be2eca31d6d0cc170722a7e910160405180910390a1505050565b6000546001600160a01b0316331461063e5760405162461bcd60e51b815260040161050590610e7f565b816001600160a01b031663a9059cbb61065f6000546001600160a01b031690565b6040516001600160e01b031960e084901b1681526001600160a01b03909116600482015260248101849052604401602060405180830381600087803b1580156106a757600080fd5b505af11580156106bb573d6000803e3d6000fd5b505050506040513d601f19601f820116820180604052508101906106df9190610e04565b505050565b600069d3c21bcecceda100000060025461070367016345785d8a000090565b61070d9085610eec565b6107179190610eec565b6107219190610ecc565b92915050565b6000600754600254836107179190610eec565b6000546001600160a01b031633146107645760405162461bcd60e51b815260040161050590610e7f565b600080546040516001600160a01b03909116907f8be0079c531659141344cd1fd0a4f28419497f9722a3daafe3b4186f6b6457e0908390a3600080546001600160a01b0319169055565b6000546001600160a01b031633146107d85760405162461bcd60e51b815260040161050590610e7f565b600855565b600054600160a01b900460ff166108365760405162461bcd60e51b815260206004820152601b60248201527f436c61696d206973206e6f7420617661696c61626c65206e6f772e00000000006044820152606401610505565b336000526009602052600154336000818152600960205260409081902054905163a9059cbb60e01b8152600481019290925260248201526001600160a01b039091169063a9059cbb90604401602060405180830381600087803b15801561089c57600080fd5b505af11580156108b0573d6000803e3d6000fd5b505050506040513d601f19601f820116820180604052508101906108d49190610e04565b503360008181526009602090815260408083208390558051938452908301919091527f47cee97cb7acd717b3c0aa1435d004cd5b3c8c57d70dbceb4e4458bbd60e39d4910160405180910390a1565b60008061092f84610727565b905080600460008282546109439190610eb4565b90915550506006546000906001600160a01b031663dd62ed3e336040516001600160e01b031960e084901b1681526001600160a01b03909116600482015230602482015260440160206040518083038186803b1580156109a257600080fd5b505afa1580156109b6573d6000803e3d6000fd5b505050506040513d601f19601f820116820180604052508101906109da9190610e3c565b905080851115610a365760405162461bcd60e51b815260206004820152602160248201527f4d616b65207375726520746f2061646420656e6f75676820616c6c6f77616e636044820152606560f81b6064820152608401610505565b6001600160a01b038416610a6e573360009081526009602052604081208054849290610a63908490610eb4565b90915550610afe9050565b606460085483610a7e9190610eec565b610a889190610ecc565b6001600160a01b03851660009081526009602052604081208054909190610ab0908490610eb4565b9091555050600854606490610ac59082610f0b565b610acf9084610eec565b610ad99190610ecc565b3360009081526009602052604081208054909190610af8908490610eb4565b90915550505b506001949350505050565b6000546001600160a01b03163314610b335760405162461bcd60e51b815260040161050590610e7f565b600255565b6000546001600160a01b03163314610b625760405162461bcd60e51b815260040161050590610e7f565b6000805460ff60a01b1916600160a01b179055565b6000546001600160a01b03163314610ba15760405162461bcd60e51b815260040161050590610e7f565b610baa81610cde565b50565b6000546001600160a01b03163314610bd75760405162461bcd60e51b815260040161050590610e7f565b42600355565b6000546001600160a01b03163314610c075760405162461bcd60e51b815260040161050590610e7f565b600080546040516001600160a01b039091169083908381818185875af1925050503d8060008114610c54576040519150601f19603f3d011682016040523d82523d6000602084013e610c59565b606091505b5050905080610ca15760405162461bcd60e51b81526020600482015260146024820152732330b4b632b2103a379039b2b7321022ba3432b960611b6044820152606401610505565b5050565b6000546001600160a01b03163314610ccf5760405162461bcd60e51b815260040161050590610e7f565b6000805460ff60a01b19169055565b6001600160a01b038116610d435760405162461bcd60e51b815260206004820152602660248201527f4f776e61626c653a206e6577206f776e657220697320746865207a65726f206160448201526564647265737360d01b6064820152608401610505565b600080546040516001600160a01b03808516939216917f8be0079c531659141344cd1fd0a4f28419497f9722a3daafe3b4186f6b6457e091a3600080546001600160a01b0319166001600160a01b0392909216919091179055565b80356001600160a01b0381168114610db557600080fd5b919050565b600060208284031215610dcb578081fd5b610dd482610d9e565b9392505050565b60008060408385031215610ded578081fd5b610df683610d9e565b946020939093013593505050565b600060208284031215610e15578081fd5b81518015158114610dd4578182fd5b600060208284031215610e35578081fd5b5035919050565b600060208284031215610e4d578081fd5b5051919050565b60008060408385031215610e66578182fd5b82359150610e7660208401610d9e565b90509250929050565b6020808252818101527f4f776e61626c653a2063616c6c6572206973206e6f7420746865206f776e6572604082015260600190565b60008219821115610ec757610ec7610f22565b500190565b600082610ee757634e487b7160e01b81526012600452602481fd5b500490565b6000816000190483118215151615610f0657610f06610f22565b500290565b600082821015610f1d57610f1d610f22565b500390565b634e487b7160e01b600052601160045260246000fdfea264697066735822122098b290e64c49b73d4d853320c46017eaa72591cddcd986ff93031a4a45c7024464736f6c63430008040033","opcodes":"PUSH1 0x80 PUSH1 0x40 MSTORE PUSH1 0x0 DUP1 SLOAD PUSH1 0xFF PUSH1 0xA0 SHL NOT AND SWAP1 SSTORE PUSH1 0x5 DUP1 SLOAD PUSH1 0x1 PUSH1 0x1 PUSH1 0xA0 SHL SUB NOT SWAP1 DUP2 AND PUSH20 0x567F2323251F0AAB15C8DFB1967E4E8A7D42AEE OR DUP3 SSTORE PUSH1 0x6 DUP1 SLOAD SWAP1 SWAP2 AND PUSH20 0x55D398326F99059FF775485246999027B3197955 OR SWAP1 SSTORE PUSH3 0xF4240 PUSH1 0x7 SSTORE PUSH1 0x8 SSTORE CALLVALUE DUP1 ISZERO PUSH2 0x6E JUMPI PUSH1 0x0 DUP1 REVERT JUMPDEST POP PUSH1 0x40 MLOAD PUSH2 0x10B5 CODESIZE SUB DUP1 PUSH2 0x10B5 DUP4 CODECOPY DUP2 ADD PUSH1 0x40 DUP2 SWAP1 MSTORE PUSH2 0x8D SWAP2 PUSH2 0x100 JUMP JUMPDEST PUSH1 0x0 DUP1 SLOAD PUSH1 0x1 PUSH1 0x1 PUSH1 0xA0 SHL SUB NOT AND CALLER SWAP1 DUP2 OR DUP3 SSTORE PUSH1 0x40 MLOAD SWAP1 SWAP2 DUP3 SWAP2 PUSH32 0x8BE0079C531659141344CD1FD0A4F28419497F9722A3DAAFE3B4186F6B6457E0 SWAP1 DUP3 SWAP1 LOG3 POP PUSH1 0x1 DUP1 SLOAD PUSH1 0x1 PUSH1 0x1 PUSH1 0xA0 SHL SUB NOT AND PUSH1 0x1 PUSH1 0x1 PUSH1 0xA0 SHL SUB SWAP4 SWAP1 SWAP4 AND SWAP3 SWAP1 SWAP3 OR SWAP1 SWAP2 SSTORE PUSH1 0x2 SSTORE TIMESTAMP PUSH1 0x3 SSTORE PUSH1 0x0 PUSH1 0x4 SSTORE PUSH2 0x138 JUMP JUMPDEST PUSH1 0x0 DUP1 PUSH1 0x40 DUP4 DUP6 SUB SLT ISZERO PUSH2 0x112 JUMPI DUP2 DUP3 REVERT JUMPDEST DUP3 MLOAD PUSH1 0x1 PUSH1 0x1 PUSH1 0xA0 SHL SUB DUP2 AND DUP2 EQ PUSH2 0x128 JUMPI DUP3 DUP4 REVERT JUMPDEST PUSH1 0x20 SWAP4 SWAP1 SWAP4 ADD MLOAD SWAP3 SWAP5 SWAP3 SWAP4 POP POP POP JUMP JUMPDEST PUSH2 0xF6E DUP1 PUSH2 0x147 PUSH1 0x0 CODECOPY PUSH1 0x0 RETURN INVALID PUSH1 0x80 PUSH1 0x40 MSTORE PUSH1 0x4 CALLDATASIZE LT PUSH2 0x14F JUMPI PUSH1 0x0 CALLDATALOAD PUSH1 0xE0 SHR DUP1 PUSH4 0x9D76EA58 GT PUSH2 0xB6 JUMPI DUP1 PUSH4 0xECBFC077 GT PUSH2 0x6F JUMPI DUP1 PUSH4 0xECBFC077 EQ PUSH2 0x3B9 JUMPI DUP1 PUSH4 0xF088D547 EQ PUSH2 0x3CE JUMPI DUP1 PUSH4 0xF2FDE38B EQ PUSH2 0x3E1 JUMPI DUP1 PUSH4 0xF42958BE EQ PUSH2 0x401 JUMPI DUP1 PUSH4 0xFE96973A EQ PUSH2 0x416 JUMPI DUP1 PUSH4 0xFF6C9BC9 EQ PUSH2 0x436 JUMPI PUSH2 0x160 JUMP JUMPDEST DUP1 PUSH4 0x9D76EA58 EQ PUSH2 0x2F8 JUMPI DUP1 PUSH4 0xC8DBBCBC EQ PUSH2 0x318 JUMPI DUP1 PUSH4 0xD095362F EQ PUSH2 0x32D JUMPI DUP1 PUSH4 0xDB7B373E EQ PUSH2 0x34D JUMPI DUP1 PUSH4 0xDDE070E8 EQ PUSH2 0x363 JUMPI DUP1 PUSH4 0xDE8E81ED EQ PUSH2 0x399 JUMPI PUSH2 0x160 JUMP JUMPDEST DUP1 PUSH4 0x78E97925 GT PUSH2 0x108 JUMPI DUP1 PUSH4 0x78E97925 EQ PUSH2 0x235 JUMPI DUP1 PUSH4 0x7FF12E79 EQ PUSH2 0x24B JUMPI DUP1 PUSH4 0x8DA5CB5B EQ PUSH2 0x26B JUMPI DUP1 PUSH4 0x8E15F473 EQ PUSH2 0x29D JUMPI DUP1 PUSH4 0x98D5FDCA EQ PUSH2 0x2B8 JUMPI DUP1 PUSH4 0x9B77C21A EQ PUSH2 0x2CD JUMPI PUSH2 0x160 JUMP JUMPDEST DUP1 PUSH4 0xBA36DCD EQ PUSH2 0x16A JUMPI DUP1 PUSH4 0x1698755F EQ PUSH2 0x1AA JUMPI DUP1 PUSH4 0x29A5A0B6 EQ PUSH2 0x1CA JUMPI DUP1 PUSH4 0x63E40879 EQ PUSH2 0x1EA JUMPI DUP1 PUSH4 0x68E453ED EQ PUSH2 0x20A JUMPI DUP1 PUSH4 0x715018A6 EQ PUSH2 0x220 JUMPI PUSH2 0x160 JUMP JUMPDEST CALLDATASIZE PUSH2 0x160 JUMPI PUSH2 0x15E PUSH1 0x0 PUSH2 0x44B JUMP JUMPDEST STOP JUMPDEST PUSH2 0x15E PUSH1 0x0 PUSH2 0x44B JUMP JUMPDEST CALLVALUE DUP1 ISZERO PUSH2 0x176 JUMPI PUSH1 0x0 DUP1 REVERT JUMPDEST POP PUSH2 0x197 PUSH2 0x185 CALLDATASIZE PUSH1 0x4 PUSH2 0xDBA JUMP JUMPDEST PUSH1 0x9 PUSH1 0x20 MSTORE PUSH1 0x0 SWAP1 DUP2 MSTORE PUSH1 0x40 SWAP1 KECCAK256 SLOAD DUP2 JUMP JUMPDEST PUSH1 0x40 MLOAD SWAP1 DUP2 MSTORE PUSH1 0x20 ADD JUMPDEST PUSH1 0x40 MLOAD DUP1 SWAP2 SUB SWAP1 RETURN JUMPDEST CALLVALUE DUP1 ISZERO PUSH2 0x1B6 JUMPI PUSH1 0x0 DUP1 REVERT JUMPDEST POP PUSH2 0x15E PUSH2 0x1C5 CALLDATASIZE PUSH1 0x4 PUSH2 0xDDB JUMP JUMPDEST PUSH2 0x614 JUMP JUMPDEST CALLVALUE DUP1 ISZERO PUSH2 0x1D6 JUMPI PUSH1 0x0 DUP1 REVERT JUMPDEST POP PUSH2 0x197 PUSH2 0x1E5 CALLDATASIZE PUSH1 0x4 PUSH2 0xE24 JUMP JUMPDEST PUSH2 0x6E4 JUMP JUMPDEST CALLVALUE DUP1 ISZERO PUSH2 0x1F6 JUMPI PUSH1 0x0 DUP1 REVERT JUMPDEST POP PUSH2 0x197 PUSH2 0x205 CALLDATASIZE PUSH1 0x4 PUSH2 0xE24 JUMP JUMPDEST PUSH2 0x727 JUMP JUMPDEST CALLVALUE DUP1 ISZERO PUSH2 0x216 JUMPI PUSH1 0x0 DUP1 REVERT JUMPDEST POP PUSH2 0x197 PUSH1 0x4 SLOAD DUP2 JUMP JUMPDEST CALLVALUE DUP1 ISZERO PUSH2 0x22C JUMPI PUSH1 0x0 DUP1 REVERT JUMPDEST POP PUSH2 0x15E PUSH2 0x73A JUMP JUMPDEST CALLVALUE DUP1 ISZERO PUSH2 0x241 JUMPI PUSH1 0x0 DUP1 REVERT JUMPDEST POP PUSH2 0x197 PUSH1 0x3 SLOAD DUP2 JUMP JUMPDEST CALLVALUE DUP1 ISZERO PUSH2 0x257 JUMPI PUSH1 0x0 DUP1 REVERT JUMPDEST POP PUSH2 0x15E PUSH2 0x266 CALLDATASIZE PUSH1 0x4 PUSH2 0xE24 JUMP JUMPDEST PUSH2 0x7AE JUMP JUMPDEST CALLVALUE DUP1 ISZERO PUSH2 0x277 JUMPI PUSH1 0x0 DUP1 REVERT JUMPDEST POP PUSH1 0x0 SLOAD PUSH1 0x1 PUSH1 0x1 PUSH1 0xA0 SHL SUB AND JUMPDEST PUSH1 0x40 MLOAD PUSH1 0x1 PUSH1 0x1 PUSH1 0xA0 SHL SUB SWAP1 SWAP2 AND DUP2 MSTORE PUSH1 0x20 ADD PUSH2 0x1A1 JUMP JUMPDEST CALLVALUE DUP1 ISZERO PUSH2 0x2A9 JUMPI PUSH1 0x0 DUP1 REVERT JUMPDEST POP PUSH8 0x16345785D8A0000 PUSH2 0x197 JUMP JUMPDEST CALLVALUE DUP1 ISZERO PUSH2 0x2C4 JUMPI PUSH1 0x0 DUP1 REVERT JUMPDEST POP PUSH1 0x2 SLOAD PUSH2 0x197 JUMP JUMPDEST CALLVALUE DUP1 ISZERO PUSH2 0x2D9 JUMPI PUSH1 0x0 DUP1 REVERT JUMPDEST POP PUSH1 0x0 SLOAD PUSH1 0x1 PUSH1 0xA0 SHL SWAP1 DIV PUSH1 0xFF AND JUMPDEST PUSH1 0x40 MLOAD SWAP1 ISZERO ISZERO DUP2 MSTORE PUSH1 0x20 ADD PUSH2 0x1A1 JUMP JUMPDEST CALLVALUE DUP1 ISZERO PUSH2 0x304 JUMPI PUSH1 0x0 DUP1 REVERT JUMPDEST POP PUSH1 0x1 SLOAD PUSH2 0x285 SWAP1 PUSH1 0x1 PUSH1 0x1 PUSH1 0xA0 SHL SUB AND DUP2 JUMP JUMPDEST CALLVALUE DUP1 ISZERO PUSH2 0x324 JUMPI PUSH1 0x0 DUP1 REVERT JUMPDEST POP PUSH2 0x15E PUSH2 0x7DD JUMP JUMPDEST CALLVALUE DUP1 ISZERO PUSH2 0x339 JUMPI PUSH1 0x0 DUP1 REVERT JUMPDEST POP PUSH2 0x2E8 PUSH2 0x348 CALLDATASIZE PUSH1 0x4 PUSH2 0xE54 JUMP JUMPDEST PUSH2 0x923 JUMP JUMPDEST CALLVALUE DUP1 ISZERO PUSH2 0x359 JUMPI PUSH1 0x0 DUP1 REVERT JUMPDEST POP PUSH2 0x197 PUSH1 0x7 SLOAD DUP2 JUMP JUMPDEST CALLVALUE DUP1 ISZERO PUSH2 0x36F JUMPI PUSH1 0x0 DUP1 REVERT JUMPDEST POP PUSH2 0x197 PUSH2 0x37E CALLDATASIZE PUSH1 0x4 PUSH2 0xDBA JUMP JUMPDEST PUSH1 0x1 PUSH1 0x1 PUSH1 0xA0 SHL SUB AND PUSH1 0x0 SWAP1 DUP2 MSTORE PUSH1 0x9 PUSH1 0x20 MSTORE PUSH1 0x40 SWAP1 KECCAK256 SLOAD SWAP1 JUMP JUMPDEST CALLVALUE DUP1 ISZERO PUSH2 0x3A5 JUMPI PUSH1 0x0 DUP1 REVERT JUMPDEST POP PUSH2 0x15E PUSH2 0x3B4 CALLDATASIZE PUSH1 0x4 PUSH2 0xE24 JUMP JUMPDEST PUSH2 0xB09 JUMP JUMPDEST CALLVALUE DUP1 ISZERO PUSH2 0x3C5 JUMPI PUSH1 0x0 DUP1 REVERT JUMPDEST POP PUSH2 0x15E PUSH2 0xB38 JUMP JUMPDEST PUSH2 0x15E PUSH2 0x3DC CALLDATASIZE PUSH1 0x4 PUSH2 0xDBA JUMP JUMPDEST PUSH2 0x44B JUMP JUMPDEST CALLVALUE DUP1 ISZERO PUSH2 0x3ED JUMPI PUSH1 0x0 DUP1 REVERT JUMPDEST POP PUSH2 0x15E PUSH2 0x3FC CALLDATASIZE PUSH1 0x4 PUSH2 0xDBA JUMP JUMPDEST PUSH2 0xB77 JUMP JUMPDEST CALLVALUE DUP1 ISZERO PUSH2 0x40D JUMPI PUSH1 0x0 DUP1 REVERT JUMPDEST POP PUSH2 0x15E PUSH2 0xBAD JUMP JUMPDEST CALLVALUE DUP1 ISZERO PUSH2 0x422 JUMPI PUSH1 0x0 DUP1 REVERT JUMPDEST POP PUSH2 0x15E PUSH2 0x431 CALLDATASIZE PUSH1 0x4 PUSH2 0xE24 JUMP JUMPDEST PUSH2 0xBDD JUMP JUMPDEST CALLVALUE DUP1 ISZERO PUSH2 0x442 JUMPI PUSH1 0x0 DUP1 REVERT JUMPDEST POP PUSH2 0x15E PUSH2 0xCA5 JUMP JUMPDEST PUSH1 0x0 PUSH2 0x456 CALLVALUE PUSH2 0x6E4 JUMP JUMPDEST SWAP1 POP DUP1 PUSH1 0x4 PUSH1 0x0 DUP3 DUP3 SLOAD PUSH2 0x46A SWAP2 SWAP1 PUSH2 0xEB4 JUMP JUMPDEST SWAP1 SWAP2 SSTORE POP POP PUSH1 0x0 DUP1 SLOAD PUSH1 0x40 MLOAD PUSH1 0x1 PUSH1 0x1 PUSH1 0xA0 SHL SUB SWAP1 SWAP2 AND SWAP1 CALLVALUE SWAP1 DUP4 DUP2 DUP2 DUP2 DUP6 DUP8 GAS CALL SWAP3 POP POP POP RETURNDATASIZE DUP1 PUSH1 0x0 DUP2 EQ PUSH2 0x4BC JUMPI PUSH1 0x40 MLOAD SWAP2 POP PUSH1 0x1F NOT PUSH1 0x3F RETURNDATASIZE ADD AND DUP3 ADD PUSH1 0x40 MSTORE RETURNDATASIZE DUP3 MSTORE RETURNDATASIZE PUSH1 0x0 PUSH1 0x20 DUP5 ADD RETURNDATACOPY PUSH2 0x4C1 JUMP JUMPDEST PUSH1 0x60 SWAP2 POP JUMPDEST POP POP SWAP1 POP DUP1 PUSH2 0x50E JUMPI PUSH1 0x40 MLOAD PUSH3 0x461BCD PUSH1 0xE5 SHL DUP2 MSTORE PUSH1 0x20 PUSH1 0x4 DUP3 ADD MSTORE PUSH1 0x14 PUSH1 0x24 DUP3 ADD MSTORE PUSH20 0x2330B4B632B2103A379039B2B7321022BA3432B9 PUSH1 0x61 SHL PUSH1 0x44 DUP3 ADD MSTORE PUSH1 0x64 ADD JUMPDEST PUSH1 0x40 MLOAD DUP1 SWAP2 SUB SWAP1 REVERT JUMPDEST PUSH1 0x1 PUSH1 0x1 PUSH1 0xA0 SHL SUB DUP4 AND PUSH2 0x546 JUMPI CALLER PUSH1 0x0 SWAP1 DUP2 MSTORE PUSH1 0x9 PUSH1 0x20 MSTORE PUSH1 0x40 DUP2 KECCAK256 DUP1 SLOAD DUP5 SWAP3 SWAP1 PUSH2 0x53B SWAP1 DUP5 SWAP1 PUSH2 0xEB4 JUMP JUMPDEST SWAP1 SWAP2 SSTORE POP PUSH2 0x5D6 SWAP1 POP JUMP JUMPDEST PUSH1 0x64 PUSH1 0x8 SLOAD DUP4 PUSH2 0x556 SWAP2 SWAP1 PUSH2 0xEEC JUMP JUMPDEST PUSH2 0x560 SWAP2 SWAP1 PUSH2 0xECC JUMP JUMPDEST PUSH1 0x1 PUSH1 0x1 PUSH1 0xA0 SHL SUB DUP5 AND PUSH1 0x0 SWAP1 DUP2 MSTORE PUSH1 0x9 PUSH1 0x20 MSTORE PUSH1 0x40 DUP2 KECCAK256 DUP1 SLOAD SWAP1 SWAP2 SWAP1 PUSH2 0x588 SWAP1 DUP5 SWAP1 PUSH2 0xEB4 JUMP JUMPDEST SWAP1 SWAP2 SSTORE POP POP PUSH1 0x8 SLOAD PUSH1 0x64 SWAP1 PUSH2 0x59D SWAP1 DUP3 PUSH2 0xF0B JUMP JUMPDEST PUSH2 0x5A7 SWAP1 DUP5 PUSH2 0xEEC JUMP JUMPDEST PUSH2 0x5B1 SWAP2 SWAP1 PUSH2 0xECC JUMP JUMPDEST CALLER PUSH1 0x0 SWAP1 DUP2 MSTORE PUSH1 0x9 PUSH1 0x20 MSTORE PUSH1 0x40 DUP2 KECCAK256 DUP1 SLOAD SWAP1 SWAP2 SWAP1 PUSH2 0x5D0 SWAP1 DUP5 SWAP1 PUSH2 0xEB4 JUMP JUMPDEST SWAP1 SWAP2 SSTORE POP POP JUMPDEST PUSH1 0x40 DUP1 MLOAD CALLER DUP2 MSTORE PUSH1 0x20 DUP2 ADD DUP5 SWAP1 MSTORE PUSH32 0xE3D4187F6CA4248660CC0AC8B8056515BAC4A8132BE2ECA31D6D0CC170722A7E SWAP2 ADD PUSH1 0x40 MLOAD DUP1 SWAP2 SUB SWAP1 LOG1 POP POP POP JUMP JUMPDEST PUSH1 0x0 SLOAD PUSH1 0x1 PUSH1 0x1 PUSH1 0xA0 SHL SUB AND CALLER EQ PUSH2 0x63E JUMPI PUSH1 0x40 MLOAD PUSH3 0x461BCD PUSH1 0xE5 SHL DUP2 MSTORE PUSH1 0x4 ADD PUSH2 0x505 SWAP1 PUSH2 0xE7F JUMP JUMPDEST DUP2 PUSH1 0x1 PUSH1 0x1 PUSH1 0xA0 SHL SUB AND PUSH4 0xA9059CBB PUSH2 0x65F PUSH1 0x0 SLOAD PUSH1 0x1 PUSH1 0x1 PUSH1 0xA0 SHL SUB AND SWAP1 JUMP JUMPDEST PUSH1 0x40 MLOAD PUSH1 0x1 PUSH1 0x1 PUSH1 0xE0 SHL SUB NOT PUSH1 0xE0 DUP5 SWAP1 SHL AND DUP2 MSTORE PUSH1 0x1 PUSH1 0x1 PUSH1 0xA0 SHL SUB SWAP1 SWAP2 AND PUSH1 0x4 DUP3 ADD MSTORE PUSH1 0x24 DUP2 ADD DUP5 SWAP1 MSTORE PUSH1 0x44 ADD PUSH1 0x20 PUSH1 0x40 MLOAD DUP1 DUP4 SUB DUP2 PUSH1 0x0 DUP8 DUP1 EXTCODESIZE ISZERO DUP1 ISZERO PUSH2 0x6A7 JUMPI PUSH1 0x0 DUP1 REVERT JUMPDEST POP GAS CALL ISZERO DUP1 ISZERO PUSH2 0x6BB JUMPI RETURNDATASIZE PUSH1 0x0 DUP1 RETURNDATACOPY RETURNDATASIZE PUSH1 0x0 REVERT JUMPDEST POP POP POP POP PUSH1 0x40 MLOAD RETURNDATASIZE PUSH1 0x1F NOT PUSH1 0x1F DUP3 ADD AND DUP3 ADD DUP1 PUSH1 0x40 MSTORE POP DUP2 ADD SWAP1 PUSH2 0x6DF SWAP2 SWAP1 PUSH2 0xE04 JUMP JUMPDEST POP POP POP JUMP JUMPDEST PUSH1 0x0 PUSH10 0xD3C21BCECCEDA1000000 PUSH1 0x2 SLOAD PUSH2 0x703 PUSH8 0x16345785D8A0000 SWAP1 JUMP JUMPDEST PUSH2 0x70D SWAP1 DUP6 PUSH2 0xEEC JUMP JUMPDEST PUSH2 0x717 SWAP2 SWAP1 PUSH2 0xEEC JUMP JUMPDEST PUSH2 0x721 SWAP2 SWAP1 PUSH2 0xECC JUMP JUMPDEST SWAP3 SWAP2 POP POP JUMP JUMPDEST PUSH1 0x0 PUSH1 0x7 SLOAD PUSH1 0x2 SLOAD DUP4 PUSH2 0x717 SWAP2 SWAP1 PUSH2 0xEEC JUMP JUMPDEST PUSH1 0x0 SLOAD PUSH1 0x1 PUSH1 0x1 PUSH1 0xA0 SHL SUB AND CALLER EQ PUSH2 0x764 JUMPI PUSH1 0x40 MLOAD PUSH3 0x461BCD PUSH1 0xE5 SHL DUP2 MSTORE PUSH1 0x4 ADD PUSH2 0x505 SWAP1 PUSH2 0xE7F JUMP JUMPDEST PUSH1 0x0 DUP1 SLOAD PUSH1 0x40 MLOAD PUSH1 0x1 PUSH1 0x1 PUSH1 0xA0 SHL SUB SWAP1 SWAP2 AND SWAP1 PUSH32 0x8BE0079C531659141344CD1FD0A4F28419497F9722A3DAAFE3B4186F6B6457E0 SWAP1 DUP4 SWAP1 LOG3 PUSH1 0x0 DUP1 SLOAD PUSH1 0x1 PUSH1 0x1 PUSH1 0xA0 SHL SUB NOT AND SWAP1 SSTORE JUMP JUMPDEST PUSH1 0x0 SLOAD PUSH1 0x1 PUSH1 0x1 PUSH1 0xA0 SHL SUB AND CALLER EQ PUSH2 0x7D8 JUMPI PUSH1 0x40 MLOAD PUSH3 0x461BCD PUSH1 0xE5 SHL DUP2 MSTORE PUSH1 0x4 ADD PUSH2 0x505 SWAP1 PUSH2 0xE7F JUMP JUMPDEST PUSH1 0x8 SSTORE JUMP JUMPDEST PUSH1 0x0 SLOAD PUSH1 0x1 PUSH1 0xA0 SHL SWAP1 DIV PUSH1 0xFF AND PUSH2 0x836 JUMPI PUSH1 0x40 MLOAD PUSH3 0x461BCD PUSH1 0xE5 SHL DUP2 MSTORE PUSH1 0x20 PUSH1 0x4 DUP3 ADD MSTORE PUSH1 0x1B PUSH1 0x24 DUP3 ADD MSTORE PUSH32 0x436C61696D206973206E6F7420617661696C61626C65206E6F772E0000000000 PUSH1 0x44 DUP3 ADD MSTORE PUSH1 0x64 ADD PUSH2 0x505 JUMP JUMPDEST CALLER PUSH1 0x0 MSTORE PUSH1 0x9 PUSH1 0x20 MSTORE PUSH1 0x1 SLOAD CALLER PUSH1 0x0 DUP2 DUP2 MSTORE PUSH1 0x9 PUSH1 0x20 MSTORE PUSH1 0x40 SWAP1 DUP2 SWAP1 KECCAK256 SLOAD SWAP1 MLOAD PUSH4 0xA9059CBB PUSH1 0xE0 SHL DUP2 MSTORE PUSH1 0x4 DUP2 ADD SWAP3 SWAP1 SWAP3 MSTORE PUSH1 0x24 DUP3 ADD MSTORE PUSH1 0x1 PUSH1 0x1 PUSH1 0xA0 SHL SUB SWAP1 SWAP2 AND SWAP1 PUSH4 0xA9059CBB SWAP1 PUSH1 0x44 ADD PUSH1 0x20 PUSH1 0x40 MLOAD DUP1 DUP4 SUB DUP2 PUSH1 0x0 DUP8 DUP1 EXTCODESIZE ISZERO DUP1 ISZERO PUSH2 0x89C JUMPI PUSH1 0x0 DUP1 REVERT JUMPDEST POP GAS CALL ISZERO DUP1 ISZERO PUSH2 0x8B0 JUMPI RETURNDATASIZE PUSH1 0x0 DUP1 RETURNDATACOPY RETURNDATASIZE PUSH1 0x0 REVERT JUMPDEST POP POP POP POP PUSH1 0x40 MLOAD RETURNDATASIZE PUSH1 0x1F NOT PUSH1 0x1F DUP3 ADD AND DUP3 ADD DUP1 PUSH1 0x40 MSTORE POP DUP2 ADD SWAP1 PUSH2 0x8D4 SWAP2 SWAP1 PUSH2 0xE04 JUMP JUMPDEST POP CALLER PUSH1 0x0 DUP2 DUP2 MSTORE PUSH1 0x9 PUSH1 0x20 SWAP1 DUP2 MSTORE PUSH1 0x40 DUP1 DUP4 KECCAK256 DUP4 SWAP1 SSTORE DUP1 MLOAD SWAP4 DUP5 MSTORE SWAP1 DUP4 ADD SWAP2 SWAP1 SWAP2 MSTORE PUSH32 0x47CEE97CB7ACD717B3C0AA1435D004CD5B3C8C57D70DBCEB4E4458BBD60E39D4 SWAP2 ADD PUSH1 0x40 MLOAD DUP1 SWAP2 SUB SWAP1 LOG1 JUMP JUMPDEST PUSH1 0x0 DUP1 PUSH2 0x92F DUP5 PUSH2 0x727 JUMP JUMPDEST SWAP1 POP DUP1 PUSH1 0x4 PUSH1 0x0 DUP3 DUP3 SLOAD PUSH2 0x943 SWAP2 SWAP1 PUSH2 0xEB4 JUMP JUMPDEST SWAP1 SWAP2 SSTORE POP POP PUSH1 0x6 SLOAD PUSH1 0x0 SWAP1 PUSH1 0x1 PUSH1 0x1 PUSH1 0xA0 SHL SUB AND PUSH4 0xDD62ED3E CALLER PUSH1 0x40 MLOAD PUSH1 0x1 PUSH1 0x1 PUSH1 0xE0 SHL SUB NOT PUSH1 0xE0 DUP5 SWAP1 SHL AND DUP2 MSTORE PUSH1 0x1 PUSH1 0x1 PUSH1 0xA0 SHL SUB SWAP1 SWAP2 AND PUSH1 0x4 DUP3 ADD MSTORE ADDRESS PUSH1 0x24 DUP3 ADD MSTORE PUSH1 0x44 ADD PUSH1 0x20 PUSH1 0x40 MLOAD DUP1 DUP4 SUB DUP2 DUP7 DUP1 EXTCODESIZE ISZERO DUP1 ISZERO PUSH2 0x9A2 JUMPI PUSH1 0x0 DUP1 REVERT JUMPDEST POP GAS STATICCALL ISZERO DUP1 ISZERO PUSH2 0x9B6 JUMPI RETURNDATASIZE PUSH1 0x0 DUP1 RETURNDATACOPY RETURNDATASIZE PUSH1 0x0 REVERT JUMPDEST POP POP POP POP PUSH1 0x40 MLOAD RETURNDATASIZE PUSH1 0x1F NOT PUSH1 0x1F DUP3 ADD AND DUP3 ADD DUP1 PUSH1 0x40 MSTORE POP DUP2 ADD SWAP1 PUSH2 0x9DA SWAP2 SWAP1 PUSH2 0xE3C JUMP JUMPDEST SWAP1 POP DUP1 DUP6 GT ISZERO PUSH2 0xA36 JUMPI PUSH1 0x40 MLOAD PUSH3 0x461BCD PUSH1 0xE5 SHL DUP2 MSTORE PUSH1 0x20 PUSH1 0x4 DUP3 ADD MSTORE PUSH1 0x21 PUSH1 0x24 DUP3 ADD MSTORE PUSH32 0x4D616B65207375726520746F2061646420656E6F75676820616C6C6F77616E63 PUSH1 0x44 DUP3 ADD MSTORE PUSH1 0x65 PUSH1 0xF8 SHL PUSH1 0x64 DUP3 ADD MSTORE PUSH1 0x84 ADD PUSH2 0x505 JUMP JUMPDEST PUSH1 0x1 PUSH1 0x1 PUSH1 0xA0 SHL SUB DUP5 AND PUSH2 0xA6E JUMPI CALLER PUSH1 0x0 SWAP1 DUP2 MSTORE PUSH1 0x9 PUSH1 0x20 MSTORE PUSH1 0x40 DUP2 KECCAK256 DUP1 SLOAD DUP5 SWAP3 SWAP1 PUSH2 0xA63 SWAP1 DUP5 SWAP1 PUSH2 0xEB4 JUMP JUMPDEST SWAP1 SWAP2 SSTORE POP PUSH2 0xAFE SWAP1 POP JUMP JUMPDEST PUSH1 0x64 PUSH1 0x8 SLOAD DUP4 PUSH2 0xA7E SWAP2 SWAP1 PUSH2 0xEEC JUMP JUMPDEST PUSH2 0xA88 SWAP2 SWAP1 PUSH2 0xECC JUMP JUMPDEST PUSH1 0x1 PUSH1 0x1 PUSH1 0xA0 SHL SUB DUP6 AND PUSH1 0x0 SWAP1 DUP2 MSTORE PUSH1 0x9 PUSH1 0x20 MSTORE PUSH1 0x40 DUP2 KECCAK256 DUP1 SLOAD SWAP1 SWAP2 SWAP1 PUSH2 0xAB0 SWAP1 DUP5 SWAP1 PUSH2 0xEB4 JUMP JUMPDEST SWAP1 SWAP2 SSTORE POP POP PUSH1 0x8 SLOAD PUSH1 0x64 SWAP1 PUSH2 0xAC5 SWAP1 DUP3 PUSH2 0xF0B JUMP JUMPDEST PUSH2 0xACF SWAP1 DUP5 PUSH2 0xEEC JUMP JUMPDEST PUSH2 0xAD9 SWAP2 SWAP1 PUSH2 0xECC JUMP JUMPDEST CALLER PUSH1 0x0 SWAP1 DUP2 MSTORE PUSH1 0x9 PUSH1 0x20 MSTORE PUSH1 0x40 DUP2 KECCAK256 DUP1 SLOAD SWAP1 SWAP2 SWAP1 PUSH2 0xAF8 SWAP1 DUP5 SWAP1 PUSH2 0xEB4 JUMP JUMPDEST SWAP1 SWAP2 SSTORE POP POP JUMPDEST POP PUSH1 0x1 SWAP5 SWAP4 POP POP POP POP JUMP JUMPDEST PUSH1 0x0 SLOAD PUSH1 0x1 PUSH1 0x1 PUSH1 0xA0 SHL SUB AND CALLER EQ PUSH2 0xB33 JUMPI PUSH1 0x40 MLOAD PUSH3 0x461BCD PUSH1 0xE5 SHL DUP2 MSTORE PUSH1 0x4 ADD PUSH2 0x505 SWAP1 PUSH2 0xE7F JUMP JUMPDEST PUSH1 0x2 SSTORE JUMP JUMPDEST PUSH1 0x0 SLOAD PUSH1 0x1 PUSH1 0x1 PUSH1 0xA0 SHL SUB AND CALLER EQ PUSH2 0xB62 JUMPI PUSH1 0x40 MLOAD PUSH3 0x461BCD PUSH1 0xE5 SHL DUP2 MSTORE PUSH1 0x4 ADD PUSH2 0x505 SWAP1 PUSH2 0xE7F JUMP JUMPDEST PUSH1 0x0 DUP1 SLOAD PUSH1 0xFF PUSH1 0xA0 SHL NOT AND PUSH1 0x1 PUSH1 0xA0 SHL OR SWAP1 SSTORE JUMP JUMPDEST PUSH1 0x0 SLOAD PUSH1 0x1 PUSH1 0x1 PUSH1 0xA0 SHL SUB AND CALLER EQ PUSH2 0xBA1 JUMPI PUSH1 0x40 MLOAD PUSH3 0x461BCD PUSH1 0xE5 SHL DUP2 MSTORE PUSH1 0x4 ADD PUSH2 0x505 SWAP1 PUSH2 0xE7F JUMP JUMPDEST PUSH2 0xBAA DUP2 PUSH2 0xCDE JUMP JUMPDEST POP JUMP JUMPDEST PUSH1 0x0 SLOAD PUSH1 0x1 PUSH1 0x1 PUSH1 0xA0 SHL SUB AND CALLER EQ PUSH2 0xBD7 JUMPI PUSH1 0x40 MLOAD PUSH3 0x461BCD PUSH1 0xE5 SHL DUP2 MSTORE PUSH1 0x4 ADD PUSH2 0x505 SWAP1 PUSH2 0xE7F JUMP JUMPDEST TIMESTAMP PUSH1 0x3 SSTORE JUMP JUMPDEST PUSH1 0x0 SLOAD PUSH1 0x1 PUSH1 0x1 PUSH1 0xA0 SHL SUB AND CALLER EQ PUSH2 0xC07 JUMPI PUSH1 0x40 MLOAD PUSH3 0x461BCD PUSH1 0xE5 SHL DUP2 MSTORE PUSH1 0x4 ADD PUSH2 0x505 SWAP1 PUSH2 0xE7F JUMP JUMPDEST PUSH1 0x0 DUP1 SLOAD PUSH1 0x40 MLOAD PUSH1 0x1 PUSH1 0x1 PUSH1 0xA0 SHL SUB SWAP1 SWAP2 AND SWAP1 DUP4 SWAP1 DUP4 DUP2 DUP2 DUP2 DUP6 DUP8 GAS CALL SWAP3 POP POP POP RETURNDATASIZE DUP1 PUSH1 0x0 DUP2 EQ PUSH2 0xC54 JUMPI PUSH1 0x40 MLOAD SWAP2 POP PUSH1 0x1F NOT PUSH1 0x3F RETURNDATASIZE ADD AND DUP3 ADD PUSH1 0x40 MSTORE RETURNDATASIZE DUP3 MSTORE RETURNDATASIZE PUSH1 0x0 PUSH1 0x20 DUP5 ADD RETURNDATACOPY PUSH2 0xC59 JUMP JUMPDEST PUSH1 0x60 SWAP2 POP JUMPDEST POP POP SWAP1 POP DUP1 PUSH2 0xCA1 JUMPI PUSH1 0x40 MLOAD PUSH3 0x461BCD PUSH1 0xE5 SHL DUP2 MSTORE PUSH1 0x20 PUSH1 0x4 DUP3 ADD MSTORE PUSH1 0x14 PUSH1 0x24 DUP3 ADD MSTORE PUSH20 0x2330B4B632B2103A379039B2B7321022BA3432B9 PUSH1 0x61 SHL PUSH1 0x44 DUP3 ADD MSTORE PUSH1 0x64 ADD PUSH2 0x505 JUMP JUMPDEST POP POP JUMP JUMPDEST PUSH1 0x0 SLOAD PUSH1 0x1 PUSH1 0x1 PUSH1 0xA0 SHL SUB AND CALLER EQ PUSH2 0xCCF JUMPI PUSH1 0x40 MLOAD PUSH3 0x461BCD PUSH1 0xE5 SHL DUP2 MSTORE PUSH1 0x4 ADD PUSH2 0x505 SWAP1 PUSH2 0xE7F JUMP JUMPDEST PUSH1 0x0 DUP1 SLOAD PUSH1 0xFF PUSH1 0xA0 SHL NOT AND SWAP1 SSTORE JUMP JUMPDEST PUSH1 0x1 PUSH1 0x1 PUSH1 0xA0 SHL SUB DUP2 AND PUSH2 0xD43 JUMPI PUSH1 0x40 MLOAD PUSH3 0x461BCD PUSH1 0xE5 SHL DUP2 MSTORE PUSH1 0x20 PUSH1 0x4 DUP3 ADD MSTORE PUSH1 0x26 PUSH1 0x24 DUP3 ADD MSTORE PUSH32 0x4F776E61626C653A206E6577206F776E657220697320746865207A65726F2061 PUSH1 0x44 DUP3 ADD MSTORE PUSH6 0x646472657373 PUSH1 0xD0 SHL PUSH1 0x64 DUP3 ADD MSTORE PUSH1 0x84 ADD PUSH2 0x505 JUMP JUMPDEST PUSH1 0x0 DUP1 SLOAD PUSH1 0x40 MLOAD PUSH1 0x1 PUSH1 0x1 PUSH1 0xA0 SHL SUB DUP1 DUP6 AND SWAP4 SWAP3 AND SWAP2 PUSH32 0x8BE0079C531659141344CD1FD0A4F28419497F9722A3DAAFE3B4186F6B6457E0 SWAP2 LOG3 PUSH1 0x0 DUP1 SLOAD PUSH1 0x1 PUSH1 0x1 PUSH1 0xA0 SHL SUB NOT AND PUSH1 0x1 PUSH1 0x1 PUSH1 0xA0 SHL SUB SWAP3 SWAP1 SWAP3 AND SWAP2 SWAP1 SWAP2 OR SWAP1 SSTORE JUMP JUMPDEST DUP1 CALLDATALOAD PUSH1 0x1 PUSH1 0x1 PUSH1 0xA0 SHL SUB DUP2 AND DUP2 EQ PUSH2 0xDB5 JUMPI PUSH1 0x0 DUP1 REVERT JUMPDEST SWAP2 SWAP1 POP JUMP JUMPDEST PUSH1 0x0 PUSH1 0x20 DUP3 DUP5 SUB SLT ISZERO PUSH2 0xDCB JUMPI DUP1 DUP2 REVERT JUMPDEST PUSH2 0xDD4 DUP3 PUSH2 0xD9E JUMP JUMPDEST SWAP4 SWAP3 POP POP POP JUMP JUMPDEST PUSH1 0x0 DUP1 PUSH1 0x40 DUP4 DUP6 SUB SLT ISZERO PUSH2 0xDED JUMPI DUP1 DUP2 REVERT JUMPDEST PUSH2 0xDF6 DUP4 PUSH2 0xD9E JUMP JUMPDEST SWAP5 PUSH1 0x20 SWAP4 SWAP1 SWAP4 ADD CALLDATALOAD SWAP4 POP POP POP JUMP JUMPDEST PUSH1 0x0 PUSH1 0x20 DUP3 DUP5 SUB SLT ISZERO PUSH2 0xE15 JUMPI DUP1 DUP2 REVERT JUMPDEST DUP2 MLOAD DUP1 ISZERO ISZERO DUP2 EQ PUSH2 0xDD4 JUMPI DUP2 DUP3 REVERT JUMPDEST PUSH1 0x0 PUSH1 0x20 DUP3 DUP5 SUB SLT ISZERO PUSH2 0xE35 JUMPI DUP1 DUP2 REVERT JUMPDEST POP CALLDATALOAD SWAP2 SWAP1 POP JUMP JUMPDEST PUSH1 0x0 PUSH1 0x20 DUP3 DUP5 SUB SLT ISZERO PUSH2 0xE4D JUMPI DUP1 DUP2 REVERT JUMPDEST POP MLOAD SWAP2 SWAP1 POP JUMP JUMPDEST PUSH1 0x0 DUP1 PUSH1 0x40 DUP4 DUP6 SUB SLT ISZERO PUSH2 0xE66 JUMPI DUP2 DUP3 REVERT JUMPDEST DUP3 CALLDATALOAD SWAP2 POP PUSH2 0xE76 PUSH1 0x20 DUP5 ADD PUSH2 0xD9E JUMP JUMPDEST SWAP1 POP SWAP3 POP SWAP3 SWAP1 POP JUMP JUMPDEST PUSH1 0x20 DUP1 DUP3 MSTORE DUP2 DUP2 ADD MSTORE PUSH32 0x4F776E61626C653A2063616C6C6572206973206E6F7420746865206F776E6572 PUSH1 0x40 DUP3 ADD MSTORE PUSH1 0x60 ADD SWAP1 JUMP JUMPDEST PUSH1 0x0 DUP3 NOT DUP3 GT ISZERO PUSH2 0xEC7 JUMPI PUSH2 0xEC7 PUSH2 0xF22 JUMP JUMPDEST POP ADD SWAP1 JUMP JUMPDEST PUSH1 0x0 DUP3 PUSH2 0xEE7 JUMPI PUSH4 0x4E487B71 PUSH1 0xE0 SHL DUP2 MSTORE PUSH1 0x12 PUSH1 0x4 MSTORE PUSH1 0x24 DUP2 REVERT JUMPDEST POP DIV SWAP1 JUMP JUMPDEST PUSH1 0x0 DUP2 PUSH1 0x0 NOT DIV DUP4 GT DUP3 ISZERO ISZERO AND ISZERO PUSH2 0xF06 JUMPI PUSH2 0xF06 PUSH2 0xF22 JUMP JUMPDEST POP MUL SWAP1 JUMP JUMPDEST PUSH1 0x0 DUP3 DUP3 LT ISZERO PUSH2 0xF1D JUMPI PUSH2 0xF1D PUSH2 0xF22 JUMP JUMPDEST POP SUB SWAP1 JUMP JUMPDEST PUSH4 0x4E487B71 PUSH1 0xE0 SHL PUSH1 0x0 MSTORE PUSH1 0x11 PUSH1 0x4 MSTORE PUSH1 0x24 PUSH1 0x0 REVERT INVALID LOG2 PUSH5 0x6970667358 0x22 SLT KECCAK256 SWAP9 0xB2 SWAP1 0xE6 0x4C 0x49 0xB7 RETURNDATASIZE 0x4D DUP6 CALLER KECCAK256 0xC4 PUSH1 0x17 0xEA 0xA7 0x25 SWAP2 0xCD 0xDC 0xD9 DUP7 SELFDESTRUCT SWAP4 SUB BYTE 0x4A GASLIMIT 0xC7 MUL DIFFICULTY PUSH5 0x736F6C6343 STOP ADDMOD DIV STOP CALLER "},"gasEstimates":{"creation":{"codeDepositCost":"790000","executionCost":"infinite","totalCost":"infinite"},"external":{"":"infinite","baseDecimal()":"1073","buy(address)":"infinite","buyWithUSDT(uint256,address)":"infinite","claimETH(uint256)":"infinite","claimToken(address,uint256)":"infinite","claimUserToken()":"infinite","ethBuyHelper(uint256)":"infinite","getClaimAmount(address)":"1337","getClaimStatus()":"1143","getLatestPrice()":"270","getPrice()":"1092","owner()":"1087","renounceOwnership()":"24299","resetPrice(uint256)":"21197","resetReferralPercent(uint256)":"21109","resetStartTime()":"21077","startClaim()":"21842","startTime()":"1007","stopClaim()":"21940","tokenAddress()":"1060","totalSaled()":"1096","transferOwnership(address)":"24495","usdtBuyHelper(uint256)":"2131","userDeposits(address)":"1232"}},"methodIdentifiers":{"baseDecimal()":"db7b373e","buy(address)":"f088d547","buyWithUSDT(uint256,address)":"d095362f","claimETH(uint256)":"fe96973a","claimToken(address,uint256)":"1698755f","claimUserToken()":"c8dbbcbc","ethBuyHelper(uint256)":"29a5a0b6","getClaimAmount(address)":"dde070e8","getClaimStatus()":"9b77c21a","getLatestPrice()":"8e15f473","getPrice()":"98d5fdca","owner()":"8da5cb5b","renounceOwnership()":"715018a6","resetPrice(uint256)":"de8e81ed","resetReferralPercent(uint256)":"7ff12e79","resetStartTime()":"f42958be","startClaim()":"ecbfc077","startTime()":"78e97925","stopClaim()":"ff6c9bc9","tokenAddress()":"9d76ea58","totalSaled()":"68e453ed","transferOwnership(address)":"f2fde38b","usdtBuyHelper(uint256)":"63e40879","userDeposits(address)":"0ba36dcd"}},"storageLayout":{"storage":[{"astId":109,"contract":"contracts/joey-presale.sol:BTC30_Presale","label":"_owner","offset":0,"slot":"0","type":"t_address"},{"astId":220,"contract":"contracts/joey-presale.sol:BTC30_Presale","label":"isclaimable","offset":20,"slot":"0","type":"t_bool"},{"astId":330,"contract":"contracts/joey-presale.sol:BTC30_Presale","label":"tokenAddress","offset":0,"slot":"1","type":"t_address"},{"astId":332,"contract":"contracts/joey-presale.sol:BTC30_Presale","label":"price","offset":0,"slot":"2","type":"t_uint256"},{"astId":334,"contract":"contracts/joey-presale.sol:BTC30_Presale","label":"startTime","offset":0,"slot":"3","type":"t_uint256"},{"astId":336,"contract":"contracts/joey-presale.sol:BTC30_Presale","label":"totalSaled","offset":0,"slot":"4","type":"t_uint256"},{"astId":339,"contract":"contracts/joey-presale.sol:BTC30_Presale","label":"aggregatorInterface","offset":0,"slot":"5","type":"t_address"},{"astId":342,"contract":"contracts/joey-presale.sol:BTC30_Presale","label":"USDTInterface","offset":0,"slot":"6","type":"t_address"},{"astId":345,"contract":"contracts/joey-presale.sol:BTC30_Presale","label":"baseDecimal","offset":0,"slot":"7","type":"t_uint256"},{"astId":348,"contract":"contracts/joey-presale.sol:BTC30_Presale","label":"referral","offset":0,"slot":"8","type":"t_uint256"},{"astId":352,"contract":"contracts/joey-presale.sol:BTC30_Presale","label":"userDeposits","offset":0,"slot":"9","type":"t_mapping(t_address,t_uint256)"}],"types":{"t_address":{"encoding":"inplace","label":"address","numberOfBytes":"20"},"t_bool":{"encoding":"inplace","label":"bool","numberOfBytes":"1"},"t_mapping(t_address,t_uint256)":{"encoding":"mapping","key":"t_address","label":"mapping(address => uint256)","numberOfBytes":"32","value":"t_uint256"},"t_uint256":{"encoding":"inplace","label":"uint256","numberOfBytes":"32"}}},"userdoc":{"kind":"user","methods":{},"version":1}}}}