{"contracts/staking.sol":{"Staking":{"abi":[{"inputs":[],"stateMutability":"nonpayable","type":"constructor"},{"anonymous":false,"inputs":[{"indexed":true,"internalType":"address","name":"previousOwner","type":"address"},{"indexed":true,"internalType":"address","name":"newOwner","type":"address"}],"name":"OwnershipTransferred","type":"event"},{"stateMutability":"payable","type":"fallback"},{"inputs":[{"internalType":"uint256","name":"amount","type":"uint256"}],"name":"claimETH","outputs":[],"stateMutability":"nonpayable","type":"function"},{"inputs":[{"internalType":"address","name":"tokenAddress","type":"address"},{"internalType":"uint256","name":"amount","type":"uint256"}],"name":"claimToken","outputs":[],"stateMutability":"nonpayable","type":"function"},{"inputs":[],"name":"getPool","outputs":[{"components":[{"internalType":"uint256","name":"totalStaked","type":"uint256"},{"internalType":"uint256","name":"totalStakers","type":"uint256"},{"internalType":"uint256","name":"totaalRewardDistributed","type":"uint256"}],"internalType":"struct Staking.PoolInfo","name":"","type":"tuple"}],"stateMutability":"view","type":"function"},{"inputs":[{"internalType":"address","name":"_address","type":"address"}],"name":"getUser","outputs":[{"components":[{"internalType":"uint256","name":"stakeAmount","type":"uint256"},{"internalType":"uint256","name":"finishedTime","type":"uint256"},{"internalType":"uint256","name":"profit","type":"uint256"}],"internalType":"struct Staking.UserInfo","name":"","type":"tuple"}],"stateMutability":"view","type":"function"},{"inputs":[],"name":"owner","outputs":[{"internalType":"address","name":"","type":"address"}],"stateMutability":"view","type":"function"},{"inputs":[],"name":"poolInfo","outputs":[{"internalType":"uint256","name":"totalStaked","type":"uint256"},{"internalType":"uint256","name":"totalStakers","type":"uint256"},{"internalType":"uint256","name":"totaalRewardDistributed","type":"uint256"}],"stateMutability":"view","type":"function"},{"inputs":[],"name":"renounceOwnership","outputs":[],"stateMutability":"nonpayable","type":"function"},{"inputs":[{"internalType":"address","name":"newOwner","type":"address"}],"name":"transferOwnership","outputs":[],"stateMutability":"nonpayable","type":"function"},{"stateMutability":"payable","type":"receive"}],"devdoc":{"kind":"dev","methods":{},"version":1},"evm":{"bytecode":{"linkReferences":{},"object":"60806040526000805460ff60a01b1916905534801561001d57600080fd5b50600080546001600160a01b031916339081178255604051909182917f8be0079c531659141344cd1fd0a4f28419497f9722a3daafe3b4186f6b6457e0908290a35060408051808201825262278d008152600f60208083019182526000808052600480835293517f17ef568e3e12ab5b9c7254a8d58478811de00f9e6eb34345acd53bf8fd09d3ec5591517f17ef568e3e12ab5b9c7254a8d58478811de00f9e6eb34345acd53bf8fd09d3ed55835180850185526276a70081526032818301908152600180855285845291517fabd6e7cb50984ff9c2f3e18a2660c3353dadf4e3291deeb275dae2cd1e44fe0555517fabd6e7cb50984ff9c2f3e18a2660c3353dadf4e3291deeb275dae2cd1e44fe06558451808601865262ed4e008152608c818401908152600280865286855291517f91da3fd0782e51c6b3986e9e672fd566868e71f3dbc2d6c2cd6fbb3e361af2a755517f91da3fd0782e51c6b3986e9e672fd566868e71f3dbc2d6c2cd6fbb3e361af2a855855180870187526301da9c00815261012c818501908152600380875296855290517f2e174c10e159ea99b867ce3205125c24a42d128804e4070ed6fcc8cc98166aa055517f2e174c10e159ea99b867ce3205125c24a42d128804e4070ed6fcc8cc98166aa155855160608101875284815292830184905291909401829052928190559182905555610678806102286000396000f3fe6080604052600436106100795760003560e01c8063715018a61161004b578063715018a6146101385780638da5cb5b1461014d578063f2fde38b14610175578063fe96973a1461019557005b8063026b1d5f146100825780631698755f146100be5780635a2f3d09146100de5780636f77926b1461011857005b3661008057005b005b34801561008e57600080fd5b506100976101b5565b60408051825181526020808401519082015291810151908201526060015b60405180910390f35b3480156100ca57600080fd5b506100806100d93660046105ac565b6101fe565b3480156100ea57600080fd5b506001546002546003546100fd92919083565b604080519384526020840192909252908201526060016100b5565b34801561012457600080fd5b5061009761013336600461058b565b6102d7565b34801561014457600080fd5b5061008061033d565b34801561015957600080fd5b506000546040516001600160a01b0390911681526020016100b5565b34801561018157600080fd5b5061008061019036600461058b565b6103b1565b3480156101a157600080fd5b506100806101b03660046105f5565b6103e7565b6101d960405180606001604052806000815260200160008152602001600081525090565b5060408051606081018252600154815260025460208201526003549181019190915290565b6000546001600160a01b031633146102315760405162461bcd60e51b81526004016102289061060d565b60405180910390fd5b816001600160a01b031663a9059cbb6102526000546001600160a01b031690565b6040516001600160e01b031960e084901b1681526001600160a01b03909116600482015260248101849052604401602060405180830381600087803b15801561029a57600080fd5b505af11580156102ae573d6000803e3d6000fd5b505050506040513d601f19601f820116820180604052508101906102d291906105d5565b505050565b6102fb60405180606001604052806000815260200160008152602001600081525090565b506001600160a01b0316600090815260056020908152604091829020825160608101845281548152600182015492810192909252600201549181019190915290565b6000546001600160a01b031633146103675760405162461bcd60e51b81526004016102289061060d565b600080546040516001600160a01b03909116907f8be0079c531659141344cd1fd0a4f28419497f9722a3daafe3b4186f6b6457e0908390a3600080546001600160a01b0319169055565b6000546001600160a01b031633146103db5760405162461bcd60e51b81526004016102289061060d565b6103e4816104af565b50565b6000546001600160a01b031633146104115760405162461bcd60e51b81526004016102289061060d565b600080546040516001600160a01b039091169083908381818185875af1925050503d806000811461045e576040519150601f19603f3d011682016040523d82523d6000602084013e610463565b606091505b50509050806104ab5760405162461bcd60e51b81526020600482015260146024820152732330b4b632b2103a379039b2b7321022ba3432b960611b6044820152606401610228565b5050565b6001600160a01b0381166105145760405162461bcd60e51b815260206004820152602660248201527f4f776e61626c653a206e6577206f776e657220697320746865207a65726f206160448201526564647265737360d01b6064820152608401610228565b600080546040516001600160a01b03808516939216917f8be0079c531659141344cd1fd0a4f28419497f9722a3daafe3b4186f6b6457e091a3600080546001600160a01b0319166001600160a01b0392909216919091179055565b80356001600160a01b038116811461058657600080fd5b919050565b60006020828403121561059c578081fd5b6105a58261056f565b9392505050565b600080604083850312156105be578081fd5b6105c78361056f565b946020939093013593505050565b6000602082840312156105e6578081fd5b815180151581146105a5578182fd5b600060208284031215610606578081fd5b5035919050565b6020808252818101527f4f776e61626c653a2063616c6c6572206973206e6f7420746865206f776e657260408201526060019056fea2646970667358221220dcf6481a8f32b32ff335d31ba7f9949603ec4076ea2b11a8e8ac1b815b3e794964736f6c63430008040033","opcodes":"PUSH1 0x80 PUSH1 0x40 MSTORE PUSH1 0x0 DUP1 SLOAD PUSH1 0xFF PUSH1 0xA0 SHL NOT AND SWAP1 SSTORE CALLVALUE DUP1 ISZERO PUSH2 0x1D JUMPI PUSH1 0x0 DUP1 REVERT JUMPDEST POP PUSH1 0x0 DUP1 SLOAD PUSH1 0x1 PUSH1 0x1 PUSH1 0xA0 SHL SUB NOT AND CALLER SWAP1 DUP2 OR DUP3 SSTORE PUSH1 0x40 MLOAD SWAP1 SWAP2 DUP3 SWAP2 PUSH32 0x8BE0079C531659141344CD1FD0A4F28419497F9722A3DAAFE3B4186F6B6457E0 SWAP1 DUP3 SWAP1 LOG3 POP PUSH1 0x40 DUP1 MLOAD DUP1 DUP3 ADD DUP3 MSTORE PUSH3 0x278D00 DUP2 MSTORE PUSH1 0xF PUSH1 0x20 DUP1 DUP4 ADD SWAP2 DUP3 MSTORE PUSH1 0x0 DUP1 DUP1 MSTORE PUSH1 0x4 DUP1 DUP4 MSTORE SWAP4 MLOAD PUSH32 0x17EF568E3E12AB5B9C7254A8D58478811DE00F9E6EB34345ACD53BF8FD09D3EC SSTORE SWAP2 MLOAD PUSH32 0x17EF568E3E12AB5B9C7254A8D58478811DE00F9E6EB34345ACD53BF8FD09D3ED SSTORE DUP4 MLOAD DUP1 DUP6 ADD DUP6 MSTORE PUSH3 0x76A700 DUP2 MSTORE PUSH1 0x32 DUP2 DUP4 ADD SWAP1 DUP2 MSTORE PUSH1 0x1 DUP1 DUP6 MSTORE DUP6 DUP5 MSTORE SWAP2 MLOAD PUSH32 0xABD6E7CB50984FF9C2F3E18A2660C3353DADF4E3291DEEB275DAE2CD1E44FE05 SSTORE MLOAD PUSH32 0xABD6E7CB50984FF9C2F3E18A2660C3353DADF4E3291DEEB275DAE2CD1E44FE06 SSTORE DUP5 MLOAD DUP1 DUP7 ADD DUP7 MSTORE PUSH3 0xED4E00 DUP2 MSTORE PUSH1 0x8C DUP2 DUP5 ADD SWAP1 DUP2 MSTORE PUSH1 0x2 DUP1 DUP7 MSTORE DUP7 DUP6 MSTORE SWAP2 MLOAD PUSH32 0x91DA3FD0782E51C6B3986E9E672FD566868E71F3DBC2D6C2CD6FBB3E361AF2A7 SSTORE MLOAD PUSH32 0x91DA3FD0782E51C6B3986E9E672FD566868E71F3DBC2D6C2CD6FBB3E361AF2A8 SSTORE DUP6 MLOAD DUP1 DUP8 ADD DUP8 MSTORE PUSH4 0x1DA9C00 DUP2 MSTORE PUSH2 0x12C DUP2 DUP6 ADD SWAP1 DUP2 MSTORE PUSH1 0x3 DUP1 DUP8 MSTORE SWAP7 DUP6 MSTORE SWAP1 MLOAD PUSH32 0x2E174C10E159EA99B867CE3205125C24A42D128804E4070ED6FCC8CC98166AA0 SSTORE MLOAD PUSH32 0x2E174C10E159EA99B867CE3205125C24A42D128804E4070ED6FCC8CC98166AA1 SSTORE DUP6 MLOAD PUSH1 0x60 DUP2 ADD DUP8 MSTORE DUP5 DUP2 MSTORE SWAP3 DUP4 ADD DUP5 SWAP1 MSTORE SWAP2 SWAP1 SWAP5 ADD DUP3 SWAP1 MSTORE SWAP3 DUP2 SWAP1 SSTORE SWAP2 DUP3 SWAP1 SSTORE SSTORE PUSH2 0x678 DUP1 PUSH2 0x228 PUSH1 0x0 CODECOPY PUSH1 0x0 RETURN INVALID PUSH1 0x80 PUSH1 0x40 MSTORE PUSH1 0x4 CALLDATASIZE LT PUSH2 0x79 JUMPI PUSH1 0x0 CALLDATALOAD PUSH1 0xE0 SHR DUP1 PUSH4 0x715018A6 GT PUSH2 0x4B JUMPI DUP1 PUSH4 0x715018A6 EQ PUSH2 0x138 JUMPI DUP1 PUSH4 0x8DA5CB5B EQ PUSH2 0x14D JUMPI DUP1 PUSH4 0xF2FDE38B EQ PUSH2 0x175 JUMPI DUP1 PUSH4 0xFE96973A EQ PUSH2 0x195 JUMPI STOP JUMPDEST DUP1 PUSH4 0x26B1D5F EQ PUSH2 0x82 JUMPI DUP1 PUSH4 0x1698755F EQ PUSH2 0xBE JUMPI DUP1 PUSH4 0x5A2F3D09 EQ PUSH2 0xDE JUMPI DUP1 PUSH4 0x6F77926B EQ PUSH2 0x118 JUMPI STOP JUMPDEST CALLDATASIZE PUSH2 0x80 JUMPI STOP JUMPDEST STOP JUMPDEST CALLVALUE DUP1 ISZERO PUSH2 0x8E JUMPI PUSH1 0x0 DUP1 REVERT JUMPDEST POP PUSH2 0x97 PUSH2 0x1B5 JUMP JUMPDEST PUSH1 0x40 DUP1 MLOAD DUP3 MLOAD DUP2 MSTORE PUSH1 0x20 DUP1 DUP5 ADD MLOAD SWAP1 DUP3 ADD MSTORE SWAP2 DUP2 ADD MLOAD SWAP1 DUP3 ADD MSTORE PUSH1 0x60 ADD JUMPDEST PUSH1 0x40 MLOAD DUP1 SWAP2 SUB SWAP1 RETURN JUMPDEST CALLVALUE DUP1 ISZERO PUSH2 0xCA JUMPI PUSH1 0x0 DUP1 REVERT JUMPDEST POP PUSH2 0x80 PUSH2 0xD9 CALLDATASIZE PUSH1 0x4 PUSH2 0x5AC JUMP JUMPDEST PUSH2 0x1FE JUMP JUMPDEST CALLVALUE DUP1 ISZERO PUSH2 0xEA JUMPI PUSH1 0x0 DUP1 REVERT JUMPDEST POP PUSH1 0x1 SLOAD PUSH1 0x2 SLOAD PUSH1 0x3 SLOAD PUSH2 0xFD SWAP3 SWAP2 SWAP1 DUP4 JUMP JUMPDEST PUSH1 0x40 DUP1 MLOAD SWAP4 DUP5 MSTORE PUSH1 0x20 DUP5 ADD SWAP3 SWAP1 SWAP3 MSTORE SWAP1 DUP3 ADD MSTORE PUSH1 0x60 ADD PUSH2 0xB5 JUMP JUMPDEST CALLVALUE DUP1 ISZERO PUSH2 0x124 JUMPI PUSH1 0x0 DUP1 REVERT JUMPDEST POP PUSH2 0x97 PUSH2 0x133 CALLDATASIZE PUSH1 0x4 PUSH2 0x58B JUMP JUMPDEST PUSH2 0x2D7 JUMP JUMPDEST CALLVALUE DUP1 ISZERO PUSH2 0x144 JUMPI PUSH1 0x0 DUP1 REVERT JUMPDEST POP PUSH2 0x80 PUSH2 0x33D JUMP JUMPDEST CALLVALUE DUP1 ISZERO PUSH2 0x159 JUMPI PUSH1 0x0 DUP1 REVERT JUMPDEST POP PUSH1 0x0 SLOAD PUSH1 0x40 MLOAD PUSH1 0x1 PUSH1 0x1 PUSH1 0xA0 SHL SUB SWAP1 SWAP2 AND DUP2 MSTORE PUSH1 0x20 ADD PUSH2 0xB5 JUMP JUMPDEST CALLVALUE DUP1 ISZERO PUSH2 0x181 JUMPI PUSH1 0x0 DUP1 REVERT JUMPDEST POP PUSH2 0x80 PUSH2 0x190 CALLDATASIZE PUSH1 0x4 PUSH2 0x58B JUMP JUMPDEST PUSH2 0x3B1 JUMP JUMPDEST CALLVALUE DUP1 ISZERO PUSH2 0x1A1 JUMPI PUSH1 0x0 DUP1 REVERT JUMPDEST POP PUSH2 0x80 PUSH2 0x1B0 CALLDATASIZE PUSH1 0x4 PUSH2 0x5F5 JUMP JUMPDEST PUSH2 0x3E7 JUMP JUMPDEST PUSH2 0x1D9 PUSH1 0x40 MLOAD DUP1 PUSH1 0x60 ADD PUSH1 0x40 MSTORE DUP1 PUSH1 0x0 DUP2 MSTORE PUSH1 0x20 ADD PUSH1 0x0 DUP2 MSTORE PUSH1 0x20 ADD PUSH1 0x0 DUP2 MSTORE POP SWAP1 JUMP JUMPDEST POP PUSH1 0x40 DUP1 MLOAD PUSH1 0x60 DUP2 ADD DUP3 MSTORE PUSH1 0x1 SLOAD DUP2 MSTORE PUSH1 0x2 SLOAD PUSH1 0x20 DUP3 ADD MSTORE PUSH1 0x3 SLOAD SWAP2 DUP2 ADD SWAP2 SWAP1 SWAP2 MSTORE SWAP1 JUMP JUMPDEST PUSH1 0x0 SLOAD PUSH1 0x1 PUSH1 0x1 PUSH1 0xA0 SHL SUB AND CALLER EQ PUSH2 0x231 JUMPI PUSH1 0x40 MLOAD PUSH3 0x461BCD PUSH1 0xE5 SHL DUP2 MSTORE PUSH1 0x4 ADD PUSH2 0x228 SWAP1 PUSH2 0x60D JUMP JUMPDEST PUSH1 0x40 MLOAD DUP1 SWAP2 SUB SWAP1 REVERT JUMPDEST DUP2 PUSH1 0x1 PUSH1 0x1 PUSH1 0xA0 SHL SUB AND PUSH4 0xA9059CBB PUSH2 0x252 PUSH1 0x0 SLOAD PUSH1 0x1 PUSH1 0x1 PUSH1 0xA0 SHL SUB AND SWAP1 JUMP JUMPDEST PUSH1 0x40 MLOAD PUSH1 0x1 PUSH1 0x1 PUSH1 0xE0 SHL SUB NOT PUSH1 0xE0 DUP5 SWAP1 SHL AND DUP2 MSTORE PUSH1 0x1 PUSH1 0x1 PUSH1 0xA0 SHL SUB SWAP1 SWAP2 AND PUSH1 0x4 DUP3 ADD MSTORE PUSH1 0x24 DUP2 ADD DUP5 SWAP1 MSTORE PUSH1 0x44 ADD PUSH1 0x20 PUSH1 0x40 MLOAD DUP1 DUP4 SUB DUP2 PUSH1 0x0 DUP8 DUP1 EXTCODESIZE ISZERO DUP1 ISZERO PUSH2 0x29A JUMPI PUSH1 0x0 DUP1 REVERT JUMPDEST POP GAS CALL ISZERO DUP1 ISZERO PUSH2 0x2AE JUMPI RETURNDATASIZE PUSH1 0x0 DUP1 RETURNDATACOPY RETURNDATASIZE PUSH1 0x0 REVERT JUMPDEST POP POP POP POP PUSH1 0x40 MLOAD RETURNDATASIZE PUSH1 0x1F NOT PUSH1 0x1F DUP3 ADD AND DUP3 ADD DUP1 PUSH1 0x40 MSTORE POP DUP2 ADD SWAP1 PUSH2 0x2D2 SWAP2 SWAP1 PUSH2 0x5D5 JUMP JUMPDEST POP POP POP JUMP JUMPDEST PUSH2 0x2FB PUSH1 0x40 MLOAD DUP1 PUSH1 0x60 ADD PUSH1 0x40 MSTORE DUP1 PUSH1 0x0 DUP2 MSTORE PUSH1 0x20 ADD PUSH1 0x0 DUP2 MSTORE PUSH1 0x20 ADD PUSH1 0x0 DUP2 MSTORE POP SWAP1 JUMP JUMPDEST POP PUSH1 0x1 PUSH1 0x1 PUSH1 0xA0 SHL SUB AND PUSH1 0x0 SWAP1 DUP2 MSTORE PUSH1 0x5 PUSH1 0x20 SWAP1 DUP2 MSTORE PUSH1 0x40 SWAP2 DUP3 SWAP1 KECCAK256 DUP3 MLOAD PUSH1 0x60 DUP2 ADD DUP5 MSTORE DUP2 SLOAD DUP2 MSTORE PUSH1 0x1 DUP3 ADD SLOAD SWAP3 DUP2 ADD SWAP3 SWAP1 SWAP3 MSTORE PUSH1 0x2 ADD SLOAD SWAP2 DUP2 ADD SWAP2 SWAP1 SWAP2 MSTORE SWAP1 JUMP JUMPDEST PUSH1 0x0 SLOAD PUSH1 0x1 PUSH1 0x1 PUSH1 0xA0 SHL SUB AND CALLER EQ PUSH2 0x367 JUMPI PUSH1 0x40 MLOAD PUSH3 0x461BCD PUSH1 0xE5 SHL DUP2 MSTORE PUSH1 0x4 ADD PUSH2 0x228 SWAP1 PUSH2 0x60D JUMP JUMPDEST PUSH1 0x0 DUP1 SLOAD PUSH1 0x40 MLOAD PUSH1 0x1 PUSH1 0x1 PUSH1 0xA0 SHL SUB SWAP1 SWAP2 AND SWAP1 PUSH32 0x8BE0079C531659141344CD1FD0A4F28419497F9722A3DAAFE3B4186F6B6457E0 SWAP1 DUP4 SWAP1 LOG3 PUSH1 0x0 DUP1 SLOAD PUSH1 0x1 PUSH1 0x1 PUSH1 0xA0 SHL SUB NOT AND SWAP1 SSTORE JUMP JUMPDEST PUSH1 0x0 SLOAD PUSH1 0x1 PUSH1 0x1 PUSH1 0xA0 SHL SUB AND CALLER EQ PUSH2 0x3DB JUMPI PUSH1 0x40 MLOAD PUSH3 0x461BCD PUSH1 0xE5 SHL DUP2 MSTORE PUSH1 0x4 ADD PUSH2 0x228 SWAP1 PUSH2 0x60D JUMP JUMPDEST PUSH2 0x3E4 DUP2 PUSH2 0x4AF JUMP JUMPDEST POP JUMP JUMPDEST PUSH1 0x0 SLOAD PUSH1 0x1 PUSH1 0x1 PUSH1 0xA0 SHL SUB AND CALLER EQ PUSH2 0x411 JUMPI PUSH1 0x40 MLOAD PUSH3 0x461BCD PUSH1 0xE5 SHL DUP2 MSTORE PUSH1 0x4 ADD PUSH2 0x228 SWAP1 PUSH2 0x60D JUMP JUMPDEST PUSH1 0x0 DUP1 SLOAD PUSH1 0x40 MLOAD PUSH1 0x1 PUSH1 0x1 PUSH1 0xA0 SHL SUB SWAP1 SWAP2 AND SWAP1 DUP4 SWAP1 DUP4 DUP2 DUP2 DUP2 DUP6 DUP8 GAS CALL SWAP3 POP POP POP RETURNDATASIZE DUP1 PUSH1 0x0 DUP2 EQ PUSH2 0x45E JUMPI PUSH1 0x40 MLOAD SWAP2 POP PUSH1 0x1F NOT PUSH1 0x3F RETURNDATASIZE ADD AND DUP3 ADD PUSH1 0x40 MSTORE RETURNDATASIZE DUP3 MSTORE RETURNDATASIZE PUSH1 0x0 PUSH1 0x20 DUP5 ADD RETURNDATACOPY PUSH2 0x463 JUMP JUMPDEST PUSH1 0x60 SWAP2 POP JUMPDEST POP POP SWAP1 POP DUP1 PUSH2 0x4AB JUMPI PUSH1 0x40 MLOAD PUSH3 0x461BCD PUSH1 0xE5 SHL DUP2 MSTORE PUSH1 0x20 PUSH1 0x4 DUP3 ADD MSTORE PUSH1 0x14 PUSH1 0x24 DUP3 ADD MSTORE PUSH20 0x2330B4B632B2103A379039B2B7321022BA3432B9 PUSH1 0x61 SHL PUSH1 0x44 DUP3 ADD MSTORE PUSH1 0x64 ADD PUSH2 0x228 JUMP JUMPDEST POP POP JUMP JUMPDEST PUSH1 0x1 PUSH1 0x1 PUSH1 0xA0 SHL SUB DUP2 AND PUSH2 0x514 JUMPI PUSH1 0x40 MLOAD PUSH3 0x461BCD PUSH1 0xE5 SHL DUP2 MSTORE PUSH1 0x20 PUSH1 0x4 DUP3 ADD MSTORE PUSH1 0x26 PUSH1 0x24 DUP3 ADD MSTORE PUSH32 0x4F776E61626C653A206E6577206F776E657220697320746865207A65726F2061 PUSH1 0x44 DUP3 ADD MSTORE PUSH6 0x646472657373 PUSH1 0xD0 SHL PUSH1 0x64 DUP3 ADD MSTORE PUSH1 0x84 ADD PUSH2 0x228 JUMP JUMPDEST PUSH1 0x0 DUP1 SLOAD PUSH1 0x40 MLOAD PUSH1 0x1 PUSH1 0x1 PUSH1 0xA0 SHL SUB DUP1 DUP6 AND SWAP4 SWAP3 AND SWAP2 PUSH32 0x8BE0079C531659141344CD1FD0A4F28419497F9722A3DAAFE3B4186F6B6457E0 SWAP2 LOG3 PUSH1 0x0 DUP1 SLOAD PUSH1 0x1 PUSH1 0x1 PUSH1 0xA0 SHL SUB NOT AND PUSH1 0x1 PUSH1 0x1 PUSH1 0xA0 SHL SUB SWAP3 SWAP1 SWAP3 AND SWAP2 SWAP1 SWAP2 OR SWAP1 SSTORE JUMP JUMPDEST DUP1 CALLDATALOAD PUSH1 0x1 PUSH1 0x1 PUSH1 0xA0 SHL SUB DUP2 AND DUP2 EQ PUSH2 0x586 JUMPI PUSH1 0x0 DUP1 REVERT JUMPDEST SWAP2 SWAP1 POP JUMP JUMPDEST PUSH1 0x0 PUSH1 0x20 DUP3 DUP5 SUB SLT ISZERO PUSH2 0x59C JUMPI DUP1 DUP2 REVERT JUMPDEST PUSH2 0x5A5 DUP3 PUSH2 0x56F JUMP JUMPDEST SWAP4 SWAP3 POP POP POP JUMP JUMPDEST PUSH1 0x0 DUP1 PUSH1 0x40 DUP4 DUP6 SUB SLT ISZERO PUSH2 0x5BE JUMPI DUP1 DUP2 REVERT JUMPDEST PUSH2 0x5C7 DUP4 PUSH2 0x56F JUMP JUMPDEST SWAP5 PUSH1 0x20 SWAP4 SWAP1 SWAP4 ADD CALLDATALOAD SWAP4 POP POP POP JUMP JUMPDEST PUSH1 0x0 PUSH1 0x20 DUP3 DUP5 SUB SLT ISZERO PUSH2 0x5E6 JUMPI DUP1 DUP2 REVERT JUMPDEST DUP2 MLOAD DUP1 ISZERO ISZERO DUP2 EQ PUSH2 0x5A5 JUMPI DUP2 DUP3 REVERT JUMPDEST PUSH1 0x0 PUSH1 0x20 DUP3 DUP5 SUB SLT ISZERO PUSH2 0x606 JUMPI DUP1 DUP2 REVERT JUMPDEST POP CALLDATALOAD SWAP2 SWAP1 POP JUMP JUMPDEST PUSH1 0x20 DUP1 DUP3 MSTORE DUP2 DUP2 ADD MSTORE PUSH32 0x4F776E61626C653A2063616C6C6572206973206E6F7420746865206F776E6572 PUSH1 0x40 DUP3 ADD MSTORE PUSH1 0x60 ADD SWAP1 JUMP INVALID LOG2 PUSH5 0x6970667358 0x22 SLT KECCAK256 0xDC 0xF6 0x48 BYTE DUP16 ORIGIN 0xB3 0x2F RETURN CALLDATALOAD 0xD3 SHL 0xA7 0xF9 SWAP5 SWAP7 SUB 0xEC BLOCKHASH PUSH23 0xEA2B11A8E8AC1B815B3E794964736F6C63430008040033 "},"gasEstimates":{"creation":{"codeDepositCost":"331200","executionCost":"219012","totalCost":"550212"},"external":{"":"162","claimETH(uint256)":"infinite","claimToken(address,uint256)":"infinite","getPool()":"2829","getUser(address)":"3167","owner()":"1023","poolInfo()":"2697","renounceOwnership()":"24165","transferOwnership(address)":"24473"}},"methodIdentifiers":{"claimETH(uint256)":"fe96973a","claimToken(address,uint256)":"1698755f","getPool()":"026b1d5f","getUser(address)":"6f77926b","owner()":"8da5cb5b","poolInfo()":"5a2f3d09","renounceOwnership()":"715018a6","transferOwnership(address)":"f2fde38b"}},"storageLayout":{"storage":[{"astId":2670,"contract":"contracts/staking.sol:Staking","label":"_owner","offset":0,"slot":"0","type":"t_address"},{"astId":2781,"contract":"contracts/staking.sol:Staking","label":"isclaimable","offset":20,"slot":"0","type":"t_bool"},{"astId":2933,"contract":"contracts/staking.sol:Staking","label":"poolInfo","offset":0,"slot":"1","type":"t_struct(PoolInfo)2918_storage"},{"astId":2938,"contract":"contracts/staking.sol:Staking","label":"plans","offset":0,"slot":"4","type":"t_mapping(t_uint256,t_struct(Plan)2930_storage)"},{"astId":2943,"contract":"contracts/staking.sol:Staking","label":"users","offset":0,"slot":"5","type":"t_mapping(t_address,t_struct(UserInfo)2925_storage)"}],"types":{"t_address":{"encoding":"inplace","label":"address","numberOfBytes":"20"},"t_bool":{"encoding":"inplace","label":"bool","numberOfBytes":"1"},"t_mapping(t_address,t_struct(UserInfo)2925_storage)":{"encoding":"mapping","key":"t_address","label":"mapping(address => struct Staking.UserInfo)","numberOfBytes":"32","value":"t_struct(UserInfo)2925_storage"},"t_mapping(t_uint256,t_struct(Plan)2930_storage)":{"encoding":"mapping","key":"t_uint256","label":"mapping(uint256 => struct Staking.Plan)","numberOfBytes":"32","value":"t_struct(Plan)2930_storage"},"t_struct(Plan)2930_storage":{"encoding":"inplace","label":"struct Staking.Plan","members":[{"astId":2927,"contract":"contracts/staking.sol:Staking","label":"stakeTime","offset":0,"slot":"0","type":"t_uint256"},{"astId":2929,"contract":"contracts/staking.sol:Staking","label":"stakePercent","offset":0,"slot":"1","type":"t_uint256"}],"numberOfBytes":"64"},"t_struct(PoolInfo)2918_storage":{"encoding":"inplace","label":"struct Staking.PoolInfo","members":[{"astId":2913,"contract":"contracts/staking.sol:Staking","label":"totalStaked","offset":0,"slot":"0","type":"t_uint256"},{"astId":2915,"contract":"contracts/staking.sol:Staking","label":"totalStakers","offset":0,"slot":"1","type":"t_uint256"},{"astId":2917,"contract":"contracts/staking.sol:Staking","label":"totaalRewardDistributed","offset":0,"slot":"2","type":"t_uint256"}],"numberOfBytes":"96"},"t_struct(UserInfo)2925_storage":{"encoding":"inplace","label":"struct Staking.UserInfo","members":[{"astId":2920,"contract":"contracts/staking.sol:Staking","label":"stakeAmount","offset":0,"slot":"0","type":"t_uint256"},{"astId":2922,"contract":"contracts/staking.sol:Staking","label":"finishedTime","offset":0,"slot":"1","type":"t_uint256"},{"astId":2924,"contract":"contracts/staking.sol:Staking","label":"profit","offset":0,"slot":"2","type":"t_uint256"}],"numberOfBytes":"96"},"t_uint256":{"encoding":"inplace","label":"uint256","numberOfBytes":"32"}}},"userdoc":{"kind":"user","methods":{},"version":1}}}}