{
  "_format": "hh-sol-artifact-1",
  "contractName": "V3Swap",
  "sourceName": "contracts/v3dex.sol",
  "abi": [
    {
      "inputs": [],
      "stateMutability": "nonpayable",
      "type": "constructor"
    },
    {
      "inputs": [],
      "name": "factoryAddress",
      "outputs": [
        {
          "internalType": "address",
          "name": "",
          "type": "address"
        }
      ],
      "stateMutability": "view",
      "type": "function"
    },
    {
      "inputs": [
        {
          "internalType": "uint256",
          "name": "_inputAmount",
          "type": "uint256"
        },
        {
          "internalType": "address",
          "name": "_tokenIn",
          "type": "address"
        },
        {
          "internalType": "address",
          "name": "_tokenOut",
          "type": "address"
        }
      ],
      "name": "getOutputTokenAmount",
      "outputs": [
        {
          "internalType": "uint256",
          "name": "outputAmount",
          "type": "uint256"
        }
      ],
      "stateMutability": "view",
      "type": "function"
    },
    {
      "inputs": [],
      "name": "routerAddress",
      "outputs": [
        {
          "internalType": "address",
          "name": "",
          "type": "address"
        }
      ],
      "stateMutability": "view",
      "type": "function"
    },
    {
      "inputs": [
        {
          "internalType": "address",
          "name": "_tokenIn",
          "type": "address"
        },
        {
          "internalType": "address",
          "name": "_tokenOut",
          "type": "address"
        },
        {
          "internalType": "uint256",
          "name": "_amountIn",
          "type": "uint256"
        }
      ],
      "name": "swapTokens",
      "outputs": [],
      "stateMutability": "payable",
      "type": "function"
    },
    {
      "inputs": [],
      "name": "wbnbAddress",
      "outputs": [
        {
          "internalType": "address",
          "name": "",
          "type": "address"
        }
      ],
      "stateMutability": "view",
      "type": "function"
    }
  ],
  "bytecode": "0x6080604052600080546001600160a01b03199081167313f4ea83d0bd40e75c8222255bc855a974568dd41790915560018054909116730bfbcf9fa4f9c56b0f40a671ad40e0805a091865179055600280547464bb4cdb9cbd36b01bd1cbaebf2de08d9173bc095c6001600160b81b031990911617905534801561008157600080fd5b50610cd2806100916000396000f3fe60806040526004361061004a5760003560e01c80633268cc561461004f57806363fe3e3a1461008c578063966dae0e146100ac578063a189d648146100cc578063ec6cc0cc146100fa575b600080fd5b34801561005b57600080fd5b5060005461006f906001600160a01b031681565b6040516001600160a01b0390911681526020015b60405180910390f35b34801561009857600080fd5b5060025461006f906001600160a01b031681565b3480156100b857600080fd5b5060015461006f906001600160a01b031681565b3480156100d857600080fd5b506100ec6100e7366004610a25565b61010f565b604051908152602001610083565b61010d610108366004610919565b610320565b005b600154600254604051630b4c774160e11b81526001600160a01b0385811660048301528481166024830152600160a01b90920462ffffff16604482015260009283928392911690631698ee829060640160206040518083038186803b15801561017757600080fd5b505afa15801561018b573d6000803e3d6000fd5b505050506040513d601f19601f820116820180604052508101906101af91906108fd565b9050806001600160a01b0316633850c7bd6040518163ffffffff1660e01b815260040160e06040518083038186803b1580156101ea57600080fd5b505afa1580156101fe573d6000803e3d6000fd5b505050506040513d601f19601f820116820180604052508101906102229190610973565b505060408051630dfe168160e01b815290516001600160a01b03968716985060009688169550630dfe1681945060048083019450602093509091829003018186803b15801561027057600080fd5b505afa158015610284573d6000803e3d6000fd5b505050506040513d601f19601f820116820180604052508101906102a891906108fd565b9050806001600160a01b0316866001600160a01b031614156102f057600160c01b876102d5600286610b76565b6102df9190610c23565b6102e99190610b13565b9350610316565b6102fb600284610b76565b61030988600160c01b610c23565b6103139190610b13565b93505b5050509392505050565b6040805160e0810182526001600160a01b03808616808352858216602084015260025462ffffff600160a01b8204169484019490945233606084015260808301859052600060a0840181905260c08401529192161415610404576000546040516304e45aaf60e01b81526001600160a01b03909116906304e45aaf9034906103ac908590600401610ab5565b6020604051808303818588803b1580156103c557600080fd5b505af11580156103d9573d6000803e3d6000fd5b50505050506040513d601f19601f820116820180604052508101906103fe9190610a0d565b506104a9565b6104196001600160a01b038516333085610596565b61042384836105f6565b6000546040516304e45aaf60e01b81526001600160a01b03909116906304e45aaf903490610455908590600401610ab5565b6020604051808303818588803b15801561046e57600080fd5b505af1158015610482573d6000803e3d6000fd5b50505050506040513d601f19601f820116820180604052508101906104a79190610a0d565b505b6000805460408051630910874560e11b815290516001600160a01b03909216926312210e8a9260048084019382900301818387803b1580156104ea57600080fd5b505af11580156104fe573d6000803e3d6000fd5b50506040516000925033915047908381818185875af1925050503d8060008114610544576040519150601f19603f3d011682016040523d82523d6000602084013e610549565b606091505b505090508061058f5760405162461bcd60e51b815260206004820152600d60248201526c1c99599d5b990819985a5b1959609a1b60448201526064015b60405180910390fd5b5050505050565b604080516001600160a01b0385811660248301528416604482015260648082018490528251808303909101815260849091019091526020810180516001600160e01b03166323b872dd60e01b1790526105f0908590610681565b50505050565b60005460405163095ea7b360e01b81526001600160a01b039182166004820152602481018390529083169063095ea7b390604401602060405180830381600087803b15801561064457600080fd5b505af1158015610658573d6000803e3d6000fd5b505050506040513d601f19601f8201168201806040525081019061067c9190610959565b505050565b60006106d6826040518060400160405280602081526020017f5361666545524332303a206c6f772d6c6576656c2063616c6c206661696c6564815250856001600160a01b03166107539092919063ffffffff16565b80519091501561067c57808060200190518101906106f49190610959565b61067c5760405162461bcd60e51b815260206004820152602a60248201527f5361666545524332303a204552433230206f7065726174696f6e20646964206e6044820152691bdd081cdd58d8d9595960b21b6064820152608401610586565b6060610762848460008561076c565b90505b9392505050565b6060824710156107cd5760405162461bcd60e51b815260206004820152602660248201527f416464726573733a20696e73756666696369656e742062616c616e636520666f6044820152651c8818d85b1b60d21b6064820152608401610586565b6001600160a01b0385163b6108245760405162461bcd60e51b815260206004820152601d60248201527f416464726573733a2063616c6c20746f206e6f6e2d636f6e74726163740000006044820152606401610586565b600080866001600160a01b031685876040516108409190610a66565b60006040518083038185875af1925050503d806000811461087d576040519150601f19603f3d011682016040523d82523d6000602084013e610882565b606091505b509150915061089282828661089d565b979650505050505050565b606083156108ac575081610765565b8251156108bc5782518084602001fd5b8160405162461bcd60e51b81526004016105869190610a82565b805180151581146108e657600080fd5b919050565b805161ffff811681146108e657600080fd5b60006020828403121561090e578081fd5b815161076581610c84565b60008060006060848603121561092d578182fd5b833561093881610c84565b9250602084013561094881610c84565b929592945050506040919091013590565b60006020828403121561096a578081fd5b610765826108d6565b600080600080600080600060e0888a03121561098d578283fd5b875161099881610c84565b8097505060208801518060020b81146109af578384fd5b95506109bd604089016108eb565b94506109cb606089016108eb565b93506109d9608089016108eb565b925060a088015163ffffffff811681146109f1578283fd5b91506109ff60c089016108d6565b905092959891949750929550565b600060208284031215610a1e578081fd5b5051919050565b600080600060608486031215610a39578283fd5b833592506020840135610a4b81610c84565b91506040840135610a5b81610c84565b809150509250925092565b60008251610a78818460208701610c42565b9190910192915050565b6020815260008251806020840152610aa1816040850160208701610c42565b601f01601f19169190910160400192915050565b81516001600160a01b03908116825260208084015182169083015260408084015162ffffff16908301526060808401518216908301526080808401519083015260a0838101519083015260c092830151169181019190915260e00190565b600082610b2e57634e487b7160e01b81526012600452602481fd5b500490565b600181815b80851115610b6e578160001904821115610b5457610b54610c6e565b80851615610b6157918102915b93841c9390800290610b38565b509250929050565b600061076560ff841683600082610b8f57506001610c1d565b81610b9c57506000610c1d565b8160018114610bb25760028114610bbc57610bd8565b6001915050610c1d565b60ff841115610bcd57610bcd610c6e565b50506001821b610c1d565b5060208310610133831016604e8410600b8410161715610bfb575081810a610c1d565b610c058383610b33565b8060001904821115610c1957610c19610c6e565b0290505b92915050565b6000816000190483118215151615610c3d57610c3d610c6e565b500290565b60005b83811015610c5d578181015183820152602001610c45565b838111156105f05750506000910152565b634e487b7160e01b600052601160045260246000fd5b6001600160a01b0381168114610c9957600080fd5b5056fea264697066735822122017f7a528e6ea686ff249e208acaca333201fa48d6d5f6e6b89327e4a5eed4ea964736f6c63430008040033",
  "linkReferences": {},
  "deployedLinkReferences": {}
}