{
  "_format": "hh-sol-artifact-1",
  "contractName": "BTC30_Presale",
  "sourceName": "contracts/joey-presale.sol",
  "abi": [
    {
      "inputs": [
        {
          "internalType": "address",
          "name": "_tokenAddress",
          "type": "address"
        },
        {
          "internalType": "uint256",
          "name": "_price",
          "type": "uint256"
        }
      ],
      "stateMutability": "nonpayable",
      "type": "constructor"
    },
    {
      "anonymous": false,
      "inputs": [
        {
          "indexed": false,
          "internalType": "address",
          "name": "to",
          "type": "address"
        },
        {
          "indexed": false,
          "internalType": "uint256",
          "name": "amount",
          "type": "uint256"
        }
      ],
      "name": "Buy",
      "type": "event"
    },
    {
      "anonymous": false,
      "inputs": [
        {
          "indexed": false,
          "internalType": "address",
          "name": "to",
          "type": "address"
        },
        {
          "indexed": false,
          "internalType": "uint256",
          "name": "amount",
          "type": "uint256"
        }
      ],
      "name": "Claim",
      "type": "event"
    },
    {
      "anonymous": false,
      "inputs": [
        {
          "indexed": true,
          "internalType": "address",
          "name": "previousOwner",
          "type": "address"
        },
        {
          "indexed": true,
          "internalType": "address",
          "name": "newOwner",
          "type": "address"
        }
      ],
      "name": "OwnershipTransferred",
      "type": "event"
    },
    {
      "stateMutability": "payable",
      "type": "fallback"
    },
    {
      "inputs": [],
      "name": "baseDecimal",
      "outputs": [
        {
          "internalType": "uint256",
          "name": "",
          "type": "uint256"
        }
      ],
      "stateMutability": "view",
      "type": "function"
    },
    {
      "inputs": [
        {
          "internalType": "address",
          "name": "referralAddress",
          "type": "address"
        }
      ],
      "name": "buy",
      "outputs": [],
      "stateMutability": "payable",
      "type": "function"
    },
    {
      "inputs": [
        {
          "internalType": "uint256",
          "name": "usdtPrice",
          "type": "uint256"
        },
        {
          "internalType": "address",
          "name": "referralAddress",
          "type": "address"
        }
      ],
      "name": "buyWithUSDT",
      "outputs": [
        {
          "internalType": "bool",
          "name": "",
          "type": "bool"
        }
      ],
      "stateMutability": "nonpayable",
      "type": "function"
    },
    {
      "inputs": [
        {
          "internalType": "uint256",
          "name": "amount",
          "type": "uint256"
        }
      ],
      "name": "claimETH",
      "outputs": [],
      "stateMutability": "nonpayable",
      "type": "function"
    },
    {
      "inputs": [
        {
          "internalType": "address",
          "name": "tokenAddress",
          "type": "address"
        },
        {
          "internalType": "uint256",
          "name": "amount",
          "type": "uint256"
        }
      ],
      "name": "claimToken",
      "outputs": [],
      "stateMutability": "nonpayable",
      "type": "function"
    },
    {
      "inputs": [],
      "name": "claimUserToken",
      "outputs": [],
      "stateMutability": "nonpayable",
      "type": "function"
    },
    {
      "inputs": [
        {
          "internalType": "uint256",
          "name": "ethAmount",
          "type": "uint256"
        }
      ],
      "name": "ethBuyHelper",
      "outputs": [
        {
          "internalType": "uint256",
          "name": "amount",
          "type": "uint256"
        }
      ],
      "stateMutability": "view",
      "type": "function"
    },
    {
      "inputs": [
        {
          "internalType": "address",
          "name": "userAddress",
          "type": "address"
        }
      ],
      "name": "getClaimAmount",
      "outputs": [
        {
          "internalType": "uint256",
          "name": "claimAmount",
          "type": "uint256"
        }
      ],
      "stateMutability": "view",
      "type": "function"
    },
    {
      "inputs": [],
      "name": "getClaimStatus",
      "outputs": [
        {
          "internalType": "bool",
          "name": "",
          "type": "bool"
        }
      ],
      "stateMutability": "view",
      "type": "function"
    },
    {
      "inputs": [],
      "name": "getLatestPrice",
      "outputs": [
        {
          "internalType": "uint256",
          "name": "",
          "type": "uint256"
        }
      ],
      "stateMutability": "view",
      "type": "function"
    },
    {
      "inputs": [],
      "name": "getPrice",
      "outputs": [
        {
          "internalType": "uint256",
          "name": "tokenPrice",
          "type": "uint256"
        }
      ],
      "stateMutability": "view",
      "type": "function"
    },
    {
      "inputs": [],
      "name": "owner",
      "outputs": [
        {
          "internalType": "address",
          "name": "",
          "type": "address"
        }
      ],
      "stateMutability": "view",
      "type": "function"
    },
    {
      "inputs": [],
      "name": "renounceOwnership",
      "outputs": [],
      "stateMutability": "nonpayable",
      "type": "function"
    },
    {
      "inputs": [
        {
          "internalType": "uint256",
          "name": "_price",
          "type": "uint256"
        }
      ],
      "name": "resetPrice",
      "outputs": [],
      "stateMutability": "nonpayable",
      "type": "function"
    },
    {
      "inputs": [
        {
          "internalType": "uint256",
          "name": "newReferral",
          "type": "uint256"
        }
      ],
      "name": "resetReferralPercent",
      "outputs": [],
      "stateMutability": "nonpayable",
      "type": "function"
    },
    {
      "inputs": [],
      "name": "resetStartTime",
      "outputs": [],
      "stateMutability": "nonpayable",
      "type": "function"
    },
    {
      "inputs": [],
      "name": "startClaim",
      "outputs": [],
      "stateMutability": "nonpayable",
      "type": "function"
    },
    {
      "inputs": [],
      "name": "startTime",
      "outputs": [
        {
          "internalType": "uint256",
          "name": "",
          "type": "uint256"
        }
      ],
      "stateMutability": "view",
      "type": "function"
    },
    {
      "inputs": [],
      "name": "stopClaim",
      "outputs": [],
      "stateMutability": "nonpayable",
      "type": "function"
    },
    {
      "inputs": [],
      "name": "tokenAddress",
      "outputs": [
        {
          "internalType": "address",
          "name": "",
          "type": "address"
        }
      ],
      "stateMutability": "view",
      "type": "function"
    },
    {
      "inputs": [],
      "name": "totalSaled",
      "outputs": [
        {
          "internalType": "uint256",
          "name": "",
          "type": "uint256"
        }
      ],
      "stateMutability": "view",
      "type": "function"
    },
    {
      "inputs": [
        {
          "internalType": "address",
          "name": "newOwner",
          "type": "address"
        }
      ],
      "name": "transferOwnership",
      "outputs": [],
      "stateMutability": "nonpayable",
      "type": "function"
    },
    {
      "inputs": [
        {
          "internalType": "uint256",
          "name": "usdPrice",
          "type": "uint256"
        }
      ],
      "name": "usdtBuyHelper",
      "outputs": [
        {
          "internalType": "uint256",
          "name": "amount",
          "type": "uint256"
        }
      ],
      "stateMutability": "view",
      "type": "function"
    },
    {
      "inputs": [
        {
          "internalType": "address",
          "name": "",
          "type": "address"
        }
      ],
      "name": "userDeposits",
      "outputs": [
        {
          "internalType": "uint256",
          "name": "",
          "type": "uint256"
        }
      ],
      "stateMutability": "view",
      "type": "function"
    },
    {
      "stateMutability": "payable",
      "type": "receive"
    }
  ],
  "bytecode": "0x60806040526000805460ff60a01b19169055600580546001600160a01b0319908116730567f2323251f0aab15c8dfb1967e4e8a7d42aee178255600680549091167355d398326f99059ff775485246999027b3197955179055620f424060075560085534801561006e57600080fd5b506040516110b53803806110b583398101604081905261008d91610100565b600080546001600160a01b031916339081178255604051909182917f8be0079c531659141344cd1fd0a4f28419497f9722a3daafe3b4186f6b6457e0908290a350600180546001600160a01b0319166001600160a01b039390931692909217909155600255426003556000600455610138565b60008060408385031215610112578182fd5b82516001600160a01b0381168114610128578283fd5b6020939093015192949293505050565b610f6e806101476000396000f3fe60806040526004361061014f5760003560e01c80639d76ea58116100b6578063ecbfc0771161006f578063ecbfc077146103b9578063f088d547146103ce578063f2fde38b146103e1578063f42958be14610401578063fe96973a14610416578063ff6c9bc91461043657610160565b80639d76ea58146102f8578063c8dbbcbc14610318578063d095362f1461032d578063db7b373e1461034d578063dde070e814610363578063de8e81ed1461039957610160565b806378e979251161010857806378e97925146102355780637ff12e791461024b5780638da5cb5b1461026b5780638e15f4731461029d57806398d5fdca146102b85780639b77c21a146102cd57610160565b80630ba36dcd1461016a5780631698755f146101aa57806329a5a0b6146101ca57806363e40879146101ea57806368e453ed1461020a578063715018a61461022057610160565b366101605761015e600061044b565b005b61015e600061044b565b34801561017657600080fd5b50610197610185366004610dba565b60096020526000908152604090205481565b6040519081526020015b60405180910390f35b3480156101b657600080fd5b5061015e6101c5366004610ddb565b610614565b3480156101d657600080fd5b506101976101e5366004610e24565b6106e4565b3480156101f657600080fd5b50610197610205366004610e24565b610727565b34801561021657600080fd5b5061019760045481565b34801561022c57600080fd5b5061015e61073a565b34801561024157600080fd5b5061019760035481565b34801561025757600080fd5b5061015e610266366004610e24565b6107ae565b34801561027757600080fd5b506000546001600160a01b03165b6040516001600160a01b0390911681526020016101a1565b3480156102a957600080fd5b5067016345785d8a0000610197565b3480156102c457600080fd5b50600254610197565b3480156102d957600080fd5b50600054600160a01b900460ff165b60405190151581526020016101a1565b34801561030457600080fd5b50600154610285906001600160a01b031681565b34801561032457600080fd5b5061015e6107dd565b34801561033957600080fd5b506102e8610348366004610e54565b610923565b34801561035957600080fd5b5061019760075481565b34801561036f57600080fd5b5061019761037e366004610dba565b6001600160a01b031660009081526009602052604090205490565b3480156103a557600080fd5b5061015e6103b4366004610e24565b610b09565b3480156103c557600080fd5b5061015e610b38565b61015e6103dc366004610dba565b61044b565b3480156103ed57600080fd5b5061015e6103fc366004610dba565b610b77565b34801561040d57600080fd5b5061015e610bad565b34801561042257600080fd5b5061015e610431366004610e24565b610bdd565b34801561044257600080fd5b5061015e610ca5565b6000610456346106e4565b9050806004600082825461046a9190610eb4565b9091555050600080546040516001600160a01b039091169034908381818185875af1925050503d80600081146104bc576040519150601f19603f3d011682016040523d82523d6000602084013e6104c1565b606091505b505090508061050e5760405162461bcd60e51b81526020600482015260146024820152732330b4b632b2103a379039b2b7321022ba3432b960611b60448201526064015b60405180910390fd5b6001600160a01b03831661054657336000908152600960205260408120805484929061053b908490610eb4565b909155506105d69050565b6064600854836105569190610eec565b6105609190610ecc565b6001600160a01b03841660009081526009602052604081208054909190610588908490610eb4565b909155505060085460649061059d9082610f0b565b6105a79084610eec565b6105b19190610ecc565b33600090815260096020526040812080549091906105d0908490610eb4565b90915550505b60408051338152602081018490527fe3d4187f6ca4248660cc0ac8b8056515bac4a8132be2eca31d6d0cc170722a7e910160405180910390a1505050565b6000546001600160a01b0316331461063e5760405162461bcd60e51b815260040161050590610e7f565b816001600160a01b031663a9059cbb61065f6000546001600160a01b031690565b6040516001600160e01b031960e084901b1681526001600160a01b03909116600482015260248101849052604401602060405180830381600087803b1580156106a757600080fd5b505af11580156106bb573d6000803e3d6000fd5b505050506040513d601f19601f820116820180604052508101906106df9190610e04565b505050565b600069d3c21bcecceda100000060025461070367016345785d8a000090565b61070d9085610eec565b6107179190610eec565b6107219190610ecc565b92915050565b6000600754600254836107179190610eec565b6000546001600160a01b031633146107645760405162461bcd60e51b815260040161050590610e7f565b600080546040516001600160a01b03909116907f8be0079c531659141344cd1fd0a4f28419497f9722a3daafe3b4186f6b6457e0908390a3600080546001600160a01b0319169055565b6000546001600160a01b031633146107d85760405162461bcd60e51b815260040161050590610e7f565b600855565b600054600160a01b900460ff166108365760405162461bcd60e51b815260206004820152601b60248201527f436c61696d206973206e6f7420617661696c61626c65206e6f772e00000000006044820152606401610505565b336000526009602052600154336000818152600960205260409081902054905163a9059cbb60e01b8152600481019290925260248201526001600160a01b039091169063a9059cbb90604401602060405180830381600087803b15801561089c57600080fd5b505af11580156108b0573d6000803e3d6000fd5b505050506040513d601f19601f820116820180604052508101906108d49190610e04565b503360008181526009602090815260408083208390558051938452908301919091527f47cee97cb7acd717b3c0aa1435d004cd5b3c8c57d70dbceb4e4458bbd60e39d4910160405180910390a1565b60008061092f84610727565b905080600460008282546109439190610eb4565b90915550506006546000906001600160a01b031663dd62ed3e336040516001600160e01b031960e084901b1681526001600160a01b03909116600482015230602482015260440160206040518083038186803b1580156109a257600080fd5b505afa1580156109b6573d6000803e3d6000fd5b505050506040513d601f19601f820116820180604052508101906109da9190610e3c565b905080851115610a365760405162461bcd60e51b815260206004820152602160248201527f4d616b65207375726520746f2061646420656e6f75676820616c6c6f77616e636044820152606560f81b6064820152608401610505565b6001600160a01b038416610a6e573360009081526009602052604081208054849290610a63908490610eb4565b90915550610afe9050565b606460085483610a7e9190610eec565b610a889190610ecc565b6001600160a01b03851660009081526009602052604081208054909190610ab0908490610eb4565b9091555050600854606490610ac59082610f0b565b610acf9084610eec565b610ad99190610ecc565b3360009081526009602052604081208054909190610af8908490610eb4565b90915550505b506001949350505050565b6000546001600160a01b03163314610b335760405162461bcd60e51b815260040161050590610e7f565b600255565b6000546001600160a01b03163314610b625760405162461bcd60e51b815260040161050590610e7f565b6000805460ff60a01b1916600160a01b179055565b6000546001600160a01b03163314610ba15760405162461bcd60e51b815260040161050590610e7f565b610baa81610cde565b50565b6000546001600160a01b03163314610bd75760405162461bcd60e51b815260040161050590610e7f565b42600355565b6000546001600160a01b03163314610c075760405162461bcd60e51b815260040161050590610e7f565b600080546040516001600160a01b039091169083908381818185875af1925050503d8060008114610c54576040519150601f19603f3d011682016040523d82523d6000602084013e610c59565b606091505b5050905080610ca15760405162461bcd60e51b81526020600482015260146024820152732330b4b632b2103a379039b2b7321022ba3432b960611b6044820152606401610505565b5050565b6000546001600160a01b03163314610ccf5760405162461bcd60e51b815260040161050590610e7f565b6000805460ff60a01b19169055565b6001600160a01b038116610d435760405162461bcd60e51b815260206004820152602660248201527f4f776e61626c653a206e6577206f776e657220697320746865207a65726f206160448201526564647265737360d01b6064820152608401610505565b600080546040516001600160a01b03808516939216917f8be0079c531659141344cd1fd0a4f28419497f9722a3daafe3b4186f6b6457e091a3600080546001600160a01b0319166001600160a01b0392909216919091179055565b80356001600160a01b0381168114610db557600080fd5b919050565b600060208284031215610dcb578081fd5b610dd482610d9e565b9392505050565b60008060408385031215610ded578081fd5b610df683610d9e565b946020939093013593505050565b600060208284031215610e15578081fd5b81518015158114610dd4578182fd5b600060208284031215610e35578081fd5b5035919050565b600060208284031215610e4d578081fd5b5051919050565b60008060408385031215610e66578182fd5b82359150610e7660208401610d9e565b90509250929050565b6020808252818101527f4f776e61626c653a2063616c6c6572206973206e6f7420746865206f776e6572604082015260600190565b60008219821115610ec757610ec7610f22565b500190565b600082610ee757634e487b7160e01b81526012600452602481fd5b500490565b6000816000190483118215151615610f0657610f06610f22565b500290565b600082821015610f1d57610f1d610f22565b500390565b634e487b7160e01b600052601160045260246000fdfea264697066735822122098b290e64c49b73d4d853320c46017eaa72591cddcd986ff93031a4a45c7024464736f6c63430008040033",
  "linkReferences": {},
  "deployedLinkReferences": {}
}