{
  "_format": "hh-sol-artifact-1",
  "contractName": "Presale",
  "sourceName": "contracts/presale.sol",
  "abi": [
    {
      "inputs": [
        {
          "internalType": "address",
          "name": "_tokenAddress",
          "type": "address"
        },
        {
          "internalType": "uint256",
          "name": "_price",
          "type": "uint256"
        }
      ],
      "stateMutability": "nonpayable",
      "type": "constructor"
    },
    {
      "anonymous": false,
      "inputs": [
        {
          "indexed": false,
          "internalType": "address",
          "name": "to",
          "type": "address"
        },
        {
          "indexed": false,
          "internalType": "uint256",
          "name": "amount",
          "type": "uint256"
        }
      ],
      "name": "Buy",
      "type": "event"
    },
    {
      "anonymous": false,
      "inputs": [
        {
          "indexed": false,
          "internalType": "address",
          "name": "to",
          "type": "address"
        },
        {
          "indexed": false,
          "internalType": "uint256",
          "name": "amount",
          "type": "uint256"
        }
      ],
      "name": "Claim",
      "type": "event"
    },
    {
      "anonymous": false,
      "inputs": [
        {
          "indexed": true,
          "internalType": "address",
          "name": "previousOwner",
          "type": "address"
        },
        {
          "indexed": true,
          "internalType": "address",
          "name": "newOwner",
          "type": "address"
        }
      ],
      "name": "OwnershipTransferred",
      "type": "event"
    },
    {
      "stateMutability": "payable",
      "type": "fallback"
    },
    {
      "inputs": [],
      "name": "baseDecimal",
      "outputs": [
        {
          "internalType": "uint256",
          "name": "",
          "type": "uint256"
        }
      ],
      "stateMutability": "view",
      "type": "function"
    },
    {
      "inputs": [],
      "name": "buy",
      "outputs": [],
      "stateMutability": "payable",
      "type": "function"
    },
    {
      "inputs": [
        {
          "internalType": "uint256",
          "name": "usdtPrice",
          "type": "uint256"
        }
      ],
      "name": "buyWithUSDT",
      "outputs": [
        {
          "internalType": "bool",
          "name": "",
          "type": "bool"
        }
      ],
      "stateMutability": "nonpayable",
      "type": "function"
    },
    {
      "inputs": [
        {
          "internalType": "uint256",
          "name": "amount",
          "type": "uint256"
        }
      ],
      "name": "claimETH",
      "outputs": [],
      "stateMutability": "nonpayable",
      "type": "function"
    },
    {
      "inputs": [
        {
          "internalType": "address",
          "name": "tokenAddress",
          "type": "address"
        },
        {
          "internalType": "uint256",
          "name": "amount",
          "type": "uint256"
        }
      ],
      "name": "claimToken",
      "outputs": [],
      "stateMutability": "nonpayable",
      "type": "function"
    },
    {
      "inputs": [],
      "name": "claimUserToken",
      "outputs": [],
      "stateMutability": "nonpayable",
      "type": "function"
    },
    {
      "inputs": [
        {
          "internalType": "uint256",
          "name": "ethAmount",
          "type": "uint256"
        }
      ],
      "name": "ethBuyHelper",
      "outputs": [
        {
          "internalType": "uint256",
          "name": "amount",
          "type": "uint256"
        }
      ],
      "stateMutability": "view",
      "type": "function"
    },
    {
      "inputs": [
        {
          "internalType": "address",
          "name": "userAddress",
          "type": "address"
        }
      ],
      "name": "getClaimAmount",
      "outputs": [
        {
          "internalType": "uint256",
          "name": "claimAmount",
          "type": "uint256"
        }
      ],
      "stateMutability": "view",
      "type": "function"
    },
    {
      "inputs": [],
      "name": "getClaimStatus",
      "outputs": [
        {
          "internalType": "bool",
          "name": "",
          "type": "bool"
        }
      ],
      "stateMutability": "view",
      "type": "function"
    },
    {
      "inputs": [],
      "name": "getLatestPrice",
      "outputs": [
        {
          "internalType": "uint256",
          "name": "",
          "type": "uint256"
        }
      ],
      "stateMutability": "view",
      "type": "function"
    },
    {
      "inputs": [],
      "name": "getPrice",
      "outputs": [
        {
          "internalType": "uint256",
          "name": "tokenPrice",
          "type": "uint256"
        }
      ],
      "stateMutability": "view",
      "type": "function"
    },
    {
      "inputs": [],
      "name": "owner",
      "outputs": [
        {
          "internalType": "address",
          "name": "",
          "type": "address"
        }
      ],
      "stateMutability": "view",
      "type": "function"
    },
    {
      "inputs": [],
      "name": "renounceOwnership",
      "outputs": [],
      "stateMutability": "nonpayable",
      "type": "function"
    },
    {
      "inputs": [
        {
          "internalType": "uint256",
          "name": "_price",
          "type": "uint256"
        }
      ],
      "name": "resetPrice",
      "outputs": [],
      "stateMutability": "nonpayable",
      "type": "function"
    },
    {
      "inputs": [],
      "name": "resetStartTime",
      "outputs": [],
      "stateMutability": "nonpayable",
      "type": "function"
    },
    {
      "inputs": [],
      "name": "startClaim",
      "outputs": [],
      "stateMutability": "nonpayable",
      "type": "function"
    },
    {
      "inputs": [],
      "name": "startTime",
      "outputs": [
        {
          "internalType": "uint256",
          "name": "",
          "type": "uint256"
        }
      ],
      "stateMutability": "view",
      "type": "function"
    },
    {
      "inputs": [],
      "name": "stopClaim",
      "outputs": [],
      "stateMutability": "nonpayable",
      "type": "function"
    },
    {
      "inputs": [],
      "name": "tokenAddress",
      "outputs": [
        {
          "internalType": "address",
          "name": "",
          "type": "address"
        }
      ],
      "stateMutability": "view",
      "type": "function"
    },
    {
      "inputs": [],
      "name": "totalSaled",
      "outputs": [
        {
          "internalType": "uint256",
          "name": "",
          "type": "uint256"
        }
      ],
      "stateMutability": "view",
      "type": "function"
    },
    {
      "inputs": [
        {
          "internalType": "address",
          "name": "newOwner",
          "type": "address"
        }
      ],
      "name": "transferOwnership",
      "outputs": [],
      "stateMutability": "nonpayable",
      "type": "function"
    },
    {
      "inputs": [
        {
          "internalType": "uint256",
          "name": "usdPrice",
          "type": "uint256"
        }
      ],
      "name": "usdtBuyHelper",
      "outputs": [
        {
          "internalType": "uint256",
          "name": "amount",
          "type": "uint256"
        }
      ],
      "stateMutability": "view",
      "type": "function"
    },
    {
      "inputs": [
        {
          "internalType": "address",
          "name": "",
          "type": "address"
        }
      ],
      "name": "userDeposits",
      "outputs": [
        {
          "internalType": "uint256",
          "name": "",
          "type": "uint256"
        }
      ],
      "stateMutability": "view",
      "type": "function"
    },
    {
      "stateMutability": "payable",
      "type": "receive"
    }
  ],
  "bytecode": "0x60806040526000805460ff60a01b19169055600580546001600160a01b0319908116735f4ec3df9cbd43714fe2740f5e3616155c5b8419179091556006805490911673dac17f958d2ee523a2206206994597c13d831ec7179055620f424060075534801561006c57600080fd5b5060405161103a38038061103a83398101604081905261008b916100fe565b600080546001600160a01b031916339081178255604051909182917f8be0079c531659141344cd1fd0a4f28419497f9722a3daafe3b4186f6b6457e0908290a350600180546001600160a01b0319166001600160a01b039390931692909217909155600255426003556000600455610136565b60008060408385031215610110578182fd5b82516001600160a01b0381168114610126578283fd5b6020939093015192949293505050565b610ef5806101456000396000f3fe6080604052600436106101445760003560e01c80639d76ea58116100b6578063de8e81ed1161006f578063de8e81ed14610364578063ecbfc07714610384578063f2fde38b14610399578063f42958be146103b9578063fe96973a146103ce578063ff6c9bc9146103ee57610153565b80639d76ea58146102c3578063a6f2ae3a14610153578063a7c60160146102e3578063c8dbbcbc14610303578063db7b373e14610318578063dde070e81461032e57610153565b8063715018a611610108578063715018a61461021157806378e97925146102265780638da5cb5b1461023c5780638e15f4731461026e57806398d5fdca146102835780639b77c21a1461029857610153565b80630ba36dcd1461015b5780631698755f1461019b57806329a5a0b6146101bb57806363e40879146101db57806368e453ed146101fb57610153565b3661015357610151610403565b005b610151610403565b34801561016757600080fd5b50610188610176366004610cb1565b60086020526000908152604090205481565b6040519081526020015b60405180910390f35b3480156101a757600080fd5b506101516101b6366004610cd2565b61052c565b3480156101c757600080fd5b506101886101d6366004610d1b565b6105fc565b3480156101e757600080fd5b506101886101f6366004610d1b565b610638565b34801561020757600080fd5b5061018860045481565b34801561021d57600080fd5b5061015161064b565b34801561023257600080fd5b5061018860035481565b34801561024857600080fd5b506000546001600160a01b03165b6040516001600160a01b039091168152602001610192565b34801561027a57600080fd5b506101886106bf565b34801561028f57600080fd5b50600254610188565b3480156102a457600080fd5b50600054600160a01b900460ff165b6040519015158152602001610192565b3480156102cf57600080fd5b50600154610256906001600160a01b031681565b3480156102ef57600080fd5b506102b36102fe366004610d1b565b61075f565b34801561030f57600080fd5b506101516108a0565b34801561032457600080fd5b5061018860075481565b34801561033a57600080fd5b50610188610349366004610cb1565b6001600160a01b031660009081526008602052604090205490565b34801561037057600080fd5b5061015161037f366004610d1b565b6109e6565b34801561039057600080fd5b50610151610a15565b3480156103a557600080fd5b506101516103b4366004610cb1565b610a54565b3480156103c557600080fd5b50610151610a8a565b3480156103da57600080fd5b506101516103e9366004610d1b565b610aba565b3480156103fa57600080fd5b50610151610b82565b600061040e346105fc565b33600090815260086020526040812080549293508392909190610432908490610dcf565b92505081905550806004600082825461044b9190610dcf565b9091555050600080546040516001600160a01b039091169034908381818185875af1925050503d806000811461049d576040519150601f19603f3d011682016040523d82523d6000602084013e6104a2565b606091505b50509050806104ef5760405162461bcd60e51b81526020600482015260146024820152732330b4b632b2103a379039b2b7321022ba3432b960611b60448201526064015b60405180910390fd5b60408051338152602081018490527fe3d4187f6ca4248660cc0ac8b8056515bac4a8132be2eca31d6d0cc170722a7e910160405180910390a15050565b6000546001600160a01b031633146105565760405162461bcd60e51b81526004016104e690610d9a565b816001600160a01b031663a9059cbb6105776000546001600160a01b031690565b6040516001600160e01b031960e084901b1681526001600160a01b03909116600482015260248101849052604401602060405180830381600087803b1580156105bf57600080fd5b505af11580156105d3573d6000803e3d6000fd5b505050506040513d601f19601f820116820180604052508101906105f79190610cfb565b505050565b600069d3c21bcecceda10000006002546106146106bf565b61061e9085610e8a565b6106289190610e8a565b6106329190610de7565b92915050565b6000600754600254836106289190610e8a565b6000546001600160a01b031633146106755760405162461bcd60e51b81526004016104e690610d9a565b600080546040516001600160a01b03909116907f8be0079c531659141344cd1fd0a4f28419497f9722a3daafe3b4186f6b6457e0908390a3600080546001600160a01b0319169055565b600080600560009054906101000a90046001600160a01b03166001600160a01b031663feaf968c6040518163ffffffff1660e01b815260040160a06040518083038186803b15801561071057600080fd5b505afa158015610724573d6000803e3d6000fd5b505050506040513d601f19601f820116820180604052508101906107489190610d4b565b505050915050806402540be4006106329190610e07565b60008061076b83610638565b9050806004600082825461077f9190610dcf565b90915550506006546000906001600160a01b031663dd62ed3e336040516001600160e01b031960e084901b1681526001600160a01b03909116600482015230602482015260440160206040518083038186803b1580156107de57600080fd5b505afa1580156107f2573d6000803e3d6000fd5b505050506040513d601f19601f820116820180604052508101906108169190610d33565b9050808411156108725760405162461bcd60e51b815260206004820152602160248201527f4d616b65207375726520746f2061646420656e6f75676820616c6c6f77616e636044820152606560f81b60648201526084016104e6565b3360009081526008602052604081208054849290610891908490610dcf565b90915550600195945050505050565b600054600160a01b900460ff166108f95760405162461bcd60e51b815260206004820152601b60248201527f436c61696d206973206e6f7420617661696c61626c65206e6f772e000000000060448201526064016104e6565b336000526008602052600154336000818152600860205260409081902054905163a9059cbb60e01b8152600481019290925260248201526001600160a01b039091169063a9059cbb90604401602060405180830381600087803b15801561095f57600080fd5b505af1158015610973573d6000803e3d6000fd5b505050506040513d601f19601f820116820180604052508101906109979190610cfb565b503360008181526008602090815260408083208390558051938452908301919091527f47cee97cb7acd717b3c0aa1435d004cd5b3c8c57d70dbceb4e4458bbd60e39d4910160405180910390a1565b6000546001600160a01b03163314610a105760405162461bcd60e51b81526004016104e690610d9a565b600255565b6000546001600160a01b03163314610a3f5760405162461bcd60e51b81526004016104e690610d9a565b6000805460ff60a01b1916600160a01b179055565b6000546001600160a01b03163314610a7e5760405162461bcd60e51b81526004016104e690610d9a565b610a8781610bbb565b50565b6000546001600160a01b03163314610ab45760405162461bcd60e51b81526004016104e690610d9a565b42600355565b6000546001600160a01b03163314610ae45760405162461bcd60e51b81526004016104e690610d9a565b600080546040516001600160a01b039091169083908381818185875af1925050503d8060008114610b31576040519150601f19603f3d011682016040523d82523d6000602084013e610b36565b606091505b5050905080610b7e5760405162461bcd60e51b81526020600482015260146024820152732330b4b632b2103a379039b2b7321022ba3432b960611b60448201526064016104e6565b5050565b6000546001600160a01b03163314610bac5760405162461bcd60e51b81526004016104e690610d9a565b6000805460ff60a01b19169055565b6001600160a01b038116610c205760405162461bcd60e51b815260206004820152602660248201527f4f776e61626c653a206e6577206f776e657220697320746865207a65726f206160448201526564647265737360d01b60648201526084016104e6565b600080546040516001600160a01b03808516939216917f8be0079c531659141344cd1fd0a4f28419497f9722a3daafe3b4186f6b6457e091a3600080546001600160a01b0319166001600160a01b0392909216919091179055565b80356001600160a01b0381168114610c9257600080fd5b919050565b805169ffffffffffffffffffff81168114610c9257600080fd5b600060208284031215610cc2578081fd5b610ccb82610c7b565b9392505050565b60008060408385031215610ce4578081fd5b610ced83610c7b565b946020939093013593505050565b600060208284031215610d0c578081fd5b81518015158114610ccb578182fd5b600060208284031215610d2c578081fd5b5035919050565b600060208284031215610d44578081fd5b5051919050565b600080600080600060a08688031215610d62578081fd5b610d6b86610c97565b9450602086015193506040860151925060608601519150610d8e60808701610c97565b90509295509295909350565b6020808252818101527f4f776e61626c653a2063616c6c6572206973206e6f7420746865206f776e6572604082015260600190565b60008219821115610de257610de2610ea9565b500190565b600082610e0257634e487b7160e01b81526012600452602481fd5b500490565b60006001600160ff1b0381841382841380821686840486111615610e2d57610e2d610ea9565b600160ff1b84871282811687830589121615610e4b57610e4b610ea9565b858712925087820587128484161615610e6657610e66610ea9565b87850587128184161615610e7c57610e7c610ea9565b505050929093029392505050565b6000816000190483118215151615610ea457610ea4610ea9565b500290565b634e487b7160e01b600052601160045260246000fdfea264697066735822122084b353c92f39605d29cee9d64621c1c3bf466aaadf0d2a488dd7c41205e58d0664736f6c63430008040033",
  "linkReferences": {},
  "deployedLinkReferences": {}
}