{
  "_format": "hh-sol-artifact-1",
  "contractName": "Claimable",
  "sourceName": "contracts/swap.sol",
  "abi": [
    {
      "anonymous": false,
      "inputs": [
        {
          "indexed": true,
          "internalType": "address",
          "name": "previousOwner",
          "type": "address"
        },
        {
          "indexed": true,
          "internalType": "address",
          "name": "newOwner",
          "type": "address"
        }
      ],
      "name": "OwnershipTransferred",
      "type": "event"
    },
    {
      "inputs": [
        {
          "internalType": "uint256",
          "name": "amount",
          "type": "uint256"
        }
      ],
      "name": "claimETH",
      "outputs": [],
      "stateMutability": "nonpayable",
      "type": "function"
    },
    {
      "inputs": [
        {
          "internalType": "address",
          "name": "tokenAddress",
          "type": "address"
        },
        {
          "internalType": "uint256",
          "name": "amount",
          "type": "uint256"
        }
      ],
      "name": "claimToken",
      "outputs": [],
      "stateMutability": "nonpayable",
      "type": "function"
    },
    {
      "inputs": [],
      "name": "owner",
      "outputs": [
        {
          "internalType": "address",
          "name": "",
          "type": "address"
        }
      ],
      "stateMutability": "view",
      "type": "function"
    },
    {
      "inputs": [],
      "name": "renounceOwnership",
      "outputs": [],
      "stateMutability": "nonpayable",
      "type": "function"
    },
    {
      "inputs": [
        {
          "internalType": "address",
          "name": "newOwner",
          "type": "address"
        }
      ],
      "name": "transferOwnership",
      "outputs": [],
      "stateMutability": "nonpayable",
      "type": "function"
    }
  ],
  "bytecode": "0x608060405234801561001057600080fd5b5061001a3361001f565b61006f565b600080546001600160a01b038381166001600160a01b0319831681178455604051919092169283917f8be0079c531659141344cd1fd0a4f28419497f9722a3daafe3b4186f6b6457e09190a35050565b6104898061007e6000396000f3fe608060405234801561001057600080fd5b50600436106100575760003560e01c80631698755f1461005c578063715018a6146100715780638da5cb5b14610079578063f2fde38b14610098578063fe96973a146100ab575b600080fd5b61006f61006a3660046103bd565b6100be565b005b61006f610197565b600054604080516001600160a01b039092168252519081900360200190f35b61006f6100a636600461039c565b6101cd565b61006f6100b9366004610406565b610268565b6000546001600160a01b031633146100f15760405162461bcd60e51b81526004016100e89061041e565b60405180910390fd5b816001600160a01b031663a9059cbb6101126000546001600160a01b031690565b6040516001600160e01b031960e084901b1681526001600160a01b03909116600482015260248101849052604401602060405180830381600087803b15801561015a57600080fd5b505af115801561016e573d6000803e3d6000fd5b505050506040513d601f19601f8201168201806040525081019061019291906103e6565b505050565b6000546001600160a01b031633146101c15760405162461bcd60e51b81526004016100e89061041e565b6101cb6000610330565b565b6000546001600160a01b031633146101f75760405162461bcd60e51b81526004016100e89061041e565b6001600160a01b03811661025c5760405162461bcd60e51b815260206004820152602660248201527f4f776e61626c653a206e6577206f776e657220697320746865207a65726f206160448201526564647265737360d01b60648201526084016100e8565b61026581610330565b50565b6000546001600160a01b031633146102925760405162461bcd60e51b81526004016100e89061041e565b600080546040516001600160a01b039091169083908381818185875af1925050503d80600081146102df576040519150601f19603f3d011682016040523d82523d6000602084013e6102e4565b606091505b505090508061032c5760405162461bcd60e51b81526020600482015260146024820152732330b4b632b2103a379039b2b7321022ba3432b960611b60448201526064016100e8565b5050565b600080546001600160a01b038381166001600160a01b0319831681178455604051919092169283917f8be0079c531659141344cd1fd0a4f28419497f9722a3daafe3b4186f6b6457e09190a35050565b80356001600160a01b038116811461039757600080fd5b919050565b6000602082840312156103ad578081fd5b6103b682610380565b9392505050565b600080604083850312156103cf578081fd5b6103d883610380565b946020939093013593505050565b6000602082840312156103f7578081fd5b815180151581146103b6578182fd5b600060208284031215610417578081fd5b5035919050565b6020808252818101527f4f776e61626c653a2063616c6c6572206973206e6f7420746865206f776e657260408201526060019056fea26469706673582212206c622ddbcebce94fd11738531e8e47b558752a289ac18055acfb45a02941b6af64736f6c63430008040033",
  "linkReferences": {},
  "deployedLinkReferences": {}
}