{
  "_format": "hh-sol-artifact-1",
  "contractName": "ProSwap",
  "sourceName": "contracts/swap.sol",
  "abi": [
    {
      "inputs": [
        {
          "internalType": "address",
          "name": "_feeAccount",
          "type": "address"
        },
        {
          "internalType": "address",
          "name": "_router",
          "type": "address"
        },
        {
          "internalType": "address",
          "name": "_wavax",
          "type": "address"
        },
        {
          "internalType": "address",
          "name": "_rewardAddress",
          "type": "address"
        }
      ],
      "stateMutability": "nonpayable",
      "type": "constructor"
    },
    {
      "anonymous": false,
      "inputs": [
        {
          "indexed": true,
          "internalType": "address",
          "name": "previousOwner",
          "type": "address"
        },
        {
          "indexed": true,
          "internalType": "address",
          "name": "newOwner",
          "type": "address"
        }
      ],
      "name": "OwnershipTransferred",
      "type": "event"
    },
    {
      "inputs": [],
      "name": "airdrop",
      "outputs": [],
      "stateMutability": "nonpayable",
      "type": "function"
    },
    {
      "inputs": [
        {
          "internalType": "uint256",
          "name": "amount",
          "type": "uint256"
        }
      ],
      "name": "claimETH",
      "outputs": [],
      "stateMutability": "nonpayable",
      "type": "function"
    },
    {
      "inputs": [
        {
          "internalType": "address",
          "name": "tokenAddress",
          "type": "address"
        },
        {
          "internalType": "uint256",
          "name": "amount",
          "type": "uint256"
        }
      ],
      "name": "claimToken",
      "outputs": [],
      "stateMutability": "nonpayable",
      "type": "function"
    },
    {
      "inputs": [
        {
          "internalType": "address",
          "name": "_tokenA",
          "type": "address"
        },
        {
          "internalType": "address",
          "name": "_tokenB",
          "type": "address"
        },
        {
          "internalType": "uint256",
          "name": "_amountIn",
          "type": "uint256"
        },
        {
          "internalType": "address[]",
          "name": "path",
          "type": "address[]"
        }
      ],
      "name": "customSwapTokens",
      "outputs": [],
      "stateMutability": "payable",
      "type": "function"
    },
    {
      "inputs": [
        {
          "internalType": "address",
          "name": "_token",
          "type": "address"
        },
        {
          "internalType": "uint256",
          "name": "_amount",
          "type": "uint256"
        }
      ],
      "name": "emergencyWithdraw",
      "outputs": [],
      "stateMutability": "nonpayable",
      "type": "function"
    },
    {
      "inputs": [
        {
          "internalType": "uint256",
          "name": "_amount",
          "type": "uint256"
        }
      ],
      "name": "emergencyWithdrawETH",
      "outputs": [],
      "stateMutability": "nonpayable",
      "type": "function"
    },
    {
      "inputs": [],
      "name": "factoryAddress",
      "outputs": [
        {
          "internalType": "address",
          "name": "",
          "type": "address"
        }
      ],
      "stateMutability": "view",
      "type": "function"
    },
    {
      "inputs": [],
      "name": "feeAccount",
      "outputs": [
        {
          "internalType": "address",
          "name": "",
          "type": "address"
        }
      ],
      "stateMutability": "view",
      "type": "function"
    },
    {
      "inputs": [],
      "name": "feePercent",
      "outputs": [
        {
          "internalType": "uint256",
          "name": "",
          "type": "uint256"
        }
      ],
      "stateMutability": "view",
      "type": "function"
    },
    {
      "inputs": [
        {
          "internalType": "uint256",
          "name": "inputAmount",
          "type": "uint256"
        },
        {
          "internalType": "address[]",
          "name": "path",
          "type": "address[]"
        }
      ],
      "name": "getOutputTokenAmount",
      "outputs": [
        {
          "internalType": "uint256",
          "name": "outputAmount",
          "type": "uint256"
        }
      ],
      "stateMutability": "view",
      "type": "function"
    },
    {
      "inputs": [
        {
          "internalType": "uint256",
          "name": "_inputAmount",
          "type": "uint256"
        },
        {
          "internalType": "address",
          "name": "_tokenIn",
          "type": "address"
        },
        {
          "internalType": "address",
          "name": "_tokenOut",
          "type": "address"
        }
      ],
      "name": "getV3OutputTokenAmount",
      "outputs": [
        {
          "internalType": "uint256",
          "name": "outputAmount",
          "type": "uint256"
        }
      ],
      "stateMutability": "view",
      "type": "function"
    },
    {
      "inputs": [],
      "name": "owner",
      "outputs": [
        {
          "internalType": "address",
          "name": "",
          "type": "address"
        }
      ],
      "stateMutability": "view",
      "type": "function"
    },
    {
      "inputs": [],
      "name": "renounceOwnership",
      "outputs": [],
      "stateMutability": "nonpayable",
      "type": "function"
    },
    {
      "inputs": [],
      "name": "rewardAddress",
      "outputs": [
        {
          "internalType": "address",
          "name": "",
          "type": "address"
        }
      ],
      "stateMutability": "view",
      "type": "function"
    },
    {
      "inputs": [],
      "name": "rewardAmount",
      "outputs": [
        {
          "internalType": "uint256",
          "name": "",
          "type": "uint256"
        }
      ],
      "stateMutability": "view",
      "type": "function"
    },
    {
      "inputs": [],
      "name": "router",
      "outputs": [
        {
          "internalType": "address",
          "name": "",
          "type": "address"
        }
      ],
      "stateMutability": "view",
      "type": "function"
    },
    {
      "inputs": [],
      "name": "routerAddress",
      "outputs": [
        {
          "internalType": "address",
          "name": "",
          "type": "address"
        }
      ],
      "stateMutability": "view",
      "type": "function"
    },
    {
      "inputs": [
        {
          "internalType": "address",
          "name": "_feeAccount",
          "type": "address"
        }
      ],
      "name": "setFeeAccount",
      "outputs": [],
      "stateMutability": "nonpayable",
      "type": "function"
    },
    {
      "inputs": [
        {
          "internalType": "uint256",
          "name": "_feePercent",
          "type": "uint256"
        }
      ],
      "name": "setFeePercent",
      "outputs": [],
      "stateMutability": "nonpayable",
      "type": "function"
    },
    {
      "inputs": [
        {
          "internalType": "uint256",
          "name": "_amount",
          "type": "uint256"
        }
      ],
      "name": "setRewardAmount",
      "outputs": [],
      "stateMutability": "nonpayable",
      "type": "function"
    },
    {
      "inputs": [
        {
          "internalType": "address",
          "name": "_rewawrdAddress",
          "type": "address"
        }
      ],
      "name": "setRewardToken",
      "outputs": [],
      "stateMutability": "nonpayable",
      "type": "function"
    },
    {
      "inputs": [
        {
          "internalType": "address",
          "name": "_router",
          "type": "address"
        },
        {
          "internalType": "address",
          "name": "_wavax",
          "type": "address"
        }
      ],
      "name": "setRouterWAVAX",
      "outputs": [],
      "stateMutability": "nonpayable",
      "type": "function"
    },
    {
      "inputs": [
        {
          "internalType": "address",
          "name": "_tokenIn",
          "type": "address"
        },
        {
          "internalType": "address",
          "name": "_tokenOut",
          "type": "address"
        },
        {
          "internalType": "uint256",
          "name": "_amountIn",
          "type": "uint256"
        }
      ],
      "name": "swapTokens",
      "outputs": [],
      "stateMutability": "payable",
      "type": "function"
    },
    {
      "inputs": [
        {
          "internalType": "address",
          "name": "_tokenA",
          "type": "address"
        },
        {
          "internalType": "address",
          "name": "_tokenB",
          "type": "address"
        },
        {
          "internalType": "uint256",
          "name": "_amountIn",
          "type": "uint256"
        }
      ],
      "name": "swapV2Tokens",
      "outputs": [],
      "stateMutability": "payable",
      "type": "function"
    },
    {
      "inputs": [
        {
          "internalType": "address",
          "name": "newOwner",
          "type": "address"
        }
      ],
      "name": "transferOwnership",
      "outputs": [],
      "stateMutability": "nonpayable",
      "type": "function"
    },
    {
      "inputs": [],
      "name": "wavax",
      "outputs": [
        {
          "internalType": "address",
          "name": "",
          "type": "address"
        }
      ],
      "stateMutability": "view",
      "type": "function"
    },
    {
      "inputs": [],
      "name": "wbnbAddress",
      "outputs": [
        {
          "internalType": "address",
          "name": "",
          "type": "address"
        }
      ],
      "stateMutability": "view",
      "type": "function"
    }
  ],
  "bytecode": "0x60806040526000600155678ac7230489e80000600255600780546001600160a01b03199081167313f4ea83d0bd40e75c8222255bc855a974568dd41790915560088054909116730bfbcf9fa4f9c56b0f40a671ad40e0805a091865179055600980547464bb4cdb9cbd36b01bd1cbaebf2de08d9173bc095c6001600160b81b03199091161790553480156200009357600080fd5b50604051620024a7380380620024a7833981016040819052620000b69162000182565b620000c13362000115565b600480546001600160a01b039586166001600160a01b0319918216179091556005805494861694821694909417909355600680549285169284169290921790915560038054919093169116179055620001de565b600080546001600160a01b038381166001600160a01b0319831681178455604051919092169283917f8be0079c531659141344cd1fd0a4f28419497f9722a3daafe3b4186f6b6457e09190a35050565b80516001600160a01b03811681146200017d57600080fd5b919050565b6000806000806080858703121562000198578384fd5b620001a38562000165565b9350620001b36020860162000165565b9250620001c36040860162000165565b9150620001d36060860162000165565b905092959194509250565b6122b980620001ee6000396000f3fe60806040526004361061019c5760003560e01c80638cf57cb9116100ec578063c36c557f1161008a578063f2fde38b11610064578063f2fde38b14610465578063f7b2a7be14610485578063f887ea401461049b578063fe96973a146104bb57600080fd5b8063c36c557f14610412578063d654e9a414610432578063ec6cc0cc1461045257600080fd5b8063966dae0e116100c6578063966dae0e1461039f5780639cf355ad146103bf5780639de2827b146103df578063a8a65a78146103f257600080fd5b80638cf57cb9146103415780638da5cb5b1461036157806395ccea671461037f57600080fd5b806363fe3e3a11610159578063715018a611610133578063715018a6146102c85780637ce3489b146102dd5780637fd6f15c146102fd5780638aee81271461032157600080fd5b806363fe3e3a1461026857806365e17c9d146102885780636b792c4b146102a857600080fd5b8063117be4c2146101a15780631698755f146101de5780633268cc56146102005780633884d635146102205780634b023cf8146102355780634ce222da14610255575b600080fd5b3480156101ad57600080fd5b506006546101c1906001600160a01b031681565b6040516001600160a01b0390911681526020015b60405180910390f35b3480156101ea57600080fd5b506101fe6101f9366004611c4c565b6104db565b005b34801561020c57600080fd5b506007546101c1906001600160a01b031681565b34801561022c57600080fd5b506101fe6105b5565b34801561024157600080fd5b506101fe610250366004611b32565b6106bd565b6101fe610263366004611ba2565b610709565b34801561027457600080fd5b506009546101c1906001600160a01b031681565b34801561029457600080fd5b506004546101c1906001600160a01b031681565b3480156102b457600080fd5b506101fe6102c3366004611dbe565b6108e8565b3480156102d457600080fd5b506101fe61094f565b3480156102e957600080fd5b506101fe6102f8366004611dbe565b610985565b34801561030957600080fd5b5061031360015481565b6040519081526020016101d5565b34801561032d57600080fd5b506101fe61033c366004611b32565b6109b4565b34801561034d57600080fd5b506003546101c1906001600160a01b031681565b34801561036d57600080fd5b506000546001600160a01b03166101c1565b34801561038b57600080fd5b506101fe61039a366004611c4c565b610a00565b3480156103ab57600080fd5b506008546101c1906001600160a01b031681565b3480156103cb57600080fd5b506101fe6103da366004611b6a565b610a3e565b6101fe6103ed366004611be2565b610a96565b3480156103fe57600080fd5b506101fe61040d366004611dbe565b610cb4565b34801561041e57600080fd5b5061031361042d366004611dee565b610ce3565b34801561043e57600080fd5b5061031361044d366004611e2f565b610ef4565b6101fe610460366004611ba2565b610fc0565b34801561047157600080fd5b506101fe610480366004611b32565b61125b565b34801561049157600080fd5b5061031360025481565b3480156104a757600080fd5b506005546101c1906001600160a01b031681565b3480156104c757600080fd5b506101fe6104d6366004611dbe565b6112f6565b6000546001600160a01b0316331461050e5760405162461bcd60e51b815260040161050590611f7d565b60405180910390fd5b816001600160a01b031663a9059cbb61052f6000546001600160a01b031690565b6040516001600160e01b031960e084901b1681526001600160a01b039091166004820152602481018490526044015b602060405180830381600087803b15801561057857600080fd5b505af115801561058c573d6000803e3d6000fd5b505050506040513d601f19601f820116820180604052508101906105b09190611d0a565b505050565b336000908152600a602052604090205442906105d490620151806120ba565b116106215760405162461bcd60e51b815260206004820152601c60248201527f596f7520646964206e6f74207377617020696e20323420686f757273000000006044820152606401610505565b336000908152600b602052604090205461063e90620151806120ba565b421161068c5760405162461bcd60e51b815260206004820152601960248201527f596f752061697264726f70656420696e20323420686f757273000000000000006044820152606401610505565b6002546003546106a9916001600160a01b039091169033906113ba565b336000908152600b60205260409020429055565b6000546001600160a01b031633146106e75760405162461bcd60e51b815260040161050590611f7d565b600480546001600160a01b0319166001600160a01b0392909216919091179055565b336000908152600a60205260408082204290558051600280825260608201909252908160200160208202803683370190505090506001600160a01b0384166107e25760065481516001600160a01b0390911690829060009061077b57634e487b7160e01b600052603260045260246000fd5b60200260200101906001600160a01b031690816001600160a01b03168152505082816001815181106107bd57634e487b7160e01b600052603260045260246000fd5b60200260200101906001600160a01b031690816001600160a01b0316815250506108d6565b6001600160a01b03831661085157838160008151811061081257634e487b7160e01b600052603260045260246000fd5b6001600160a01b0392831660209182029290920101526006548251911690829060019081106107bd57634e487b7160e01b600052603260045260246000fd5b838160008151811061087357634e487b7160e01b600052603260045260246000fd5b60200260200101906001600160a01b031690816001600160a01b03168152505082816001815181106108b557634e487b7160e01b600052603260045260246000fd5b60200260200101906001600160a01b031690816001600160a01b0316815250505b6108e28484848461141d565b50505050565b6000546001600160a01b031633146109125760405162461bcd60e51b815260040161050590611f7d565b600080546040516001600160a01b039091169183156108fc02918491818181858888f1935050505015801561094b573d6000803e3d6000fd5b5050565b6000546001600160a01b031633146109795760405162461bcd60e51b815260040161050590611f7d565b61098360006115ed565b565b6000546001600160a01b031633146109af5760405162461bcd60e51b815260040161050590611f7d565b600155565b6000546001600160a01b031633146109de5760405162461bcd60e51b815260040161050590611f7d565b600380546001600160a01b0319166001600160a01b0392909216919091179055565b6000546001600160a01b03163314610a2a5760405162461bcd60e51b815260040161050590611f7d565b61094b6001600160a01b03831633836113ba565b6000546001600160a01b03163314610a685760405162461bcd60e51b815260040161050590611f7d565b600580546001600160a01b039384166001600160a01b03199182161790915560068054929093169116179055565b6001600160a01b038416610b535780600081518110610ac557634e487b7160e01b600052603260045260246000fd5b60209081029190910101516006546001600160a01b039081169116148015610b3257508060018251610af791906121ff565b81518110610b1557634e487b7160e01b600052603260045260246000fd5b60200260200101516001600160a01b0316836001600160a01b0316145b610b4e5760405162461bcd60e51b815260040161050590611f3b565b6108d6565b6001600160a01b038316610c0a5780600081518110610b8257634e487b7160e01b600052603260045260246000fd5b60200260200101516001600160a01b0316846001600160a01b0316148015610b3257508060018251610bb491906121ff565b81518110610bd257634e487b7160e01b600052603260045260246000fd5b60209081029190910101516006546001600160a01b03908116911614610b4e5760405162461bcd60e51b815260040161050590611f3b565b80600081518110610c2b57634e487b7160e01b600052603260045260246000fd5b60200260200101516001600160a01b0316846001600160a01b0316148015610c9857508060018251610c5d91906121ff565b81518110610c7b57634e487b7160e01b600052603260045260246000fd5b60200260200101516001600160a01b0316836001600160a01b0316145b6108d65760405162461bcd60e51b815260040161050590611f3b565b6000546001600160a01b03163314610cde5760405162461bcd60e51b815260040161050590611f7d565b600255565b600854600954604051630b4c774160e11b81526001600160a01b0385811660048301528481166024830152600160a01b90920462ffffff16604482015260009283928392911690631698ee829060640160206040518083038186803b158015610d4b57600080fd5b505afa158015610d5f573d6000803e3d6000fd5b505050506040513d601f19601f82011682018060405250810190610d839190611b4e565b9050806001600160a01b0316633850c7bd6040518163ffffffff1660e01b815260040160e06040518083038186803b158015610dbe57600080fd5b505afa158015610dd2573d6000803e3d6000fd5b505050506040513d601f19601f82011682018060405250810190610df69190611d24565b505060408051630dfe168160e01b815290516001600160a01b03968716985060009688169550630dfe1681945060048083019450602093509091829003018186803b158015610e4457600080fd5b505afa158015610e58573d6000803e3d6000fd5b505050506040513d601f19601f82011682018060405250810190610e7c9190611b4e565b9050806001600160a01b0316866001600160a01b03161415610ec457600160c01b87610ea9600286612135565b610eb391906121e0565b610ebd91906120d2565b9350610eea565b610ecf600284612135565b610edd88600160c01b6121e0565b610ee791906120d2565b93505b5050509392505050565b60055460405163d06ca61f60e01b815260009182916001600160a01b039091169063d06ca61f90610f2b9087908790600401612010565b60006040518083038186803b158015610f4357600080fd5b505afa158015610f57573d6000803e3d6000fd5b505050506040513d6000823e601f3d908101601f19168201604052610f7f9190810190611c77565b90508060018251610f9091906121ff565b81518110610fae57634e487b7160e01b600052603260045260246000fd5b60200260200101519150505b92915050565b336000818152600a60209081526040808320429055805160e0810182526001600160a01b038881168083528882169483019490945260095462ffffff600160a01b8204169383019390935260608201959095526080810186905260a0810184905260c081019390935291929190911614156110bf576007546040516304e45aaf60e01b81526001600160a01b03909116906304e45aaf903490611067908590600401611fb2565b6020604051808303818588803b15801561108057600080fd5b505af1158015611094573d6000803e3d6000fd5b50505050506040513d601f19601f820116820180604052508101906110b99190611dd6565b50611164565b6110d46001600160a01b03851633308561163d565b6110de8483611675565b6007546040516304e45aaf60e01b81526001600160a01b03909116906304e45aaf903490611110908590600401611fb2565b6020604051808303818588803b15801561112957600080fd5b505af115801561113d573d6000803e3d6000fd5b50505050506040513d601f19601f820116820180604052508101906111629190611dd6565b505b600760009054906101000a90046001600160a01b03166001600160a01b03166312210e8a6040518163ffffffff1660e01b8152600401600060405180830381600087803b1580156111b457600080fd5b505af11580156111c8573d6000803e3d6000fd5b50506040516000925033915047908381818185875af1925050503d806000811461120e576040519150601f19603f3d011682016040523d82523d6000602084013e611213565b606091505b50509050806112545760405162461bcd60e51b815260206004820152600d60248201526c1c99599d5b990819985a5b1959609a1b6044820152606401610505565b5050505050565b6000546001600160a01b031633146112855760405162461bcd60e51b815260040161050590611f7d565b6001600160a01b0381166112ea5760405162461bcd60e51b815260206004820152602660248201527f4f776e61626c653a206e6577206f776e657220697320746865207a65726f206160448201526564647265737360d01b6064820152608401610505565b6112f3816115ed565b50565b6000546001600160a01b031633146113205760405162461bcd60e51b815260040161050590611f7d565b600080546040516001600160a01b039091169083908381818185875af1925050503d806000811461136d576040519150601f19603f3d011682016040523d82523d6000602084013e611372565b606091505b505090508061094b5760405162461bcd60e51b81526020600482015260146024820152732330b4b632b2103a379039b2b7321022ba3432b960611b6044820152606401610505565b6040516001600160a01b0383166024820152604481018290526105b090849063a9059cbb60e01b906064015b60408051601f198184030181529190526020810180516001600160e01b03166001600160e01b0319909316929092179091526116ae565b600082116114815760405162461bcd60e51b815260206004820152602b60248201527f506174746965537761703a20616d6f756e74496e206d7573742062652067726560448201526a061746572207468616e20360ac1b6064820152608401610505565b6001600160a01b03841661155757348210156114df5760405162461bcd60e51b815260206004820152601c60248201527f506174746965537761703a20496e73756666696369656e7420455448000000006044820152606401610505565b6000612710600154846114f291906121e0565b6114fc91906120d2565b6004546040519192506001600160a01b03169082156108fc029083906000818181858888f19350505050158015611537573d6000803e3d6000fd5b50600061154482856121ff565b90506115508184611780565b50506108e2565b61156c6001600160a01b03851633308561163d565b60006127106001548461157f91906121e0565b61158991906120d2565b6004549091506115a6906001600160a01b038781169116836113ba565b60006115b282856121ff565b90506115be868261180f565b6001600160a01b0385166115db576115d68184611848565b6115e5565b6115e581846118d7565b505050505050565b600080546001600160a01b038381166001600160a01b0319831681178455604051919092169283917f8be0079c531659141344cd1fd0a4f28419497f9722a3daafe3b4186f6b6457e09190a35050565b6040516001600160a01b03808516602483015283166044820152606481018290526108e29085906323b872dd60e01b906084016113e6565b60075460405163095ea7b360e01b81526001600160a01b039182166004820152602481018390529083169063095ea7b39060440161055e565b6000611703826040518060400160405280602081526020017f5361666545524332303a206c6f772d6c6576656c2063616c6c206661696c6564815250856001600160a01b03166119109092919063ffffffff16565b8051909150156105b057808060200190518101906117219190611d0a565b6105b05760405162461bcd60e51b815260206004820152602a60248201527f5361666545524332303a204552433230206f7065726174696f6e20646964206e6044820152691bdd081cdd58d8d9595960b21b6064820152608401610505565b600554604051637ff36ab560e01b81526001600160a01b0390911690637ff36ab59084906117b990600090869033904290600401611ed3565b6000604051808303818588803b1580156117d257600080fd5b505af11580156117e6573d6000803e3d6000fd5b50505050506040513d6000823e601f3d908101601f191682016040526105b09190810190611c77565b60055460405163095ea7b360e01b81526001600160a01b039182166004820152602481018390529083169063095ea7b39060440161055e565b6005546040516318cbafe560e01b81526001600160a01b03909116906318cbafe590611881908590600090869033904290600401612029565b600060405180830381600087803b15801561189b57600080fd5b505af11580156118af573d6000803e3d6000fd5b505050506040513d6000823e601f3d908101601f191682016040526105b09190810190611c77565b6005546040516338ed173960e01b81526001600160a01b03909116906338ed173990611881908590600090869033904290600401612029565b606061191f8484600085611929565b90505b9392505050565b60608247101561198a5760405162461bcd60e51b815260206004820152602660248201527f416464726573733a20696e73756666696369656e742062616c616e636520666f6044820152651c8818d85b1b60d21b6064820152608401610505565b6001600160a01b0385163b6119e15760405162461bcd60e51b815260206004820152601d60248201527f416464726573733a2063616c6c20746f206e6f6e2d636f6e74726163740000006044820152606401610505565b600080866001600160a01b031685876040516119fd9190611eb7565b60006040518083038185875af1925050503d8060008114611a3a576040519150601f19603f3d011682016040523d82523d6000602084013e611a3f565b606091505b5091509150611a4f828286611a5a565b979650505050505050565b60608315611a69575081611922565b825115611a795782518084602001fd5b8160405162461bcd60e51b81526004016105059190611f08565b600082601f830112611aa3578081fd5b81356020611ab8611ab383612096565b612065565b80838252828201915082860187848660051b8901011115611ad7578586fd5b855b85811015611afe578135611aec8161226e565b84529284019290840190600101611ad9565b5090979650505050505050565b80518015158114611b1b57600080fd5b919050565b805161ffff81168114611b1b57600080fd5b600060208284031215611b43578081fd5b81356119228161226e565b600060208284031215611b5f578081fd5b81516119228161226e565b60008060408385031215611b7c578081fd5b8235611b878161226e565b91506020830135611b978161226e565b809150509250929050565b600080600060608486031215611bb6578081fd5b8335611bc18161226e565b92506020840135611bd18161226e565b929592945050506040919091013590565b60008060008060808587031215611bf7578081fd5b8435611c028161226e565b93506020850135611c128161226e565b925060408501359150606085013567ffffffffffffffff811115611c34578182fd5b611c4087828801611a93565b91505092959194509250565b60008060408385031215611c5e578182fd5b8235611c698161226e565b946020939093013593505050565b60006020808385031215611c89578182fd5b825167ffffffffffffffff811115611c9f578283fd5b8301601f81018513611caf578283fd5b8051611cbd611ab382612096565b80828252848201915084840188868560051b8701011115611cdc578687fd5b8694505b83851015611cfe578051835260019490940193918501918501611ce0565b50979650505050505050565b600060208284031215611d1b578081fd5b61192282611b0b565b600080600080600080600060e0888a031215611d3e578283fd5b8751611d498161226e565b8097505060208801518060020b8114611d60578384fd5b9550611d6e60408901611b20565b9450611d7c60608901611b20565b9350611d8a60808901611b20565b925060a088015163ffffffff81168114611da2578283fd5b9150611db060c08901611b0b565b905092959891949750929550565b600060208284031215611dcf578081fd5b5035919050565b600060208284031215611de7578081fd5b5051919050565b600080600060608486031215611e02578081fd5b833592506020840135611e148161226e565b91506040840135611e248161226e565b809150509250925092565b60008060408385031215611e41578182fd5b82359150602083013567ffffffffffffffff811115611e5e578182fd5b611e6a85828601611a93565b9150509250929050565b6000815180845260208085019450808401835b83811015611eac5781516001600160a01b031687529582019590820190600101611e87565b509495945050505050565b60008251611ec9818460208701612216565b9190910192915050565b848152608060208201526000611eec6080830186611e74565b6001600160a01b03949094166040830152506060015292915050565b6020815260008251806020840152611f27816040850160208701612216565b601f01601f19169190910160400192915050565b60208082526022908201527f506174746965537761703a2050617468206d7573742062652073706563696669604082015261195960f21b606082015260800190565b6020808252818101527f4f776e61626c653a2063616c6c6572206973206e6f7420746865206f776e6572604082015260600190565b81516001600160a01b03908116825260208084015182169083015260408084015162ffffff16908301526060808401518216908301526080808401519083015260a0838101519083015260c092830151169181019190915260e00190565b82815260406020820152600061191f6040830184611e74565b85815284602082015260a06040820152600061204860a0830186611e74565b6001600160a01b0394909416606083015250608001529392505050565b604051601f8201601f1916810167ffffffffffffffff8111828210171561208e5761208e612258565b604052919050565b600067ffffffffffffffff8211156120b0576120b0612258565b5060051b60200190565b600082198211156120cd576120cd612242565b500190565b6000826120ed57634e487b7160e01b81526012600452602481fd5b500490565b600181815b8085111561212d57816000190482111561211357612113612242565b8085161561212057918102915b93841c93908002906120f7565b509250929050565b600061192260ff84168360008261214e57506001610fba565b8161215b57506000610fba565b8160018114612171576002811461217b57612197565b6001915050610fba565b60ff84111561218c5761218c612242565b50506001821b610fba565b5060208310610133831016604e8410600b84101617156121ba575081810a610fba565b6121c483836120f2565b80600019048211156121d8576121d8612242565b029392505050565b60008160001904831182151516156121fa576121fa612242565b500290565b60008282101561221157612211612242565b500390565b60005b83811015612231578181015183820152602001612219565b838111156108e25750506000910152565b634e487b7160e01b600052601160045260246000fd5b634e487b7160e01b600052604160045260246000fd5b6001600160a01b03811681146112f357600080fdfea26469706673582212209dbda73b49fc160183e00ef6842ab42a1920167db1dbb584c649c9398e194f1c64736f6c63430008040033",
  "linkReferences": {},
  "deployedLinkReferences": {}
}